S00B00003030302E7372656389
S31500000000E84B002009580000415600000558000042
S315000000100558000005580000055800000558000066
S31500000020000000000000000000000000055800006D
S3150000003005580000000000000558000005580000A3
S315000000403149000005530000AD5300005D54000027
S3150000005031490000ED3D00005D3D00007D3E0000A1
S31500000060C93E00002D350000BD3500009936000060
S31500000070693700000348044B834202D0034B03B1A7
S3150000008018477047C8020020C80200200000000080
S31500000090064B0749C91A891048BF0131491003D0D8
S315000000A0044B0BB101481847704700BFC802002037
S315000000B0C80200200000000010B5064C237843B9A2
S315000000C0FFF7D8FF044B13B10448AFF300800123B8
S315000000D0237010BDE80200200000000030BD0000C3
S315000000E008B5054B1BB105490548AFF30080BDE8CF
S315000000F00840FFF7CDBF00BF00000000EC02002063
S3150000010030BD000038B513782DED028B1446054638
S315000001108BB991ED000A30EE808AFBFE488AB0EE7C
S31500000120680A02F01DFE48B1012385ED008A23709E
S31500000130BDEC028B38BD81ED000AECE7B0EE680A33
S3150000014002F0F4FD0028EFD1DFED120AB0EE680AE6
S3150000015008F0F0FCB5EEC00AF1EE10FA0BD4BCEED6
S31500000160C00A10EE103A1BB200EE103AB8EEC00A02
S3150000017038EE408AD8E7B1EE400ABCEEC00A10EE6F
S31500000180103A5B421BB207EE903AF8EEE77A38EE89
S31500000190678AC9E70000804710B52DED028BFBFE8C
S315000001A0408AB0EE408AB0EE680A044602F0D8FDF6
S315000001B020B184ED008ABDEC028B10BDB0EE680A5A
S315000001C002F0B4FD0028F4D1DFED120AB0EE680AA1
S315000001D008F0B0FCB5EEC00AF1EE10FA0BD4BCEE96
S315000001E0C00A10EE103A1BB200EE103AB8EEC00A82
S315000001F038EE408ADDE7B1EE400ABCEEC00A10EEEA
S31500000200103A5B421BB207EE903AF8EEE77A38EE08
S31500000210678ACEE70000804710B52DED028BF6EE1B
S31500000220C08AB0EE408AB0EE680A044602F098FD35
S3150000023020B184ED008ABDEC028B10BDB0EE680AD9
S3150000024002F074FD0028F4D1DFED120AB0EE680A60
S3150000025008F070FCB5EEC00AF1EE10FA0BD4BCEE55
S31500000260C00A10EE103A1BB200EE103AB8EEC00A01
S3150000027038EE408ADDE7B1EE400ABCEEC00A10EE69
S31500000280103A5B421BB207EE903AF8EEE77A38EE88
S31500000290678ACEE7000080472DE9F04F2DED0C8BE5
S315000002A0B2FA82F514461A885B88A2F50062A3F5B5
S315000002B0006312B21BB208EE102A07EE903A9FEDC9
S315000002C0B17AB8EEC88AF8EEE77A28EE078A67EEC2
S315000002D0877A78EE278ADFEDAC6A78EEA78A87B050
S315000002E0F0EE40BAB0EE600AB0EE609A68EEA68A0A
S315000002F08846B0FA80F6074608F0B4FCF0EE40AA4D
S31500000300B0EE490A08F06AFC28EE2A7A28EE80AA9E
S3150000031068EEAA7A98ED019A68EE009A3AEE47AA34
S31500000320B0EE40BA79EEA79A39EE4A9ADDF87490A3
S3150000033076096D09002C40F04581DFF880A2002F78
S3150000034000F07A829AF873203AB900220121CAF89D
S3150000035040208AF87310CAF844209AED0C0AB5EECC
S31500000360C00AF1EE10FA04A800F1F682FFF754FF76
S315000003709DED04CADFED857A2CEE27CAF6EECCCACF
S31500000380B0EE6C0A8DED04CA02F0EAFC002800F01B
S315000003902783C923C8224FF0000BCDE9023201237F
S315000003A00DEE10BA0193DAED107ADFED796A9FED62
S315000003B0797A67EEA67A2BEE877A9FED770A77EE43
S315000003C0877A764A27EE800AA2F13000DAED110A22
S315000003D07349CAED107AFFF795FE9AED110AB5EE4C
S315000003E0C00AF1EE10FA05A800F1B982FFF714FF72
S315000003F0DDED05CADFED657A6CEEA7CAF6EEECDA3E
S31500000400B0EE6D0ACDED05CA02F0AAFC002800F098
S31500000410C3824FF0C80E4FF0C90C00200121F0EE48
S31500000420EBBAF6EE002AF4EEE2BAF1EE10FA08DCC8
S315000004305C4AD2ED0C2AF4EEEB2AF1EE10FA72FECB
S31500000440AB2A594A019B02EB800002EB810102EBC9
S315000004508E0E02EB8C0CD0ED001A91ED005A9EED3B
S31500000460001ADCED007A02EB8301039B02EB8B0B97
S3150000047002EB8300029BD0ED003A02EB830292ED81
S31500000480006AB8EE4DDA35EE615A77EEC17A9BED29
S31500000490002A3CEE4DCA36EE636AD1ED005A25EECF
S315000004A02C5A67EEAC7A9FED417A77EE817A35EE7B
S315000004B0215A75EEC25A26EE0C6A65EE8C5A36EE55
S315000004C0236A67EE873A67EEA27A65EE222A25EE60
S315000004D0075A73EEA23A77EEC57A75EE825AF6EEB1
S315000004E0006A9FED333A334A23EE833A67EEA66AF3
S315000004F0C2ED043A26EE275A26EE236A65EEA33AA3
S3150000050037EE667A65EEA75A73EE666A35EE235ABB
S3150000051036EE656A37EE437AC6FEA75A82ED015A71
S3150000052086FEE75A82ED026A87FE256AC7FE455AAD
S31500000530BEEE004A36EE256A26EE046ADFED1E4A56
S31500000540C2ED037A76EE866A76EE277A37EE067A7B
S3150000055067EEA47A27EE247A66EEA46A1F9BC2EDA4
S31500000560057AC2ED066A82ED077A83ED00AA98ED58
S31500000570007ADFF84CB077EE699ADBED007A69EE27
S31500000580A77A52E10000003A3ACD133F00004844F2
S31500000590A4707D3F0AD7233CC364AA3C9003002085
S315000005A0BC03002038000020E09B00000000000093
S315000005B0D7B35D3F940300203ACD933F1C03002040
S315000005C0900000200022DFF8C4A31F9B8AF8732046
S315000005D083ED00AA98ED007ADFF8B4B377EE699A56
S315000005E0DBED007A9AF86F2069EEA77A12B1002245
S315000005F0CAF834209AF96D20002A40F01581DAED08
S315000006000D6AD84A9BED02AA29EE0AAAB7EE007A2D
S315000006103AEE26AAB4EEC7AAF1EE10FA40F35881D4
S31500000620F0EE476A9AF8701011B10021CAF8381036
S31500000630002C00F012819AF96E10002940F00D810D
S315000006409AED0E6A77EE867AF7EE005AF4EEE57AC0
S31500000650F1EE10FA40F34981B0EE656A37EE257A7D
S31500000660DFEDC15AB4EEE57AF1EE10FA00F34A81F5
S3150000067066EE8B5A2AEE867A66EEAA6A2BEE066A32
S3150000068075EE875A36EE666A002F00F0EB80002C76
S3150000069000F04981B6EE004A9FEDB45A66EE046A50
S315000006A025EE855A9FEDB27A37EE667A75EE666A62
S315000006B037EE457AC6FE864A86FEC65AC4FE874A85
S315000006C085FE475ABEEE003A74EE854A64EE834ACA
S315000006D0DFEDA83A34EE865A76EEA46A37EE247A2F
S315000006E025EE235A66EEA36A27EE237A25EE045AF0
S315000006F066EE846A27EE047A35EE045A76EE846A4C
S3150000070037EE047A89ED005AC9ED016A89ED027A5D
S31500000710DFED994A9AED0F7A9FED955A27EE247AE6
S31500000720DFED966A37EE057A67EE266A1E9B4FF076
S3150000073080418AED0F7AC3ED006A209B1960118C07
S31500000740219B1980518C59808AED048ACAED058A4D
S315000007501CB992ED036AD2ED045AB7EE007AF4EEB4
S31500000760C77AF1EE10FACAED035A8AED026A40F32F
S31500000770978037EEC78A824A76B2D2E9000105F041
S315000007804DF9F7EE006A07EE900A9BED017A9BEDB4
S31500000790036AB4EEE6AA27EE877AF1EE10FA67EE60
S315000007A0867A27EE297A67EE897ADAF83010DAF84F
S315000007B03C205EDDF5EEC07ACAF80010F1EE10FAC4
S315000007C04FF00001CAF804208AF86C608AF86F10AE
S315000007D001DDDFED677ADAED0D6AB5EEC08A00223B
S315000007E076EEA77AF1EE10FA6DB2CAED0D7AB5EE95
S315000007F0C07A8AF86D508AF870205DDDF1EE10FA45
S3150000080001DD9FED5B7ADAED0E7A77EE877A5D4948
S31500000810CAED0E7A4A688AF86E5001324A6007B00D
S31500000820BDEC0C8BBDE8F08F4E4A9FED517A8AEDF8
S315000008300D7AF0EE476AE5E61F9B8AF8737083ED42
S3150000084000AA98ED007ADFF848B177EE699ADBEDF9
S31500000850007A444A69EEA77AE7E79FED456A8AED92
S315000008600E6AEFE6B6EE007AF0EE476AB0EE475A49
S3150000087048E7FFEE006AB4EEE6AACAF80010F1EE09
S3150000088010FA4FF00001CAF804208AF86C608AF862
S315000008906F10A0DAF5EEC07AF1EE10FA9BDC98E75D
S315000008A0FFEE006AF4EEE67AF1EE10FAB4BF37EE28
S315000008B0878A9FED2F8A5EE7F1EE10FAA3DCB5EE8C
S315000008C0408ADFED2B7AF1EE10FA07FE277A9AE7D7
S315000008D0FFEE006AB4EEE6AAF1EE10FA3FF5A2AE1C
S315000008E02AEE0A7AF0EE4A6A9CE6BFEE006AF4EE59
S315000008F0C67AF1EE10FA3FF5B1AE67EEA75AB0EE42
S31500000900676AABE6DFED205AB1EEC75AF7EE004A4A
S3150000091026EE256A84EE857A66EEA56A26EE076AD5
S3150000092067EE266AA4E692ED055A89ED005AD2EDE5
S31500000930066AC9ED016AF6EE004A92ED077A25EEDF
S31500000940245A66EEA46A27EE247A35EE245A76EE09
S31500000950A46A37EE247AD5E6FFF71EFC08E5FFF712
S315000009601BFC45E5940300203D0A673FD7B35D3F76
S31500000970000000003ACD933F1B9C7D3F8E95483A80
S3150000098088000020040300203333733F1C0300203B
S315000009909000002000008047B0EE6D0A02F0C6F914
S315000009A000287FF436AD5FED050AB0EE6D0A08F05B
S315000009B0C1F8B5EEC00AF1EE10FA3FD4BCEEC00A9B
S315000009C010EE103A99B207EE901A0846F8EE677ADA
S315000009D001317CEEE7CA00F1C90C00F1C80E1EE534
S315000009E0B0EE6C0A02F0A2F900287FF4D2AC5FEDFB
S315000009F0170AB0EE6C0A08F09DF8B5EEC00AF1EEE3
S31500000A0010FA12D4BCEEC00A10EE103A9BB20DEEEC
S31500000A10103A9B46013301931DEE103AC9330293F7
S31500000A201DEE103AC8330393BDE4B1EE400ABCEEA6
S31500000A30C00A10EE103A5A4293B2E8E7B1EE400A05
S31500000A40FCEEC07A17EE901A494289B2084607EEC4
S31500000A50900AF8EE677A01317CEEE7CA00F1C90C1C
S31500000A6000F1C80EDBE400BF082010B502F032F931
S31500000A704FF0033240F20110044B054C0549C3E91F
S31500000A800022DC609A60A1F86F0010BD0C03002004
S31500000A90030303011C03002070B52DED028B6D4C82
S31500000AA0A5686E1C1CBF0135A560A57B002D6DD108
S31500000AB040F20110E0814FF0000C0020C2F800C0A7
S31500000AC0187094ED007A9FED646ADFED646A27EE94
S31500000AD0067A60EEA66A37EE267A614D37EE608AB0
S31500000AE0D5ED047A012684ED007A68EE277A9FED2B
S31500000AF05D7A84ED017A77EE877A9FED5B7AF4EE84
S31500000B00C77A0023F1EE10FA0B6028DC9FED577AC6
S31500000B10F4EEC77AF1EE10FA65D581ED017A544B01
S31500000B20D3E9000104F07AFF95ED057A07EE900A05
S31500000B3067EE877A67EE880AF5EEC00A0023F1EEC3
S31500000B4010FA637301DCDFED470AD4ED017A77EE24
S31500000B50A07AC4ED017A2673BDEC028B70BD81EDDF
S31500000B60017A434BD3E9000104F058FF95ED057A6D
S31500000B7007EE900A67EE877A67EE880AF5EEC00AF6
S31500000B800023F1EE10FA6373DDDCDEE7E57B012D71
S31500000B903CD000284CD0207C02284FD0012082ED8A
S31500000BA0000A187094ED007AD2ED006ADFED2A5A39
S31500000BB09FED2A6A27EE257A66EE866A37EE267A52
S31500000BC0274D37EE608AD5ED047A637B84ED007A93
S31500000BD068EE277A0BB10023636094F90C605EBB64
S31500000BE094ED017A87E7C1ED017A98DB204BD3E9D2
S31500000BF0000104F013FF95ED057A07EE900A002335
S31500000C0067EE877A637367EE880A9EE700283FF4EB
S31500000C1052AFF0EE007AF4EEE71AF1EE10FAFFF6B4
S31500000C204AAF40F202300025A4F80F00A560B5E7F0
S31500000C300120A4F80F003EE7002658E740F2E63010
S31500000C40A568854202D901202074A7E79FED090A0D
S31500000C50A4E700BFC4030020A4707D3F0AD7233C4D
S31500000C6090000020000000000D98463E0D9846BEFC
S31500000C70800000209A99193E0122014B5A73704751
S31500000C80C403002070B41B4E3378072B24D890F988
S31500000C90001051B30122184D184C03E00132B2F591
S31500000CA0807F20D02B7804EB0323134403F8011C28
S31500000CB010F9011F0029F1D100212B7804EB032440
S31500000CC02B78A154013303F007032B7033780133DB
S31500000CD0DBB2337070BC7047094A138801339BB28C
S31500000CE0138070BC7047FF22E6E70A46024D034CAC
S31500000CF0E2E700BF140600201606002018060020B2
S31500000D001206002030B54FF0000C0725164C85B0B2
S31500000D100223164A00951649164884F800C002F0C8
S31500000D207DFA154BC2B21A7090B9144B039303E0C7
S31500000D30039B013B039313B12378002BF8D0039B4D
S31500000D4043B10A4B0E4918785A780E4B08701A7040
S31500000D5005B030BD01210C4B0C4A197013780B44B9
S31500000D60DBB21370EDE700BF9E05002048050020AA
S31500000D7058050020CC39002093050020009F240050
S31500000D809605002095050020940500209205002078
S31500000D90002208B5044B60F07F0018705A70FFF708
S31500000DA0B1FF024B587808BD5805002048050020C1
S31500000DB0B5EEC00AF1EE10FAF8B504462DED028B39
S31500000DC01546B0EE408A3FD400274E1EFCEEC88A78
S31500000DD0224A18EE903A05F083FD3844B0422DDAE7
S31500000DE02E2300F1010C6645235404EB00011FDDA0
S31500000DF0F8EE688AB2EE047A38EE680A6A1C024493
S31500000E0020EE070AFDEEC07A17EE903A092BA8BF2E
S31500000E10092307EE903AF8EEE77A0CF1010C30332D
S31500000E20944530EE670A01F8013F08D06645E7DCD5
S31500000E3062460023A354BDEC028BF8BD0B220023AF
S31500000E40A354BDEC028BF8BD2D234E1EB1EE408A95
S31500000E503146012700F8013BB8E700BF88AB000028
S31500000E602DE9F04F9F4BEDB01B78042B04D19E4A21
S31500000E70138801339BB213809C4B1A781AB11A78E7
S31500000E80013AD2B21A709A4E9A4D33889BB223B168
S31500000E902B7803F0FF01002B77D02B78002B40F046
S31500000EA08D80954D954CB4F90030002B03DB944AA8
S31500000EB01278072A3DD9934B1B7843B1924A13887F
S31500000EC001339BB2B3F5FA6F138080F0E1802B7883
S31500000ED063B38B4B1B78072B28D88C498C4A0B881D
S31500000EE0128801339BB292B293420B801ED300222A
S31500000EF0884B89481B7890ED000A03F0FF040A80AE
S31500000F00002B00F04C82F6EE007A30EE270ABDEE9A
S31500000F10C00A10EE101A814F814E3A78531CDBB28C
S31500000F20042B3B7026F8121000F27E816DB0BDE8EE
S31500000F30F08F122B00F3BC807A4E03EB430106EBD5
S31500000F408101087A5A00002800F049817649774FD6
S31500000F50012808BF39461A4456F8223006EB8206A5
S31500000F600091734A717A734E2CA8002918BF164651
S31500000F704FF48071704A019605F0B2FC2CA8FFF779
S31500000F8081FE23880133238095E76C4A1388013359
S31500000F909BB2138013889BB2C72B7FF67EAF338834
S31500000FA0674A9BB2D1540123664A2B7013880133DA
S31500000FB09BB213802B78002B3FF473AF002432884A
S31500000FC05F4992B201320CA805F0F8FC0CA83480F7
S31500000FD02C7005F000FD00283FF463AF0CAB5A4DB2
S31500000FE01A1805E0CB070BD5013814703FF459AF3A
S31500000FF012F8013D093BDBB2172B25FA03F1F1D9B3
S31500001000524C04222388524901339BB20CA82380F8
S3150000101005F0AFFC044600284ED14E4A25461388FB
S31500001020404E01339BB20DAF138003E00135132D03
S3150000103000F0CA8056F82400394605F0B5FC0334A2
S315000010400028F3D105EB450506EB85052B7A012B28
S3150000105000F09381022B00F0F581002B40F0F08127
S315000010606B6808AD93ED000A0422102128462CACCB
S31500001070FFF79EFE4FF480713B462046364A0095A8
S3150000108005F02EFC2046FFF7FDFD1B4D1B4C0AE725
S315000010901B4B1B78072B3FF61AAF00232F481380F4
S315000010A0FFF7F0FD2E4A138801339BB213800EE73B
S315000010B04FF6FF732380FEE604222A490CA805F0AA
S315000010C058FC0546002840F08C800DAF202138469C
S315000010D005F042FC8046002800F05B812C46114E4C
S315000010E0057044E00E06002008060020A905002031
S315000010F01A0E0020190E0020A8050020B4000020BA
S3150000110014060020B0050020D8040020A605002003
S31500001110BA000020B6000020603800203805002004
S315000011203C0500207CAD00008CAB000094AB0000B9
S3150000113098AB00009CAB00002CAC00001006002011
S315000011401C0E0020AA05002013008000AE0500201A
S315000011507CAC0000AC050020A0AB00003CAC00005D
S31500001160BE050020D8AB00000135132D2CD056F853
S315000011702400394605F018FC03340028F4D105EBA9
S31500001180450506EB85056B7A002B00F088812B7AE6
S3150000119008F10108012B00F0F081022B00F0FD811F
S315000011A0002B40F04D81404604F088FC51EC100BBA
S315000011B004F034FC00EE100A6B6808AD042210211E
S315000011C0284683ED000A52E73B464FF48071B74A42
S315000011D02CA805F085FB2CA8FFF754FD61E6B44961
S315000011E0B9E60922B3490CA805F0C3FB002800F0B4
S315000011F0B0809DF83030522B40F030819DF8313070
S31500001200002B40F02B81AC4D2B7803F0FF02002B16
S315000012107FF448AE0123A949A9480A70A949AA4CF6
S3150000122002800A702B703EE6DFF8D8A203229AED00
S31500001230000A0C212CA8FFF7BBFD05234FF4807193
S31500001240A24AA34805F04CFB0224DFF88482DFF8AB
S31500001250D49206F10A0B36F9023BC4F5807108EB0D
S3150000126004004A4605F03CFB5E450444F3D1C4F550
S31500001270807108EB0400974CF6EE002AD4ED007A54
S31500001280954A964B92ED007A9AED004AD2ED016AA4
S31500001290F2EE043A92ED026A9FED913AD3ED005ACE
S315000012A09FED902A93ED015A77EEA27AD3ED024A8A
S315000012B024EE024A27EE037A66EE836A26EE036A76
S315000012C065EEA35A25EE235A64EEA34AFCEEE77AAE
S315000012D0FDEEE44ABDEEC55AFDEEE55ABDEEC66A20
S315000012E0FDEEE66ABDEEC77ACDED007AFDEEC47A74
S315000012F07D4A17EE903ACDED064A8DED055ACDEDB5
S31500001300045A8DED036ACDED026A8DED017A05F082
S31500001310E7FA6F48FFF7B6FC0021744A3970138864
S3150000132005339BB21380724B1A78002A3FF4FEAD48
S31500001330624A187813780133DBB283421370FFF4E4
S31500001340F5AD6C4829700388117001339BB2038098
S31500001350ECE59DF93930202B00F0E680642200236D
S3150000136001206549574C0A80534D5549534A23700D
S3150000137028700B80544C137095E56B682CAC1D7867
S315000013804FF480713B4620465C4A009505F0A8FA6A
S3150000139078E65B48FFF776FC474D4B4C83E5012228
S315000013A00C2108A8FFF704FD564B0CAE93ED000A7E
S315000013B00C2103223046FFF7FBFC464BB6EE006AD3
S315000013C0D3ED007A504B77EE867A93ED007A4F4B49
S315000013D037EE067AD3ED006A76EE866ABCEEC77AF9
S315000013E0FCEEE66AFCEEE77A4FF48071484A08ABF9
S315000013F0CDED036A8DED027ACDED017A00962CA82B
S3150000140005F06EFA2CA8FFF73DFC384A38491388D8
S3150000141001339BB213800B78002B3FF487AD274A2C
S31500001420097813780133DBB28B421370FFF47EAD7B
S3150000143030492C700B88147001339BB20B8075E514
S315000014402CAC1FE66B682CAC1D684FF480713B46D4
S315000014502046304A009505F043FA13E69DF93030F0
S31500001460462B71D02C490CA805F09EFA70B12B4979
S315000014700CA805F099FA48B19DF83030532B40F08E
S315000014809E809DF83130002B40F0998000230A4D54
S315000014900A490C4A2B700B700B4C137003E53B4644
S315000014A04FF480711E4A2CA893E600BFC4AB00001F
S315000014B090AB00000CAC0000A8050020A40500209D
S315000014C0A605002038050020B400002044AC00002A
S315000014D0D8030020CC0E0020780500206C050020E3
S315000014E000007A440000C8424CAC0000A20500206F
S315000014F0B9000020A0050020BA000020ACAB000017
S31500001500E0AB000024380020C8000020C400002002
S3150000151068AC0000B8AB000018AC00001CAC0000C2
S31500001520F8AB000048AC00000DF13A0004F0C9FA2F
S3150000153083B2642B28BF6423012B4FF47A7238BF21
S315000015400123B2FBF3F20AE79DF83130303B092B59
S3150000155088D80DF1310004F0B4FA83B2642B28BFA9
S315000015606423012B4FF47A7238BF0123B2FBF3F2E6
S315000015701849194D194C0A8095E4404604F0A1FA21
S315000015806B68C0B22CAC18704FF4807100903B466B
S315000015902046134A05F0A4F974E501460A2240469E
S315000015A005F094F96E6805462CAC35604FF48071F1
S315000015B03B4620460B4A009505F092F962E50A493A
S315000015C00CA805F0F1F900287FF46BAC034C024D32
S315000015D0208068E4BA000020A8050020B40000209E
S315000015E0ACAB0000B8AB000024AC00002DE9F04F16
S315000015F02DED028BB74FDFF87C833E464146B64859
S3150000160089B001F04BFDD8F8044004F1200C3546B2
S3150000161020686168A268E368103464450FC506F166
S315000016201006F4D120686168A268002307C64FF44B
S31500001630FA62AA49D8F80040A94DA7483A85C1E9F7
S315000016400047FB623D6101F00FFDFFF70DFAFFF762
S3150000165013FBA449A44803F077FB0346A349A24819
S31500001660059303F06BFC034600219F48069303F0A5
S31500001670DFFD9D4C0790204604A903F00FFB9DF863
S315000016801030022BF7D09A499A488DF8123002F0A2
S315000016904BFD984802F020FD002240F60551964881
S315000016A002F066FC0120954903F09EFF012240F6F8
S315000016B00551914802F05CFC4FF47A710A2003F060
S315000016C093FF4FF008228E4B012187481A6003F0E2
S315000016D0CBFA0421844803F0C7FA0221894803F0B3
S315000016E01BF90221884803F017F90221874803F005
S315000016F013F98749874802F0EFFE864802F04EFD4F
S31500001700844802F03FFD152240F606617A4802F051
S315000017109BFC012240F60661774802F029FC012273
S3150000172040F60261744802F023FC4FF47A714FF4DC
S31500001730FA6003F059FF052240F606616E4802F092
S3150000174083FC012240F606616B4802F011FC4FF45F
S315000017507A714FF4FA6003F047FF6F4D40F605616A
S315000017600DF11302644802F0F1FB6C4B9DF8132057
S3150000177028466B491A7002F029F90446002800F041
S31500001780B5816323674A68490392009113706749DC
S31500001790674801F06BFD674BC2B205461A70002818
S315000017A000F0CC81644B654C0193DFED658A9FEDBB
S315000017B0658ADFF8C4B1644F644DDFF8C0A1DFF875
S315000017C0C091DFF8C081624EDBF80030012B38D0C3
S315000017D03B78002B40F0D88098F80030002BF3D0EF
S315000017E0009B1B78002BEFD15A4A1378002BEBD1C4
S315000017F059485A49007801EB002005F0ECF880B111
S3150000180001230099024654480B700178534B424815
S3150000181003EB012102F018F8514B4E4A1B78DBB25C
S3150000182013704D4A1378013303F00703137098F8C9
S315000018300030013BDBB288F80030DBF80030012BCA
S31500001840C6D1354802F042F8102240F605612A4812
S3150000185002F0FAFB00224348434BD0F8FC1041F05B
S315000018608071C0F8FC105A60D3F800C04FF47A714A
S315000018704CF0010CC3F800C04FF4FA7003F0B4FE4C
S3150000188002230022CBF80030384B1A60B6F8C43079
S3150000189013F02003FAD1344A5360B6F8C4309B06DD
S315000018A0FBD50323304A3149526813480A60304A4F
S315000018B040F60561CBF8003002F0C6FB1849164821
S315000018C002F084F80423039A13703B78002B83D02C
S315000018D05AE000BF080500209838002000050020C7
S315000018E00000204154B0000054390020A8B1000087
S315000018F09CAE0000D83800209038002040420F00EF
S31500001900DC000020F438002014390020343900208F
S31500001910C8B200007C3900209C390020BD000020A0
S3150000192024B300000E060020180E002058B3000055
S31500001930CC390020B80000209C0500205805002066
S315000019400000003A33338341680500204805002033
S3150000195000F10140A9050020150600201806002008
S31500001960BC00002000ED00E0001000E0B4050020FF
S315000019700000010564AE0000B80500208C050020BB
S31500001980840500201406002000233B70019B1B7871
S31500001990002B3FF421AF9F232380FFF7B3F9A02349
S315000019A06A7823800292FFF7ADF9A123029A238079
S315000019B06B7843EA02231BB2AAF80030FFF7A2F9BC
S315000019C0A2236A7823800292FFF79CF9A323029A46
S315000019D023806B7843EA02231BB2AAF80230FFF792
S315000019E091F9A4236A7823800292FFF78BF9A52345
S315000019F0029A23806B7843EA02231BB2AAF80430CA
S31500001A00FFF780F9A6236A7823800292FFF77AF916
S31500001A10A723029A23806B7843EA02231BB2A9F814
S31500001A200030FFF76FF9A8236A7823800292FFF748
S31500001A3069F9A923029A23806B7843EA02231BB231
S31500001A40A9F80230FFF75EF9AA236A78238002928A
S31500001A50FFF758F9029A6B7843EA02231BB2A9F8FA
S31500001A600430BAF80030624A1BB207EE903AF8EE3C
S31500001A70E77A67EEA87AC2ED007ABAF802301BB2AE
S31500001A8007EE903AF8EEE77A67EEA87AC2ED017AA9
S31500001A90BAF804301BB207EE903AF8EEE77A67EE32
S31500001AA0A87AC2ED027AB9F80030524A1BB207EEA4
S31500001AB0903AF8EEE77A87EE887A82ED007AB9F8FE
S31500001AC002301BB207EE903AF8EEE77A87EE887A94
S31500001AD082ED017AB9F804301BB207EE903AF8EEBF
S31500001AE0E77A87EE887A82ED027A75E60223424F1C
S31500001AF0424A40F6066142483B70039702F0A4FA58
S31500001B004FF47A714FF4FA7003F06EFD3D4B2146A7
S31500001B1040223D481C7004F017FF3C4B3C4E00939E
S31500001B2004233480394E3B4A2D6A34702C6951782F
S31500001B3039483A4A046011703B7028E64FF47A71CE
S31500001B400A2003F051FD012740F21113344E354CA3
S31500001B5037702380FFF7D6F84FF47A710A2003F026
S31500001B6043FD022375203370FFF712F903222E4B33
S31500001B70187032701B78422B03D02C4B01931D70CA
S31500001B8013E676232380FFF7BDF84FF40563238021
S31500001B90FFF7B8F84FF47A71384603F025FD40F6A2
S31500001BA04F032380FFF7AEF84FF47A71384603F0FF
S31500001BB01BFD40F64E732380FFF7A4F84FF47A71AD
S31500001BC0C82003F011FD4E20FFF7E2F80346184A3D
S31500001BD050201370FFF7DCF80346164A2D201370C9
S31500001BE0FFF7D6F81149144A019110700F70DCE521
S31500001BF0780500206C0500200E0600201000010567
S31500001C0090380020C4050020C8050020180E0020CA
S31500001C100C060020E0000020C0050020BC050020C6
S31500001C2098050020580500209D0500209C050020F1
S31500001C309B0500209A05002099050020022800D067
S31500001C4070470249024802F0F5B900BFBCB3000074
S31500001C50903800202DE9F04F2DED028B048B91B0CA
S31500001C60012C04D011B0BDEC028BBDE8F08F474EBD
S31500001C700DF1230233684FF4306101334448336079
S31500001C8002F064F99DF82330424AB3FA83F35B0904
S31500001C9013701378002B35D13F4B1B78002B36D1B0
S31500001CA03E4B3F4D07933F4C012122463E4803F0F1
S31500001CB0EFFA2178002900F0D78300234A1EDFF8C7
S31500001CC00091DFF80081394FDFF8FCA0D2B204EBB7
S31500001CD0830C9CF80700032BBCF804E0C0F3C01B80
S31500001CE0C0F3060C22D8324893422AF813E000F8D3
S31500001CF003C029F813E008F803C007F803B021D0A1
S31500001D000133E4E7244B1C701B78002BC8D04FF03E
S31500001D107C5300210020224D264A204C1160079456
S31500001D20207051602B606B60AB60BCE7934229F872
S31500001D3013E008F803C007F803B003F1010301D06C
S31500001D40082BC4D100231C481C4FDFF880C0DFF8E5
S31500001D508080DFF880E0017004EB8300C179808821
S31500001D6001F07F010E293CD8DFE811F03A003B0074
S31500001D703B003B00DD023B003B003B003B003B00E1
S31500001D803B003B00DA02D702D40200BF64360020D3
S31500001D9090380020E50E0020E40E00206838002070
S31500001DA048380020DC040020543900203436002056
S31500001DB028360020343800205436002058380020B9
S31500001DC0443600203C3600202C360020C80E002069
S31500001DD0C60E0020CA0E002000F07F453333534064
S31500001DE03880934203F1010301D0082BB4D1BEF829
S31500001DF000305FED076A9BB207EE903AB8EE677A5D
S31500001E005FED0A5AC7EE267AB2EE0A6A67EEA57A3F
S31500001E1067EE867ACD4CC4ED007ABCF800309BB2F2
S31500001E200A2B07D940F6F472BCF800309BB29342F5
S31500001E3040F2EA82B8F800309BB20A2B07D940F686
S31500001E40F472B8F800309BB2934240F2AB82DFF8EE
S31500001E50A88398F80030002B40F09582BC4BDFED4C
S31500001E60BD7A93ED007AB4EEE77AF1EE10FA40F11E
S31500001E709582D3ED007A9FEDB87A77EE877AC3ED37
S31500001E80007A93ED007ADFF874933368D9ED0D7A12
S31500001E90642B94BF0023012367EE877A079ADFF845
S31500001EA060A3DFF860B3DFF860C3AC4E1370594629
S31500001EB05246AB4BAB4886ED007ACCED007A00F08B
S31500001EC069FFA94BDBED006AD3ED007A9FEDA77A97
S31500001ED076EEE77AF4EEC77A9AED006AF1EE10FA3A
S31500001EE0A34A82ED006A40F342829FEDA27A77EE22
S31500001EF0C77AA1489FEDA17AD0ED005A77EEA57A70
S31500001F0027EE877ABDEEC77A9D49C3ED006A9D4AE2
S31500001F100B88DFF8F8E202EB830201339BB2DFF8AD
S31500001F20F0C2632B92ED005ACEED007AC0ED007A36
S31500001F30C2ED007A8CED007A0B8040F2F681002328
S31500001F4001220B80904B1A7077EEC57A9FED8F5A5F
S31500001F5099ED006AC7EE855AB6EE007A85EE868A56
S31500001F60B4EEC78AF1EE10FA01D59FED898AD9ED54
S31500001F700D7A9FED7E7A77EEA77A9FED866A67EEF9
S31500001F80877AC7EE868AF5EEC08AF1EE10FA824BA2
S31500001F9083ED008A40F3FA81804BB7EE007A93ED29
S31500001FA0004AD3ED005A7E4B28EE066AC8EE287A20
S31500001FB0DFED703AD3ED004A37EE447A86EE235AC7
S31500001FC027EE247A25EEA76A37EE067A83ED007AA5
S31500001FD096ED007AB4EEE77AF1EE10FA714BDFF87F
S31500001FE034A283ED005A4FF00102CAED007ACCBF4D
S31500001FF077EE677A77EEC77A079BDFF81C92187838
S31500002000694BCDE9015A1A70684B6949C3ED007AEC
S31500002010684BD3ED000A684B70EEA60A1B88009346
S31500002020664B1B680993664B93ED000A654BCDF82A
S315000020300C90049309AB0593634BFEF72DF9634BA4
S31500002040099AF5EEC08A1A603B88F1EE10FA07EE9F
S31500002050903A7B889FED5E6A07EE103AF8EE677A53
S31500002060B8EE477AC8BFC8EE285ADFED5A6AD8BF1D
S31500002070DAED005A96ED005A77EEC67A37EE467AD2
S3150000208067EEA67A27EE267A35EE654A524B534915
S31500002090DFED534A81ED004AC3ED007A77EE877A89
S315000020A077EE877A67EEA47A4E4A4F4BC2ED007AF6
S315000020B01B78C8BFCAED005A002B00F0B7804B4A08
S315000020C0138801339BB2138013889BB2632B40F2B3
S315000020D0AD800020464B10801988464A89B201EB34
S315000020E0810102EB810181ED005A314901264F68D9
S315000020F01988D9F800C089B201EB810102EB810190
S31500002100C1ED015A198889B201EB810102EB810107
S31500002110C1F808C0198889B201EB810102EB81017F
S31500002120CF60198889B201EB810102EB81010E743F
S31500002130198898F8006089B201EB810102EB8102EF
S31500002140F1B251741A88013268E000BFCC0E00204B
S315000021501C380020CDCCCC3DACC52737203800201C
S315000021603C3800209838002080360020DB0F49409C
S3150000217070360020DB0FC9407C3600204576743F60
S315000021808636002088360020843600200AD7233C75
S31500002190000000000000704278360020D4000020C5
S315000021A02C38002060380020183600201436002015
S315000021B034380020E00E00205438002060AE0000C5
S315000021C05C380020D800002058380020DC000020B1
S315000021D0000000450000003A20360020243600208A
S315000021E03ACD133F1C360020CC000020000F002003
S315000021F0020F0020040F00201838002038000020AD
S31500002200403800204438002064380020743600200E
S31500002210A40E0020303800202438002092B21A8004
S315000022201A8892B2B2F5FA7F28BF1880934BD5ED83
S31500002230006A1B7895ED017AD5ED027A43B3D4EDA9
S31500002240005AB2EE046AF4EEC65AF1EE10FA1FDD39
S31500002250B6EE006A94ED005AF3EE024A76EEC66ACE
S31500002260C4EE855A37EE467A77EEC67A66EEA56AEA
S3150000227027EE257A67EEA57A76EE866A37EE067A37
S3150000228077EE867AC5ED006A85ED017AC5ED027AAC
S31500002290D4ED005AB2EE046AF4EEC65AF1EE10FA24
S315000022A002DD2268764B1A609FED766A764B41F224
S315000022B07076C3ED006A66EE866A83ED017A27EED4
S315000022C0067AC3ED027A67EE867AFCEEE66ABCEE23
S315000022D0C77AFCEEE77A16EE904A17EE102A17EE4A
S315000022E0903AB44228BF3446B24228BF3246B3427F
S315000022F028BF3346654D0AA965482C60CDE90B23F6
S315000023006A600A94AB6001F0EDFE11B0BDEC028B81
S31500002310BDE8F08FAEF8000063E5A8F8000060E5C0
S31500002320ACF800005DE578805BE55A4B1B78002B26
S315000023307FF40AAEF0EEC67A9FED577AF4EE477A4E
S31500002340F1EE10FA3FF611AED9ED007AF5EEC07A4D
S31500002350F1EE10FA7FF709AE86EE278AF6EE007ADE
S31500002360B4EEE78AF1EE10FA3FF5FFADFFE59FED1B
S315000023704B7AF4EEC77AF1EE10FA44BF9FED487A35
S3150000238077EE877AB5E59FED477A7CE59FED467A4D
S31500002390464BB0EE475AF0EE477A17E6012288F828
S315000023A000206EE5B8F800209FED417A92B207EE64
S315000023B0902AF8EE676AB8F8003037EE667A9BB274
S315000023C007EE903ADFED3B5AF8EE677A27EE257A6C
S315000023D09FED396A87EE270A80EE060A06F0CEFBE5
S315000023E0DFED367A9FED367A60EE277AB7EE006A31
S315000023F077EE877ADFED336A86EE277A77EE667AAE
S31500002400314BC3ED007A22E5BCF80020BCF8003061
S3150000241092B207EE902AB8EE677A9BB207EE903A30
S3150000242076EEC76ADFED235AF8EE677A66EEA56A9E
S315000024309FED216A86EEA70A80EE060A06F09EFB4D
S31500002440DFED1E7A9FED1E7A60EE277AB7EE006A00
S3150000245077EE877ADFED1B6A86EE277A77EE667A65
S315000024601A4BC3ED007AE5E4194B1A4FDFF868C042
S31500002470DFF86880DFF868E01970B8E4CD00002066
S31500002480700000200080BB45E80E0020F40E0020FE
S31500002490D838002084360020FFFF7F7FDB0F49C03D
S315000024A0DB0FC940CDCCCC3D000000002C3800200D
S315000024B000F07F4500401C4600E0AB464679673990
S315000024C00FCF5B3B33938843C4000020C800002035
S315000024D05436002058380020C80E0020C60E0020B2
S315000024E0CA0E0020704700BF2DE9F041BF4D82B0F3
S315000024F02B6801332B602B68B3F57A7F00F0758269
S315000025002B68B3F5FA6F00F00882B94BB94F1B7808
S315000025103878002B00F06E82B74BB84AB849D2ED36
S31500002520007A93ED007AB4EEE77AF1EE10FA48BF3E
S31500002530D3ED007A93ED007AB1EE477AB4EEE77AFE
S31500002540F1EE10FAC8BFD3ED007A4FF00002C8BF13
S31500002550F1EE677AAB4B0A601A60C3ED017AAA4BBB
S31500002560187040F60E610DF10602A84801F0EEFC67
S315000025709DF80620A649A2F10104B4FA84F4A54800
S315000025800B786409047033B9012A00F05B82A24912
S31500002590A24A0B601360A24BF2EE087A93ED007A22
S315000025A0B4EEE77AF1EE10FA40F1738193ED007A1A
S315000025B0F7EE007AB4EEE77AF1EE10FA40F36981AD
S315000025C0984BDFED997A93ED007AB4EEE77AF1EE67
S315000025D010FAC0F26882DFED957A0323944A9FEDE4
S315000025E0927AD2ED006AF4EEC76AF1EE10FA80F242
S315000025F0E681D2ED006A9FED8F7AF4EEC76AF1EEBE
S3150000260010FAC0F209829FED8C7AF4EE477A022B1B
S3150000261038BF0223F1EE10FA77FE277A874E884AF2
S315000026203370C2ED007A337840F60521022B88BF5D
S3150000263000230DF10702754888BF3B7001F086FC48
S315000026409DF807407F4AA4F10101B1FA81F11378A0
S3150000265049098B4200F0C5817B48038801339BB250
S315000026601D2B038011D90023012C117003800CD07F
S315000026707648774A03780133A2FB031202F4FF710E
S3150000268001EB52029B1ADBB2037040F60A510DF1C0
S3150000269007025E4801F05AFC9DF807306D49A3F128
S315000026A00100B0FA80F00A784009824200F0958174
S315000026B0DFF8C8C1BCF80020013292B21D2AACF87E
S315000026C000200BD90022012B0870ACF8002005D0A1
S315000026D061490A78B2FA82F252090A705F4A013CED
S315000026E0D2ED007A18BF01244FF00000013B18BF5D
S315000026F001239DF80610FDEEE77AA1F10101B1FA7A
S3150000270081F164F3070063F30F20554C554B96F89F
S315000027100080D4F800E01C88534B4909197617EE5F
S31500002720901A3F78514A003F18BF01271981118836
S31500002730DFF84CC119825188928859829CF80010A2
S31500002740A4B29A821F7083F80180C3F804E0DC60AB
S31500002750D88201F0FF02002940F0E7803378022B8F
S3150000276000F2E380337803F0FF01002B00F08E8146
S3150000277040F60F51254801F0FBFB3D4B2A6840F619
S315000027800641A3FB02326FEA1212204802F0010250
S3150000279001F0EEFB374B1A78002A40F0D7802E4B1B
S315000027A040F607411A781948B2FA82F2520901F046
S315000027B0DFFB314B1B889BB2002B40F0E280234CA1
S315000027C040F6035122781148003A18BF012201F061
S315000027D0CFFB227840F60251013A18BF01220B487E
S315000027E001F0C6FB227840F601514BE0603600202E
S315000027F06C36002068380020D000002068360020A3
S315000028005C3800203438002028380020903800201A
S31500002810D90E0020D80E0020DC0E0020D40E002099
S31500002820CC0E0020C80000200000B44200000000CA
S31500002830C40000200000A0429A99993EC40E0020D0
S31500002840C0000020BF0000209E0E0020A10E002028
S31500002850ABAAAAAABE000020A00E00206038002065
S31500002860A40E0020CA0E0020A80E00208C05002011
S31500002870D34D62100E0600200C0600209C0E002090
S31500002880E40E0020023A18BF01229C4801F070FBBA
S3150000289089E093ED007AF2EE0C7AB4EEE77AF1EE87
S315000028A010FA21D593ED007AF7EE007AB4EEE77AC6
S315000028B0F1EE10FA18DD924BDFED927A93ED007A85
S315000028C0B4EEE77AF1EE10FABFF685AE93ED007A34
S315000028D0DFED8D7AB4EEE77AF1EE10FA19DA1B68BD
S315000028E0F6EE007A012379E6854BDFED867A93EDE5
S315000028F0007AB4EEE77AF1EE10FABFF66CAE93ED1D
S31500002900007ADFED817AB4EEE77AF1EE10FAC0F2E2
S31500002910D980DFED7E7A022360E67D4A7D4B116821
S315000029201B687D4A5B1A1360EFE5012240F60F51E2
S31500002930724801F01DFB002240F606416F4801F087
S3150000294017FB764B1A78002A3FF429AF1A78012A2A
S3150000295000F0D1801B78042B00F0C6802A68704BEB
S31500002960A3FB02326FEA521240F60741634802F0B7
S31500002970010201F0FDFA6B4B1B889BB2002B3FF462
S315000029801EAF002240F603515C4801F0F1FA012225
S3150000299040F60251594801F0EBFA012240F6015186
S315000029A0564801F0E5FA604A138801339BB2092BB9
S315000029B009D81380FEF754FA02B0BDE8F081DFEDC6
S315000029C05B7A03232AE600200121594B10801970F7
S315000029D0FEF746FA02B0BDE8F0810021554A1180A3
S315000029E07CE60022544B1A804FE64A4A484B12684E
S315000029F01A608AE5514B524AD3ED001A514B52499F
S31500002A0093ED001A514BD3ED000A514B93ED000A9A
S31500002A10504BFEF741F8A4E5D2ED006A9FED4E7AE1
S31500002A20F4EEC76AF1EE10FAFFF6F8AD9FED4B7AB9
S31500002A30F4EE477A012B38BF0123F1EE10FA77FE48
S31500002A40277AEBE540F6B736454CDFF824C1206817
S31500002A500130B0422060CCF800007FF69CAD4FF00C
S31500002A607C544FF0000C0A703E49374E3B703E4B8B
S31500002A700A70224840F607511C60C6F800C0C6F826
S31500002A8004C05C609C6001F073FA84E50A461B484A
S31500002A9040F60F5101F06CFA012240F60641174844
S31500002AA001F066FA4DE793ED007ADFED177AB4EEA2
S31500002AB0E77AF1EE10FABFF68EAD1B68DFED1B7AF2
S31500002AC003238BE593ED006ADFED236AB4EEE66A35
S31500002AD0DFED227AF1EE10FAB7EE007AACBF0123F1
S31500002AE0002367FE877A79E5002240F6074103480E
S31500002AF001F03EFA3FE72A681C4B31E79038002088
S31500002B00C80000200000B4420000A0429A99993EF5
S31500002B105C36002064360020583600200E06002061
S31500002B20D34D62100C060020DA04002000000000DD
S31500002B30680500209C0E00209E0E0020D800002074
S31500002B405C38002024380020343800202C3800203F
S31500002B50203800202838002000008C423333333FD1
S31500002B60DC0E0020D00E0020483800201F85EB51D7
S31500002B70D40E0020064A074913780133DBB21370DE
S31500002B800379012B08BF044A0B7008BF1370704706
S31500002B9097050020B70000209E0500200379023B20
S31500002BA01E2B11D8DFE803F0431017101010111078
S31500002BB0101010101010111010101010101010100E
S31500002BC010101010101011007047214A138801339D
S31500002BD09BB21380704710B41E491F4A0B88007AB7
S31500002BE001339BB20B8013783F2B06D813781B4C0E
S31500002BF0591CC9B2DBB21170E054194A137803F0BC
S31500002C00FF018BB90D2816D00A2814D0154A13884F
S31500002C109BB27E2B08D813889BB25C1CA4B214808E
S31500002C20114C124AE05411805DF8044B70470022A3
S31500002C300F4B1A7070470B490B889BB2002BF3D0D1
S31500002C40002401200B8808499BB2CC541070EBE796
S31500002C500A0600200C060020C4050020C805002036
S31500002C60190E00201A0E00201C0E0020100600204F
S31500002C70180E0020FFFFFFFF9FED010B704700BFFE
S31500002C80000000000000F07F9FED010A704700BFC2
S31500002C900000807FFFFFFFFF9FED010B704700BF25
S31500002CA0000000000000F0FF9FED010A704700BF22
S31500002CB0000080FFFFFFFFFF9FED010B704700BF85
S31500002CC0000000000000F8FF9FED010A704700BFFA
S31500002CD00000C0FF08B5FFF7EFFF0E4B83ED000BBA
S31500002CE0FFF7F2FF0C4B83ED000AFFF7C5FF0B4B16
S31500002CF083ED000BFFF7C8FF094B83ED000AFFF7D2
S31500002D00CBFF084B83ED000BFFF7CEFF064B83EDA1
S31500002D10000A08BD783800206C380020883800206A
S31500002D207438002080380020703800200A4BD3ED1C
S31500002D30007AF4EE407AF1EE10FA0AD0074BD3EDA2
S31500002D40007AF4EE407AF1EE10FA0CBF0120002072
S31500002D5070470120704700BF74380020703800208B
S31500002D6082B08DED010A019800F0FF43B3F1FF4FE9
S31500002D7002D0002002B07047C0F31600003818BF1A
S31500002D80012002B0704700BF08B5FEF72FFC0020F7
S31500002D9008BD00BF2DE9F043C36B06795C68467138
S31500002DA02388A94F1D0A2D0155FA83F357F82330BE
S31500002DB0C3F340039B00037165884FEA152C4FEA65
S31500002DC00C1C5CFA85F557F8255005F002052B43D7
S31500002DD00371A5884FEA152C4FEA0C1C5CFA85F5A1
S31500002DE057F82550C5F3400E4EEA030E80F804E06E
S31500002DF0002E00F0C480038EA58C9D4284BF013353
S31500002E000386038901339BB20381B4F82880984571
S31500002E1028BF98467645A0F8088000F0B380A31D29
S31500002E209C4690F8069004F10C0580F807901CF873
S31500002E30017F774505D11CF8017CB74204BF012705
S31500002E4087716545F3D113F801CBE64504D11F78A8
S31500002E50B74204BF002787719D42F4D1857D6B1C64
S31500002E60DBB2062B28BF002300EB4505A5F80A8038
S31500002E7086798375B14500F0AD8000273D46BC4696
S31500002E80E38C63F30F0763F31F47C0F80A70E78C00
S31500002E90984667F30F0567F31F45C0F80E50E58C9B
S31500002EA0B94665F30F0C65F31F4CC0F812C0AC466B
S31500002EB043443B444B442B44634407EE903A9FED16
S31500002EC0637AF8EEE77A87EE276A012E1ABFB1EE2B
S31500002ED0466A9FED5F7A9FED5F7A002380ED076A71
S31500002EE080ED067A0381D4ED046ADFED5B7A66EE47
S31500002EF0A76A66EE866AC0ED086AD4ED057A6FF0B9
S31500002F000407DFED564A9FED515ADFED555A37EE6D
S31500002F10277A631D04F10B063F1B9C4613F8015FDD
S31500002F2075450DD107EB0C0507EE905AF8EEE77ADA
S31500002F3067EEA47A67EE857A87EEA56A37EE067A9B
S31500002F40B342EAD1DFED417AB4EEE77AF1EE10FA58
S31500002F5031DD37EE677AF0EEE67A94ED0B6AB4EE81
S31500002F60E76AF1EE10FA03DD90F83830012B3BD01A
S31500002F70002380F83830C2ED006A81ED007A002027
S31500002F80BDE8F08390ED067AD0ED076ADFED307A82
S31500002F9037EE267AB4EEE77AF1EE10FA80ED067A8D
S31500002FA011DCDFED2C7AB4EEE77AF1EE10FA0AD4F2
S31500002FB0D0ED086AA1E7B5EEC07AF1EE10FA48BF87
S31500002FC037EE277AC7E7C0ED067AD0ED086AB0EE8D
S31500002FD0677A92E74389B0F80C80C789B0F81090F9
S31500002FE0458AB0F814C063E7A58C038E9D421AD8B3
S31500002FF090ED0D6AB5EEC06AF1EE10FAD0ED0A6AF0
S31500003000D0ED0B7A12DB76EEA76AC0ED0A6AD4ED34
S31500003010077AF4EEE76AF1EE10FAACDDC0ED0A7A53
S31500003020F0EE676AA7E7DFED0F6AA4E776EEE76AD8
S31500003030C0ED0A6AD4ED077AF1EE677AF4EEE76A34
S31500003040F1EE10FA97D5E9E700F80140DB0FC94029
S31500003050920A063F920A06BF00007A4400007042B8
S315000030600000B443000000000346D9634A68F7EE47
S31500003070006A92ED047AC6EE877AC3ED0B7A92ED7A
S31500003080077A67EE877AC3ED0B7AD2ED086A87EE88
S31500003090A67A002083ED0B7A704700BF70B5C16336
S315000030A003464868F7EE006A90ED047AC6EE877A22
S315000030B0C3ED0B7A90ED077A67EE877AC3ED0B7A4C
S315000030C0D0ED086A87EEA67A4FF0000E002401259F
S315000030D083ED0B7A0F4E486803F1080203F1140CD6
S315000030E05E6083F83850C3F818E0C3F81CE0C3F8F4
S315000030F020E0C3F828E0C3F834E01C819C751C86E8
S31500003100C18C22F8021F6245FAD1034A00201A60D8
S3150000311070BD00BF000001014853544D2DE9F04138
S315000031201D4683689DF818C01E6E002E5FD1BCF147
S315000031300F0F04460F46C0E90312C0E90566C561D4
S3150000314080F820C04CD8BCF1070F94BF4FF00008A0
S315000031504FF0010863685969C9B14FF0020CA561C7
S315000031605B69A8B259680968C881C8788A6068F33B
S315000031700510C87088786CF383008870002A3AD0EE
S315000031809A6818685368984700282CD163681A69AA
S315000031909AB1022065611A69ADB253681968CB7895
S315000031A0CD8168F3051360F383034F60CB704FB393
S315000031B0936810685B689847A8B90121A26894F8DB
S315000031C02000536923F4F81343EA00435361A368CC
S315000031D03046D966A26893680B439360BDE8F081D8
S315000031E04FF00208B6E706463046BDE8F0810826ED
S315000031F03046BDE8F081C0B262F38300054A8870AC
S315000032008A60BDE7DBB267F38303CB70024B4B608A
S31500003210CEE700BF103A00200C3A002010B49DF80B
S31500003220044001945DF8044BFFF778BF30B5836A1C
S3150000323085B004468C4601ADABB193E8070085E83E
S31500003240070062681846127883F804C01A60E26ABA
S315000032509A60636A9847A36A1BB195E8070083E8FA
S31500003260070005B030BD2B46EBE700BF2DE9F04760
S315000032700B78D1F8108003F5800303F58D530D46C6
S3150000328004461F02B8F1000F13D04FF00062D8F8C1
S3150000329004301B681A60D8F804301B689F60D8F8A1
S315000032A00830D8E900011B6898470646002840F018
S315000032B01A816B6983B14FF400215A681268116054
S315000032C05A68126857609A68D3E9000112689047F5
S315000032D00646002840F00A8100236560A9698C4AE9
S315000032E06162E969C4E90A312B7803F5800303F5C5
S315000032F08D531B02A3606E7A697B002E18BF4FF4B4
S315000033004412EF7A2B6AA87A090341EA470101437E
S31500003310D87942EAC0721878002840F0F380B6FAED
S3150000332086F0400941EAC011587808B942F40032E3
S315000033309D7842EA0070DA781F7A954045EA072AB6
S315000033401F7912062FB1022F0CBF4FF440174FF40E
S31500003350001793F805C0BCF1000F06D0BCF1010FB1
S3150000336014BF40F4807040F4407093F809C00CF02C
S31500003370030C42EA8C020A4393F806C0002E40F082
S31500003380C4801E7BD97A36049B7A46EA012642F42B
S3150000339060421E43EFF31088012181F310886368B1
S315000033A0DFF884E11B78DEF80490C3F1130301FA19
S315000033B003F329EA0303CEF80430DEF8043088F379
S315000033C01088544BA568AB66A368534DC3F810A08C
S315000033D0A3685E60A368DF60A3685A61A36820F0F3
S315000033E08042C3F840C0A3689A60A3689A68986050
S315000033F063684A489E7993F902303601484AEF18C5
S31500003400F6B287F8006340F8234003F1C00652F88D
S31500003410267027F4803742F8267052F82660BFF3EC
S315000034205F8F5E09B60003F01F0306F1604601FADE
S3150000343003F306F56146C6F88031336063685E794A
S3150000344093F901303601EF18F6B287F8006340F8B9
S31500003450234003F1C00652F8267027F4803742F85D
S31500003460267052F82660BFF35F8F5E09B60003F040
S315000034701F0306F1604601FA03F306F56146C6F836
S31500003480803133606668337A96F904601B01AF19A0
S31500003490DBB287F8003340F8264006F1C00352F845
S315000034A0237027F4803742F8237052F82330BFF395
S315000034B05F8F73099B0006F01F0603F16043B1405E
S315000034C003F56143C3F8801119600026636893F918
S315000034D00320DB7915441B01DBB285F80033114B61
S315000034E040F8224023603046BDE8F087B8F1000F6F
S315000034F0F9D0D8F80830D8F800001B6A984730464B
S31500003500BDE8F08742F080720EE7002642E700BF72
S3150000351000103140000080FD00E100E05C3A002030
S31500003520006000404950535200400840EFF30383C7
S31500003530103B1F4A5BB203F1C00152F8210020F490
S31500003540803042F8210052F821201A4A52F82330DE
S31500003550D3E906218A421CD01869996828B393F8E2
S3150000356020C00968BCF10F0F0FD8BCF1070F8CBF44
S3150000357020F81210815499684FF000408866D96986
S31500003580013291429A6104D0704740F8221099683E
S31500003590F2E75B6893F90330012203F01F00064946
S315000035A05B09824041F8232070470868E4E700BFC2
S315000035B0006000405C3A002000E100E030B4EFF328
S315000035C00383103B31495BB203F1C00251F822007C
S315000035D020F4803041F8220051F822202C4A52F87B
S315000035E023305D68DC692A6A50785A6901281CD044
S315000035F0A2420FD0D3E90201A9B193F820400F2CC3
S315000036000AD951F8221001604FF000509968013232
S3150000361088665A6130BC7047072C03D931F81210FE
S315000036200160F1E7895C0160EEE704F1FF3C624569
S315000036300ED029690029DBD095F90320154902F03F
S315000036401F04A040520941F822005A69DC69CFE7FD
S3150000365095F9034004F1C00251F8225025F4803553
S3150000366041F8225051F82220BFF35F8F6209920081
S3150000367004F01F0402F1604200FA04F402F561420C
S31500003680C2F8804114605A69DC69B1E70060004005
S315000036905C3A002000E100E030B4EFF30382103A18
S315000036A02E4953B203F1C00051F8204002F0FF0248
S315000036B024F4803441F8204051F82010284951F86C
S315000036C023008168096D890105D54168497A012978
S315000036D001D030BC70470121224C5B0902F01F0269
S315000036E0203301FA02F244F82320BFF34F8FBFF3D1
S315000036F06F8F436893F902305A0903F01F0301FAEA
S3150000370003F3203244F82230BFF34F8FBFF36F8F9D
S315000037108468124BA26822F00102A260426892F904
S31500003720022002F1C00453F8245025F4803543F8F2
S31500003730245053F82430BFF35F8F53099B0002F0E7
S315000037401F0203F1604301FA02F203F56143C3F875
S3150000375080211A6030BCFFF769BD00BF00600040E1
S315000037605C3A002000E100E070B5EFF30383324AD3
S31500003770103B5CB252F82460012273682F4893F91B
S315000037800230590903F01F03203102FA03F340F80F
S315000037902130BFF34F8FBFF36F8FB1688B6823F073
S315000037A001038B607368264993F9023003F1C00068
S315000037B051F8205025F4803541F8205051F820105A
S315000037C0BFF35F8F03F01F015B099B0003F16043AA
S315000037D08A4003F56143C3F880211A60B368194A29
S315000037E01D6D9A662A0112D4EB0116D405F0A05578
S315000037F0B5F1A05F1AD0124A04F1C00352F82310A3
S3150000380021F4803142F8231052F8233070BD05218F
S315000038103046FFF70BFDEB01E8D50421304605F0F5
S31500003820A055FFF703FDB5F1A05FE4D108213046AE
S31500003830FFF7FCFCDFE700BF5C3A002000E100E098
S3150000384000600040000080FD844610B4006A836872
S3150000385023F440138360DCF82040A36C5800FCD5A9
S31500003860A36823F01003A360DCF82040237FC3F392
S315000038700010DB06FAD4CCE90312A36843F0101358
S31500003880A3605DF8044B7047F0B5846A85B00546C1
S315000038900F4694466E46B4B194E80F0086E80F00D2
S315000038A0EB6920461B78A760236084F804C0EB6AA6
S315000038B0E3606B6A9847AC6A1CB196E80F0084E82F
S315000038C00F0005B0F0BD3446EAE700BF3C4B416847
S315000038D0994272D170B4016A02468B6823F4401390
S315000038E08B60016A8B6823F010038B60006A037F8C
S315000038F0C3F30011DB06FAD40120D369314C93F9E6
S3150000390007304FEA531C03F01F030CF1200C00FA9A
S3150000391003F344F82C30BFF34F8FBFF36F8FD36997
S3150000392093F909304FEA531C03F01F0300FA03F31F
S315000039300CF1200C44F82C30BFF34F8FBFF36F8F80
S31500003940156AAB6823F48033AB60D36993F905300D
S315000039504FEA531C03F01F0300FA03F30CF1200C8B
S3150000396044F82C30BFF34F8FBFF36F8FD36993F9B1
S315000039700B304FEA531C03F01F0300FA03F30CF15C
S31500003980200C44F82C30BFF34F8FBFF36F8FEFF34B
S31500003990108480F310884FF00043D6690A4896F8E1
S315000039A000C0456823FA0CF32B434360436884F355
S315000039B010885160084670BC70470720704700BFEA
S315000039C04249435300E100E0004008402DE9F0433E
S315000039D000264FF0010C0A78067002F5800202F507
S315000039E08C521202C0E907124A69034642628A698A
S315000039F0D04DC0E90A628278CC696CF3010282700C
S31500003A004A78B24214BF604602209A7860F30102F7
S31500003A109A7091F90B0091F80AE0420900F01F072D
S31500003A2020320CFA07F745F82270BFF34F8FBFF329
S31500003A306F8FC14A00F1C00752F8278066F310481D
S31500003A4042F8278052F82770BC4F4FEA0E1E05EB4E
S31500003A5000085FFA8EFE88F800E347F8203091F9F7
S31500003A60050091F804E04FEA501800F01F0908F12C
S31500003A7020080CFA09F945F82890BFF34F8FBFF3D9
S31500003A806F8F00F1C00852F8289066F3104942F88B
S31500003A90289052F828804FEA0E1E05EB00085FFAC0
S31500003AA08EFE88F800E347F8203091F9070091F878
S31500003AB006E04FEA501800F01F0908F120080CFA3A
S31500003AC009F945F82890BFF34F8FBFF36F8F00F1C8
S31500003AD0C00852F8289066F3104942F8289052F828
S31500003AE028804FEA0E1E05EB00085FFA8EFE88F866
S31500003AF000E347F8203091F9090091F808E04FEA11
S31500003B00501800F01F0908F120080CFA09F945F8C9
S31500003B102890BFF34F8FBFF36F8F00F1C00852F8A4
S31500003B20289066F3104942F8289052F828204FEA68
S31500003B300E12D2B2054485F8002347F82030EFF381
S31500003B4010868CF310884FF0004508787C4AC540F3
S31500003B50506820EA05005060526886F310884FF4DA
S31500003B6080601A6A90604A78CD78C8691202AD03FF
S31500003B7005F4804502F440722A43057846682D060E
S31500003B8005F040752A434578ED03ADB22A43457BDF
S31500003B906D0505F400152A431D6A42F480526A61D8
S31500003BA00578AA1E624540F2BE8032681D6A2A6107
S31500003BB0057B8A7805F0030545F0300532B1022A07
S31500003BC014BF4FF440724FF4807215434FF0000C4F
S31500003BD0012640F21F278278120702F080522A43FC
S31500003BE01D6AEA601A6AC2F818C00A7806FA02F272
S31500003BF03A4202D01A6A53495162827BC57B017CE4
S31500003C0002F0010205F01F0042EA002200201D6AB0
S31500003C1001F01F0142EA01422A63C3E90300C3E936
S31500003C200500196A6489484D1C818D66D969424A26
S31500003C3091F9051001F1C00452F8245060F31045C3
S31500003C4042F8245052F82440BFF35F8F012501F05B
S31500003C501F044909890001F1604101F5614105FA36
S31500003C6004F4C1F880410C60D96991F90B4004F164
S31500003C70C00152F8216060F3104642F8216052F804
S31500003C802110BFF35F8F6109890004F01F0401F161
S31500003C90604105FA04F401F56141C1F880410C6008
S31500003CA0D96991F9074004F1C00152F8216060F327
S31500003CB0104642F8216052F82110BFF35F8F610968
S31500003CC0890004F01F0401F1604105FA04F401F5CE
S31500003CD06141C1F880410C60D96991F9091001F17F
S31500003CE0C00452F8246060F3104642F8246052F88B
S31500003CF02420BFF35F8F4A09920001F01F0102F1F1
S31500003D0060428D4002F56142C2F8805115600F494C
S31500003D101A6A9160196A0A7FD207FCD50C4A0020FC
S31500003D205A60BDE8F0830B4A0B4E022D18BF32468F
S31500003D303CE700BF00E100E0006000405C3A002084
S31500003D400040084000001F1F1000079D11040100DD
S31500003D504249435324FF00FF04FF00FFEFF30383B0
S31500003D60103B204A5BB203F1C00152F8210020F457
S31500003D70803042F8210052F821201B4A52F82300D5
S31500003D80C3691B6983B1036903B17047026A0021E5
S31500003D90936823F4801343F400139360436AC1606D
S31500003DA0C3B18022FFF770BD0369026A002BEED013
S31500003DB08378C16803F00303022B0CD00B781371D0
S31500003DC08278D0E9031302F003029B1A1144C0E97A
S31500003DD00313D9E770470B8823F4DC439BB2536087
S31500003DE0EEE700BF006000405C3A002010B582B0EC
S31500003DF0EFF30383103B1F4A5BB203F1C00152F895
S31500003E00210020F4803042F8210052F821201A4A7D
S31500003E1052F82340A27802F00303022B236A0CBF58
S31500003E2019681978A3690CBFC1F30801C9B20191D9
S31500003E3043B9636AB3B10422204602B0BDE810401C
S31500003E40FFF722BD02F0030201A9606902F0B6FD88
S31500003E50D4E90521A37803F003031A44C91AC4E977
S31500003E60052109B102B010BD636A002BFAD0012208
S31500003E70E2E700BF006000405C3A002010B5EFF3B7
S31500003E8003830F4A103B5CB252F82400026A93681F
S31500003E9023F4401323F010039360436A1BB10222FC
S31500003EA00021FFF7F1FC074A04F1C00352F8231082
S31500003EB021F4803142F8231052F8233010BD00BFA0
S31500003EC05C3A00200060004038B5EFF303831D4ADA
S31500003ED0103B5CB252F824008378056A03F00303B2
S31500003EE0022B0CBF29682978AA6C08BFC1F3080108
S31500003EF0C2F30073C2F3006C4FEA031343EA4C1398
S31500003F00C2F3C06243EAC20C18BFC9B2DB066246FE
S31500003F1004D5AB6C1B0458BF4CF04002AB6E43F0AB
S31500003F20C853AB66436A0BB1FFF7AEFC064A04F111
S31500003F30C00352F8231021F4803142F8231052F8BE
S31500003F40233038BD5C3A00200060004010B40B0AF4
S31500003F50064C1B0153FA81F154F821300020C3F3BB
S31500003F6040035DF8044B1370704700BF00F8014032
S31500003F700120CBB2984080B202B900040B0A5B0163
S31500003F8003F1804303F5F83398600020704700BFC3
S31500003F90F0B5EFF31082012383F31088224E3368C5
S31500003FA01BB922490B7340230B733368013333600B
S31500003FB082F31088038823B300211D4D08E01B01FE
S31500003FC0134445F82340028801318BB29A4218D92E
S31500003FD0436853F8314003EBC1029288E7034FEA86
S31500003FE01223D2B2EBD502EB031C55F82CE024F4D5
S31500003FF080372EF4803E45F82CE01B0145F82C70E6
S31500004000DEE7EFF31082012383F31088336813B1E0
S315000040103368013B336033681BB9802003490B7357
S31500004020087382F31088F0BD583A002000FD014065
S3150000403000F8014008B5034B03600846FFF7A8FFE8
S31500004040002008BD54524F5030B4EFF310840123C2
S3150000405083F310881D4B186828B94FF0400C1C4D8F
S31500004060287385F80CC018680130186084F310882E
S31500004070D4034FEA1120C9B219D40001154C0844E3
S3150000408044F82020EFF31082012181F3108819688B
S3150000409011B11968013919601B681BB980200C49D8
S315000040A00B73087382F31088002030BC7047094CEC
S315000040B001EB001C54F82C50000125F4803544F81F
S315000040C02C5022F4803544F82C50D7E7583A00207B
S315000040D000FD014000F8014003465A681B690020B4
S315000040E053607047034610B4043900F10C0C53F8C2
S315000040F0044F51F8042F62651C68A265027D022AEE
S315000041000BD08269526852681278062A05D0634538
S31500004110EDD100205DF8044B70471C68CA68E26563
S315000041201C682266F3E700BF2DE9F04106460D46FE
S3150000413007460C4601F10C0854F8043FD3E9000188
S3150000414000F0CAF923681B689B6847F8043F2A7881
S31500004150022A03D11A6C42F420221A644445EBD198
S315000041606A69044B32612A78B56132753360002082
S31500004170BDE8F0813354504703460020D3E90223BB
S315000041809360704703460020D3E9022353607047CB
S3150000419003460020D3E90223D3607047034670B478
S315000041A05A689E68D2690020D2E9011444F000459D
S315000041B0D46875619D6844F00044AC619C6841F028
S315000041C000412161146999684C629B6852699A6240
S315000041D070BC704703464FF00041002210B49C6843
S315000041E0104621619C6861619C68A16199684A6278
S315000041F09B689A625DF8044B704700BF43681B7862
S31500004200032B88BF0A46836898BF01F1FF329A667E
S3150000421043681B782BB98368490801395965836857
S3150000422099658368D96AC90707D44FF4AA015A6603
S3150000423083681964D0E90232DA600020704700BF53
S3150000424003469B681232013903EB82030020596052
S31500004250704700BF03469A680020D26AC2F3000284
S315000042600A719B689B6C0B60704700BF84460020F8
S31500004270CCE90632CCF81410704700BF70B58369DC
S3150000428084B004468C46164601AD9BB193E8070000
S3150000429085E8070083F804C09E60E26918461A6044
S315000042A063699847A3691BB195E8070083E807008F
S315000042B004B070BD2B46EDE7D0E9012312785B6EA2
S315000042C0032A98BF01338B6080680B4A0B4BC06A88
S315000042D0126A1B68C2F3026C03FA0CF34FF0010C6E
S315000042E002F00702C0F3C350D340C3404B60002026
S315000042F081F800C0704700BF00E001409C3A0020F2
S3150000430010B490F800C0886EBCF1030F1ED80130BF
S31500004310AAB9019C496BE40754BF01F01F01C1F320
S31500004320044101F00C01A1F10401B1FA81F149093E
S31500004330E2B921BB02225DF8044B5A6070479042F5
S31500004340E7D9013A5DF8044B1A6070470AB190420A
S31500004350F8D8019C496BE40754BF01F01F01C1F373
S315000043600441090981F00101002AE2D0824201D309
S315000043700029DFD103225DF8044B5A6070470028FC
S31500004380D8D0F7E7FFFFFFFF9FED397B2DE9F0431C
S3150000439085B00092866802AB074688461446406898
S315000043A002F003090A4631468DED027BFFF7A8FFAE
S315000043B0039B356B93B914F0080F14BF0422022235
S315000043C0A107029820D502F1120106EB810148608F
S315000043D0B968133201EB82014860BE6862061BD5DC
S315000043E0326CB9F1010F42F48002326427D025F411
S315000043F04035BE6845EA0345B9F1000F16D10020E5
S31500004400356305B0BDE8F0834A44123206EB8202FA
S3150000441050606206BE68E3D4B9F1010F23D025F4DB
S315000044204035022C45EA0345E6D173B925F04075BF
S3150000443045EA03650020356305B0BDE8F08325F045
S315000044404075BE6845EA0365F4E70121786802AB6A
S31500004450009142463146FFF753FF039B25F0407516
S3150000446045EA0365E6E7022CE0D1DEE7AFF300801C
S31500004470FFFFFFFF00000000002800DA704710B4BD
S3150000448000F160430901124CC9B203F5614383F898
S315000044900013104B44F8202000F1C00253F82210FC
S315000044A021F4803143F8221053F82230BFF35F8F96
S315000044B0012243099B0000F01F0003F1604303F54E
S315000044C061438240C3F880211A605DF8044B70474F
S315000044D05C3A0020006000402DE9F04301270B7C88
S315000044E0002607FA03F3C360C3F30903B3FA83F3A1
S315000044F05B09416003740B7CA94ADFF8B4C21A4415
S31500004500120282604B690D4643618B690446C0E91D
S31500004510066385B0CE69CCF8007BEFF3108187F394
S315000045201088A04B1A6922F000421A611B6981F3B8
S315000045301088C3681B070CD0EFF3108187F310882F
S31500004540994AC06853889BB223EA0003538081F3DB
S3150000455010884FF425410023A2681160A268D36237
S31500004560A268D363A268936429782B7A6A680329C0
S315000045704FEAC35302F1FF3000F04A8184BF104670
S3150000458043EA01434FF000420021A7689FED827B7A
S31500004590FB62A3688DED027B1A61A3685A61A3686A
S315000045A09A61A3685962A3689962A368B269DA61DD
S315000045B0A368F2691A62A3689866A36858662B789E
S315000045C0D6F83880002B40F00F8101234FF0030C02
S315000045D06A68A7685208013A02927A65A1688A65F4
S315000045E02978032903D9A168CA65A1680A66B26B4E
S315000045F0BAB932788AB12F787278022F4FEA8210D0
S315000046004FEA021100F00C8140F21381032248EABE
S31500004610020202430A4342F48078B278002A40F04C
S31500004620C9806268D26992F83010C80705D5916AC8
S31500004630A0680139C16492F83010890703D5D26A9F
S31500004640A168013A0A6501212A7C01FA02F2C2F345
S315000046500902002A42D00020A2685064776BD4F881
S3150000466008E0002F00F0B580287CBA7897F8039010
S3150000467001FA00F01206C0F3090042EA09720028A6
S3150000468036D0B868002800F0C680CEF888104FF003
S31500004690010EA168B868C1F88C00297C0EFA01F1F8
S315000046A0C1F30901B9B1A168F868C1F89000787E34
S315000046B0397E000240EA8110B97E40EA0130A168E5
S315000046C04864A168386997F804E00867A1687869C2
S315000046D042EA0E42C867D4F808E009E0776BD4F8DE
S315000046E008E0002F75D0FA78B978120742EA01621D
S315000046F0CEF83820B26B7AB93A7FF97E520642EA92
S31500004700412248EA020896F8212096F8201052071E
S3150000471042EA413248EA020896F83020002A14BFDD
S315000047204FF4A0014FF4AA01A26811642A78012A65
S3150000473004D10021A268D164A2681165A268C2F8FA
S315000047403480A268C2F830C0A2681363D4E902328A
S31500004750DA60697C224695F91200FFF78DFE224643
S3150000476096F8221096F92400FFF786FE224696F860
S31500004770231096F92500FFF77FFE2FB122463978E0
S3150000478097F90100FFF778FE0020084B236005B07B
S31500004790BDE8F083AFF30080FFFFFFFF00000000DD
S315000047A0901640000040084000A0164054504700B4
S315000047B000901640F17828780A01022842EA811210
S315000047C030D03BD903210A4348EA024242F08078BE
S315000047D027E70027CEF83870A268C2F88870B26B57
S315000047E0002A99D117468EE7012BA7681CD00091A5
S315000047F0EA68394602AB6068FFF782FDDDE902210F
S315000048000B0643EA014343F0030C43F00103E4E6DD
S3150000481043F48033B6E6F968003918BF012134E75E
S315000048200922F4E60921CEE74FF0030C4FF0FF32E0
S31500004830D3E6002A0CBF06220922E8E600290CBFAF
S3150000484006210921BFE700BF30B44268034692F94A
S315000048501210D269002910DB012401F01F05AC40BB
S3150000486048092B4D203045F82040BFF34F8FBFF34A
S315000048706F8F0024274840F8214092F92410002920
S3150000488010DB012401F01F05AC404809204D203003
S3150000489045F82040BFF34F8FBFF36F8F00241D48AC
S315000048A040F8214092F92510002910DB012401F07F
S315000048B01F05AC404809164D203045F82040BFF38F
S315000048C04F8FBFF36F8F0024124840F82140526B80
S315000048D0A2B192F90120002A10DB01200C4C5109EB
S315000048E002F01F052031A84044F82100BFF34F8F86
S315000048F0BFF36F8F0020074941F822000020D3E95B
S315000049000221186091609B68586330BC704700BFF5
S3150000491000E100E05C3A002082680129536B02D076
S3150000492043F4807309B143F08073002053637047EA
S31500004930F0B5EFF30382103A214C51B201F1C00CED
S3150000494054F82C3023F4803344F82C308B0003F1D8
S31500004950804303F5C043D3F800031A4850F82100FA
S31500004960456895F800E0BEF1010F08D043692BB108
S31500004970BDE8F04000221146FFF780BCF0BD0025DF
S31500004980D0E90267B760866802F0FF02B564866800
S31500004990F5648668356554F82C6065F3104644F86E
S315000049A02C60D3F80033BFF35F8F074C4B0902F03E
S315000049B01F020EFA02F2603344F82320D6E700BF46
S315000049C0006000405C3A002000E100E0844630B41C
S315000049D082B0019100921D4990F904201C4D51F8B6
S315000049E02200C03255F822101A4C21F0807145F889
S315000049F022109CF9041041F40041E28992B29142DE
S31500004A00FBD008222274019A0AB1019A4260009AE8
S31500004A100AB1009A8260C27802F0C001802913D0E0
S31500004A203F2A98BFC381182200200A4B08491A74EE
S31500004A309CF90430C03351F8232042F0807241F8CB
S31500004A40232002B030BC70478381ECE700000020D1
S31500004A500060004000540040062070470620704762
S31500004A60034693F904300549C03351F8232000204A
S31500004A7042F0807241F82320704700BF006000407A
S31500004A80034693F904300549C03351F8232000202A
S31500004A9022F0807241F82320704700BF006000407A
S31500004AA0002290F90400124B53F82030C1E900228D
S31500004AB0DA783F2A0CD94FF480728A60DA89D2B24A
S31500004AC0CA60DA7802F0C002802A09D00020704756
S31500004AD04FF480328A60DB8900209BB2CB6070473E
S31500004AE04FF480320A609B8900209BB24B6070476E
S31500004AF0000000200620704706207047034600226B
S31500004B0030B593F904C0074C0CF1C00E54F82E10C2
S31500004B10054D21F0807144F82E1045F82C201A60BE
S31500004B20104630BD006000400000002030B58646CB
S31500004B3090F904301C4DC03355F823201B4C22F04D
S31500004B40807245F8232090F9042042F40042E3895C
S31500004B509BB29A42FBD00B46DA789C463F2A05D98F
S31500004B60DA89D2B202EB022292B2DA819CF80220F2
S31500004B7010333F2AF0D84FF0080C18220B4B0C4D7F
S31500004B8083F810C09EF904C0074C45F82C101A741F
S31500004B909EF904300020C03354F8232042F080727E
S31500004BA044F8232030BD00BF0060004000540040A0
S31500004BB000000020F8B5274A044613780D4643B393
S31500004BC06B6893F90030002B3FDB234850F8232015
S31500004BD0002A3CD123712D68BDB12B46DA781946DF
S31500004BE03F2A05D9DA89D2B202EB022292B2DA81E1
S31500004BF08A7810333F2AF1D808211822174B1974E6
S31500004C0094F9041040F821501A74154B00202360C3
S31500004C10F8BD01261670EFF3108086F31088114A4E
S31500004C20116821F480011160126880F310880A4F20
S31500004C3019463422384601F087FE084B5F611E7321
S31500004C406B6893F90030002BBFDA0B20F8BD082003
S31500004C50F8BD00BF143A00200000002000540040B8
S31500004C600043544400400840844610B40A4ADCF825
S31500004C700430D2F8084C0B402343C2F8083CDCF859
S31500004C800840D2F8103C21401943C2F8101C0020FD
S31500004C905DF8044B704700BF00001740084BD3F87F
S31500004CA0802C0378013B032B05D9131E18BF012363
S31500004CB000200B707047022300200B70704700BF66
S31500004CC00000174003461A78052A17D8DFE802F0D5
S31500004CD02A2E1D1803034FF0050C1A69194950694D
S31500004CE090F8902002F00702C1F8802290F89020F8
S31500004CF0C2F30212C1F88C2283F800C0002070476C
S31500004D0002224FF440701A70704704210D4A197040
S31500004D10D2F88C124907D6D007234FF48060C2F828
S31500004D208C327047012203201A7070470321054A0E
S31500004D301970D2F880124807C5D007230420C2F89C
S31500004D4080327047000017400023F0B50161CA6841
S31500004D50044642610A690370C0E906324969EFF305
S31500004D601080012383F310886C4BDA6822F48032BA
S31500004D70DA60DA6880F310880A7F02F00302012AFB
S31500004D800AD1EFF3108082F310881A6922F00042EC
S31500004D901A611B6980F3108800230A6A6048C260A2
S31500004DA003604368002BFCD10125CA6982605C4A16
S31500004DB0056050680128FCD10025486A584E1064E9
S31500004DC05564D1F89C50081FC2F8605291F8905073
S31500004DD005F00705C2F8805291F89050C5F3021508
S31500004DE0C2F88C52D1F89450C2F88852D1F8985033
S31500004DF0C2F894524D69C2F840538D69C2F84453C3
S31500004E0050F8042F03F1B005013342F48032042B2D
S31500004E1046F82520F4D10B7C424D1804002B18BF10
S31500004E2040F00100C6F80003486E3F4BC6F8640226
S31500004E30886E01F19C02C6F8B00252F8040F0433E2
S31500004E4043F8040C106AAB42D861506C1864F4D174
S31500004E50002240F2FF174FF0010ED1F8E000304B70
S31500004E60324EC3F8A003C3F80024C3F80424C3F8E1
S31500004E700824C3F80C240A8F2D4DC3F8C0244A8F8A
S31500004E802C48C3F8C424CA6BC3F8C8240A6CC3F8F8
S31500004E90CC244A6CC3F8D0248A6CC3F8D424CA6CD8
S31500004EA0C3F8D824C3F8F07C23695B69DB6E03F191
S31500004EB01C0103F1380C11F9013B002B21DB11F821
S31500004EC01D2CF7181201D2B287F8002303F1C00295
S31500004ED045F8234050F8227027F4803740F82270B6
S31500004EE050F82220BFF35F8F5A09920003F01F0388
S31500004EF002F160420EFA03F302F56142C2F8803114
S31500004F0013606145D7D103224FF44035044B0A495B
S31500004F109D621A625A6261620020F0BD004008403C
S31500004F2000001740800317406003174000E100E0CF
S31500004F305C3A0020006000404843444100222DE9CD
S31500004F40F04F82468B4601698D4B8E4C496985B080
S31500004F50027043F8102BA342FBD1CA6A8A4B8B48D6
S31500004F60DA640A6B01F18C041A654A6B401A5A65B9
S31500004F700A6DC3F8C0214A6DC3F8C4218A6DC3F80F
S31500004F80C821CA6DC3F8CC210A6EC3F8D02101F13D
S31500004F906C03C21853F8041FA3421160F9D100270D
S31500004FA0CAE901779BF80020002A00F0E580514607
S31500004FB05B46BA46BB461A460846754E01215368FB
S31500004FC053F8275095F800C06B682C7923F07F437F
S31500004FD001FA0CF104FA0CF489B223F0FF034BEA50
S31500004FE0040B4AEA010A002B40F0C080AB68002B94
S31500004FF040F0BC8083680B4383602B786979654CED
S315000050001B0119512B78A9791B01043419512978F0
S31500005010AB68090104340B512B69297804F59C749B
S3150000502044F82130EB78002B51D00024DFF86C9146
S31500005030DFF85481009009E0622902D10121C8F805
S315000050402013E8780134E1B288423FD9A96951F8C2
S31500005050243019785868090101F1804101F5B81129
S31500005060C1F800069868C1F80406D868C1F80806B1
S315000050701869C1F80C065968C1F306216129DBD10C
S315000050803178C909DDD10192EFF3108C012181F34A
S315000050901088D9F80C0020F48000C9F80C00D9F863
S315000050A00C008CF3108896F800C01E204CF0800C83
S315000050B086F800C000F098FA3178013441F010010A
S315000050C03170E878E1B28842019ABFD80098137827
S315000050D00137F9B28B423FF671AF044611465A4684
S315000050E08B46216950464F69A24697F82210B7F8B9
S315000050F020C0CC4381F00201C1F340018DF80D10B0
S3150000510004F00101CCF30A0C8DF80C1093B34FEAAE
S31500005110830EDAF804300FFA8CFC4FEA4C0C4E374B
S3150000512043B300231E46DBF8048058F8031037F813
S31500005130025F49780CEB05041031694411F8041C30
S3150000514001B92C1DA64203F1040338BF2646734558
S31500005150EBD101360C4BCAF80C60986400200E495E
S31500005160DA65CAF8201005B0BDE8F08F43680B4336
S31500005170436042E70126EDE701261046EAE700BF55
S31500005180000617405008174000001740D40117408A
S3150000519000300F40C00017404843444100400840DB
S315000051A02DE9F04190B09DF85870EFF303841F4D40
S315000051B0103C64B255F824506E698EB30593FF23F4
S315000051C0ADF81810D5F81880E9698DF80200ADF829
S315000051D00070049201918DF80830B8F1000F23D0C9
S315000051E0C4464746BCE80F00EE4608AE0FC69CE82C
S315000051F00F0086E80F00BEE80F000FC79EE80F00FD
S315000052008CE80F006B6940469847AB6943B19C46F2
S3150000521008AD0FCDACE80F0095E80F008CE80F0045
S31500005220204610B0BDE8F081E846EBE75C3A002086
S31500005230002310B515490370C1F8083CC3681BB1BB
S31500005240D1F8802C013BFBD1104AD2F8803C3BB10F
S3150000525040F20113C2F8603CD2F8803C002BFBD12F
S3150000526003236FF0604140F2E712084CC4F88C3C0F
S31500005270C4F8B43CC4F8B81CC4F8C42CFFF722FD2B
S315000052800346C4F8003C002010BD00BF00001740D4
S3150000529030B491FAA1F030B3B0FA80F3144C154D46
S315000052A0580804EB83041B0105EB800503F010008E
S315000052B02B6803F00F13C340C3F10803DBB213706E
S315000052C0A3B1043202EB8303206842F8040B934235
S315000052D0FAD10020084BD3F8F82C61F31842C3F832
S315000052E0F82C30BC7047054C054DE1E70D20F1E781
S315000052F000121740D00C17400000174080121740CC
S31500005300100D17402DE9F043254B83B0D3F8881CC8
S31500005310D3F8A05C11F0010F14BF0727032715F07F
S3150000532001053BD0D3F8A45CD3F8B03C07279946D7
S31500005330EFF303831B4A103B5CB252F824804046CD
S31500005340FFF7C0FC032F064623D00623002688F865
S315000053500030FF212A4600914B4638460021FFF7D0
S315000053601FFF01200E4A1049C2F89C0C04F1C0032D
S3150000537051F8234024F4803441F8234051F8233077
S31500005380D2F8803C002BFBD1C2F8006C03B0BDE81C
S31500005390F08398F80030042BE3D9DAE7A946C7E78B
S315000053A0000017405C3A0020006000402DE9F04301
S315000053B0274B83B0D3F8881CD3F8A02C11F0020F2A
S315000053C014BF4FF007084FF00308C2F340059207D9
S315000053D03BD5D3F8A45CD3F8B03C4FF00708994608
S315000053E0EFF303831B4A103B5CB252F82470384635
S315000053F0FFF768FCB8F1030F064622D00623002605
S315000054003B70FF212A4600914B4640460021FFF79C
S31500005410C7FE02200E4A1049C2F89C0C04F1C003D4
S3150000542051F8234024F4803441F8234051F82330C6
S31500005430D2F8803C002BFBD1C2F8006C03B0BDE86B
S31500005440F0833B78042BE4D9DBE7A946C8E700BF25
S31500005450000017405C3A00200060004010B5FF24B1
S3150000546082B000220023012100940020FFF798FE5D
S315000054700121074A074BC030C2F8541D53F82020BB
S3150000548022F4803243F8202053F8203002B010BDB9
S315000054900000174000600040064B074993F82600BD
S315000054A01A6A51F82030C2F302620449D3400B60F5
S315000054B0704700BF00E00140C80200209C3A00206F
S315000054C04AF203500123394A3949F0B5A2F8FE03DE
S315000054D0A1F80431B1F804319BB2002BFAD10124B2
S315000054E04FF400454FF0090C3248DFF8E0E0324E49
S315000054F0C0F804E0314FDFF8D8E02C4AC0F80CE0E1
S31500005500A1F80041B4603460076092F826102C4977
