S00B00003030302E7372656389
S31500000000E04B0020B1510000E94F0000AD51000067
S31500000010AD510000AD510000AD510000AD510000E2
S31500000020000000000000000000000000AD510000CC
S31500000030AD51000000000000AD510000AD510000C0
S31500000040D9420000AD4C0000554D0000054E0000A1
S31500000050D94200009937000009370000293800000E
S3150000006075380000D92E0000692F000045300000C9
S31500000070153100000348044B834202D0034B03B101
S3150000008018477047C8020020C80200200000000080
S31500000090064B0749C91A891048BF0131491003D0D8
S315000000A0044B0BB101481847704700BFC802002037
S315000000B0C80200200000000010B5064C237843B9A2
S315000000C0FFF7D8FF044B13B10448AFF300800123B8
S315000000D0237010BDE802002000000000B895000063
S315000000E008B5054B1BB105490548AFF30080BDE8CF
S315000000F00840FFF7CDBF00BF00000000EC02002063
S31500000100B8950000082010B502F0E8FA4FF0033267
S3150000011040F20110044B054C0549C3E90022DC609E
S315000001209A60A1F86F0010BD0403002003030301C9
S315000001301403002070B52DED028B6D4CA5686E1C66
S315000001401CBF0135A560A57B002D6DD140F20110C5
S31500000150E0814FF0000C0020C2F800C0187094ED4A
S31500000160007A9FED646ADFED646A27EE067A60EE38
S31500000170A66A37EE267A614D37EE608AD5ED047AA7
S31500000180012684ED007A68EE277A9FED5D7A84ED8C
S31500000190017A77EE877A9FED5B7AF4EEC77A0023D1
S315000001A0F1EE10FA0B6028DC9FED577AF4EEC77A71
S315000001B0F1EE10FA65D581ED017A544BD3E90001D1
S315000001C005F000F995ED057A07EE900A67EE877A55
S315000001D067EE880AF5EEC00A0023F1EE10FA6373A3
S315000001E001DCDFED470AD4ED017A77EEA07AC4EDA3
S315000001F0017A2673BDEC028B70BD81ED017A434B0B
S31500000200D3E9000105F0DEF895ED057A07EE900AD0
S3150000021067EE877A67EE880AF5EEC00A0023F1EEEC
S3150000022010FA6373DDDCDEE7E57B012D3CD00028A8
S315000002304CD0207C02284FD0012082ED000A187095
S3150000024094ED007AD2ED006ADFED2A5A9FED2A6A14
S3150000025027EE257A66EE866A37EE267A274D37EE42
S31500000260608AD5ED047A637B84ED007A68EE277A9E
S315000002700BB10023636094F90C605EBB94ED017AC8
S3150000028087E7C1ED017A98DB204BD3E9000105F041
S3150000029099F895ED057A07EE900A002367EE877ABE
S315000002A0637367EE880A9EE700283FF452AFF0EECC
S315000002B0007AF4EEE71AF1EE10FAFFF64AAF40F2D2
S315000002C002300025A4F80F00A560B5E70120A4F8C8
S315000002D00F003EE7002658E740F2E630A568854263
S315000002E002D901202074A7E79FED090AA4E700BF01
S315000002F08C030020A4707D3F0AD7233C8800002091
S31500000300000000000D98463E0D9846BE8000002075
S315000003109A99193E0122014B5A7370478C030020AB
S3150000032070B41B4E3378072B24D890F9001051B3C4
S315000003300122184D184C03E00132B2F5807F20D01F
S315000003402B7804EB0323134403F8011C10F9011F57
S315000003500029F1D100212B7804EB03242B78A1543A
S31500000360013303F007032B7033780133DBB23370AC
S3150000037070BC7047094A138801339BB2138070BC66
S315000003807047FF22E6E70A46024D034CE2E700BF4C
S31500000390F0050020F2050020F4050020EE050020FF
S315000003A030B54FF0000C0725164C85B00223164ACF
S315000003B000951649164884F800C002F005FC154B56
S315000003C0C2B21A7090B9144B039303E0039B013B2E
S315000003D0039313B12378002BF8D0039B43B10A4B48
S315000003E00E4918785A780E4B08701A7005B030BD51
S315000003F001210C4B0C4A197013780B44DBB21370B5
S31500000400EDE700BF7A050020240500203405002012
S31500000410C43900206F050020009F240072050020CB
S3150000042071050020700500206E050020002208B529
S31500000430044B60F07F0018705A70FFF7B1FF024B53
S31500000440587808BD3405002024050020B5EEC00A02
S31500000450F1EE10FAF8B504462DED028B1546B0EE16
S31500000460408A3FD400274E1EFCEEC88A224A18EE68
S31500000470903A05F009FF3844B0422DDA2E2300F1F8
S31500000480010C6645235404EB00011FDDF8EE688A73
S31500000490B2EE047A38EE680A6A1C024420EE070AB5
S315000004A0FDEEC07A17EE903A092BA8BF092307EE96
S315000004B0903AF8EEE77A0CF1010C3033944530EEC1
S315000004C0670A01F8013F08D06645E7DC624600236B
S315000004D0A354BDEC028BF8BD0B220023A354BDEC44
S315000004E0028BF8BD2D234E1EB1EE408A3146012700
S315000004F000F8013BB8E700BFE88700002DE9F04FA0
S315000005009F4BEDB01B78042B04D19E4A1388013310
S315000005109BB213809C4B1A781AB11A78013AD2B260
S315000005201A709A4E9A4D33889BB223B12B7803F0FA
S31500000530FF01002B77D02B78002B40F08D80954D56
S31500000540954CB4F90030002B03DB944A1278072A45
S315000005503DD9934B1B7843B1924A138801339BB222
S31500000560B3F5FA6F138080F0E1802B7863B38B4B81
S315000005701B78072B28D88C498C4A0B8812880133A4
S315000005809BB292B293420B801ED30022884B8948BD
S315000005901B7890ED000A03F0FF040A80002B00F0A0
S315000005A04C82F6EE007A30EE270ABDEEC00A10EE57
S315000005B0101A814F814E3A78531CDBB2042B3B70E4
S315000005C026F8121000F27E816DB0BDE8F08F122B76
S315000005D000F3BC807A4E03EB430106EB8101087AF7
S315000005E05A00002800F049817649774F012808BF54
S315000005F039461A4456F8223006EB82060091734AB1
S31500000600717A734E2CA8002918BF16464FF48071D4
S31500000610704A019605F038FE2CA8FFF781FE238864
S315000006200133238095E76C4A138801339BB213800C
S3150000063013889BB2C72B7FF67EAF3388674A9BB27F
S31500000640D1540123664A2B70138801339BB2138061
S315000006502B78002B3FF473AF002432885F4992B2A7
S3150000066001320CA805F07EFE0CA834802C7005F033
S3150000067086FE00283FF463AF0CAB5A4D1A1805E00E
S31500000680CB070BD5013814703FF459AF12F8013D72
S31500000690093BDBB2172B25FA03F1F1D9524C0422A0
S315000006A02388524901339BB20CA8238005F035FEFE
S315000006B0044600284ED14E4A25461388404E013343
S315000006C09BB20DAF138003E00135132D00F0CA80F5
S315000006D056F82400394605F03BFE03340028F3D1D2
S315000006E005EB450506EB85052B7A012B00F093817A
S315000006F0022B00F0F581002B40F0F0816B6808AD0D
S3150000070093ED000A0422102128462CACFFF79EFE2A
S315000007104FF480713B462046364A009505F0B4FDFD
S315000007202046FFF7FDFD1B4D1B4C0AE71B4B1B78B4
S31500000730072B3FF61AAF00232F481380FFF7F0FD73
S315000007402E4A138801339BB213800EE74FF6FF73D0
S315000007502380FEE604222A490CA805F0DEFD0546A4
S31500000760002840F08C800DAF2021384605F0C8FDEA
S315000007708046002800F05B812C46114E057044E04F
S31500000780EA050020E405002085050020F60D00207E
S31500000790F50D002084050020AC000020F0050020A7
S315000007A08C050020A004002082050020B200002055
S315000007B0AE00002054380020140500201805002043
S315000007C0DC890000EC870000F4870000F887000051
S315000007D0FC8700008C880000EC050020F80D002046
S315000007E086050020130080008A050020DC880000B2
S315000007F088050020008800009C8800009A050020DB
S31500000800388800000135132D2CD056F824003946BF
S3150000081005F09EFD03340028F4D105EB450506EBF3
S3150000082085056B7A002B00F088812B7A08F1010888
S31500000830012B00F0F081022B00F0FD81002B40F02F
S315000008404D81404604F00EFE51EC100B04F0BAFD4B
S3150000085000EE100A6B6808AD04221021284683EDCD
S31500000860000A52E73B464FF48071B74A2CA805F0C0
S315000008700BFD2CA8FFF754FD61E6B449B9E6092241
S31500000880B3490CA805F049FD002800F0B0809DF89A
S315000008903030522B40F030819DF83130002B40F043
S315000008A02B81AC4D2B7803F0FF02002B7FF448AE72
S315000008B00123A949A9480A70A949AA4C02800A70CD
S315000008C02B703EE6DFF8D8A203229AED000A0C212F
S315000008D02CA8FFF7BBFD05234FF48071A24AA3485D
S315000008E005F0D2FC0224DFF88482DFF8D49206F108
S315000008F00A0B36F9023BC4F5807108EB04004A4640
S3150000090005F0C2FC5E450444F3D1C4F5807108EBE2
S315000009100400974CF6EE002AD4ED007A954A964BE1
S3150000092092ED007A9AED004AD2ED016AF2EE043AAF
S3150000093092ED026A9FED913AD3ED005A9FED902A0F
S3150000094093ED015A77EEA27AD3ED024A24EE024ADB
S3150000095027EE037A66EE836A26EE036A65EEA35AED
S3150000096025EE235A64EEA34AFCEEE77AFDEEE44A4E
S31500000970BDEEC55AFDEEE55ABDEEC66AFDEEE66A67
S31500000980BDEEC77ACDED007AFDEEC47A7D4A17EE4C
S31500000990903ACDED064A8DED055ACDED045A8DED12
S315000009A0036ACDED026A8DED017A05F06DFC6F48A4
S315000009B0FFF7B6FC0021744A3970138805339BB2E1
S315000009C01380724B1A78002A3FF4FEAD624A1878FB
S315000009D013780133DBB283421370FFF4F5AD6C4834
S315000009E029700388117001339BB20380ECE59DF9F1
S315000009F03930202B00F0E68064220023012065496F
S31500000A00574C0A80534D5549534A237028700B8022
S31500000A10544C137095E56B682CAC1D784FF48071BF
S31500000A203B4620465C4A009505F02EFC78E65B487E
S31500000A30FFF776FC474D4B4C83E501220C2108A8B5
S31500000A40FFF704FD564B0CAE93ED000A0C21032272
S31500000A503046FFF7FBFC464BB6EE006AD3ED007A54
S31500000A60504B77EE867A93ED007A4F4B37EE067A47
S31500000A70D3ED006A76EE866ABCEEC77AFCEEE66ACD
S31500000A80FCEEE77A4FF48071484A08ABCDED036A75
S31500000A908DED027ACDED017A00962CA805F0F4FBD7
S31500000AA02CA8FFF73DFC384A3849138801339BB21E
S31500000AB013800B78002B3FF487AD274A097813780B
S31500000AC00133DBB28B421370FFF47EAD30492C70DC
S31500000AD00B88147001339BB20B8075E52CAC1FE6B6
S31500000AE06B682CAC1D684FF480713B462046304A3B
S31500000AF0009505F0C9FB13E69DF93030462B71D001
S31500000B002C490CA805F024FC70B12B490CA805F063
S31500000B101FFC48B19DF83030532B40F09E809DF865
S31500000B203130002B40F0998000230A4D0A490C4AC7
S31500000B302B700B700B4C137003E53B464FF4807122
S31500000B401E4A2CA893E600BF24880000F087000008
S31500000B506C880000840500208005002082050020A6
S31500000B6014050020AC000020A4880000A00300208B
S31500000B70A80E0020540500204805002000007A44F5
S31500000B800000C842AC8800007E050020B1000020AD
S31500000B907C050020B20000200C8800004088000080
S31500000BA01C380020C0000020BC000020C8880000BF
S31500000BB018880000788800007C88000058880000AB
S31500000BC0A88800000DF13A0004F04FFC83B2642BB4
S31500000BD028BF6423012B4FF47A7238BF0123B2FB7E
S31500000BE0F3F20AE79DF83130303B092B88D80DF136
S31500000BF0310004F03AFC83B2642B28BF6423012B36
S31500000C004FF47A7238BF0123B2FBF3F21849194D3B
S31500000C10194C0A8095E4404604F027FC6B68C0B284
S31500000C202CAC18704FF4807100903B462046134A56
S31500000C3005F02AFB74E501460A22404605F01AFB38
S31500000C406E6805462CAC35604FF480713B462046F5
S31500000C500B4A009505F018FB62E50A490CA805F059
S31500000C6077FB00287FF46BAC034C024D208068E4D0
S31500000C70B200002084050020AC0000200C88000093
S31500000C8018880000848800002DE9F04F2DED028BB6
S31500000C90B74FDFF87C833E464146B64889B001F03F
S31500000CA0D3FED8F8044004F1200C3546206861686C
S31500000CB0A268E368103464450FC506F11006F4D146
S31500000CC020686168A268002307C64FF4FA62AA4941
S31500000CD0D8F80040A94DA7483A85C1E90047FB620C
S31500000CE03D6101F097FEFFF70DFAFFF713FBA449EC
S31500000CF0A44803F0FDFC0346A349A248059303F06C
S31500000D00F1FD034600219F48069303F065FF9D4CC5
S31500000D100790204604A903F095FC9DF81030022B9D
S31500000D20F7D09A499A488DF8123002F0D3FE9848C7
S31500000D3002F0A8FE002240F60551964802F0EEFDAC
S31500000D400120954904F024F9012240F60551914805
S31500000D5002F0E4FD4FF47A710A2004F019F94FF01D
S31500000D6008228E4B012187481A6003F051FC0421AA
S31500000D70844803F04DFC0221894803F0A1FA0221C0
S31500000D80884803F09DFA0221874803F099FA8749BB
S31500000D90874803F075F8864802F0D6FE844802F0CC
S31500000DA0C7FE152240F606617A4802F023FE0122AC
S31500000DB040F60661774802F0B1FD012240F6026175
S31500000DC0744802F0ABFD4FF47A714FF4FA6004F008
S31500000DD0DFF8052240F606616E4802F00BFE01229E
S31500000DE040F606616B4802F099FD4FF47A714FF4B4
S31500000DF0FA6004F0CDF86F4D40F605610DF113026F
S31500000E00644802F079FD6C4B9DF8132028466B4927
S31500000E101A7002F0B1FA0446002800F0B581632387
S31500000E20674A68490392009113706749674801F061
S31500000E30F3FE674BC2B205461A70002800F0CC815B
S31500000E40644B654C0193DFED658A9FED658ADFF89B
S31500000E50C4B1644F644DDFF8C0A1DFF8C091DFF87C
S31500000E60C081624EDBF80030012B38D03B78002B76
S31500000E7040F0D88098F80030002BF3D0009B1B7808
S31500000E80002BEFD15A4A1378002BEBD159485A4917
S31500000E90007801EB002005F072FA80B10123009979
S31500000EA0024654480B700178534B424803EB01212C
S31500000EB002F0A0F9514B4E4A1B78DBB213704D4A33
S31500000EC01378013303F00703137098F80030013BE1
S31500000ED0DBB288F80030DBF80030012BC6D135488C
S31500000EE002F0CAF9102240F605612A4802F082FD96
S31500000EF000224348434BD0F8FC1041F08071C0F803
S31500000F00FC105A60D3F800C04FF47A714CF0010C13
S31500000F10C3F800C04FF4FA7004F03AF80223002236
S31500000F20CBF80030384B1A60B6F8C43013F0200303
S31500000F30FAD1344A5360B6F8C4309B06FBD5032376
S31500000F40304A3149526813480A60304A40F6056112
S31500000F50CBF8003002F04EFD1849164802F00CFAA4
S31500000F600423039A13703B78002B83D05AE000BF0A
S31500000F70E404002090380020DC040020000020411A
S31500000F80B08C00004C390020048E0000F88A000066
S31500000F90D03800208838002040420F00DC000020B6
S31500000FA0EC3800200C3900202C390020248F00005A
S31500000FB07439002094390020B5000020808F00008D
S31500000FC0EA050020F40D0020B48F0000C43900208B
S31500000FD0B000002078050020340500200000003A0B
S31500000FE033338341440500202405002000F10140ED
S31500000FF085050020F1050020F4050020B40000203E
S3150000100000ED00E0001000E0900500200000010562
S31500001010C08A0000940500206805002060050020B5
S31500001020F005002000233B70019B1B78002B3FF44A
S3150000103021AF9F232380FFF7B3F9A0236A7823808B
S315000010400292FFF7ADF9A123029A23806B7843EA57
S3150000105002231BB2AAF80030FFF7A2F9A2236A788E
S3150000106023800292FFF79CF9A323029A23806B78D0
S3150000107043EA02231BB2AAF80230FFF791F9A42330
S315000010806A7823800292FFF78BF9A523029A2380C0
S315000010906B7843EA02231BB2AAF80430FFF780F903
S315000010A0A6236A7823800292FFF77AF9A723029A89
S315000010B023806B7843EA02231BB2A9F80030FFF7BE
S315000010C06FF9A8236A7823800292FFF769F9A923AA
S315000010D0029A23806B7843EA02231BB2A9F80230F6
S315000010E0FFF75EF9AA236A7823800292FFF758F980
S315000010F0029A6B7843EA02231BB2A9F80430BAF8C5
S315000011000030624A1BB207EE903AF8EEE77A67EED5
S31500001110A87AC2ED007ABAF802301BB207EE903A0E
S31500001120F8EEE77A67EEA87AC2ED017ABAF80430EB
S315000011301BB207EE903AF8EEE77A67EEA87AC2EDB0
S31500001140027AB9F80030524A1BB207EE903AF8EE2E
S31500001150E77A87EE887A82ED007AB9F802301BB218
S3150000116007EE903AF8EEE77A87EE887A82ED017A12
S31500001170B9F804301BB207EE903AF8EEE77A87EE3C
S31500001180887A82ED027A75E60223424F424A40F699
S31500001190066142483B70039702F02CFC4FF47A71CB
S315000011A04FF4FA7003F0F4FE3D4B214640223D48D1
S315000011B01C7005F09DF83C4B3C4E00930423348094
S315000011C0394E3B4A2D6A34702C69517839483A4A6F
S315000011D0046011703B7028E64FF47A710A2003F020
S315000011E0D7FE012740F21113344E354C3770238059
S315000011F0FFF7D6F84FF47A710A2003F0C9FE0223EE
S3150000120075203370FFF712F903222E4B18703270D7
S315000012101B78422B03D02C4B01931D7013E67623CB
S315000012202380FFF7BDF84FF405632380FFF7B8F876
S315000012304FF47A71384603F0ABFE40F64F03238035
S31500001240FFF7AEF84FF47A71384603F0A1FE40F688
S315000012504E732380FFF7A4F84FF47A71C82003F089
S3150000126097FE4E20FFF7E2F80346184A5020137007
S31500001270FFF7DCF80346164A2D201370FFF7D6F861
S315000012801149144A019110700F70DCE554050020D5
S3150000129048050020EA0500201000010588380020D6
S315000012A0A0050020A4050020F40D0020E80500207C
S315000012B0E00000209C050020980500207405002011
S315000012C034050020790500207805002077050020E8
S315000012D07605002075050020022800D070470249D7
S315000012E0024802F07DBB00BF18900000883800203D
S315000012F02DE9F04F2DED0A8B048B8BB0012C04D019
S315000013000BB0BDEC0A8BBDE8F08F474E0DF10F0216
S3150000131033684FF4306101334448336002F0ECFA2D
S315000013209DF80F30424AB3FA83F35B0913701378C2
S31500001330002B35D13F4B1B78002B36D13E4B3F4D12
S3150000134001933F4C012122463E4803F075FC21786B
S31500001350002900F0588500234A1EDFF80091DFF8C7
S315000013600081394FDFF8FCA0D2B204EB830C9CF865
S315000013700700032BBCF804E0C0F3C01BC0F3060C47
S3150000138022D8324893422AF813E000F803C029F81D
S3150000139013E008F803C007F803B021D00133E4E7EF
S315000013A0244B1C701B78002BC8D04FF07C530021B7
S315000013B00020224D264A204C116001942070516075
S315000013C02B606B60AB60BCE7934229F813E008F82A
S315000013D003C007F803B003F1010301D0082BC4D101
S315000013E000231C481C4FDFF880C0DFF88080DFF840
S315000013F080E0017004EB8300C179808801F07F01F1
S315000014000E293CD8DFE811F03A003B003B003B00D8
S3150000141011033B003B003B003B003B003B003B0015
S315000014200E030B03080300BF403600208838002057
S31500001430C10E0020C00E00205C380020403800207D
S31500001440B80400204C390020103600200436002055
S315000014502C380020303600204C3800202036002062
S315000014601836002008360020A40E0020A20E002008
S31500001470A60E002000F07F45333353403880934258
S3150000148003F1010301D0082BB4D1BEF800305FEDA3
S31500001490076A9BB207EE903AB8EE677A5FED0A5A92
S315000014A0C7EE267AB2EE0A6A67EEA57A67EE867A04
S315000014B0DC4CC4ED007ABCF800309BB20A2B07D98D
S315000014C040F6F472BCF800309BB2934240F22C8492
S315000014D0B8F800309BB20A2B07D940F6F472B8F878
S315000014E000309BB2934240F25B84DFF8D88398F8D1
S315000014F00030002B40F0C982CB4BDFEDCC7A93ED68
S31500001500007AB4EEE77AF1EE10FA40F1DE83D3ED1D
S31500001510007A9FEDC77A77EE877AC3ED007A93ED6E
S31500001520007A3368C34E642BD6ED0D7A94BF002340
S31500001530012367EE877A019ADFF88CA3DFF88CB374
S31500001540DFF88CC3DFF88C93137059465246BA4BBA
S31500001550BA4889ED007ACCED007A01F0F1F8B84B83
S31500001560DBED006AD3ED007A9FEDB67A76EEE77A88
S31500001570F4EEC77A9AED006AF1EE10FAB24A82EDFD
S31500001580006A40F376829FEDB17A77EEC77AB0486B
S315000015909FEDB07AD0ED005A77EEA57A27EE877ADE
S315000015A0BDEEC77AAC49C3ED006AAC4A0B88DFF8DA
S315000015B028E302EB830201339BB2DFF820C3632BDF
S315000015C092ED005ACEED007AC0ED007AC2ED007AB7
S315000015D08CED007A0B8040F22A82002301220B80D8
S315000015E09F4B1A7077EEC57A9FED9E5A96ED006A6C
S315000015F0C7EE855AB6EE007AC5EE86BAF4EEC7BADD
S31500001600F1EE10FA01D5DFED98BAD6ED0D7A9FED21
S315000016108D6A77EEA77A9FED957A67EE867A87EEE2
S3150000162087CAB5EEC0CAF1EE10FA914BC3ED00BA07
S3150000163040F343838F4BF7EE007AD3ED004A93EDE8
S31500001640006A8D4B2BEE877A8BEE8CAA9FED7F4A34
S3150000165093ED005A77EEE47AC7EE045A67EE857A80
S3150000166026EE0A7A77EE877AD9ED00AAF4EECAAAB0
S31500001670F1EE10FA4FF0010CC3ED007ACCBF7AEE12
S31500001680CA7A7AEE6A7A7D4B7D4EC3ED005A7D4B5F
S3150000169086ED00AA83F800C07B4B7C48C3ED007A38
S315000016A07B4BDFED7C3AD3ED007A77EEA67A7A4B68
S315000016B09FED7A3AC3ED057A93ED056AC3ED057A97
S315000016C0B7F802903F880BEE109A09EE907A478899
S315000016D0008807EE907AB8EE4BBAF8EE677A07EE16
S315000016E0100AF8EE699AB8EE477A7BEE677A39EE19
S315000016F0C77A67EEA37A27EE237A77EEA77A77EE94
S31500001700877AD3ED045A67EE837A67EE256A67EE29
S31500001710063A27EEA58A27EE867A6149614A91ED57
S31500001720005AD2ED004A76EE877A38EE638A9FED4C
S315000017303F4A77EEC57A38EE648A67EE847A28EEF9
S31500001740048A37EE855A38EE248A019BDFF890E149
S315000017501B7881ED005A82ED008A8EED008A002BFF
S3150000176000F0B481504B1A78002A00F0C2824F4B29
S3150000177093ED004A4E4BD3ED006A4E4BDFED4E4AD9
S3150000178093ED007AD3ED017A4C4B37EE457AD3EDE3
S31500001790003A93ED023A77EEC87A27EE237A67EE9F
S315000017A0837A37EE047A77EEA67A67EE076A27EE33
S315000017B0A74A76EE846AF4EEE46AF1EE10FA00F3D4
S315000017C0E48267EE256A67EE864A27EE066A67EECA
S315000017D0A57A76EEE46A77EE867ADFED395AB6EECA
S315000017E0007A67EEA57A26EE877AB1EE476A37EE7B
S315000017F0C77AF4EEC76AF1EE10FA76EE677A40F130
S315000018006882B4EEE77AF1EE10FA00F17F82F0EE2C
S31500001810475AB0EE666AB4EE676AF1EE10FA37FE22
S31500001820866A5FE0A80E0020F0370020CDCCCC3DC4
S31500001830ACC5273738000020343800209038002007
S3150000184054360020DB0F494044360020DB0FC940E8
S31500001850503600204576743F5A3600205C3600200C
S31500001860583600200AD7233C0000000000007042D2
S315000018704C360020D40000202438002054380020A4
S3150000188028380020F4350020F0350020DC00002048
S31500001890BC0E00200000003A001002403ACD133F73
S315000018A0B4040020B0040020AC040020A8040020EA
S315000018B0A40400202C3800203D0A673F8800002041
S315000018C0D0B35D3FEC370020383800203C3800208C
S315000018D058380020F437002048360020800E0020BB
S315000018E01C380020DFF8DC9136EE256A99ED003AC7
S315000018F0FEEE002A38EE033A26EE226A89ED003A19
S31500001900634877EE868A68EE084AD0ED007A37EEAD
S31500001910069A34EEA77A80ED007A5E49F6EE005A12
S3150000192091ED007A35EE077A76EE866A81ED007AD9
S31500001930DFED593A66EEA56A29EE259A68EEA58A84
S31500001940564A25EE054A92ED007A66EEA36A29EE1E
S31500001950239A68EEA38A34EE077A76EEA57A39EEF4
S31500001960259A78EEA58A4E4F82ED007A3B68C5ED42
S31500001970007A01333B603B6885ED019AB3F57A7FC7
S31500001980C5ED028AC0F0B08099ED006A97ED007A45
S31500001990B8EE477AC6EE076A424BC3ED006AD0ED51
S315000019A0006A97ED007AB8EE477A86EE870AB5EEBA
S315000019B0400AF1EE10FA00F18782B1EEC07A3A4B96
S315000019C083ED007A91ED006A97ED007AB8EE477ADA
S315000019D0C6EE076A354BC3ED006AD2ED006A97ED95
S315000019E0007AB8EE477A86EE870AB5EE400AF1EE3F
S315000019F010FA00F15D82B1EEC07A00234FF0000CC0
S31500001A00DFF8C4E08EED007AC9F8003003600B60A1
S31500001A101360C7F800C067E0AEF800002FE5A8F82D
S31500001A2000002CE5ACF8000029E5788027E5204B7E
S31500001A301B78002B7FF4D6ADF0EEC67A9FED1D7AAB
S31500001A40F4EE477AF1EE10FA3FF6DDADD6ED007A08
S31500001A50F5EEC07AF1EE10FA7FF7D5ADC6EE27BAED
S31500001A60F6EE007AF4EEE7BAF1EE10FA3FF5CBADFA
S31500001A70CBE59FED117AF4EEC77AF1EE10FA44BF8A
S31500001A809FED0E7A77EE877A81E59FED0D7A48E530
S31500001A9004380020003800203ACD933FFC37002060
S31500001AA0F83700201838002014380020103800209D
S31500001AB058360020FFFF7F7FDB0F49C0DB0FC94090
S31500001AC0CDCCCC3D083800200C380020F6EE007A4C
S31500001AD0F0EE678AC5ED007AC5ED017AC5ED027AAA
S31500001AE0B0EE679ACD4A1370B5EEC0CA9FEDCC7AB8
S31500001AF0F1EE10FA9FEDCB6AC8BF8BEE8CAA79EE99
S31500001B00C79A3BEE477A69EE869A27EE067A7AEE10
S31500001B10CA6AC548C549C0ED006AC1ED009A79EEAA
S31500001B20879ADFEDC35A79EE879A4FF0804269EEC5
S31500001B30A59AC04BC8BF86ED00AA1A60BE4ABF4B25
S31500001B40C2ED009A1B78002B49D0BD490B880133A2
S31500001B509BB20B800B889BB2632B40D90020B94BFC
S31500001B6008801988B84A89B201EB810102EB81012C
S31500001B70C1ED00AA1988B54E89B201EB810102EBCD
S31500001B80810181ED01AA1988776889B201EB81018B
S31500001B9002EB810181ED028A0126198889B201EBE7
S31500001BA0810102EB8101CF60198889B201EB8101C5
S31500001BB002EB81010E74198898F8006089B201EB76
S31500001BC0810102EB8102F1B251741A88013292B29C
S31500001BD01A801A8892B2B2F5FA7F28BF18809C4BF9
S31500001BE01B7843B3D4ED006AB2EE047AF4EEC76A0A
S31500001BF0F1EE10FA1FDDB6EE007A94ED006AF3EE10
S31500001C00025A77EEC77AC5EE866A39EE479A78EEBB
S31500001C10C78A67EEA67A29EE269A68EEA68A77EE36
S31500001C20877A39EE079A78EE878AC5ED007A85EDD0
S31500001C30019AC5ED028AD4ED006AB2EE047AF4EE9A
S31500001C40C76AF1EE10FA02DD2268824B1A609FED38
S31500001C50827A824B41F27076C3ED007A67EE877A1C
S31500001C6083ED019AFCEEE77A29EE079AC3ED028A24
S31500001C7017EE904A68EE878AFCEEC97A17EE902A2C
S31500001C80FCEEE87A17EE903AB44228BF3446B242E8
S31500001C9028BF3246B34228BF3346714D04A9714866
S31500001CA02C60CDE905236A600494AB6001F0F0FE78
S31500001CB00BB0BDEC0A8BBDE8F08FDFED6B7A6B4B9A
S31500001CC0F0EE675AB0EE67AACEE4012288F800204B
S31500001CD025E4F4EEE76AF1EE10FAF4EEC76A1AD4D8
S31500001CE0F1EE10FAF0EE665A7FF793ADB0EE476A62
S31500001CF091E5DFED5D6A83F800C05D4A5D4BC2ED9C
S31500001D00006AC3ED006AB0EE664A36E5F0EE675A41
S31500001D10B0EE666A7FE5F1EE10FAF0EE675AD8BFCC
S31500001D20B0EE666AE2DCDDE5BCF80020BCF8003007
S31500001D3092B207EE902AB8EE677A9BB207EE903A17
S31500001D4076EEC76ADFED4C5AF8EE677A66EEA56A5C
S31500001D509FED4A6A86EEA70A80EE060A06F0BEFBEB
S31500001D60DFED477A9FED477A60EE277AB7EE006A95
S31500001D7077EE877ADFED446A86EE277A77EE667A23
S31500001D80424BC3ED007AFFF7A3BBF1EEE64A9FEDA7
S31500001D90404AC4EE246A27EE267A67EEA67A10E554
S31500001DA0B8F800209FED3B7A92B207EE902AF8EE43
S31500001DB0676AB8F8003037EE667A9BB207EE903A5B
S31500001DC0DFED2D5AF8EE677A27EE257A9FED2B6A1E
S31500001DD087EE270A80EE060A06F080FBDFED287AFA
S31500001DE09FED287A60EE277AB7EE006A77EE877A5B
S31500001DF0DFED256A86EE277A77EE667A264BC3ED07
S31500001E00007AFFF772BB254B254FDFF898C0DFF845
S31500001E109880DFF898E01970FFF737BBAC04002014
S31500001E20000000450000003A00360020FC35002086
S31500001E303ACD133FD8000020F8350020C40000201A
S31500001E40DC0E0020DE0E0020E00E00202C380020E4
S31500001E50C5000020700000200080BB45C40E002095
S31500001E60D00E0020D03800200000000024380020CA
S31500001E70A4040020A804002000401C4600E0AB4655
S31500001E80467967390FCF5B3B33938843C000002008
S31500001E903333733F00F07F45BC000020303600200E
S31500001EA04C380020A40E0020A20E0020A60E002012
S31500001EB0CDED017A06F042FBDDED017AB0EE407A17
S31500001EC007490848084A98E5CDED017A06F036FB41
S31500001ED0DDED017AB0EE407A01490248024A6EE52C
S31500001EE00038002004380020FC370020704700BF6F
S31500001EF02DE9F041BF4D82B02B6801332B602B6872
S31500001F00B3F57A7F00F075822B68B3F5FA6F00F0AF
S31500001F100882B94BB94F1B783878002B00F06E82D7
S31500001F20B74BB84AB849D2ED007A93ED007AB4EED1
S31500001F30E77AF1EE10FA48BFD3ED007A93ED007A16
S31500001F40B1EE477AB4EEE77AF1EE10FAC8BFD3EDF8
S31500001F50007A4FF00002C8BFF1EE677AAB4B0A6019
S31500001F601A60C3ED017AAA4B187040F60E610DF1A6
S31500001F700602A84801F0C0FC9DF80620A649A2F179
S31500001F800104B4FA84F4A5480B786409047033B9E3
S31500001F90012A00F05B82A249A24A0B601360A24BA1
S31500001FA0F2EE087A93ED007AB4EEE77AF1EE10FAE3
S31500001FB040F1738193ED007AF7EE007AB4EEE77A9A
S31500001FC0F1EE10FA40F36981984BDFED997A93EDC3
S31500001FD0007AB4EEE77AF1EE10FAC0F26882DFED2D
S31500001FE0957A0323944A9FED927AD2ED006AF4EE35
S31500001FF0C76AF1EE10FA80F2E681D2ED006A9FED33
S315000020008F7AF4EEC76AF1EE10FAC0F209829FEDFC
S315000020108C7AF4EE477A022B38BF0223F1EE10FADF
S3150000202077FE277A874E884A3370C2ED007A337876
S3150000203040F60521022B88BF00230DF107027548E3
S3150000204088BF3B7001F058FC9DF807407F4AA4F119
S315000020500101B1FA81F1137849098B4200F0C5817B
S315000020607B48038801339BB21D2B038011D90023C3
S31500002070012C117003800CD07648774A037801331F
S31500002080A2FB031202F4FF7101EB52029B1ADBB2B0
S31500002090037040F60A510DF107025E4801F02CFC70
S315000020A09DF807306D49A3F10100B0FA80F00A7877
S315000020B04009824200F09581DFF8C8C1BCF80020D3
S315000020C0013292B21D2AACF800200BD90022012B56
S315000020D00870ACF8002005D061490A78B2FA82F29D
S315000020E052090A705F4A013CD2ED007A18BF0124FA
S315000020F04FF00000013B18BF01239DF80610FDEECE
S31500002100E77AA1F10101B1FA81F164F3070063F303
S315000021100F20554C554B96F80080D4F800E01C88EB
S31500002120534B4909197617EE901A3F78514A003FEA
S3150000213018BF012719811188DFF84CC1198251880F
S31500002140928859829CF80010A4B29A821F7083F874
S315000021500180C3F804E0DC60D88201F0FF020029A8
S3150000216040F0E7803378022B00F2E380337803F007
S31500002170FF01002B00F08E8140F60F51254801F03B
S31500002180CDFB3D4B2A6840F60641A3FB02326FEABF
S315000021901212204802F0010201F0C0FB374B1A78F8
S315000021A0002A40F0D7802E4B40F607411A7819488E
S315000021B0B2FA82F2520901F0B1FB314B1B889BB295
S315000021C0002B40F0E280234C40F603512278114860
S315000021D0003A18BF012201F0A1FB227840F6025115
S315000021E0013A18BF01220B4801F098FB227840F60D
S315000021F001514BE03C360020D00000205C38002026
S31500002200C8000020CC000020503800202C380020C8
S315000022102038002088380020B50E0020B40E00209B
S31500002220B80E0020B00E0020A80E0020C00000202E
S315000022300000B44200000000BC0000200000A042E4
S315000022409A99993EA00E0020B8000020B700002001
S315000022507A0E00207D0E0020ABAAAAAAB6000020A6
S315000022607C0E002054380020800E0020A60E002090
S31500002270840E002068050020D34D6210EA05002078
S31500002280E8050020780E0020C00E0020023A18BF94
S3150000229001229C4801F042FB89E093ED007AF2EEC0
S315000022A00C7AB4EEE77AF1EE10FA21D593ED007AC6
S315000022B0F7EE007AB4EEE77AF1EE10FA18DD924BFB
S315000022C0DFED927A93ED007AB4EEE77AF1EE10FA4A
S315000022D0BFF685AE93ED007ADFED8D7AB4EEE77A40
S315000022E0F1EE10FA19DA1B68F6EE007A012379E6A8
S315000022F0854BDFED867A93ED007AB4EEE77AF1EE60
S3150000230010FABFF66CAE93ED007ADFED817AB4EE8B
S31500002310E77AF1EE10FAC0F2D980DFED7E7A022379
S3150000232060E67D4A7D4B11681B687D4A5B1A136027
S31500002330EFE5012240F60F51724801F0EFFA002254
S3150000234040F606416F4801F0E9FA764B1A78002A02
S315000023503FF429AF1A78012A00F0D1801B78042BAC
S3150000236000F0C6802A68704BA3FB02326FEA521255
S3150000237040F60741634802F0010201F0CFFA6B4BC9
S315000023801B889BB2002B3FF41EAF002240F6035180
S315000023905C4801F0C3FA012240F60251594801F0A7
S315000023A0BDFA012240F60151564801F0B7FA604ADB
S315000023B0138801339BB2092B09D81380FEF79EF8C8
S315000023C002B0BDE8F081DFED5B7A03232AE6002048
S315000023D00121594B10801970FEF790F802B0BDE844
S315000023E0F0810021554A11807CE60022544B1A8068
S315000023F04FE64A4A484B12681A608AE5514B524AE0
S31500002400D3ED001A514B524993ED001A514BD3EDBF
S31500002410000A514B93ED000A504BFDF78BFEA4E5E5
S31500002420D2ED006A9FED4E7AF4EEC76AF1EE10FA2D
S31500002430FFF6F8AD9FED4B7AF4EE477A012B38BFE5
S315000024400123F1EE10FA77FE277AEBE540F6B73670
S31500002450454CDFF824C120680130B0422060CCF83A
S3150000246000007FF69CAD4FF07C544FF0000C0A70D4
S315000024703E49374E3B703E4B0A70224840F60751A4
S315000024801C60C6F800C0C6F804C05C609C6001F021
S3150000249045FA84E50A461B4840F60F5101F03EFA1C
S315000024A0012240F60641174801F038FA4DE793ED50
S315000024B0007ADFED177AB4EEE77AF1EE10FABFF69E
S315000024C08EAD1B68DFED1B7A03238BE593ED006A67
S315000024D0DFED236AB4EEE66ADFED227AF1EE10FA5A
S315000024E0B7EE007AACBF0123002367FE877A79E551
S315000024F0002240F60741034801F010FA3FE72A6838
S315000025001C4B31E788380020C00000200000B44290
S315000025100000A0429A99993E3836002040360020A5
S3150000252034360020EA050020D34D6210E80500206D
S31500002530A20400200000000044050020780E0020C0
S315000025407A0E0020D8000020503800201C380020C9
S315000025502C38002024380020F437002020380020B2
S3150000256000008C423333333FB80E0020AC0E0020FF
S31500002570403800201F85EB51B00E0020064A07495F
S3150000258013780133DBB213700379012B08BF044AB9
S315000025900B7008BF1370704773050020AF00002052
S315000025A07A0500200379023B1E2B11D8DFE803F0E1
S315000025B043101710101011101010101010101110D9
S315000025C01010101010101010101010101010110014
S315000025D07047214A138801339BB21380704710B4A9
S315000025E01E491F4A0B88007A01339BB20B80137871
S315000025F03F2B06D813781B4C591CC9B2DBB211709D
S31500002600E054194A137803F0FF018BB90D2816D050
S315000026100A2814D0154A13889BB27E2B08D8138833
S315000026209BB25C1CA4B21480114C124AE054118077
S315000026305DF8044B704700220F4B1A7070470B4928
S315000026400B889BB2002BF3D0002401200B8808498D
S315000026509BB2CC541070EBE7E6050020E80500209D
S31500002660A0050020A4050020F50D0020F60D002091
S31500002670F80D0020EC050020F40D0020FFFFFFFF01
S315000026809FED010B704700BF000000000000F07FC7
S315000026909FED010A704700BF0000807FFFFFFFFF2C
S315000026A09FED010B704700BF000000000000F0FF27
S315000026B09FED010A704700BF000080FFFFFFFFFF8C
S315000026C09FED010B704700BF000000000000F8FFFF
S315000026D09FED010A704700BF0000C0FF08B5FFF775
S315000026E0EFFF0E4B83ED000BFFF7F2FF0C4B83ED74
S315000026F0000AFFF7C5FF0B4B83ED000BFFF7C8FF82
S31500002700094B83ED000AFFF7CBFF084B83ED000B67
S31500002710FFF7CEFF064B83ED000A08BD7038002098
S315000027206038002080380020683800207838002083
S315000027306438002008B5FEF7A7FA002008BD00BFE0
S315000027402DE9F043C36B06795C6846712388A94F6F
S315000027501D0A2D0155FA83F357F82330C3F34003BE
S315000027609B00037165884FEA152C4FEA0C1C5CFA36
S3150000277085F557F8255005F002052B430371A5880A
S315000027804FEA152C4FEA0C1C5CFA85F557F82550D4
S31500002790C5F3400E4EEA030E80F804E0002E00F06A
S315000027A0C480038EA58C9D4284BF013303860389B2
S315000027B001339BB20381B4F82880984528BF984618
S315000027C07645A0F8088000F0B380A31D9C4690F8DB
S315000027D0069004F10C0580F807901CF8017F7745F8
S315000027E005D11CF8017CB74204BF012787716545F6
S315000027F0F3D113F801CBE64504D11F78B74204BFE5
S31500002800002787719D42F4D1857D6B1CDBB2062BB8
S3150000281028BF002300EB4505A5F80A808679837555
S31500002820B14500F0AD8000273D46BC46E38C63F31E
S315000028300F0763F31F47C0F80A70E78C984667F3E3
S315000028400F0567F31F45C0F80E50E58CB94665F3D2
S315000028500F0C65F31F4CC0F812C0AC4643443B4412
S315000028604B442B44634407EE903A9FED637AF8EEAF
S31500002870E77A87EE276A012E1ABFB1EE466A9FED08
S315000028805F7A9FED5F7A002380ED076A80ED067A16
S315000028900381D4ED046ADFED5B7A66EEA76A66EE25
S315000028A0866AC0ED086AD4ED057A6FF00407DFED9D
S315000028B0564A9FED515ADFED555A37EE277A631D7A
S315000028C004F10B063F1B9C4613F8015F75450DD1BD
S315000028D007EB0C0507EE905AF8EEE77A67EEA47A56
S315000028E067EE857A87EEA56A37EE067AB342EAD1B5
S315000028F0DFED417AB4EEE77AF1EE10FA31DD37EE2C
S31500002900677AF0EEE67A94ED0B6AB4EEE76AF1EEDA
S3150000291010FA03DD90F83830012B3BD0002380F805
S315000029203830C2ED006A81ED007A0020BDE8F08300
S3150000293090ED067AD0ED076ADFED307A37EE267A2B
S31500002940B4EEE77AF1EE10FA80ED067A11DCDFEDEF
S315000029502C7AB4EEE77AF1EE10FA0AD4D0ED086AD2
S31500002960A1E7B5EEC07AF1EE10FA48BF37EE277A46
S31500002970C7E7C0ED067AD0ED086AB0EE677A92E74F
S315000029804389B0F80C80C789B0F81090458AB0F832
S3150000299014C063E7A58C038E9D421AD890ED0D6A8C
S315000029A0B5EEC06AF1EE10FAD0ED0A6AD0ED0B7AF8
S315000029B012DB76EEA76AC0ED0A6AD4ED077AF4EE6A
S315000029C0E76AF1EE10FAACDDC0ED0A7AF0EE676A5E
S315000029D0A7E7DFED0F6AA4E776EEE76AC0ED0A6ABD
S315000029E0D4ED077AF1EE677AF4EEE76AF1EE10FAC3
S315000029F097D5E9E700F80140DB0FC940920A063F88
S31500002A00920A06BF00007A44000070420000B443F8
S31500002A10000000000346D9634A68F7EE006A92EDAB
S31500002A20047AC6EE877AC3ED0B7A92ED077A67EEE3
S31500002A30877AC3ED0B7AD2ED086A87EEA67A002074
S31500002A4083ED0B7A704700BF70B5C16303464868D3
S31500002A50F7EE006A90ED047AC6EE877AC3ED0B7A3C
S31500002A6090ED077A67EE877AC3ED0B7AD0ED086AA8
S31500002A7087EEA67A4FF0000E0024012583ED0B7A2F
S31500002A800F4E486803F1080203F1140C5E6083F8E8
S31500002A903850C3F818E0C3F81CE0C3F820E0C3F8C8
S31500002AA028E0C3F834E01C819C751C86C18C22F892
S31500002AB0021F6245FAD1034A00201A6070BD00BFAA
S31500002AC0000001014853544D2DE9F0411D4683682D
S31500002AD09DF818C01E6E002E5FD1BCF10F0F044684
S31500002AE00F46C0E90312C0E90566C56180F820C03B
S31500002AF04CD8BCF1070F94BF4FF000084FF0010807
S31500002B0063685969C9B14FF0020CA5615B69A8B247
S31500002B1059680968C881C8788A6068F30510C87062
S31500002B2088786CF383008870002A3AD09A6818680F
S31500002B305368984700282CD163681A699AB1022015
S31500002B4065611A69ADB253681968CB78CD8168F3AF
S31500002B50051360F383034F60CB704FB3936810681F
S31500002B605B689847A8B90121A26894F820005369C8
S31500002B7023F4F81343EA00435361A3683046D96649
S31500002B80A26893680B439360BDE8F0814FF002089A
S31500002B90B6E706463046BDE8F08108263046BDE871
S31500002BA0F081C0B262F38300054A88708A60BDE78F
S31500002BB0DBB267F38303CB70024B4B60CEE700BFFB
S31500002BC0083A0020043A002010B49DF8044001940D
S31500002BD05DF8044BFFF778BF30B5836A85B00446CD
S31500002BE08C4601ADABB193E8070085E80700626843
S31500002BF01846127883F804C01A60E26A9A60636A1B
S31500002C009847A36A1BB195E8070083E8070005B05B
S31500002C1030BD2B46EBE700BF2DE9F0470B78D1F826
S31500002C20108003F5800303F58D530D4604461F02FD
S31500002C30B8F1000F13D04FF00062D8F804301B68CB
S31500002C401A60D8F804301B689F60D8F80830D8E9B5
S31500002C5000011B6898470646002840F01A816B69F8
S31500002C6083B14FF400215A68126811605A681268DD
S31500002C7057609A68D3E90001126890470646002813
S31500002C8040F00A8100236560A9698C4A6162E9699E
S31500002C90C4E90A312B7803F5800303F58D531B0233
S31500002CA0A3606E7A697B002E18BF4FF44412EF7A48
S31500002CB02B6AA87A090341EA47010143D87942EA17
S31500002CC0C0721878002840F0F380B6FA86F0400902
S31500002CD041EAC011587808B942F400329D7842EAB8
S31500002CE00070DA781F7A954045EA072A1F7912069E
S31500002CF02FB1022F0CBF4FF440174FF4001793F873
S31500002D0005C0BCF1000F06D0BCF1010F14BF40F4A2
S31500002D10807040F4407093F809C00CF0030C42EA4E
S31500002D208C020A4393F806C0002E40F0C4801E7B36
S31500002D30D97A36049B7A46EA012642F460421E435B
S31500002D40EFF31088012181F310886368DFF884E1CE
S31500002D501B78DEF80490C3F1130301FA03F329EAA2
S31500002D600303CEF80430DEF8043088F31088544BA1
S31500002D70A568AB66A368534DC3F810A0A3685E6050
S31500002D80A368DF60A3685A61A36820F08042C3F895
S31500002D9040C0A3689A60A3689A68986063684A48C6
S31500002DA09E7993F902303601484AEF18F6B287F851
S31500002DB0006340F8234003F1C00652F8267027F45A
S31500002DC0803742F8267052F82660BFF35F8F5E099F
S31500002DD0B60003F01F0306F1604601FA03F306F599
S31500002DE06146C6F88031336063685E7993F90130D5
S31500002DF03601EF18F6B287F8006340F8234003F176
S31500002E00C00652F8267027F4803742F8267052F82A
S31500002E102660BFF35F8F5E09B60003F01F0306F15D
S31500002E20604601FA03F306F56146C6F88031336061
S31500002E306668337A96F904601B01AF19DBB287F82E
S31500002E40003340F8264006F1C00352F8237027F4F9
S31500002E50803742F8237052F82330BFF35F8F73092F
S31500002E609B0006F01F0603F16043B14003F5614382
S31500002E70C3F8801119600026636893F90320DB7993
S31500002E8015441B01DBB285F80033114B40F8224094
S31500002E9023603046BDE8F087B8F1000FF9D0D8F8C6
S31500002EA00830D8F800001B6A98473046BDE8F0871E
S31500002EB042F080720EE7002642E700BF0010314064
S31500002EC0000080FD00E100E0543A00200060004070
S31500002ED04950535200400840EFF30383103B1F4A0A
S31500002EE05BB203F1C00152F8210020F4803042F8B1
S31500002EF0210052F821201A4A52F82330D3E906213C
S31500002F008A421CD01869996828B393F820C00968CA
S31500002F10BCF10F0F0FD8BCF1070F8CBF20F81210B1
S31500002F20815499684FF000408866D9690132914210
S31500002F309A6104D0704740F822109968F2E75B68FE
S31500002F4093F90330012203F01F0006495B09824012
S31500002F5041F8232070470868E4E700BF006000409E
S31500002F60543A002000E100E030B4EFF30383103B55
S31500002F7031495BB203F1C00251F8220020F48030DF
S31500002F8041F8220051F822202C4A52F823305D687D
S31500002F90DC692A6A50785A6901281CD0A2420FD0EF
S31500002FA0D3E90201A9B193F820400F2C0AD951F8B0
S31500002FB0221001604FF000509968013288665A610C
S31500002FC030BC7047072C03D931F812100160F1E7C5
S31500002FD0895C0160EEE704F1FF3C62450ED0296989
S31500002FE00029DBD095F90320154902F01F04A04003
S31500002FF0520941F822005A69DC69CFE795F9034086
S3150000300004F1C00251F8225025F4803541F82250CF
S3150000301051F82220BFF35F8F6209920004F01F046B
S3150000302002F1604200FA04F402F56142C2F88041FE
S3150000303014605A69DC69B1E700600040543A002028
S3150000304000E100E030B4EFF30382103A2E4953B2A8
S3150000305003F1C00051F8204002F0FF0224F480344E
S3150000306041F8204051F82010284951F82300816882
S31500003070096D890105D54168497A012901D030BC1D
S3150000308070470121224C5B0902F01F02203301FA2E
S3150000309002F244F82320BFF34F8FBFF36F8F4368CC
S315000030A093F902305A0903F01F0301FA03F32032A1
S315000030B044F82230BFF34F8FBFF36F8F8468124BF3
S315000030C0A26822F00102A260426892F9022002F18F
S315000030D0C00453F8245025F4803543F8245053F89F
S315000030E02430BFF35F8F53099B0002F01F0203F1E8
S315000030F0604301FA02F203F56143C3F880211A60C6
S3150000310030BCFFF769BD00BF00600040543A0020A4
S3150000311000E100E070B5EFF30383324A103B5CB286
S3150000312052F82460012273682F4893F90230590936
S3150000313003F01F03203102FA03F340F82130BFF3F6
S315000031404F8FBFF36F8FB1688B6823F001038B60DD
S315000031507368264993F9023003F1C00051F82050F4
S3150000316025F4803541F8205051F82010BFF35F8FC9
S3150000317003F01F015B099B0003F160438A4003F5DE
S315000031806143C3F880211A60B368194A1D6D9A66B7
S315000031902A0112D4EB0116D405F0A055B5F1A05FB3
S315000031A01AD0124A04F1C00352F8231021F48031D8
S315000031B042F8231052F8233070BD05213046FFF740
S315000031C00BFDEB01E8D50421304605F0A055FFF7CD
S315000031D003FDB5F1A05FE4D108213046FFF7FCFC02
S315000031E0DFE700BF543A002000E100E00060004045
S315000031F0000080FD844610B4006A836823F44013FF
S315000032008360DCF82040A36C5800FCD5A36823F04B
S315000032101003A360DCF82040237FC3F30010DB0615
S31500003220FAD4CCE90312A36843F01013A3605DF847
S31500003230044B7047F0B5846A85B005460F46944640
S315000032406E46B4B194E80F0086E80F00EB6920469D
S315000032501B78A760236084F804C0EB6AE3606B6A9E
S315000032609847AC6A1CB196E80F0084E80F0005B0D9
S31500003270F0BD3446EAE700BF3C4B4168994272D143
S3150000328070B4016A02468B6823F440138B60016AAE
S315000032908B6823F010038B60006A037FC3F3001171
S315000032A0DB06FAD40120D369314C93F907304FEA93
S315000032B0531C03F01F030CF1200C00FA03F344F82F
S315000032C02C30BFF34F8FBFF36F8FD36993F909305B
S315000032D04FEA531C03F01F0300FA03F30CF1200C12
S315000032E044F82C30BFF34F8FBFF36F8F156AAB686E
S315000032F023F48033AB60D36993F905304FEA531C4E
S3150000330003F01F0300FA03F30CF1200C44F82C30F1
S31500003310BFF34F8FBFF36F8FD36993F90B304FEA2B
S31500003320531C03F01F0300FA03F30CF1200C44F8BE
S315000033302C30BFF34F8FBFF36F8FEFF3108480F302
S3150000334010884FF00043D6690A4896F800C04568D1
S3150000335023FA0CF32B434360436884F310885160CF
S31500003360084670BC70470720704700BF4249435368
S3150000337000E100E0004008402DE9F04300264FF050
S31500003380010C0A78067002F5800202F58C521202D0
S31500003390C0E907124A69034642628A69D04DC0E90C
S315000033A00A628278CC696CF3010282704A78B24272
S315000033B014BF604602209A7860F301029A7091F970
S315000033C00B0091F80AE0420900F01F0720320CFAC0
S315000033D007F745F82270BFF34F8FBFF36F8FC14ACF
S315000033E000F1C00752F8278066F3104842F827809C
S315000033F052F82770BC4F4FEA0E1E05EB00085FFA25
S315000034008EFE88F800E347F8203091F9050091F820
S3150000341004E04FEA501800F01F0908F120080CFAE2
S3150000342009F945F82890BFF34F8FBFF36F8F00F16E
S31500003430C00852F8289066F3104942F8289052F8CE
S3150000344028804FEA0E1E05EB00085FFA8EFE88F80C
S3150000345000E347F8203091F9070091F806E04FEABB
S31500003460501800F01F0908F120080CFA09F945F870
S315000034702890BFF34F8FBFF36F8F00F1C00852F84B
S31500003480289066F3104942F8289052F828804FEAAF
S315000034900E1E05EB00085FFA8EFE88F800E347F87B
S315000034A0203091F9090091F808E04FEA501800F031
S315000034B01F0908F120080CFA09F945F82890BFF30E
S315000034C04F8FBFF36F8F00F1C00852F8289066F354
S315000034D0104942F8289052F828204FEA0E12D2B22C
S315000034E0054485F8002347F82030EFF310868CF367
S315000034F010884FF0004508787C4AC540506820EA9D
S3150000350005005060526886F310884FF480601A6A8E
S3150000351090604A78CD78C8691202AD0305F48045FB
S3150000352002F440722A43057846682D0605F0407578
S315000035302A434578ED03ADB22A43457B6D0505F474
S3150000354000152A431D6A42F480526A610578AA1E54
S31500003550624540F2BE8032681D6A2A61057B8A7820
S3150000356005F0030545F0300532B1022A14BF4FF4C9
S3150000357040724FF4807215434FF0000C012640F262
S315000035801F278278120702F080522A431D6AEA60DA
S315000035901A6AC2F818C00A7806FA02F23A4202D04B
S315000035A01A6A53495162827BC57B017C02F0010293
S315000035B005F01F0042EA002200201D6A01F01F01EB
S315000035C042EA01422A63C3E90300C3E90500196A16
S315000035D06489484D1C818D66D969424A91F9051066
S315000035E001F1C00452F8245060F3104542F824500B
S315000035F052F82440BFF35F8F012501F01F044909EB
S31500003600890001F1604101F5614105FA04F4C1F850
S3150000361080410C60D96991F90B4004F1C00152F860
S31500003620216060F3104642F8216052F82110BFF382
S315000036305F8F6109890004F01F0401F1604105FAFA
S3150000364004F401F56141C1F880410C60D96991F932
S31500003650074004F1C00152F8216060F3104642F8B9
S31500003660216052F82110BFF35F8F6109890004F0D1
S315000036701F0401F1604105FA04F401F56141C1F846
S3150000368080410C60D96991F9091001F1C00452F822
S31500003690246060F3104642F8246052F82420BFF3F9
S315000036A05F8F4A09920001F01F0102F160428D40CE
S315000036B002F56142C2F8805115600F491A6A91609D
S315000036C0196A0A7FD207FCD50C4A00205A60BDE869
S315000036D0F0830B4A0B4E022D18BF32463CE700BF63
S315000036E000E100E000600040543A0020004008403D
S315000036F000001F1F1000079D11040100424943539B
S3150000370024FF00FF04FF00FFEFF30383103B204A72
S315000037105BB203F1C00152F8210020F4803042F878
S31500003720210052F821201B4A52F82300C3691B6965
S3150000373083B1036903B17047026A0021936823F4D9
S31500003740801343F400139360436AC160C3B18022BF
S31500003750FFF770BD0369026A002BEED08378C1685B
S3150000376003F00303022B0CD00B7813718278D0E997
S31500003770031302F003029B1A1144C0E90313D9E7AD
S3150000378070470B8823F4DC439BB25360EEE700BF1F
S3150000379000600040543A002010B582B0EFF3038376
S315000037A0103B1F4A5BB203F1C00152F8210020F41E
S315000037B0803042F8210052F821201A4A52F823405C
S315000037C0A27802F00303022B236A0CBF196819784A
S315000037D0A3690CBFC1F30801C9B2019143B9636A79
S315000037E0B3B10422204602B0BDE81040FFF722BD67
S315000037F002F0030201A9606902F0B4FDD4E90521D3
S31500003800A37803F003031A44C91AC4E9052109B1D0
S3150000381002B010BD636A002BFAD00122E2E700BFB6
S3150000382000600040543A002010B5EFF303830F4ABE
S31500003830103B5CB252F82400026A936823F44013EA
S3150000384023F010039360436A1BB102220021FFF7A5
S31500003850F1FC074A04F1C00352F8231021F4803129
S3150000386042F8231052F8233010BD00BF543A00200E
S315000038700060004038B5EFF303831D4A103B5CB28D
S3150000388052F824008378056A03F00303022B0CBF69
S3150000389029682978AA6C08BFC1F30801C2F300732E
S315000038A0C2F3006C4FEA031343EA4C13C2F3C0623F
S315000038B043EAC20C18BFC9B2DB06624604D5AB6C3C
S315000038C01B0458BF4CF04002AB6E43F0C853AB66C6
S315000038D0436A0BB1FFF7AEFC064A04F1C00352F887
S315000038E0231021F4803142F8231052F8233038BDDA
S315000038F0543A00200060004010B40B0A064C1B012D
S3150000390053FA81F154F821300020C3F340035DF8E7
S31500003910044B1370704700BF00F801400120CBB282
S31500003920984080B202B900040B0A5B0103F18043A0
S3150000393003F5F83398600020704700BFF0B5EFF349
S315000039401082012383F31088224E33681BB9224963
S315000039500B7340230B7333680133336082F3108893
S31500003960038823B300211D4D08E01B01134445F8CD
S315000039702340028801318BB29A4218D9436853F822
S31500003980314003EBC1029288E7034FEA1223D2B219
S31500003990EBD502EB031C55F82CE024F480372EF40B
S315000039A0803E45F82CE01B0145F82C70DEE7EFF36E
S315000039B01082012383F31088336813B13368013B07
S315000039C0336033681BB9802003490B73087382F395
S315000039D01088F0BD503A002000FD014000F801407B
S315000039E008B5034B03600846FFF7A8FF002008BD93
S315000039F054524F5030B4EFF31084012383F31088F0
S31500003A001D4B186828B94FF0400C1C4D287385F8DB
S31500003A100CC018680130186084F31088D4034FEA8C
S31500003A201120C9B219D40001154C084444F82020CD
S31500003A30EFF31082012181F31088196811B119681A
S31500003A40013919601B681BB980200C490B73087378
S31500003A5082F31088002030BC7047094C01EB001C33
S31500003A6054F82C50000125F4803544F82C5022F4EB
S31500003A70803544F82C50D7E7503A002000FD01402D
S31500003A8000F8014003465A681B69002053607047DE
S31500003A90034610B4043900F10C0C53F8044F51F8E6
S31500003AA0042F62651C68A265027D022A0BD082691A
S31500003AB0526852681278062A05D06345EDD1002077
S31500003AC05DF8044B70471C68CA68E2651C6822668C
S31500003AD0F3E700BF2DE9F04106460D4607460C46C2
S31500003AE001F10C0854F8043FD3E9000100F0C8F9CD
S31500003AF023681B689B6847F8043F2A78022A03D18B
S31500003B001A6C42F420221A644445EBD16A69044BCC
S31500003B1032612A78B561327533600020BDE8F081E4
S31500003B203354504703460020D3E90223936070477D
S31500003B3003460020D3E90223536070470346002062
S31500003B40D3E90223D3607047034670B45A689E686F
S31500003B50D2690020D2E9011444F00045D4687561A9
S31500003B609D6844F00044AC619C6841F000412161CD
S31500003B70146999684C629B6852699A6270BC704776
S31500003B8003464FF00041002210B49C6810462161A4
S31500003B909C6861619C68A16199684A629B689A62A7
S31500003BA05DF8044B704700BF43681B78032B88BF42
S31500003BB00A46836898BF01F1FF329A6643681B780C
S31500003BC02BB9836849080139596583689965836803
S31500003BD0D96AC90707D44FF4AA015A6683681964DB
S31500003BE0D0E90232DA600020704700BF03469B68C6
S31500003BF01232013903EB820300205960704700BF7F
S31500003C0003469A680020D26AC2F300020A719B68D2
S31500003C109B6C0B60704700BF84460020CCE90632DF
S31500003C20CCF81410704700BF70B5836984B00446A1
S31500003C308C46164601AD9BB193E8070085E8070060
S31500003C4083F804C09E60E26918461A606369984763
S31500003C50A3691BB195E8070083E8070004B070BDAF
S31500003C602B46EDE7D0E9012312785B6E032A98BF55
S31500003C7001338B6080680B4A0B4BC06A126A1B6863
S31500003C80C2F3026C03FA0CF34FF0010C02F00702C8
S31500003C90C0F3C350D340C3404B60002081F800C03E
S31500003CA0704700BF00E00140943A002010B490F83D
S31500003CB000C0886EBCF1030F1ED80130AAB9019C62
S31500003CC0496BE40754BF01F01F01C1F3044101F041
S31500003CD00C01A1F10401B1FA81F14909E2B921BB54
S31500003CE002225DF8044B5A6070479042E7D9013AC8
S31500003CF05DF8044B1A6070470AB19042F8D8019CEF
S31500003D00496BE40754BF01F01F01C1F304410909DF
S31500003D1081F00101002AE2D0824201D30029DFD1DD
S31500003D2003225DF8044B5A6070470028D8D0F7E7A5
S31500003D309FED397B2DE9F04385B00092866802AB92
S31500003D40074688461446406802F003090A4631468B
S31500003D508DED027BFFF7AAFF039B356B93B914F039
S31500003D60080F14BF04220222A107029820D502F1EF
S31500003D70120106EB81014860B968133201EB82013A
S31500003D804860BE6862061BD5326CB9F1010F42F479
S31500003D908002326427D025F44035BE6845EA0345E3
S31500003DA0B9F1000F16D10020356305B0BDE8F083E8
S31500003DB04A44123206EB820250606206BE68E3D4C1
S31500003DC0B9F1010F23D025F44035022C45EA03450D
S31500003DD0E6D173B925F0407545EA036500203563E1
S31500003DE005B0BDE8F08325F04075BE6845EA036579
S31500003DF0F4E70121786802AB009142463146FFF7AD
S31500003E0055FF039B25F0407545EA0365E6E7022C5E
S31500003E10E0D1DEE7AFF30080FFFFFFFF0000000008
S31500003E20002800DA704710B400F160430901124C13
S31500003E30C9B203F5614383F80013104B44F8202000
S31500003E4000F1C00253F8221021F4803143F8221009
S31500003E5053F82230BFF35F8F012243099B0000F025
S31500003E601F0003F1604303F561438240C3F88021DC
S31500003E701A605DF8044B7047543A00200060004019
S31500003E802DE9F04301270B7C002607FA03F3C360F4
S31500003E90C3F30903B3FA83F35B09416003740B7C34
S31500003EA0A94ADFF8B4C21A44120282604B690D4671
S31500003EB043618B690446C0E9066385B0CE69CCF8D8
S31500003EC0007BEFF3108187F31088A04B1A6922F06C
S31500003ED000421A611B6981F31088C3681B070CD066
S31500003EE0EFF3108187F31088994AC06853889BB214
S31500003EF023EA0003538081F310884FF42541002301
S31500003F00A2681160A268D362A268D363A2689364B0
S31500003F1029782B7A6A6803294FEAC35302F1FF30E6
S31500003F2000F04A8184BF104643EA01434FF0004245
S31500003F300021A7689FED827BFB62A3688DED027B63
S31500003F401A61A3685A61A3689A61A3685962A36853
S31500003F509962A368B269DA61A368F2691A62A36812
S31500003F609866A36858662B78D6F83880002B40F000
S31500003F700F8101234FF0030C6A68A7685208013AC3
S31500003F8002927A65A1688A652978032903D9A1680E
S31500003F90CA65A1680A66B26BBAB932788AB12F7857
S31500003FA07278022F4FEA82104FEA021100F00C815C
S31500003FB040F21381032248EA020202430A4342F412
S31500003FC08078B278002A40F0C9806268D26992F897
S31500003FD03010C80705D5916AA0680139C16492F806
S31500003FE03010890703D5D26AA168013A0A65012112
S31500003FF02A7C01FA02F2C2F30902002A42D000200A
S31500004000A2685064776BD4F808E0002F00F0B58002
S31500004010287CBA7897F8039001FA00F01206C0F3EC
S31500004020090042EA0972002836D0B868002800F074
S31500004030C680CEF888104FF0010EA168B868C1F8A6
S315000040408C00297C0EFA01F1C1F30901B9B1A1680E
S31500004050F868C1F89000787E397E000240EA811047
S31500004060B97E40EA0130A1684864A168386997F8CA
S3150000407004E00867A168786942EA0E42C867D4F886
S3150000408008E009E0776BD4F808E0002F75D0FA78DD
S31500004090B978120742EA0162CEF83820B26B7AB9D3
S315000040A03A7FF97E520642EA412248EA020896F829
S315000040B0212096F82010520742EA413248EA0208C7
S315000040C096F83020002A14BF4FF4A0014FF4AA013D
S315000040D0A26811642A78012A04D10021A268D16459
S315000040E0A2681165A268C2F83480A268C2F830C01E
S315000040F0A2681363D4E90232DA60697C224695F934
S315000041001200FFF78DFE224696F8221096F924003B
S31500004110FFF786FE224696F8231096F92500FFF74C
S315000041207FFE2FB12246397897F90100FFF778FE16
S315000041300020084B236005B0BDE8F083AFF3008094
S31500004140FFFFFFFF000000009016400000400840FF
S3150000415000A016405450470000901640F178287889
S315000041600A01022842EA811230D03BD903210A43D0
S3150000417048EA024242F0807827E70027CEF83870F6
S31500004180A268C2F88870B26B002A99D117468EE7EA
S31500004190012BA7681CD00091EA68394602AB60681B
S315000041A0FFF784FDDDE902210B0643EA014343F0F4
S315000041B0030C43F00103E4E643F48033B6E6F96802
S315000041C0003918BF012134E70922F4E60921CEE7B8
S315000041D04FF0030C4FF0FF32D3E6002A0CBF062245
S315000041E00922E8E600290CBF06210921BFE700BF26
S315000041F030B44268034692F91210D269002910DBE6
S31500004200012401F01F05AC4048092B4D203045F82C
S315000042102040BFF34F8FBFF36F8F0024274840F82D
S31500004220214092F92410002910DB012401F01F051A
S31500004230AC404809204D203045F82040BFF34F8F51
S31500004240BFF36F8F00241D4840F8214092F92510D6
S31500004250002910DB012401F01F05AC404809164D6A
S31500004260203045F82040BFF34F8FBFF36F8F0024F7
S31500004270124840F82140526BA2B192F90120002A5F
S3150000428010DB01200C4C510902F01F052031A8401B
S3150000429044F82100BFF34F8FBFF36F8F002007490B
S315000042A041F822000020D3E90221186091609B6842
S315000042B0586330BC704700BF00E100E0543A00206C
S315000042C082680129536B02D043F4807309B143F02D
S315000042D08073002053637047F0B5EFF30382103A02
S315000042E0214C51B201F1C00C54F82C3023F4803328
S315000042F044F82C308B0003F1804303F5C043D3F818
S3150000430000031A4850F82100456895F800E0BEF110
S31500004310010F08D043692BB1BDE8F04000221146D9
S31500004320FFF782BCF0BD0025D0E90267B76086685A
S3150000433002F0FF02B5648668F5648668356554F850
S315000043402C6065F3104644F82C60D3F80033BFF3B5
S315000043505F8F074C4B0902F01F020EFA02F2603320
S3150000436044F82320D6E700BF00600040543A0020FE
S3150000437000E100E0844630B482B0019100921D490C
S3150000438090F904201C4D51F82200C03255F8221035
S315000043901A4C21F0807145F822109CF9041041F462
S315000043A00041E28992B29142FBD008222274019A1E
S315000043B00AB1019A4260009A0AB1009A8260C278F4
S315000043C002F0C001802913D03F2A98BFC38118226A
S315000043D000200A4B08491A749CF90430C03351F87E
S315000043E0232042F0807241F8232002B030BC70478F
S315000043F08381ECE70000002000600040005400408C
S315000044000620704706207047034693F90430054995
S31500004410C03351F82320002042F0807241F8232057
S31500004420704700BF00600040034693F90430054919
S31500004430C03351F82320002022F0807241F8232057
S31500004440704700BF00600040002290F90400124B44
S3150000445053F82030C1E90022DA783F2A0CD94FF40C
S3150000446080728A60DA89D2B2CA60DA7802F0C00253
S31500004470802A09D0002070474FF480328A60DB8999
S3150000448000209BB2CB6070474FF480320A609B8954
S3150000449000209BB24B60704700000020062070474A
S315000044A0062070470346002230B593F904C0074C36
S315000044B00CF1C00E54F82E10054D21F0807144F811
S315000044C02E1045F82C201A60104630BD00600040C2
S315000044D00000002030B5864690F904301C4DC033EC
S315000044E055F823201B4C22F0807245F8232090F9C2
S315000044F0042042F40042E3899BB29A42FBD00B4669
S31500004500DA789C463F2A05D9DA89D2B202EB022232
S3150000451092B2DA819CF8022010333F2AF0D84FF08D
S31500004520080C18220B4B0C4D83F810C09EF904C0E2
S31500004530074C45F82C101A749EF904300020C0333D
S3150000454054F8232042F0807244F8232030BD00BF87
S31500004550006000400054004000000020F8B5274AE3
S31500004560044613780D4643B36B6893F90030002B6D
S315000045703FDB234850F82320002A3CD123712D68C5
S31500004580BDB12B46DA7819463F2A05D9DA89D2B267
S3150000459002EB022292B2DA818A7810333F2AF1D8EE
S315000045A008211822174B197494F9041040F8215069
S315000045B01A74154B00202360F8BD01261670EFF320
S315000045C0108086F31088114A116821F48001116069
S315000045D0126880F310880A4F19463422384601F0D3
S315000045E087FE084B5F611E736B6893F90030002BE2
S315000045F0BFDA0B20F8BD0820F8BD00BF0C3A00203A
S31500004600000000200054004000435444004008408D
S31500004610844610B40A4ADCF80430D2F8084C0B4041
S315000046202343C2F8083CDCF80840D2F8103C21408D
S315000046301943C2F8101C00205DF8044B704700BFF8
S3150000464000001740084BD3F8802C0378013B032B5E
S3150000465005D9131E18BF012300200B7070470223D3
S3150000466000200B70704700BF0000174003461A7801
S31500004670052A17D8DFE802F02A2E1D1803034FF08B
S31500004680050C1A691949506990F8902002F0070242
S31500004690C1F8802290F89020C2F30212C1F88C2251
S315000046A083F800C00020704702224FF440701A7051
S315000046B0704704210D4A1970D2F88C124907D6D0DA
S315000046C007234FF48060C2F88C3270470122032022
S315000046D01A7070470321054A1970D2F880124807EC
S315000046E0C5D007230420C2F8803270470000174067
S315000046F00023F0B50161CA68044642610A69037085
S31500004700C0E906324969EFF31080012383F310886C
S315000047106C4BDA6822F48032DA60DA6880F310884B
S315000047200A7F02F00302012A0AD1EFF3108082F316
S3150000473010881A6922F000421A611B6980F31088FA
S3150000474000230A6A6048C26003604368002BFCD1FC
S315000047500125CA6982605C4A056050680128FCD15F
S315000047600025486A584E10645564D1F89C50081FBD
S31500004770C2F8605291F8905005F00705C2F88052D1
S3150000478091F89050C5F30215C2F88C52D1F89450A6
S31500004790C2F88852D1F89850C2F894524D69C2F8BE
S315000047A040538D69C2F8445350F8042F03F1B00505
S315000047B0013342F48032042B46F82520F4D10B7CD9
S315000047C0424D1804002B18BF40F00100C6F8000344
S315000047D0486E3F4BC6F86402886E01F19C02C6F82B
S315000047E0B00252F8040F043343F8040C106AAB42CB
S315000047F0D861506C1864F4D1002240F2FF174FF0D4
S31500004800010ED1F8E000304B324EC3F8A003C3F8D6
S315000048100024C3F80424C3F80824C3F80C240A8F20
S315000048202D4DC3F8C0244A8F2C48C3F8C424CA6B44
S31500004830C3F8C8240A6CC3F8CC244A6CC3F8D02445
S315000048408A6CC3F8D424CA6CC3F8D824C3F8F07CA5
S3150000485023695B69DB6E03F11C0103F1380C11F966
S31500004860013B002B21DB11F81D2CF7181201D2B2E7
S3150000487087F8002303F1C00245F8234050F8227060
S3150000488027F4803740F8227050F82220BFF35F8F5C
S315000048905A09920003F01F0302F160420EFA03F375
S315000048A002F56142C2F8803113606145D7D1032217
S315000048B04FF44035044B0A499D621A625A6261629E
S315000048C00020F0BD0040084000001740800317405C
S315000048D06003174000E100E0543A00200060004009
S315000048E04843444100222DE9F04F82468B46016938
S315000048F08D4B8E4C496985B0027043F8102BA3424C
S31500004900FBD1CA6A8A4B8B48DA640A6B01F18C04C4
S315000049101A654A6B401A5A650A6DC3F8C0214A6D7A
S31500004920C3F8C4218A6DC3F8C821CA6DC3F8CC2167
S315000049300A6EC3F8D02101F16C03C21853F8041FA4
S31500004940A3421160F9D10027CAE901779BF800203C
S31500004950002A00F0E58051465B46BA46BB461A4639
S315000049600846754E0121536853F8275095F800C044
S315000049706B682C7923F07F4301FA0CF104FA0CF4EE
S3150000498089B223F0FF034BEA040B4AEA010A002B23
S3150000499040F0C080AB68002B40F0BC8083680B43BE
S315000049A083602B786979654C1B0119512B78A9799D
S315000049B01B01043419512978AB68090104340B51E1
S315000049C02B69297804F59C7444F82130EB78002B88
S315000049D051D00024DFF86C91DFF85481009009E093
S315000049E0622902D10121C8F82013E8780134E1B226
S315000049F088423FD9A96951F82430197858680901C5
S31500004A0001F1804101F5B811C1F800069868C1F8B6
S31500004A100406D868C1F808061869C1F80C06596872
S31500004A20C1F306216129DBD13178C909DDD10192B3
S31500004A30EFF3108C012181F31088D9F80C0020F4D3
S31500004A408000C9F80C00D9F80C008CF3108896F891
S31500004A5000C01E204CF0800C86F800C000F098FACA
S31500004A603178013441F010013170E878E1B28842C2
S31500004A70019ABFD8009813780137F9B28B423FF6F6
S31500004A8071AF044611465A468B46216950464F6916
S31500004A90A24697F82210B7F820C0CC4381F0020155
S31500004AA0C1F340018DF80D1004F00101CCF30A0C9E
S31500004AB08DF80C1093B34FEA830EDAF804300FFA30
S31500004AC08CFC4FEA4C0C4E3743B300231E46DBF8F2
S31500004AD0048058F8031037F8025F49780CEB050498
S31500004AE01031694411F8041C01B92C1DA64203F1CA
S31500004AF0040338BF26467345EBD101360C4BCAF882
S31500004B000C60986400200E49DA65CAF8201005B0DA
S31500004B10BDE8F08F43680B43436042E70126EDE7AB
S31500004B2001261046EAE700BF000617405008174066
S31500004B3000001740D401174000300F40C000174056
S31500004B4048434441004008402DE9F04190B09DF8AB
S31500004B505870EFF303841F4D103C64B255F824508F
S31500004B606E698EB30593FF23ADF81810D5F818803B
S31500004B70E9698DF80200ADF80070049201918DF894
S31500004B800830B8F1000F23D0C4464746BCE80F00F2
S31500004B90EE4608AE0FC69CE80F0086E80F00BEE89A
S31500004BA00F000FC79EE80F008CE80F006B694046A8
S31500004BB09847AB6943B19C4608AD0FCDACE80F00F2
S31500004BC095E80F008CE80F00204610B0BDE8F08194
S31500004BD0E846EBE7543A0020002310B51549037068
S31500004BE0C1F8083CC3681BB1D1F8802C013BFBD14E
S31500004BF0104AD2F8803C3BB140F20113C2F8603C47
S31500004C00D2F8803C002BFBD103236FF0604140F2C9
S31500004C10E712084CC4F88C3CC4F8B43CC4F8B81C81
S31500004C20C4F8C42CFFF722FD0346C4F8003C00205C
S31500004C3010BD00BF0000174030B491FAA1F030B3A8
S31500004C40B0FA80F3144C154D580804EB83041B018D
S31500004C5005EB800503F010002B6803F00F13C3402B
S31500004C60C3F10803DBB21370A3B1043202EB830372
S31500004C70206842F8040B9342FAD10020084BD3F87F
S31500004C80F82C61F31842C3F8F82C30BC7047054C79
S31500004C90054DE1E70D20F1E700121740D00C174053
S31500004CA00000174080121740100D17402DE9F04301
S31500004CB0254B83B0D3F8881CD3F8A05C11F0010F04
S31500004CC014BF0727032715F001053BD0D3F8A45CD2
S31500004CD0D3F8B03C07279946EFF303831B4A103BF2
S31500004CE05CB252F824804046FFF7C0FC032F06460C
S31500004CF023D00623002688F80030FF212A4600919B
S31500004D004B4638460021FFF71FFF01200E4A104987
S31500004D10C2F89C0C04F1C00351F8234024F48034FB
S31500004D2041F8234051F82330D2F8803C002BFBD1C8
S31500004D30C2F8006C03B0BDE8F08398F80030042B8D
S31500004D40E3D9DAE7A946C7E700001740543A00203E
S31500004D50006000402DE9F043274B83B0D3F8881C50
S31500004D60D3F8A02C11F0020F14BF4FF007084FF034
S31500004D700308C2F3400592073BD5D3F8A45CD3F8E9
S31500004D80B03C4FF007089946EFF303831B4A103BEC
S31500004D905CB252F824703846FFF768FCB8F1030F8E
S31500004DA0064622D0062300263B70FF212A460091A4
S31500004DB04B4640460021FFF7C7FE02200E4A104927
S31500004DC0C2F89C0C04F1C00351F8234024F480344B
S31500004DD041F8234051F82330D2F8803C002BFBD118
S31500004DE0C2F8006C03B0BDE8F0833B78042BE4D92D
S31500004DF0DBE7A946C8E700BF00001740543A002089
S31500004E000060004010B5FF2482B00022002301217B
S31500004E1000940020FFF798FE0121074A074BC03097
S31500004E20C2F8541D53F8202022F4803243F8202083
S31500004E3053F8203002B010BD00001740006000405B
S31500004E40064B074993F826001A6A51F82030C2F338
S31500004E5002620449D3400B60704700BF00E0014086
S31500004E60C8020020943A00204AF203500123394A2E
S31500004E703949F0B5A2F8FE03A1F80431B1F80431BE
S31500004E809BB2002BFAD101244FF400454FF0090CD8
S31500004E903248DFF8E0E0324EC0F804E0314FDFF888
S31500004EA0D8E02C4AC0F80CE0A1F80041B4603460A8
S31500004EB0076092F826102C4985600561146A4161E5
S31500004EC082F8133482F8A2C082F8323092F83C306D
S31500004ED01907FBD54FF4985400231E49148582F810
S31500004EE02A3091F83C309B06FBD505234FF0010C88
S31500004EF0194E1E4D86F81CC10D6281F8263091F8B8
S31500004F0026301B4C50F82330086A124AC0F3026060
S31500004F10C340236091F8753043F0400381F8753043
S31500004F2092F87530DB09FBD0C52082F86D3082F827
S31500004F30750092F87530074903F0BF0382F87530A3
S31500004F4091F87530DB09FBD14FF42543A1F8FE3308
S31500004F50F0BD00BF00E0014000C00140C8020020D3
S31500004F6000700040002D3101001C4E0E211202205F
S31500004F70943A002000127A0000366E01704700BF96
S31500004F8000BEFEE7A0F101000028FBD1704700BF7C
S31500004F904FF47A7310B400FB01F1114C114A2468E6
S31500004FA0B2FBF4F2A1FB03043CB9B0FBF2F08008BB
S31500004FB060B15DF8044BFFF7E5BF9200B1FBF2F17B
S31500004FC0A1FB03132BB908460028F2D15DF8044B68
S31500004FD070474FF0FF3C5DF8044B6046FFF7D2BFC9
S31500004FE0943A002000CA9A3B70B500240B4B0C4E35
S31500004FF0B3F82021B3F84051ADB2154025FA04F3B9
S31500005000DB0704D556F82430E0B203B198470134E3
S31500005010102CF3D1014BA3F8305170BD0060004055
S31500005020103A002030B5032085B000F075F8002551
S315000050306FF0FF014FF0FF301B4B1C4C996422466A
S315000050402B464FF0010ECDE90100039032F8021B0A
S315000050500EFA03FC013311B1012520EA0C000D2BD9
S31500005060F4D1F5B10190124B0F4A1067C3F88002D4
S31500005070029903205167C3F8841203999167C3F814
S31500005080881200F019F800230A4834F8022B03F1BD
S31500005090C00101330AB140F821200D2BF5D105B02E
S315000050A030BD4FF0FF30DEE700800040B4910000D5
S315000050B000E100E000600040EFF31081012383F37C
S315000050C01088124B33F8102092B22AB133F8102010
S315000050D0013A92B223F8102033F810309BB293B9FC
S315000050E010B40B4A0B4CB2F8FE3334F810009BB2E6
S315000050F043F4254323EA0003A2F8FE3381F3108824
S315000051005DF8044B704781F310887047883A002099
S3150000511000E001403092000030B4EFF3108101232B
S3150000512083F310880E4A32F810309BB26BB90D4CDF
S315000051300D4DB4F8FE3335F810C09BB243EA0C03AC
S3150000514043F425439BB2A4F8FE3332F81030013302
S315000051509BB222F8103081F3108830BC704700BF34
S31500005160883A002000E001403092000008B50C4A61
S315000051700346106840B103330A4923F0030303448E
S315000051808B4205D8136008BD074908461160F2E74F
S3150000519001F0D6F80C2203461A604FF0FF3008BD26
S315000051A0903A0020E03B0020E03B002000BE704724
S315000051B008B500F003F8FDF7BDFAFEE74FF47002FC
S315000051C070B5304B304CC3F888209C60EFF31081EB
S315000051D0012585F310882D4B9A6822F480129A6077
S315000051E09B6881F310880020FCF776F8FFF73CFEF9
S315000051F02846FCF771F82368A3F5805383F30A88E1
S315000052002348244A0021121A01F072F82248234A40
S315000052102349121A01F0A6F8224D234B5B1B002BE3
S3150000522007DD00249E1055F8043B01349847A6423A
S31500005230F9DCFFF705FE0320FFF76EFF00234FF6AC
S31500005240FF701A4903F10C0201330F2B21F82200DB
S31500005250F8D100240320FFF72FFF0320FFF75CFFA0
S31500005260134B03205C609C60DC601C61FFF724FF2D
S315000052700220FCF731F8FFF7D5FE2046BDE8704066
S31500005280FFF77CBE00ED00E0000000000040084093
S31500005290E8020020E03B002038000020C802002081
S315000052A0E4950000C0020020C402002000FD014079
S315000052B000000E404FF0FF3C06E000BF4FF0010C2F
S315000052C002E000BF4FF0010C4DF804CD4FEA410C4F
S315000052D07FEA6C5C4FEA430C18BF7FEA6C5C1BD01C
S315000052E001B050EA410C0CBF52EA430C91EA030F9D
S315000052F002BF90EA020F0020704710F1000F91EAFA
S31500005300030F58BF994208BF90422CBFD8176FEAC7
S31500005310E37040F0010070474FEA410C7FEA6C5C95
S3150000532002D150EA013C07D14FEA430C7FEA6C5C9C
S31500005330D6D152EA033CD3D05DF8040B704700BFC8
S315000053408446104662468C461946634600E000BF16
S3150000535001B5FFF7B7FF002848BF10F1000F01BDE8
S315000053604DF808EDFFF7F4FF0CBF012000205DF8B3
S3150000537008FB00BF4DF808EDFFF7EAFF34BF012038
S3150000538000205DF808FB00BF4DF808EDFFF7E0FFD1
S3150000539094BF012000205DF808FB00BF4DF808ED22
S315000053A0FFF7CEFF94BF012000205DF808FB00BF89
S315000053B04DF808EDFFF7C4FF34BF012000205DF86B
S315000053C008FB00BF4FEA4102B2F1E04324BFB3F548
S315000053D0001CDCF1FE5C0DD901F0004C4FEAC00266
S315000053E04CEA5070B2F1004F40EB830008BF20F04A
S315000053F00100704711F0804F21D113F13872BCBF04
S3150000540001F00040704741F480114FEA5252C2F158
S315000054101802C2F1200C10FA0CF320FA02F018BFA1
S3150000542040F001004FEAC1234FEAD32303FA0CFCF4
S3150000543040EA0C0023FA02F34FEA4303CCE77FEA83
S31500005440625307D150EA01331EBF4FF0FE4040F4CD
S315000054504000704701F0004040F0FE4040F400007C
S31500005460704700BF002100F007BE0A22002100F0AD
S3150000547089BE70B504460D46164645EC104B01F044
S3150000548049FF51EC100B7EB1C5F30A53C3F16B0310
S31500005490002B09DD1B05002403F17F55224605F587
S315000054A040152B4602F0B2FD41EC100B70BDFFFF1C
S315000054B02DE9F04F9FB00C464FF0000A4FF0000B5D
S315000054C01792002205901A920A46199211782B29F2
S315000054D04AD038D80D2932D8082932D800293BD0ED
S315000054E000220E92199D2A78302A40F0B2806A78FE
S315000054F002F0DF02582A6ED1029319A90E9B904A38
S3150000550001931AAB059800931BAB00F0FFFF10F058
