S00B00003030302E7372656389
S31500000000304E0020D15A000009590000CD5A000098
S31500000010CD5A0000CD5A0000CD5A0000CD5A00003E
S31500000020000000000000000000000000CD5A0000A3
S31500000030CD5A000000000000CD5A0000CD5A000045
S31500000040F94B0000CD5500007556000025570000FD
S31500000050F94B0000B5400000254000004541000076
S3150000006091410000F5370000853800006139000035
S31500000070313A00000348044B834202D0034B03B1DC
S3150000008018477047D0020020D00200200000000070
S31500000090064B0749C91A891048BF0131491003D0D8
S315000000A0044B0BB101481847704700BFD00200202F
S315000000B0D00200200000000010B5064C237843B99A
S315000000C0FFF7D8FF044B13B10448AFF300800123B8
S315000000D0237010BDF00200200000000078A100008F
S315000000E008B5054B1BB105490548AFF30080BDE8CF
S315000000F00840FFF7CDBF00BF00000000F40200205B
S3150000010078A10000082010B502F090FF4FF00332EE
S3150000011040F20110044B054C0549C3E90022DC609E
S315000001209A60A1F86F0010BD0C03002003030301C1
S315000001301C03002070B52DED028B6D4CA5686E1C5E
S315000001401CBF0135A560A57B002D6DD140F20110C5
S31500000150E0814FF0000C0020C2F800C0187094ED4A
S31500000160007A9FED646ADFED646A27EE067A60EE38
S31500000170A66A37EE267A614D37EE608AD5ED047AA7
S31500000180012684ED007A68EE277A9FED5D7A84ED8C
S31500000190017A77EE877A9FED5B7AF4EEC77A0023D1
S315000001A0F1EE10FA0B6028DC9FED577AF4EEC77A71
S315000001B0F1EE10FA65D581ED017A544BD3E90001D1
S315000001C005F090FD95ED057A07EE900A67EE877AC1
S315000001D067EE880AF5EEC00A0023F1EE10FA6373A3
S315000001E001DCDFED470AD4ED017A77EEA07AC4EDA3
S315000001F0017A2673BDEC028B70BD81ED017A434B0B
S31500000200D3E9000105F06EFD95ED057A07EE900A3B
S3150000021067EE877A67EE880AF5EEC00A0023F1EEEC
S3150000022010FA6373DDDCDEE7E57B012D3CD00028A8
S315000002304CD0207C02284FD0012082ED000A187095
S3150000024094ED007AD2ED006ADFED2A5A9FED2A6A14
S3150000025027EE257A66EE866A37EE267A274D37EE42
S31500000260608AD5ED047A637B84ED007A68EE277A9E
S315000002700BB10023636094F90C605EBB94ED017AC8
S3150000028087E7C1ED017A98DB204BD3E9000105F041
S3150000029029FD95ED057A07EE900A002367EE877A29
S315000002A0637367EE880A9EE700283FF452AFF0EECC
S315000002B0007AF4EEE71AF1EE10FAFFF64AAF40F2D2
S315000002C002300025A4F80F00A560B5E70120A4F8C8
S315000002D00F003EE7002658E740F2E630A568854263
S315000002E002D901202074A7E79FED090AA4E700BF01
S315000002F094030020A4707D3F0AD7233C8800002089
S31500000300000000000D98463E0D9846BE8000002075
S315000003109A99193E0122014B5A73704794030020A3
S3150000032070B41B4E3378072B24D890F9001051B3C4
S315000003300122184D184C03E00132B2F5807F20D01F
S315000003402B7804EB0323134403F8011C10F9011F57
S315000003500029F1D100212B7804EB03242B78A1543A
S31500000360013303F007032B7033780133DBB23370AC
S3150000037070BC7047094A138801339BB2138070BC66
S315000003807047FF22E6E70A46024D034CE2E700BF4C
S31500000390C8050020CA050020CC050020C60500209F
S315000003A030B54FF0000C0725164C85B00223164ACF
S315000003B000951649164884F800C003F093F8154BCB
S315000003C0C2B21A7090B9144B039303E0039B013B2E
S315000003D0039313B12378002BF8D0039B43B10A4B48
S315000003E00E4918785A780E4B08701A7005B030BD51
S315000003F001210C4B0C4A197013780B44DBB21370B5
S31500000400EDE700BF4E050020F80400200805002097
S31500000410143C002043050020009F240046050020D0
S31500000420450500204405002042050020002208B5AD
S31500000430044B60F07F0018705A70FFF7B1FF024B53
S31500000440587808BD08050020F8040020B5EEC00A5B
S31500000450F1EE10FAF8B504462DED028B1546B0EE16
S31500000460408A3FD400274E1EFCEEC88A224A18EE68
S31500000470903A06F099FB3844B0422DDA2E2300F16B
S31500000480010C6645235404EB00011FDDF8EE688A73
S31500000490B2EE047A38EE680A6A1C024420EE070AB5
S315000004A0FDEEC07A17EE903A092BA8BF092307EE96
S315000004B0903AF8EEE77A0CF1010C3033944530EEC1
S315000004C0670A01F8013F08D06645E7DC624600236B
S315000004D0A354BDEC028BF8BD0B220023A354BDEC44
S315000004E0028BF8BD2D234E1EB1EE408A3146012700
S315000004F000F8013BB8E700BFE49000002DE9F04F9B
S31500000500A84BE1B01B78042B04D1A74A138801330A
S315000005109BB21380A54B1A781AB11A78013AD2B257
S315000005201A70A34D2B889BB2002B5BD1A14C23786C
S31500000530002B40F09480A04CA04FA14DB5F900309F
S31500000540002B04DB9F4A1278072A40F26981B7F92B
S315000005500030002B07DB9C490A780132D2B2042A0C
S315000005600A7000F2FC80994B1B7843B1984A1388B5
S3150000057001339BB2B3F5FA6F138080F07C81237848
S315000005806BB3904B1B78072B29D89249924A0B885C
S31500000590128801339BB292B293420B801FD3002282
S315000005A08E4B8F481B7890ED000A03F0FF050A80FA
S315000005B0002B00F0A383F6EE007A30EE270ABDEE9C
S315000005C0C00A10EE101A874EDFF84C823278531CA0
S315000005D0DBB2042B337028F8121000F20D8261B0E2
S315000005E0BDE8F08F804E734C338801339BB2338065
S315000005F033889BB2C72B9AD92378032B23D82B8811
S315000006009BB23E2B00F293812A8892B29146DFF884
S315000006100C82764F98F80000754907EB801006F0BB
S3150000062043FB002398F8002007EB821707F80930F0
S3150000063098F80030013303F0030388F8003023787C
S315000006400133DBB2237000236A4A2B803380138880
S3150000065001339BB213802378002B3FF46CAF664DB9
S31500000660624B2A780DF1400E03EB821CBCE80F00AA
S31500000670AEE80F00BCE80F00AEE80F00BCE80F00C4
S31500000680AEE80F009CE80F008EE80F002B7810A84C
S31500000690013303F003032B702378013BDBB2237095
S315000006A006F00FFB00283FF446AF10AB0025534C75
S315000006B01A1805E0CB070BD5013815703FF43BAF90
S315000006C012F8013D093BDBB2172B24FA03F1F1D9ED
S315000006D04B4C042223884B4901339BB210A823803C
S315000006E006F0BEFA0446002840F0D980464A254660
S315000006F01388464E01339BB211AF138003E00135D8
S315000007002B2D00F0AD8256F82400394606F0C2FAC9
S3150000071003340028F3D105EB450506EB85052B7A56
S31500000720012B00F03E83022B00F02E82002B40F0BE
S3150000073036836B680CAC93ED000A04221021204628
S3150000074020ADFFF783FE4FF480713B462846304AC2
S31500000750009406F029FA2846FFF7E2FDEBE6194A6F
S315000007601278072A3FF6FFAE00222A2B0A7000F302
S315000007707082264A03EB430102EB81025168127A2A
S31500000780002A00F0FC800A7820AD0092202128463D
S31500000790204A06F009FA2846FFF7C2FD3B880133D6
S315000007A03B80E0E6C2050020BC0500205E05002077
S315000007B0D00E0020CD0D002058050020AC000020F2
S315000007C0AE000020C8050020AA040020660500200F
S315000007D0A804002056050020B4000020B000002028
S315000007E0A83A0020E8040020C4050020D00D00200F
S315000007F0D40E002060050020CE0D002013008000DE
S31500000800640500205C9200006205002080940000D0
S31500000810FC900000F8910000EC040020CF0D0020B1
S315000008202A2B38DC5F4E03EB430206EB8202107A7A
S315000008305A00002879D05C49DFF8B8C1012808BF02
S315000008406146134406EB8302507A0091574A584991
S3150000085056F82330002818BF0A464FF480710192DB
S3150000086020A8544A06F0A0F920A8FFF759FD2B88C6
S3150000087001332B806BE6504B1B78072B3FF67FAE80
S3150000088000234E481380FFF74BFD4D4A1388013372
S315000008909BB2138073E64FF6FF732B8057E6042254
S315000008A0484910A806F0DCF90546002843D111AFE7
S315000008B02021384606F0B4F98046002800F0A381CE
S315000008C02C46384E057003E001352B2D00F0C8810B
S315000008D056F82400394606F0DDF903340028F3D132
S315000008E005EB450506EB85056B7A002B00F0798252
S315000008F02B7A08F10108012B00F0B582022B00F0DB
S31500000900C282002B40F04B82404605F03BFA51EC88
S31500000910100B05F0E7F900EE100A6B680CAC042228
S315000009201021204683ED000A0AE7274989E74FF0A0
S315000009303F094A466BE6254910A806F0ABF90028A0
S3150000094000F02E810922224910A806F089F9002814
S3150000095040F033829DF94930202B00F0A6826422B4
S31500000960002301201B491C4D0A801C4C1C491D4AB2
S315000009702B7020700B801C4F1C4D1370DEE510AEE3
S3150000098091ED000A304604220C21FFF75FFD20ADF1
S31500000990009620212846164AB7F9003006F004F9D9
S315000009A0F9E600BF80940000E8900000F89000008F
S315000009B0F4900000DC910000C80500200C920000B5
S315000009C07205002034910000EC9000006891000050
S315000009D090910000B4000020E80400205805002093
S315000009E05605002054050020AC000020AE00002073
S315000009F0EC910000F0900000DFF8ECA203229AEDE3
S31500000A00000A0C2120A8FFF721FD05234FF4807171
S31500000A10994A9A4806F0C8F80225984FDFF8CC9212
S31500000A2008F10A0B38F9023BC5F5807178194A4678
S31500000A3006F0BAF8C3450544F4D1914BDAED003A15
S31500000A40D3ED007A8F4BF2EE042AD3ED006A93EDD4
S31500000A50015AD3ED025A8C4B9FED8C2A93ED004A36
S31500000A60D3ED014A93ED026A894B26EE226A1B7882
S31500000A70BDEEC66A0993874BF6EE001A1B7867EE41
S31500000A80A27A0893844B9FED853A93ED007A27EE80
S31500000A90027ABDEEC77A8DED066A8DED077A804B38
S31500000AA077EEA17A93ED006A7E4B63EE823A93ED80
S31500000AB0007A66EE836A25EE035A65EE835A24EEC3
S31500000AC0224A64EEA24AFDEEE77A27EE037A26EE84
S31500000AD0026AFDEEE44ABDEEC44AFDEEE55ABDEEFD
S31500000AE0C55AFDEEE66ACDED007AFDEEE37ABDEE7F
S31500000AF0C66ABDEEC77AC5F580718DED044ACDEDA7
S31500000B00054A8DED025ACDED035ACDED016A17EE79
S31500000B10903A654A78198DED0A6A8DED0B7A06F0E2
S31500000B2043F84119002940F3F6810023534A7D1802
S31500000B3012F9010B43409542DBB2F9D15B4A7818B2
S31500000B40C1F5807106F030F84C48FFF7E9FB00214B
S31500000B50574A3170138805339BB21380554B1A7868
S31500000B60002A3FF43CAD544A187813780133DBB2BF
S31500000B7083421370FFF433AD50482170038811701F
S31500000B8001339BB203802AE56B6820AD1C684FF4E5
S31500000B9080713B4628464A4A009406F005F8DAE595
S31500000BA00426484B484C20ADDFF844A1DFF84491B9
S31500000BB0DFF8448193E8030004F5017728608DF897
S31500000BC08410637A73B1D72E00F31181237A012B37
S31500000BD03AD0022B33D0EBB10C34A74205D0637A5E
S31500000BE0002BF3D10C34A742EBD1042E00F3FF8087
S31500000BF0284606F066F8024634492846C2F1FF0246
S31500000C0006F01BF8A7E53248FFF78AFB314C324F56
S31500000C10324D93E463680DF1300B042293ED000A24
S31500000C2010215846FFF712FC4246CDF800B0C6F533
S31500000C308071A819236805F0B7FF0644D2E76368F8
S31500000C404A461B680093F2E7636852461B78009396
S31500000C50EDE74FF6FF7322483B80FFF761FB82E426
S31500000C603B464FF480711F4A20A805F09DFF20A83F
S31500000C70FFF756FB5FE400BF14920000A8030020B4
S31500000C80700F0020280500201C0500200000C84227
S31500000C90680F0020B03A00206C3A002000007A4429
S31500000CA0540F0020E4360020189200004092000005
S31500000CB0520500205505002054050020500500204F
S31500000CC014910000709100008094000008920000CA
S31500000CD03C91000058050020AC000020AE0000202A
S31500000CE00492000020910000703A00203C9200001F
S31500000CF080910000889100007891000001220C216B
S31500000D000CA8FFF7A3FBB74B10AE93ED000A0C211E
S31500000D1003223046FFF79AFBB34BB6EE006AD3EDDB
S31500000D20007AB24B77EE867A93ED007AB04B37EEC7
S31500000D30067AD3ED006A76EE866ABCEEC77AFCEEDA
S31500000D40E66AFCEEE77A4FF48071AA4A0CABCDED69
S31500000D50036A8DED027ACDED017A009620A805F0A2
S31500000D6023FF20A8FFF7DCFAA34AA449138801331E
S31500000D709BB213800B78002B3FF431ACA04A097864
S31500000D8013780133DBB28B421370FFF428AC9D4914
S31500000D9025700B88157001339BB20B801FE420ADC4
S31500000DA0D9E46B6820AD1C784FF480713B46284629
S31500000DB0954A009405F0F8FECDE49DF84030522B9C
S31500000DC01CD19DF84130CBB901228D498F4C0B7057
S31500000DD08F489049904F914D03800B702270FFF71A
S31500000DE0ADBB3B464FF480718D4A20A83DE7013EDE
S31500000DF0AB572C2B04BF0023AB55F9E69DF94030C9
S31500000E00572B00F08A80472B5FD19DF84130303B4D
S31500000E10092B67D80DF1410004F0B7FF83B22A2BE6
S31500000E203FF689AB0C217F4B84B201FB04331A7A5F
S31500000E305B68002A40F0168293ED000A04220CAE8D
S31500000E40304620ADFFF702FB202123462846764A8E
S31500000E50009605F0A9FE2846FFF762FA6B4C6E4F26
S31500000E606E4DFFF76BBB404604F08FFF6B68C0B258
S31500000E7020AD18704FF4807100903B462846624AB8
S31500000E8005F092FE67E401460A22404605F082FE1E
S31500000E9004466E6820AD34604FF480713B462846A8
S31500000EA0624A009405F080FE55E40DF14A0004F014
S31500000EB06CFF83B2642B28BF6423012B4FF47A7234
S31500000EC038BF0123B2FBF3F24AE5502B46D03F2B45
S31500000ED040F0F7809DF941304D2B00F0DA80542B1D
S31500000EE000F0E2809DF84030412B04D19DF841305E
S31500000EF0002B3FF455AE9DF84030442B40F0A280C5
S31500000F009DF84130002B40F09D80434F3F4C434DB0
S31500000F103B80FFF713BB002310E69DF84130303BC2
S31500000F20092BDFD80DF1410004F02FFF07EE900AE0
S31500000F30F8EEE77A3E4B9FED3F7AC3ED007AD3EDAC
S31500000F40007AF4EEC77AF1EE10FA7FF7F4AA83ED91
S31500000F50007A2E4C304F314DFFF7F0BA9DF94130F3
S31500000F602F2BBFDD392BBDDC3D2110A805F058FE27
S31500000F70054600283FF4DFAA0DF1410004F005FF05
S31500000F8083B22A2B3FF6D7AA0C23264E84B203FB44
S31500000F900466737A002B3FF4CEAA337A681C002BC2
S31500000FA040F0968104F0EEFE51EC100B04F09AFE30
S31500000FB0214A736800EE100A934200F081811F4AAD
S31500000FC0934200F069811E4A934200F0558108322F
S31500000FD0934200F0518183ED000A04220C210CAEED
S31500000FE02EE700BF703A0020700F0020C4000020DA
S31500000FF0C000002048920000520500205505002040
S3150000100054050020500500200891000058050020D6
S3150000101056050020E8040020AC000020AE000020A9
S3150000102054910000809400009C91000014910000EF
S31500001030CC00002000A08C45D0000020D400002069
S315000010408C000020A94910A805F024FEB0B1A849DB
S3150000105010A805F01FFE88B1A64910A805F01AFED3
S3150000106060B1A54910A805F015FE00287FF463AA13
S31500001070A24DA34CA34F2880FFF760BA0023A04CD3
S31500001080A149A24A23700B709E4F9C4D1370FFF727
S3150000109055BA9F4B1021D3ED007AFDEEE77A9D4AB3
S315000010A017EE903A20A8E0E59B4B032293ED000A49
S315000010B00C210CA8FFF7CAF91021984A0CAB20A8FE
S315000010C0D3E5462B31D04D2B4BD19DF941302D2BFD
S315000010D004D0303BDBB2092B3FF604AF0DF14100E3
S315000010E004F053FE07EE900AF8EEE77A884B9FED80
S315000010F08C7AC3ED007AD3ED007AF4EEC77AF1EE7E
S3150000110010FAC8BF83ED007ADFED867A93ED007A98
S31500001110B4EEE77AF1EE10FA7FF50DAAC3ED007A88
S31500001120774C784F754DFFF709BA9DF84130303B43
S31500001130092B3FF6D7AE0DF1410004F026FE83B22F
S31500001140642B28BF6423012B4FF47A7238BF012326
S31500001150B2FBF3F274496A4C6A4F684D0A80FFF796
S31500001160EDB9542B3AD19DF941302D2B04D0303BAB
S31500001170DBB2092B3FF6B6AE0DF1410004F005FED9
S3150000118007EE900A9FED697AF8EEE77A67EE877ABE
S31500001190614B674AC3ED007A93ED007AD2ED007A8F
S315000011A0B4EEE77AF1EE10FAC4BF11681960D2ED19
S315000011B0007A93ED007AF1EE677AF4EEC77AF1EEF3
S315000011C010FA7FF7B8A9D2ED007AF1EE677A4C4CA7
S315000011D0C3ED007A4B4F494DFFF7B0B9452B30D1DF
S315000011E09DF94120A2F13003DBB2012B3FF67AAE26
S315000011F0312A19D000224F484F4B027093ED007AE6
S31500001200DFED4E7AB4EEE77A4D49F1EE10FA0A7048
S315000012104FF00502C8BFC3ED007A4A4B384C394F30
S31500001220364D1A70FFF78AB9424B1B78002B7FF4B4
S3150000123082A90122424B324C324F304D1A70FFF7D1
S315000012407DB9432B7FF44EAE9DF84130303BDBB287
S31500001250012B3FF647AE3C4A294C2A4F274D1370C7
S31500001260FFF76CB91E7820AD234620212846374A61
S31500001270009605F099FCEEE5DFED357AB4EEE70A67
S31500001280F1EE10FA0FDCB5EEC00AF1EE10FA7FF5BA
S31500001290A2AE9FED300A9EE6F7EE007AB4EEE70ABC
S315000012A0F1EE10FA02DDB0EE670A94E6FFEE007A80
S315000012B0B4EE670AF1EE10FA48BFB0EE670A8AE6A6
S315000012C0F7EE007AB4EEE70AF1EE10FAEBDCDAE7B5
S315000012D004F05BFD7368C0B220AD18702021009049
S315000012E023462846194A05F05FFCB4E5C491000080
S315000012F0C8910000D0910000D4910000AE000020FB
S3150000130058050020AC00002054050020E804002009
S31500001310640F0020B4910000D4000020BC910000AE
S3150000132000007A4400007AC4B40000206F12833AA9
S31500001330D0000020CC360020580F002009AC5C3FBE
S31500001340B03A0020CD360020D8000020A891000039
S3150000135000004842000000002DE9F04F2DED028B01
S31500001360A54989B0A54801F0FDFFFEF7CBFEFEF7C3
S31500001370D1FFA349A34803F04BFE0346A249A14867
S31500001380059303F03FFF034600219E48069304F0B1
S31500001390B3F89C4C0790204604A903F0E3FD9DF8A2
S315000013A01030022BF7D0994999488DF8123003F086
S315000013B01FF8974802F0F4FF964B1B78002B40F07D
S315000013C06482002240F60551934802F035FF012061
S315000013D0924904F06DFA012240F605518E4802F05A
S315000013E02BFF4FF47A710A2004F062FA4FF00823BB
S315000013F000258B4F012183483B6003F099FD0421B2
S31500001400804803F095FD4FF4FA742E46DFF880828B
S315000014104FF47A71012004F04BFAB8F80020B8F8BE
S315000014200230013C16441D44F2D17E4B7E48A3FB9C
S315000014300612A3FB051352095B0902217B803A8041
S3150000144003F0CEFB0221794803F0CAFB022178485B
S3150000145003F0C6FB7749784803F0A2F9764803F013
S3150000146001F8754802F0F2FF152240F606616A4857
S3150000147002F04EFF012240F60661674802F0DCFEEC
S31500001480012240F60261644802F0D6FE4FF47A71FA
S315000014904FF4FA6004F00CFA052240F606615E4845
S315000014A002F036FF012240F606615B4802F0C4FEF8
S315000014B04FF47A714FF4FA6004F0FAF95F4D40F692
S315000014C005610DF11302544802F0A4FE5C4B9DF831
S315000014D0132028465B491A7002F0DCFB002800F056
S315000014E00E826323584A5949039200911370584952
S315000014F0584802F01FF8584BC2B204461A7000282A
S3150000150000F0DA81554B564D0193DFED568A9FED7B
S31500001510568ADFF880B1DFF880A1DFF88081534E6C
S31500001520DFF87C913C4C40F603610DF11302204636
S3150000153002F070FE9DF813300DF11302A3F10103C2
S31500001540B3FA83F340F604615B0920468BF800305A
S3150000155002F060FE9DF81330454AA3F10103B3FA89
S3150000156083F35B091370DAF80030012B00F0468133
S3150000157098F80030002B40F0958099F80030002B49
S31500001580D1D0009F3B78002BCDD13A4A1378002B5F
S31500001590C9D139483949007801EB002005F091FBA3
S315000015A00246D8B1012334483B700178334B2348B7
S315000015B003EB0121029202F0ABFA314B029AC0B260
S315000015C01870304B304992B21A800B88294A013381
S315000015D09BB20B802D4B1B78DBB21370264A137817
S315000015E0013303F00703137099F80030013BDBB2B7
S315000015F089F8003097E700BF84960000E03A0020A3
S31500001600749800009C3B0020C8990000BC9600001E
S31500001610203B0020810F0020D83A002040420F00D6
S31500001620E4000020D34D62103C3B00205C3B0020D0
S315000016307C3B0020E89A0000C43B0020E43B0020ED
S31500001640B8000020449B0000C2050020CC0D0020FD
S31500001650789B0000143C0020B20000204C050020BE
S31500001660080500200000003A33338341F8040020C7
S31500001670890F00205E050020C9050020CC0500204A
S31500001680B60000205C0500205A050020B7000020A7
S31500001690A03A00208A0F00206C05002018050020C3
S315000016A0C8050020002388F80030019B1B78002B1A
S315000016B03FF463AF9F232B80FEF772FEA023727860
S315000016C02B800292FEF76CFEA123029A2B80737880
S315000016D043EA0223B94A1BB217461380FEF760FE9F
S315000016E0A22372782B800292FEF75AFEA323029A57
S315000016F02B80737843EA02231BB27B80FEF750FEF1
S31500001700A42372782B800292FEF74AFEA523029A42
S315000017102B80737843EA02231BB2BB80FEF740FEA0
S31500001720A62372782B800292FEF73AFEA723029A2E
S315000017302B807378A24943EA02231BB20F460B8023
S31500001740FEF72EFEA82372782B800292FEF728FE63
S31500001750A923029A2B80737843EA02231BB27B806B
S31500001760FEF71EFEAA2372782B800292FEF718FE61
S31500001770029A7378934843EA02231BB28F4ABB80CE
S3150000178013881BB207EE903AF8EEE77A67EEA87A6E
S31500001790C0ED007A53881BB207EE903AF8EEE77A6E
S315000017A067EEA87AC0ED017A9388874A1BB207EEE6
S315000017B0903AF8EEE77A67EEA87AC0ED027A3B88AF
S315000017C01BB207EE903AF8EEE77A87EE887A82ED5A
S315000017D0007A7B881BB207EE903AF8EEE77A87EE3E
S315000017E0887A82ED017ABB881BB207EE903AF8EE52
S315000017F0E77A87EE887A82ED027ABEE6734802F0CF
S31500001800C9F9102240F60561204602F081FD00224A
S315000018106F4F704BD7F8FCC04FF47A714CF0807C58
S31500001820C7F8FCC05A60D3F800C04FF4FA704CF009
S31500001830010CC3F800C004F03BF802230022CAF8EA
S315000018400030654B1A60654BB3F8C43013F02003C3
S31500001850F9D1604A5360614BB3F8C4309B06FAD5A0
S3150000186003235C4A5C49526820460A605C4A40F69B
S315000018700561CAF8003002F04BFD5A49534802F0A0
S3150000188009FA0423039A137072E6012240F60161F5
S31500001890554802F0D1FC4FF47A710A2004F008F89A
S315000018A0002240F60161504802F0C6FC4FF47A71FE
S315000018B03C2003F0FDFF84E54FF47A710A2003F023
S315000018C0F7FF012740F21113484E494D37702B8020
S315000018D0FEF766FD4FF47A710A2003F0E9FF022352
S315000018E075203370FEF7A2FD0322424B187032704A
S315000018F01B78422B2BD0404B01931C7005E602232C
S315000019003E4F3F4A40F6066137483B70039702F068
S31500001910FFFC4FF47A714FF4FA7003F0C9FF394BAC
S315000019202146402238481C7005F072F90423374ED0
S31500001930374A3480364E2D6A0092364A34702C6906
S3150000194051783548354A046011703B70CFE57623EF
S315000019502B80FEF725FD4FF405632B80FEF720FD57
S315000019604FF47A71384603F0A3FF40F64F032B80FD
S31500001970FEF716FD4FF47A71384603F099FF40F6EC
S315000019804E732B80FEF70CFD4FF47A71C82003F0DE
S315000019908FFF4E20FEF74AFD0346214A5020137062
S315000019A0FEF744FD03461F4A2D201370FEF73EFD49
S315000019B011491D4A019110700F70A6E53C050020E3
S315000019C034050020280500201C050020E43B0020EB
S315000019D000ED00E0001000E06805002000F1014085
S315000019E000000105449B0000D83A0020480500206D
S315000019F0080500204D0500204C050020C2050020EA
S31500001A0010000105780500207C050020C005002097
S31500001A10CC0D0020E8000020740500207005002091
S31500001A204B0500204A05002049050020022800D069
S31500001A3070470249024802F061BC00BFDC9B00000F
S31500001A40D83A00202DE9F04F048B8BB0012C02D040
S31500001A500BB0BDE8F08F4A4D0DF10F022B684FF425
S31500001A603061013347482B6002F0D4FB9DF80F30FC
S31500001A70454AB3FA83F35B0913701378002B35D10B
S31500001A80424B1B78002B36D1414B424D0193424CC1
S31500001A9001212246414803F05FFD2178002900F02C
S31500001AA0938500234A1EDFF814813D4F3D4EDFF833
S31500001AB010A1DFF81091D2B204EB830C9CF807005A
S31500001AC0032BBCF804E0C0F3C01BC0F3060C24D8FB
S31500001AD09A422AF813E009F803C028F813E007F839
S31500001AE003C006F803B024D00133E5E7274B1C708A
S31500001AF01B78002BC8D000214FF07C532A4A0020C7
S31500001B00116051600122234D214C2B606B60AB604C
S31500001B10264B019420701A70B9E79A4228F813E010
S31500001B2007F803C006F803B003F1010301D0082B40
S31500001B30C2D100201E4B1F4EDFF88CC01E4FDFF8AF
S31500001B408C80DFF88CE0197004EB8001CB798988F2
S31500001B5003F07F03102B42D8DFE813F0400041006A
S31500001B60410041000A03410041004100410041009B
S31500001B70410041000703050302034100FF0200BFC5
S31500001B802C370020D83A0020950F0020940F002013
S31500001B90B03A0020943A0020C40400209C3B002068
S31500001BA004370020FC360020803A0020CD36002085
S31500001BB01C370020A03A00206A0F00200C370020B6
S31500001BC0F4360020F03600206C0F00206E0F002047
S31500001BD0780F002000F07F45333353403180824236
S31500001BE000F1010001D00828AED1B8F800305FED51
S31500001BF0076A9BB207EE903AB8EE677A1FED0A6A5B
S31500001C00C7EE267AB2EE0A5A67EE867A67EE857ACC
S31500001C10DC4CF2EE065AC4ED007ABEF80030DA4A21
S31500001C209BB207EE903AB8EE677AC7EE267A67EE71
S31500001C30867A67EEA57AC2ED007ABCF800309BB2D0
S31500001C400A2B07D940F6F472BCF800309BB29342D7
S31500001C5040F247843B889BB20A2B06D940F6F472C1
S31500001C603B889BB2934240F20B84C84F97ED0D7AA6
S31500001C70B5EEC07AF1EE10FA40F36183C44BD3EDB2
S31500001C80007AC7EE876AF5EEC06AF1EE10FA00F147
S31500001C905683F7EE007AF4EE676AF1EE10FA77FEF5
S31500001CA0A66ADFF88083D8ED007AF4EEE67AF1EEE4
S31500001CB010FA40F175839FEDB76A77EE867AF4EEF7
S31500001CC0E67AF1EE10FA40F37783C8ED006AF0EE9B
S31500001CD0667A27EE277ADFF85093DFF850A3AE4BEB
S31500001CE04A4683ED007A5146AC4BAD4801F0D0F937
S31500001CF0AC4BDAED006AD3ED007A9FEDAB7A76EE67
S31500001D00E77AF4EEC77A99ED006AF1EE10FAA74A7F
S31500001D1082ED006A40F338839FEDA57A77EEC77AA5
S31500001D20A449DFF80CC391ED007A77EE877AC3ED0C
S31500001D30006AA14ABCF80030A04802EB83020133D6
S31500001D409BB2C72BD2ED005AC1ED007AC0ED007AE6
S31500001D50C2ED007AACF8003040F2F4820023012292
S31500001D60ACF80030964B1A7077EEE57A9FED957ACF
S31500001D70D7ED005A87EE875AB6EE006A85EE257AC9
S31500001D80B4EEC67AF1EE10FA01D59FED8F7AD7ED53
S31500001D900D7ADFED855A77EEA77A9FED8C6A67EEAE
S31500001DA0A57A87EE865AB5EEC05AF1EE10FA884B40
S31500001DB083ED007A40F30383864BF7EE007A93EDCA
S31500001DC0004AC7EE055A27EE067A93ED006A824B63
S31500001DD0DFED773A93ED005A77EEC47AC7EE234AE1
S31500001DE067EE857A26EE257A77EE877A98ED005AA1
S31500001DF0B4EEE55AF1EE10FAC3ED007A774BC8BFA0
S31500001E0075EE657AC3ED005A754BD8BF75EEC57A87
S31500001E10C3ED004A734BDFF81C921878724B734976
S31500001E201870734B9FED732AC3ED007A724BDFED8A
S31500001E30731AD3ED007A77EEA67AC9ED057A99ED95
S31500001E40054AC9ED057A019FD9ED044A97F8009035
S31500001E507788368807EE907A06EE906A4E8809886B
S31500001E6006EE106AF8EE677AB8EE466A07EE101AC2
S31500001E7077EEC67AB8EE477AF8EE666A67EE827A49
S31500001E8076EEC76A77EEA77A66EE826A77EEA67A6C
S31500001E9067EEA17ADFF8A081DFF8A0E1C8ED006A5D
S31500001EA026EEA47A26EE846ACEED007A67EE846A80
S31500001EB067EEA47A524A534B92ED003AD3ED003ABC
S31500001EC037EE267A77EEC67ADFED4F2A37EE437A7B
S31500001ED077EEE37A27EE227A67EEA27A37EE037A76
S31500001EE077EEA37ADFF858C1DFF858A182ED007AC1
S31500001EF0C3ED007ACCED007A8AED007AB9F1000FD5
S31500001F0000F03881002800F03581404B1A78002A0D
S31500001F1000F065823E493F4A91ED002AD2ED002A43
S31500001F203D4BDFED3E1A93ED006A93ED013A3C4BD3
S31500001F3036EE476AD3ED003AD3ED026A33EE673ADE
S31500001F4026EE237A63EE266A77EE023A36EEA27A18
S31500001F5063EEA36A27EE071A76EE816AF4EEE16A6B
S31500001F60F1EE10FA00F3FD82D3ED016AF5EEC06AD8
S31500001F70F1EE10FA7ADD9FED341A66EE816A66EEAE
S31500001F80866A67E0700F00207C0F00203800002072
S31500001F90640F0020ACC5A737AC3A0020883A002071
S31500001FA0E03A002040370020DB0F49403037002060
S31500001FB0DB0FC9403C37002048370020343700206B
S31500001FC0443700200AD7A33C0000000000007042FE
S31500001FD038370020DC000020783A00207C3A0020C8
S31500001FE0A83A0020743A0020E0360020E4000020E1
S31500001FF0DC3600200000003A900F00203ACD133F57
S31500002000C0040020BC040020CDCCCC3DB804002088
S31500002010B4040020B0040020803A00203D0A673F47
S3150000202088000020683A00208C3A0020903A002070
S315000020304637002000100240EC360020E83600202B
S31500002040703A00206C3A002017B7D138CDCC4C3E00
S31500002050D0B35D3F5FED031A76EE826AF4EEE16A75
S31500002060F1EE10FA40F38882C1ED001AD3ED036A4F
S31500002070F5EEC06AF1EE10FA13DD1FED0D2A66EEDD
S31500002080826A66EE836A1FED0F6A72EEA62AF4EE86
S31500002090C62AF1EE10FA40F37B8282ED006AF0EE7A
S315000020A0462A27EE043A23EEA46A67EE244A23EE74
S315000020B0847A36EE436A74EE874A1FED1B4AF6EEC3
S315000020C0006A64EE844A66EE266AB1EE667A74EEBB
S315000020D0E66AB4EEE66AF1EE10FAC84B37EE647AB9
S315000020E0C3ED002A40F12E82F4EEC76AF1EE10FA33
S315000020F000F15C82B0EE664AF0EE464AF4EE474ADC
S31500002100F1EE10FA77FE244A74EE844ABEEE003AE7
S3150000211064EE834AB6EE004A36EE246A76EEA46A88
S3150000212037EE247ADFEDB63A26EE046A66EE846A66
S3150000213027EE047A26EE236A66EEA36A27EE237A52
S3150000214036EE046A76EE846A37EE047A85ED006A26
S31500002150C5ED016A85ED027A1BE0AEF800103EE59A
S31500002160A8F800103BE5398039E5ACF8001036E5F3
S31500002170718034E5F6EE006A0022B0EE667AC5EDAF
S31500002180006AC5ED016AC5ED026AB0EE666A9D4B4E
S315000021901A704FF080419C4B9C4A1B781160002BB3
S315000021A03ED09B4A138801339BB2138013889BB29F
S315000021B0632B35D90026974B16801A88964992B21A
S315000021C002EB820201EB820282ED005A1A88934FDB
S315000021D092B202EB820201EB8202C2ED015A1A8828
S315000021E07F6892B202EB820201EB8202C2ED027AB2
S315000021F01A8892B202EB820201EB8202D7601A8839
S3150000220092B202EB820201EB820108741A88013253
S3150000221092B21A801A8892B2B2F5FA7F28BF1E804F
S315000022207F4B1B78002B4AD0D4ED005AF2EE047A8D
S31500002230F4EEE75AF1EE10FA41DDD4ED007AB3EE92
S31500002240023AF7EE083A83EE275AB4EE635AF6EEF0
S31500002250005AF1EE10FA76EEE56A77EE657A36EE1A
S31500002260656A33FE855A26EE857A26EE056A67EE9E
S31500002270857A76EE256A37EE257A77EEA57AC5ED6C
S31500002280006A85ED017AC5ED027A664DDFED664A94
S315000022909FED664A2B4605F10C02F3EC017AF4EE4B
S315000022A0E47AF1EE10FA40F1928043ED014A93424E
S315000022B0F3D195ED006AD5ED016A95ED027AD4ED7C
S315000022C0005AF2EE047AF4EEE75AF1EE10FA02DD65
S315000022D02268574B1A60DFED577A574B41F27076FA
S315000022E083ED006A26EE276AC3ED016A83ED027A62
S315000022F066EEA76A27EE277AFCEEC67A17EE904AB4
S31500002300FCEEE67A17EE902AFCEEC77A17EE903AC4
S31500002310B44228BF3446B24228BF3246B34228BF31
S315000023203346464D04A946482C60CDE905236A602C
S315000023300494AB6002F03AF80BB0BDE8F08FDFED25
S31500002340416AAEE4404B1B78002B7FF40DADF0EEF6
S31500002350C67A9FED3E7AF4EE477AF1EE10FA3FF632
S3150000236014ADD7ED007AF5EEC07AF1EE10FA7FF7EC
S315000023700CAD86EE277AF6EE007AB4EEE77AF1EE49
S3150000238010FA3FF502AD02E59FED317AF4EEC77A19
S31500002390F1EE10FA44BF9FED2F7A77EE877ABFE40D
S315000023A07FF797AC9FED2C6A77EEC67AF4EEE67A65
S315000023B0F1EE10FA3FF589ACC8ED007A89E4DFED5D
S315000023C0217A264BF0EE674AF0EE675A0EE5F4EEF8
S315000023D0C47AF1EE10FAC8BF03ED014A67E7DFEDF4
S315000023E0196A01261E491F4AF0EE662AC1ED006AE7
S315000023F0C2ED006AB0EE662A1E7091E5E436002052
S315000024003ACD933FB8040020C8000020E000002029
S31500002410B00F0020B20F0020B40F0020803A002039
S315000024201D370020943A00200AD7A33C48E17A3FA2
S31500002430700000200080BB45980F0020A40F0020EC
S31500002440203B00200000000044370020FFFF7F7F74
S31500002450DB0F49C0DB0FC940ACC5A737783A00206F
S31500002460B4040020B004002000F07F4500401C4664
S3150000247000E0AB46467967390FCF5B3B3393884321
S315000024803A881FED077A92B207EE902AF8EE676A4D
S315000024903B8837EE667A9BB207EE903A5FED0D5AAF
S315000024A0F8EE677A27EE257A1FED0F6A87EE270A80
S315000024B080EE060A06F0B6FC5FED127A1FED127A80
S315000024C060EE277AB7EE006A77EE877A5FED156AD7
S315000024D086EE277A77EE667A414BC3ED007AFFF7F0
S315000024E0C4BBBCF80020BCF8003092B207EE902ABC
S315000024F0B8EE677A9BB207EE903A76EEC76ADFEDE2
S31500002500395AF8EE677A66EEA56A9FED376A86EE67
S31500002510A70A80EE060A06F085FCDFED347A9FED09
S31500002520347A60EE277AB7EE006A77EE877ADFEDC7
S31500002530316A86EE277A77EE667A2F4BC3ED007AFC
S31500002540FFF788BBB4EEC76AF1EE10FAB4EEE66A9E
S3150000255031D4F1EE10FAB0EE464A29DDF0EE664AC5
S31500002560CCE5F1EEE61A9FED251AC1EE216A63EE7F
S31500002570A63A27EE267AF7E49FED216AF4EEC66ABC
S31500002580F1EE10FA58BFB0EE666A81ED006A6DE5AD
S31500002590DFED1B6AF4EEE62AF1EE10FA52BFC2ED49
S315000025A0002AC2ED006AF0EE662A7AE5B0EE474AE6
S315000025B0F0EE464AA2E5F1EE10FAB0EE474AD8BF71
S315000025C0F0EE464ACADC9FE50E4B0F4EDFF840C0E0
S315000025D00E4FDFF84080DFF840E01970FFF705BBCB
S315000025E0C000002000401C4600E0AB464679673933
S315000025F00FCF5B3B33938843C40000203333733FD4
S31500002600CDCC4CBE1C370020A03A00206A0F00201B
S315000026106C0F00206E0F0020780F0020704700BF5F
S315000026202DE9F043BE4C83B0236801332360236851
S31500002630B3F57A7F00F023832368B3F5FA6F00F0D1
S31500002640F482B84BB84D1B782878002B00F05C83D9
S31500002650B64BB74AD2ED007A93ED007AB4EEE77A3C
S31500002660F1EE10FA48BFD3ED007A93ED007AB1EEA1
S31500002670477AB4EEE77AF1EE10FAC8BFD3ED007AE6
S31500002680AC4BC8BFF1EE677A93ED007AB5EEC07A2F
S31500002690F1EE10FA2DDDA84A92ED0D7AA74AD2ED99
S315000026A0006A27EE267AB5EEC07AF1EE10FAD3ED7F
S315000026B0006AD8BFB1EE477A93ED006AB4EEC76AF6
S315000026C0F1EE10FA00F161839FED9D6A66EE866A6F
S315000026D0B4EEE67AF1EE10FA0BDDD3ED005A93ED87
S315000026E0006A75EEC75A36EE667AC5EE876A67EEF9
S315000026F0A67A944F002397ED007A67EE877A924E7A
S31500002700924AC6ED017A13603360914BDFF8AC82D2
S31500002710187040F60E610DF106028E4801F07AFD42
S315000027209DF80620DFF89892A2F10100B0FA80F039
S31500002730894999F8003040090870002B3AD1012ADE
S3150000274000F02683854A1360854A1360854B1B7803
S31500002750002B31D0844BF1EE047A93ED007AB4EE7F
S31500002760E77AF1EE10FA40F15983804A1388013373
S315000027709BB20E2B13801FD9002000234FF07C51F3
S315000027804FF0020C01222870032033607360784BEF
S3150000279089F80020196059609960764B40F6075118
S315000027A083F800C0744B1A70744B1870694801F0B6
S315000027B043FD01E06B4B1B78714BF2EE087A93ED0B
S315000027C0007AB4EEE77AF1EE10FA20D593ED007AAE
S315000027D0F7EE007AB4EEE77AF1EE10FA17DD694902
S315000027E00A88013292B2B2F5FA7F0A80C0F00383FA
S315000027F093ED007AF2EE0C7AB4EEE77AF1EE10FA87
S3150000280040F113839FED6F7A03221B680FE093ED6F
S31500002810007AF2EE0C7AB4EEE77A0021F1EE10FAC5
S31500002820584A118000F1B581B7EE007A0022564B66
S3150000283098ED006AD3ED006A544BDFED553A93EDFF
S31500002840003A66EE067A26EEA64AC3EE234A77EEED
S31500002850847A9FED505A77EEE47AD3ED005A67EE0C
S31500002860857A77EEA57AC3ED007AD3ED007AF5EE98
S31500002870C07A0021F1EE10FA48BF1960D3ED004A84
S315000028809FED455AC4EE855A444BF7EE007AC3EDE8
S31500002890005AD3ED005AF4EEE75AF1EE10FAC0F200
S315000028A0CC81B5EEC06AF1EE10FAF5EEC06AD8BF7B
S315000028B0B1EE466AF1EE10FA4FF00102D8BFF1EE22
S315000028C0666A374B08211A709FED3E7A0322354B14
S315000028D083ED006A344BC3ED006A284B1970334B05
S315000028E0DFED337AD3ED006AF4EEE76AF1EE10FA23
S315000028F06ADAD3ED006ADFED2F7AF4EEE76AF1EEDD
S3150000290010FAC0F27C81DFED2C7AB4EE677A022AE7
S3150000291038BF0222F1EE10FA37FE877A57E000BF81
S3150000292028370020D8000020B03A0020D000002030
S31500002930D4000020CC00002038000020783A002087
S315000029406666663FBC000020803A0020A43A00205C
S31500002950743A0020D83A0020880F00208C0F0020FF
S31500002960840F0020810F00207C0F0020760F0020AE
S31500002970943A0020800F0020820F0020CD360020E0
S31500002980700F0020AE0400206C3A0020580F002083
S3150000299066662C426F12833A09ACDC3F540F002066
S315000029A0CC360020C8360020C4360020C4000020E3
S315000029B00000B4420000A0429A99993E703A002065
S315000029C08B0F0020000000001FED027A0322B24B9D
S315000029D0DFEDB27AD3ED006AF4EEE76AF1EE10FAB3
S315000029E015DAD3ED006ADFEDAE7AF4EEE76AF1EEC2
S315000029F010FAC0F2DC80DFEDAB7AB4EE677A022A19
S31500002A0038BF0222F1EE10FA37FE877A02E09FED18
S31500002A10A67A0322A54E327087ED007A3378022B10
S31500002A2004D900230421A24A2B70117040F6052117
S31500002A300DF107029F4801F0EDFB9DF807209E4926
S31500002A40A2F10100B0FA80F00B784009834200F051
S31500002A501F819A4F3B8801339BB21D2B3B8011D9B6
S31500002A600023012A08703B800CD09548954A0378CC
S31500002A700133A2FB031202F4FF7101EB52029B1A0F
S31500002A80DBB2037040F60A510DF10702894801F0E6
S31500002A90C1FB9DF807208C49A2F10100B0FA80F035
S31500002AA00B784009834200F0EF80884F3B88013362
S31500002AB09BB21D2B3B800AD90023012A08703B805C
S31500002AC005D0834A1378B3FA83F35B091370814BFD
S31500002AD01B7803F0FF076BB97F4B1B78002B7CD06C
S31500002AE002242B78002B00F02C8144F004047B4B4D
S31500002AF01C7006E0794B1C7884F00407C7F3800746
S31500002B00E4B2E24340F60F5102F00102694801F0D7
S31500002B1093FB84F0020240F60641C2F34002654888
S31500002B2001F08AFB3A4640F60741624801F084FB11
S31500002B3084F0080240F60151C2F3C0025D4801F07C
S31500002B407BFB84F0100240F60251C2F30012594892
S31500002B5001F072FB84F02002C2F3401240F60351EA
S31500002B60544801F069FB5E4A138801339BB2092B76
S31500002B7005D81380FDF7C2FC03B0BDE8F083002042
S31500002B800121584B10801970FDF7B8FC03B0BDE861
S31500002B90F08393ED007AF7EE007AB4EEE77AF1EE81
S31500002BA010FA7FF741AEB6EE007A01223FE6D3ED8A
S31500002BB0006ADFED4D7AF4EEE76AF1EE10FAFFF601
S31500002BC029AFDFED4A7AB4EE677A012A38BF0122CF
S31500002BD0F1EE10FA37FE877A1CE73378022B3FF6C0
S31500002BE07FAF3378002B00F024812368404AA2FB94
S31500002BF0032313F0100F14BF0324012471E7D3ED50
S31500002C00006ADFED397AF4EEE76AF1EE10FAFFF6C4
S31500002C10DEAEDFED367AB4EE677A012A38BF0122DE
S31500002C20F1EE10FA37FE877AD1E6324A324B116856
S31500002C301B68324A5B1A136003E593ED006ADFED09
S31500002C40306AB4EEE66AF1EE10FA7CDB93ED006AC8
S31500002C509FED2C5A76EE666A86EE856AF6EE005A87
S31500002C6077EEC67A67EEA57AB4EE677A022A34BFA3
S31500002C7002220322F1EE10FA37FE877A2FE61E4A69
S31500002C801C4B12681A60DCE40022104B1A801EE707
S31500002C9000220A4B1A80F5E6C00000200000B4426C
S31500002CA00000A0429A99993E00000000680F00209B
S31500002CB0CD360020D83A0020BA0000205E0F002052
S31500002CC0610F0020ABAAAAAAB90000205C0F002061
S31500002CD0600F0020750F0020940F0020740F002055
S31500002CE0AC0400201805002000008C423333333F2B
S31500002CF0D34D6210243700202C37002020370020C7
S31500002D009A99593F9899193E4B4B4C4ED3ED001A60
S31500002D104B4BDFF86481D3ED000A4A4B4A4F93EDE3
S31500002D20000A98ED001A3146484B494AFDF702FA67
S31500002D30D6ED017A97ED007A67EE877AC6ED017ACD
S31500002D40E7E40127D3E6D3ED006A9FED426AF4EE8D
S31500002D50C66AF1EE10FAFFF6C2ADD3ED006AB6EE22
S31500002D60005A76EEC66ADFED3C5A66EE856A86EE56
S31500002D70A56A77EEC67AB4EE677A012A38BF0122D1
S31500002D80F1EE10FA37FE877AA9E5DFED347AB0E482
S31500002D9040F6B73C3248DFF8E4E0016801316145AE
S31500002DA00160CEF800107FF6D1AC4FF07C510020C8
S31500002DB04FF0020EDFF8C8C02B702A4B8CF80020AB
S31500002DC0DFF8C0C01960596099603060706040F6E5
S31500002DD00751254889F800208CF800E001F02CFA0C
S31500002DE0224B1B78002B3FF4E7AC99F80030002B00
S31500002DF03FF4B0ACE0E4D3ED006AB2EE0C7AF4EE48
S31500002E00C76AF1EE10FA7FF50FAD93ED007AB4EED6
S31500002E10E77AF1EE10FA3FF7C6AE05E50022144B4D
S31500002E201A800122134B1A70C6E49FED0C7A032216
S31500002E30FDE4012455E600BFE0000020803A0020B2
S31500002E40783A0020683A0020BC000020743A00203E
S31500002E50A43A00203333333F9C99193E000000000A
S31500002E608C0F0020943A0020D83A0020810F0020D1
S31500002E70760F0020800F0020703A0020840F00207B
S31500002E80820F0020CD360020064A07491378013309
S31500002E90DBB213700379012B08BF044A0B7008BF1D
S31500002EA01370704747050020B10000204E05002032
S31500002EB00379023B1E2B11D8DFE803F03F101710F1
S31500002EC010101110101010101010111010101010FA
S31500002ED01010101010101010101011007047304A0A
S31500002EE0138801339BB2138070472DE9F0412D4CB6
S31500002EF02D492388027A01339BB223800B783F2B1E
S31500002F0006D80B78294C581CC0B2DBB20870E254C4
S31500002F100D2A16D00A2A14D025490B889BB27E2B7F
S31500002F2009D800240B889BB2581C80B2088021481F
S31500002F302149C2540C80BDE8F08100221F4B1A7053
S31500002F4070471B4C23889BB20BB31D4D2B78032B6C
S31500002F501DD823889BB23E2B1DD8228892B290465C
S31500002F60184E194F3078134907EB801003F09CFE7A
S31500002F700023327807EB821707F8083033780133DD
S31500002F8003F0030333702B780133DBB22B7000237D
S31500002F902380BDE8F0814FF03F084246E0E700BFDE
S31500002FA0BE050020C0050020780500207C05002015
S31500002FB0D00E0020D40E0020C4050020CC0D002029
S31500002FC0CD0D0020CF0D0020D00D0020FFFFFFFF0C
S31500002FD09FED010B704700BF000000000000F07F6E
S31500002FE09FED010A704700BF0000807FFFFFFFFFD3
S31500002FF09FED010B704700BF000000000000F0FFCE
S315000030009FED010A704700BF000080FFFFFFFFFF32
S315000030109FED010B704700BF000000000000F8FFA5
S315000030209FED010A704700BF0000C0FF08B5FFF71B
S31500003030EFFF0E4B83ED000BFFF7F2FF0C4B83ED1A
S31500003040000AFFF7C5FF0B4B83ED000BFFF7C8FF28
S31500003050094B83ED000AFFF7CBFF084B83ED000B0E
S31500003060FFF7CEFF064B83ED000A08BDC03A0020ED
S31500003070B43A0020D03A0020BC3A0020C83A0020DA
S31500003080B83A002008B5FEF767F9002008BD00BF72
S315000030902DE9F043C36B06795C6846712388A94F16
S315000030A01D0A2D0155FA83F357F82330C3F3400365
S315000030B09B00037165884FEA152C4FEA0C1C5CFADD
S315000030C085F557F8255005F002052B430371A588B1
S315000030D04FEA152C4FEA0C1C5CFA85F557F825507B
S315000030E0C5F3400E4EEA030E80F804E0002E00F011
S315000030F0C480038EA58C9D4284BF01330386038959
S3150000310001339BB20381B4F82880984528BF9846BE
S315000031107645A0F8088000F0B380A31D9C4690F881
S31500003120069004F10C0580F807901CF8017F77459E
S3150000313005D11CF8017CB74204BF0127877165459C
S31500003140F3D113F801CBE64504D11F78B74204BF8B
S31500003150002787719D42F4D1857D6B1CDBB2062B5F
S3150000316028BF002300EB4505A5F80A8086798375FC
S31500003170B14500F0AD8000273D46BC46E38C63F3C5
S315000031800F0763F31F47C0F80A70E78C984667F38A
S315000031900F0567F31F45C0F80E50E58CB94665F379
S315000031A00F0C65F31F4CC0F812C0AC4643443B44B9
S315000031B04B442B44634407EE903A9FED637AF8EE56
S315000031C0E77A87EE276A012E1ABFB1EE466A9FEDAF
S315000031D05F7A9FED5F7A002380ED076A80ED067ABD
S315000031E00381D4ED046ADFED5B7A66EEA76A66EECC
S315000031F0866AC0ED086AD4ED057A6FF00407DFED44
S31500003200564A9FED515ADFED555A37EE277A631D20
S3150000321004F10B063F1B9C4613F8015F75450DD163
S3150000322007EB0C0507EE905AF8EEE77A67EEA47AFC
S3150000323067EE857A87EEA56A37EE067AB342EAD15B
S31500003240DFED417AB4EEE77AF1EE10FA31DD37EED2
S31500003250677AF0EEE67A94ED0B6AB4EEE76AF1EE81
S3150000326010FA03DD90F83830012B3BD0002380F8AC
S315000032703830C2ED006A81ED007A0020BDE8F083A7
S3150000328090ED067AD0ED076ADFED307A37EE267AD2
S31500003290B4EEE77AF1EE10FA80ED067A11DCDFED96
S315000032A02C7AB4EEE77AF1EE10FA0AD4D0ED086A79
S315000032B0A1E7B5EEC07AF1EE10FA48BF37EE277AED
S315000032C0C7E7C0ED067AD0ED086AB0EE677A92E7F6
S315000032D04389B0F80C80C789B0F81090458AB0F8D9
S315000032E014C063E7A58C038E9D421AD890ED0D6A33
S315000032F0B5EEC06AF1EE10FAD0ED0A6AD0ED0B7A9F
S3150000330012DB76EEA76AC0ED0A6AD4ED077AF4EE10
S31500003310E76AF1EE10FAACDDC0ED0A7AF0EE676A04
S31500003320A7E7DFED0F6AA4E776EEE76AC0ED0A6A63
S31500003330D4ED077AF1EE677AF4EEE76AF1EE10FA69
S3150000334097D5E9E700F80140DB0FC940920A063F2E
S31500003350920A06BF00007A44000070420000B4439F
S315000033600000000070B5C16303464868F7EE006AC6
S3150000337090ED047AC6EE877AC3ED0B7A90ED077A64
S3150000338067EE877AC3ED0B7AD0ED086A87EEA67AE8
S315000033904FF0000E0024012583ED0B7A0F4E48688E
S315000033A003F1080203F1140C5E6083F83850C3F889
S315000033B018E0C3F81CE0C3F820E0C3F828E0C3F81F
S315000033C034E01C819C751C86C18C22F8021F624564
S315000033D0FAD1034A00201A6070BD00BF0000010147
S315000033E04853544D2DE9F0411D4683689DF818C099
S315000033F01E6E002E5FD1BCF10F0F04460F46C0E9CA
S315000034000312C0E90566C56180F820C04CD8BCF13E
S31500003410070F94BF4FF000084FF001086368596921
S31500003420C9B14FF0020CA5615B69A8B25968096879
S31500003430C881C8788A6068F30510C87088786CF30C
S3150000344083008870002A3AD09A68186853689847AB
S3150000345000282CD163681A699AB1022065611A693D
S31500003460ADB253681968CB78CD8168F3051360F364
S3150000347083034F60CB704FB3936810685B689847BF
S31500003480A8B90121A26894F82000536923F4F8131F
S3150000349043EA00435361A3683046D966A26893683D
S315000034A00B439360BDE8F0814FF00208B6E706468D
S315000034B03046BDE8F08108263046BDE8F081C0B24E
S315000034C062F38300054A88708A60BDE7DBB267F362
S315000034D08303CB70024B4B60CEE700BF583C002005
S315000034E0543C002010B49DF8044001945DF8044B50
S315000034F0FFF778BF30B5836A85B004468C4601ADC8
S31500003500ABB193E8070085E80700626818461278B1
S3150000351083F804C01A60E26A9A60636A9847A36AED
S315000035201BB195E8070083E8070005B030BD2B46C0
S31500003530EBE700BF2DE9F0470B78D1F8108003F5D3
S31500003540800303F58D530D4604461F02B8F1000FA4
S3150000355013D04FF00062D8F804301B681A60D8F810
S3150000356004301B689F60D8F80830D8E900011B6852
S3150000357098470646002840F01A816B6983B14FF4DC
S3150000358000215A68126811605A68126857609A6872
S31500003590D3E90001126890470646002840F00A81E8
S315000035A000236560A9698C4A6162E969C4E90A3148
S315000035B02B7803F5800303F58D531B02A3606E7A07
S315000035C0697B002E18BF4FF44412EF7A2B6AA87A53
S315000035D0090341EA47010143D87942EAC0721878E3
S315000035E0002840F0F380B6FA86F0400941EAC0119F
S315000035F0587808B942F400329D7842EA0070DA78C9
S315000036001F7A954045EA072A1F7912062FB1022F25
S315000036100CBF4FF440174FF4001793F805C0BCF1E8
S31500003620000F06D0BCF1010F14BF40F4807040F4C7
S31500003630407093F809C00CF0030C42EA8C020A436E
S3150000364093F806C0002E40F0C4801E7BD97A36045B
S315000036509B7A46EA012642F460421E43EFF3108845
S31500003660012181F310886368DFF884E11B78DEF8B6
S315000036700490C3F1130301FA03F329EA0303CEF816
S315000036800430DEF8043088F31088544BA568AB6626
S31500003690A368534DC3F810A0A3685E60A368DF60FB
S315000036A0A3685A61A36820F08042C3F840C0A368AB
S315000036B09A60A3689A68986063684A489E7993F905
S315000036C002303601484AEF18F6B287F8006340F830
S315000036D0234003F1C00652F8267027F4803742F8DB
S315000036E0267052F82660BFF35F8F5E09B60003F0BE
S315000036F01F0306F1604601FA03F306F56146C6F8B4
S315000037008031336063685E7993F901303601EF18D2
S31500003710F6B287F8006340F8234003F1C00652F87A
S31500003720267027F4803742F8267052F82660BFF3D9
S315000037305F8F5E09B60003F01F0306F1604601FACB
S3150000374003F306F56146C6F8803133606668337A5E
S3150000375096F904601B01AF19DBB287F8003340F815
S31500003760264006F1C00352F8237027F4803742F84A
S31500003770237052F82330BFF35F8F73099B0006F066
S315000037801F0603F16043B14003F56143C3F880119E
S3150000379019600026636893F90320DB7915441B0141
S315000037A0DBB285F80033114B40F8224023603046E7
S315000037B0BDE8F087B8F1000FF9D0D8F80830D8F88E
S315000037C000001B6A98473046BDE8F08742F08072D9
S315000037D00EE7002642E700BF00103140000080FDE2
S315000037E000E100E0A43C0020006000404950535234
S315000037F000400840EFF30383103B1F4A5BB203F11E
S31500003800C00152F8210020F4803042F8210052F81D
S3150000381021201A4A52F82330D3E906218A421CD0C5
S315000038201869996828B393F820C00968BCF10F0F8E
S315000038300FD8BCF1070F8CBF20F81210815499687D
S315000038404FF000408866D969013291429A6104D0EE
S31500003850704740F822109968F2E75B6893F90330E5
S31500003860012203F01F0006495B09824041F823202C
S3150000387070470868E4E700BF00600040A43C0020F1
S3150000388000E100E030B4EFF30383103B31495BB253
S3150000389003F1C00251F8220020F4803041F82200E2
S315000038A051F822202C4A52F823305D68DC692A6AD6
S315000038B050785A6901281CD0A2420FD0D3E90201E0
S315000038C0A9B193F820400F2C0AD951F822100160B3
S315000038D04FF000509968013288665A6130BC7047D3
S315000038E0072C03D931F812100160F1E7895C0160F9
S315000038F0EEE704F1FF3C62450ED029690029DBD0D2
S3150000390095F90320154902F01F04A040520941F819
S3150000391022005A69DC69CFE795F9034004F1C00239
S3150000392051F8225025F4803541F8225051F82220D2
S31500003930BFF35F8F6209920004F01F0402F1604238
S3150000394000FA04F402F56142C2F8804114605A6933
S31500003950DC69B1E700600040A43C002000E100E023
S3150000396030B4EFF30382103A2E4953B203F1C0008C
S3150000397051F8204002F0FF0224F4803441F8204040
S3150000398051F82010284951F823008168096D8901F2
S3150000399005D54168497A012901D030BC704701211B
S315000039A0224C5B0902F01F02203301FA02F244F8AE
S315000039B02320BFF34F8FBFF36F8F436893F9023015
S315000039C05A0903F01F0301FA03F3203244F82230A8
S315000039D0BFF34F8FBFF36F8F8468124BA26822F03C
S315000039E00102A260426892F9022002F1C00453F873
S315000039F0245025F4803543F8245053F82430BFF37F
S31500003A005F8F53099B0002F01F0203F1604301FA26
S31500003A1002F203F56143C3F880211A6030BCFFF758
S31500003A2069BD00BF00600040A43C002000E100E04A
S31500003A3070B5EFF30383324A103B5CB252F8246050
S31500003A40012273682F4893F90230590903F01F03C6
S31500003A50203102FA03F340F82130BFF34F8FBFF352
S31500003A606F8FB1688B6823F001038B6073682649FA
S31500003A7093F9023003F1C00051F8205025F4803547
S31500003A8041F8205051F82010BFF35F8F03F01F015B
S31500003A905B099B0003F160438A4003F56143C3F869
S31500003AA080211A60B368194A1D6D9A662A0112D4DC
S31500003AB0EB0116D405F0A055B5F1A05F1AD0124A55
S31500003AC004F1C00352F8231021F4803142F8231088
S31500003AD052F8233070BD05213046FFF70BFDEB0190
S31500003AE0E8D50421304605F0A055FFF703FDB5F1F2
S31500003AF0A05FE4D108213046FFF7FCFCDFE700BFFA
S31500003B00A43C002000E100E000600040000080FDD1
S31500003B10844610B4006A836823F440138360DCF89B
S31500003B202040A36C5800FCD5A36823F01003A360C3
S31500003B30DCF82040237FC3F30010DB06FAD4CCE97F
S31500003B400312A36843F01013A3605DF8044B70479B
S31500003B50F0B5846A85B005460F4694466E46B4B104
S31500003B6094E80F0086E80F00EB6920461B78A760F3
S31500003B70236084F804C0EB6AE3606B6A9847AC6A1A
S31500003B801CB196E80F0084E80F0005B0F0BD34467E
S31500003B90EAE700BF3C4B4168994272D170B4016AB2
S31500003BA002468B6823F440138B60016A8B6823F00E
S31500003BB010038B60006A037FC3F30011DB06FAD49F
S31500003BC00120D369314C93F907304FEA531C03F0B7
S31500003BD01F030CF1200C00FA03F344F82C30BFF35A
S31500003BE04F8FBFF36F8FD36993F909304FEA531C98
S31500003BF003F01F0300FA03F30CF1200C44F82C30F9
S31500003C00BFF34F8FBFF36F8F156AAB6823F4803312
S31500003C10AB60D36993F905304FEA531C03F01F03D9
S31500003C2000FA03F30CF1200C44F82C30BFF34F8F4D
S31500003C30BFF36F8FD36993F90B304FEA531C03F030
S31500003C401F0300FA03F30CF1200C44F82C30BFF3E9
S31500003C504F8FBFF36F8FEFF3108480F310884FF010
S31500003C600043D6690A4896F800C0456823FA0CF363
S31500003C702B434360436884F310885160084670BC48
S31500003C8070470720704700BF4249435300E100E0F8
S31500003C90004008402DE9F04300264FF0010C0A7859
S31500003CA0067002F5800202F58C521202C0E9071274
S31500003CB04A69034642628A69D04DC0E90A6282783F
S31500003CC0CC696CF3010282704A78B24214BF604636
S31500003CD002209A7860F301029A7091F90B0091F82C
S31500003CE00AE0420900F01F0720320CFA07F745F8F0
S31500003CF02270BFF34F8FBFF36F8FC14A00F1C00729
S31500003D0052F8278066F3104842F8278052F8277049
S31500003D10BC4F4FEA0E1E05EB00085FFA8EFE88F8D0
S31500003D2000E347F8203091F9050091F804E04FEAE6
S31500003D30501800F01F0908F120080CFA09F945F897
S31500003D402890BFF34F8FBFF36F8F00F1C00852F872
S31500003D50289066F3104942F8289052F828804FEAD6
S31500003D600E1E05EB00085FFA8EFE88F800E347F8A2
S31500003D70203091F9070091F806E04FEA501800F05C
S31500003D801F0908F120080CFA09F945F82890BFF335
S31500003D904F8FBFF36F8F00F1C00852F8289066F37B
S31500003DA0104942F8289052F828804FEA0E1E05EB7B
S31500003DB000085FFA8EFE88F800E347F8203091F994
S31500003DC0090091F808E04FEA501800F01F0908F1C1
S31500003DD020080CFA09F945F82890BFF34F8FBFF376
S31500003DE06F8F00F1C00852F8289066F3104942F828
S31500003DF0289052F828204FEA0E12D2B2054485F8D0
S31500003E00002347F82030EFF310868CF310884FF02C
S31500003E10004508787C4AC540506820EA0500506095
S31500003E20526886F310884FF480601A6A90604A7868
S31500003E30CD78C8691202AD0305F4804502F44072DC
S31500003E402A43057846682D0605F040752A434578CD
S31500003E50ED03ADB22A43457B6D0505F400152A43F3
S31500003E601D6A42F480526A610578AA1E624540F2D4
S31500003E70BE8032681D6A2A61057B8A7805F00305D3
S31500003E8045F0300532B1022A14BF4FF440724FF4A8
S31500003E90807215434FF0000C012640F21F278278EE
S31500003EA0120702F080522A431D6AEA601A6AC2F8B3
S31500003EB018C00A7806FA02F23A4202D01A6A534940
S31500003EC05162827BC57B017C02F0010205F01F0076
S31500003ED042EA002200201D6A01F01F0142EA014267
S31500003EE02A63C3E90300C3E90500196A6489484DDA
S31500003EF01C818D66D969424A91F9051001F1C00409
S31500003F0052F8245060F3104542F8245052F82440E9
S31500003F10BFF35F8F012501F01F044909890001F1F4
S31500003F20604101F5614105FA04F4C1F880410C6075
S31500003F30D96991F90B4004F1C00152F8216060F390
S31500003F40104642F8216052F82110BFF35F8F6109D5
S31500003F50890004F01F0401F1604105FA04F401F53B
S31500003F606141C1F880410C60D96991F9074004F1BB
S31500003F70C00152F8216060F3104642F8216052F801
S31500003F802110BFF35F8F6109890004F01F0401F15E
S31500003F90604105FA04F401F56141C1F880410C6005
S31500003FA0D96991F9091001F1C00452F8246060F34F
S31500003FB0104642F8246052F82420BFF35F8F4A0966
S31500003FC0920001F01F0102F160428D4002F561424C
S31500003FD0C2F8805115600F491A6A9160196A0A7F02
S31500003FE0D207FCD50C4A00205A60BDE8F0830B4A84
S31500003FF00B4E022D18BF32463CE700BF00E100E041
S3150000400000600040A43C00200040084000001F1F44
S315000040101000079D110401004249435324FF00FF8D
S3150000402004FF00FFEFF30383103B204A5BB203F16A
S31500004030C00152F8210020F4803042F8210052F8E5
S3150000404021201B4A52F82300C3691B6983B1036907
S3150000405003B17047026A0021936823F4801343F486
S3150000406000139360436AC160C3B18022FFF770BD3D
S315000040700369026A002BEED08378C16803F003035C
S31500004080022B0CD00B7813718278D0E9031302F05F
S3150000409003029B1A1144C0E90313D9E770470B8842
S315000040A023F4DC439BB25360EEE700BF00600040A0
S315000040B0A43C002010B582B0EFF30383103B1F4AE7
S315000040C05BB203F1C00152F8210020F4803042F8BF
S315000040D0210052F821201A4A52F82340A27802F011
S315000040E00303022B236A0CBF19681978A3690CBF56
S315000040F0C1F30801C9B2019143B9636AB3B104229D
S31500004100204602B0BDE81040FFF722BD02F00302D0
S3150000411001A9606902F0C8FDD4E90521A37803F07E
S3150000412003031A44C91AC4E9052109B102B010BD36
S31500004130636A002BFAD00122E2E700BF006000406C
S31500004140A43C002010B5EFF303830F4A103B5CB28A
S3150000415052F82400026A936823F4401323F01003F4
S315000041609360436A1BB102220021FFF7F1FC074A64
S3150000417004F1C00352F8231021F4803142F82310D1
S3150000418052F8233010BD00BFA43C00200060004060
S3150000419038B5EFF303831D4A103B5CB252F8240096
S315000041A08378056A03F00303022B0CBF296829787C
S315000041B0AA6C08BFC1F30801C2F30073C2F3006C16
S315000041C04FEA031343EA4C13C2F3C06243EAC20C3C
S315000041D018BFC9B2DB06624604D5AB6C1B0458BFD8
S315000041E04CF04002AB6E43F0C853AB66436A0BB16A
S315000041F0FFF7AEFC064A04F1C00352F8231021F47F
S31500004200803142F8231052F8233038BDA43C0020F8
S315000042100060004010B40B0A064C1B0153FA81F1F2
S3150000422054F821300020C3F340035DF8044B1370AB
S31500004230704700BF00F801400120CBB2984080B221
S3150000424002B900040B0A5B0103F1804303F5F8335E
S3150000425098600020704700BFF0B5EFF3108201238D
S3150000426083F31088224E33681BB922490B7340230F
S315000042700B7333680133336082F31088038823B3EA
S3150000428000211D4D08E01B01134445F82340028818
S3150000429001318BB29A4218D9436853F8314003EB87
S315000042A0C1029288E7034FEA1223D2B2EBD502EBA2
S315000042B0031C55F82CE024F480372EF4803E45F894
S315000042C02CE01B0145F82C70DEE7EFF3108201238A
S315000042D083F31088336813B13368013B3360336866
S315000042E01BB9802003490B73087382F31088F0BD55
S315000042F0A03C002000FD014000F8014008B5034B3A
S3150000430003600846FFF7A8FF002008BD54524F502F
S3150000431030B4EFF31084012383F310881D4B186823
S3150000432028B94FF0400C1C4D287385F80CC018684E
S315000043300130186084F31088D4034FEA1120C9B203
S3150000434019D40001154C084444F82020EFF31082DC
S31500004350012181F31088196811B1196801391960B2
S315000043601B681BB980200C490B73087382F31088F5
S31500004370002030BC7047094C01EB001C54F82C504F
S31500004380000125F4803544F82C5022F4803544F899
S315000043902C50D7E7A03C002000FD014000F801406A
S315000043A003465A681B69002053607047034610B4E1
S315000043B0043900F10C0C53F8044F51F8042F6265D0
S315000043C01C68A265027D022A0BD082695268526877
S315000043D01278062A05D06345EDD100205DF8044B1E
S315000043E070471C68CA68E2651C682266F3E700BF6E
S315000043F02DE9F04106460D4607460C4601F10C082C
S3150000440054F8043FD3E9000100F0CAF923681B6899
S315000044109B6847F8043F2A78022A03D11A6C42F4B3
S3150000442020221A644445EBD16A69044B32612A782A
S31500004430B561327533600020BDE8F08133545047D2
S3150000444003460020D3E90223936070470346002009
S31500004450D3E902235360704703460020D3E90223C1
S31500004460D3607047034670B45A689E68D2690020CC
S31500004470D2E9011444F00045D46875619D6844F0A2
S315000044800044AC619C6841F000412161146999685F
S315000044904C629B6852699A6270BC704703464FF043
S315000044A00041002210B49C68104621619C6861613D
S315000044B09C68A16199684A629B689A625DF8044BA0
S315000044C0704700BF43681B78032B88BF0A46836882
S315000044D098BF01F1FF329A6643681B782BB983684F
S315000044E0490801395965836899658368D96AC90796
S315000044F007D44FF4AA015A6683681964D0E90232D8
S31500004500DA600020704700BF03469B68123201390B
S3150000451003EB820300205960704700BF03469A6888
S315000045200020D26AC2F300020A719B689B6C0B6082
S31500004530704700BF84460020CCE90632CCF8141040
S31500004540704700BF70B5836984B004468C46164632
S3150000455001AD9BB193E8070085E8070083F804C026
S315000045609E60E26918461A6063699847A3691BB1A1
S3150000457095E8070083E8070004B070BD2B46EDE719
S31500004580D0E9012312785B6E032A98BF01338B6052
S3150000459080680B4A0B4BC06A126A1B68C2F3026C36
S315000045A003FA0CF34FF0010C02F00702C0F3C350FC
S315000045B0D340C3404B60002081F800C0704700BF65
S315000045C000E00140E43C002010B490F800C0886E82
S315000045D0BCF1030F1ED80130AAB9019C496BE40750
S315000045E054BF01F01F01C1F3044101F00C01A1F118
S315000045F00401B1FA81F14909E2B921BB02225DF851
S31500004600044B5A6070479042E7D9013A5DF8044B73
S315000046101A6070470AB19042F8D8019C496BE407CA
S3150000462054BF01F01F01C1F30441090981F00101E2
S31500004630002AE2D0824201D30029DFD103225DF8AD
S31500004640044B5A6070470028D8D0F7E7FFFFFFFFFA
S315000046509FED397B2DE9F04385B00092866802AB69
S31500004660074688461446406802F003090A46314662
S315000046708DED027BFFF7A8FF039B356B93B914F012
S31500004680080F14BF04220222A107029820D502F1C6
S31500004690120106EB81014860B968133201EB820111
S315000046A04860BE6862061BD5326CB9F1010F42F450
S315000046B08002326427D025F44035BE6845EA0345BA
S315000046C0B9F1000F16D10020356305B0BDE8F083BF
S315000046D04A44123206EB820250606206BE68E3D498
S315000046E0B9F1010F23D025F44035022C45EA0345E4
S315000046F0E6D173B925F0407545EA036500203563B8
S3150000470005B0BDE8F08325F04075BE6845EA03654F
S31500004710F4E70121786802AB009142463146FFF783
S3150000472053FF039B25F0407545EA0365E6E7022C37
S31500004730E0D1DEE7AFF30080FFFFFFFF00000000DF
S31500004740002800DA704710B400F160430901124CEA
S31500004750C9B203F5614383F80013104B44F82020D7
S3150000476000F1C00253F8221021F4803143F82210E0
S3150000477053F82230BFF35F8F012243099B0000F0FC
S315000047801F0003F1604303F561438240C3F88021B3
S315000047901A605DF8044B7047A43C0020006000409E
S315000047A02DE9F04301270B7C002607FA03F3C360CB
S315000047B0C3F30903B3FA83F35B09416003740B7C0B
S315000047C0A94ADFF8B4C21A44120282604B690D4648
S315000047D043618B690446C0E9066385B0CE69CCF8AF
S315000047E0007BEFF3108187F31088A04B1A6922F043
S315000047F000421A611B6981F31088C3681B070CD03D
S31500004800EFF3108187F31088994AC06853889BB2EA
S3150000481023EA0003538081F310884FF425410023D7
S31500004820A2681160A268D362A268D363A268936487
S3150000483029782B7A6A6803294FEAC35302F1FF30BD
S3150000484000F04A8184BF104643EA01434FF000421C
S315000048500021A7689FED827BFB62A3688DED027B3A
S315000048601A61A3685A61A3689A61A3685962A3682A
S315000048709962A368B269DA61A368F2691A62A368E9
S315000048809866A36858662B78D6F83880002B40F0D7
S315000048900F8101234FF0030C6A68A7685208013A9A
S315000048A002927A65A1688A652978032903D9A168E5
S315000048B0CA65A1680A66B26BBAB932788AB12F782E
S315000048C07278022F4FEA82104FEA021100F00C8133
S315000048D040F21381032248EA020202430A4342F4E9
S315000048E08078B278002A40F0C9806268D26992F86E
S315000048F03010C80705D5916AA0680139C16492F8DD
S315000049003010890703D5D26AA168013A0A650121E8
S315000049102A7C01FA02F2C2F30902002A42D00020E0
S31500004920A2685064776BD4F808E0002F00F0B580D9
S31500004930287CBA7897F8039001FA00F01206C0F3C3
S31500004940090042EA0972002836D0B868002800F04B
S31500004950C680CEF888104FF0010EA168B868C1F87D
S315000049608C00297C0EFA01F1C1F30901B9B1A168E5
S31500004970F868C1F89000787E397E000240EA81101E
S31500004980B97E40EA0130A1684864A168386997F8A1
S3150000499004E00867A168786942EA0E42C867D4F85D
S315000049A008E009E0776BD4F808E0002F75D0FA78B4
S315000049B0B978120742EA0162CEF83820B26B7AB9AA
S315000049C03A7FF97E520642EA412248EA020896F800
S315000049D0212096F82010520742EA413248EA02089E
S315000049E096F83020002A14BF4FF4A0014FF4AA0114
S315000049F0A26811642A78012A04D10021A268D16430
S31500004A00A2681165A268C2F83480A268C2F830C0F4
S31500004A10A2681363D4E90232DA60697C224695F90A
S31500004A201200FFF78DFE224696F8221096F9240012
S31500004A30FFF786FE224696F8231096F92500FFF723
S31500004A407FFE2FB12246397897F90100FFF778FEED
S31500004A500020084B236005B0BDE8F083AFF300806B
S31500004A60FFFFFFFF000000009016400000400840D6
S31500004A7000A016405450470000901640F178287860
S31500004A800A01022842EA811230D03BD903210A43A7
S31500004A9048EA024242F0807827E70027CEF83870CD
S31500004AA0A268C2F88870B26B002A99D117468EE7C1
S31500004AB0012BA7681CD00091EA68394602AB6068F2
S31500004AC0FFF782FDDDE902210B0643EA014343F0CD
S31500004AD0030C43F00103E4E643F48033B6E6F968D9
S31500004AE0003918BF012134E70922F4E60921CEE78F
S31500004AF04FF0030C4FF0FF32D3E6002A0CBF06221C
S31500004B000922E8E600290CBF06210921BFE700BFFC
S31500004B1030B44268034692F91210D269002910DBBC
S31500004B20012401F01F05AC4048092B4D203045F803
S31500004B302040BFF34F8FBFF36F8F0024274840F804
S31500004B40214092F92410002910DB012401F01F05F1
S31500004B50AC404809204D203045F82040BFF34F8F28
S31500004B60BFF36F8F00241D4840F8214092F92510AD
S31500004B70002910DB012401F01F05AC404809164D41
S31500004B80203045F82040BFF34F8FBFF36F8F0024CE
S31500004B90124840F82140526BA2B192F90120002A36
S31500004BA010DB01200C4C510902F01F052031A840F2
S31500004BB044F82100BFF34F8FBFF36F8F00200749E2
S31500004BC041F822000020D3E90221186091609B6819
S31500004BD0586330BC704700BF00E100E0A43C0020F1
S31500004BE082680129536B02D043F4807309B143F004
S31500004BF08073002053637047F0B5EFF30382103AD9
S31500004C00214C51B201F1C00C54F82C3023F48033FE
S31500004C1044F82C308B0003F1804303F5C043D3F8EE
S31500004C2000031A4850F82100456895F800E0BEF1E7
S31500004C30010F08D043692BB1BDE8F04000221146B0
S31500004C40FFF780BCF0BD0025D0E90267B760866833
S31500004C5002F0FF02B5648668F5648668356554F827
S31500004C602C6065F3104644F82C60D3F80033BFF38C
S31500004C705F8F074C4B0902F01F020EFA02F26033F7
S31500004C8044F82320D6E700BF00600040A43C002083
S31500004C9000E100E0844630B482B0019100921D49E3
S31500004CA090F904201C4D51F82200C03255F822100C
S31500004CB01A4C21F0807145F822109CF9041041F439
S31500004CC00041E28992B29142FBD008222274019AF5
S31500004CD00AB1019A4260009A0AB1009A8260C278CB
S31500004CE002F0C001802913D03F2A98BFC381182241
S31500004CF000200A4B08491A749CF90430C03351F855
S31500004D00232042F0807241F8232002B030BC704765
S31500004D108381ECE700000020006000400054004062
S31500004D200620704706207047034693F9043005496C
S31500004D30C03351F82320002042F0807241F823202E
S31500004D40704700BF00600040034693F904300549F0
S31500004D50C03351F82320002022F0807241F823202E
S31500004D60704700BF00600040002290F90400124B1B
S31500004D7053F82030C1E90022DA783F2A0CD94FF4E3
S31500004D8080728A60DA89D2B2CA60DA7802F0C0022A
S31500004D90802A09D0002070474FF480328A60DB8970
S31500004DA000209BB2CB6070474FF480320A609B892B
S31500004DB000209BB24B607047000000200620704721
S31500004DC0062070470346002230B593F904C0074C0D
S31500004DD00CF1C00E54F82E10054D21F0807144F8E8
S31500004DE02E1045F82C201A60104630BD0060004099
S31500004DF00000002030B5864690F904301C4DC033C3
S31500004E0055F823201B4C22F0807245F8232090F998
S31500004E10042042F40042E3899BB29A42FBD00B463F
S31500004E20DA789C463F2A05D9DA89D2B202EB022209
S31500004E3092B2DA819CF8022010333F2AF0D84FF064
S31500004E40080C18220B4B0C4D83F810C09EF904C0B9
S31500004E50074C45F82C101A749EF904300020C03314
S31500004E6054F8232042F0807244F8232030BD00BF5E
S31500004E70006000400054004000000020F8B5274ABA
S31500004E80044613780D4643B36B6893F90030002B44
S31500004E903FDB234850F82320002A3CD123712D689C
S31500004EA0BDB12B46DA7819463F2A05D9DA89D2B23E
S31500004EB002EB022292B2DA818A7810333F2AF1D8C5
S31500004EC008211822174B197494F9041040F8215040
S31500004ED01A74154B00202360F8BD01261670EFF3F7
S31500004EE0108086F31088114A116821F48001116040
S31500004EF0126880F310880A4F19463422384601F0AA
S31500004F0087FE084B5F611E736B6893F90030002BB8
S31500004F10BFDA0B20F8BD0820F8BD00BF5C3C0020BE
S31500004F200000002000540040004354440040084064
S31500004F30844610B40A4ADCF80430D2F8084C0B4018
S31500004F402343C2F8083CDCF80840D2F8103C214064
S31500004F501943C2F8101C00205DF8044B704700BFCF
S31500004F6000001740084BD3F8802C0378013B032B35
S31500004F7005D9131E18BF012300200B7070470223AA
S31500004F8000200B70704700BF0000174003461A78D8
S31500004F90052A17D8DFE802F02A2E1D1803034FF062
S31500004FA0050C1A691949506990F8902002F0070219
S31500004FB0C1F8802290F89020C2F30212C1F88C2228
S31500004FC083F800C00020704702224FF440701A7028
S31500004FD0704704210D4A1970D2F88C124907D6D0B1
S31500004FE007234FF48060C2F88C32704701220320F9
S31500004FF01A7070470321054A1970D2F880124807C3
S31500005000C5D007230420C2F880327047000017403D
S315000050100023F0B50161CA68044642610A6903705B
S31500005020C0E906324969EFF31080012383F3108843
S315000050306C4BDA6822F48032DA60DA6880F3108822
S315000050400A7F02F00302012A0AD1EFF3108082F3ED
S3150000505010881A6922F000421A611B6980F31088D1
S3150000506000230A6A6048C26003604368002BFCD1D3
S315000050700125CA6982605C4A056050680128FCD136
S315000050800025486A584E10645564D1F89C50081F94
S31500005090C2F8605291F8905005F00705C2F88052A8
S315000050A091F89050C5F30215C2F88C52D1F894507D
S315000050B0C2F88852D1F89850C2F894524D69C2F895
S315000050C040538D69C2F8445350F8042F03F1B005DC
S315000050D0013342F48032042B46F82520F4D10B7CB0
S315000050E0424D1804002B18BF40F00100C6F800031B
S315000050F0486E3F4BC6F86402886E01F19C02C6F802
S31500005100B00252F8040F043343F8040C106AAB42A1
S31500005110D861506C1864F4D1002240F2FF174FF0AA
S31500005120010ED1F8E000304B324EC3F8A003C3F8AD
S315000051300024C3F80424C3F80824C3F80C240A8FF7
S315000051402D4DC3F8C0244A8F2C48C3F8C424CA6B1B
S31500005150C3F8C8240A6CC3F8CC244A6CC3F8D0241C
S315000051608A6CC3F8D424CA6CC3F8D824C3F8F07C7C
S3150000517023695B69DB6E03F11C0103F1380C11F93D
S31500005180013B002B21DB11F81D2CF7181201D2B2BE
S3150000519087F8002303F1C00245F8234050F8227037
S315000051A027F4803740F8227050F82220BFF35F8F33
S315000051B05A09920003F01F0302F160420EFA03F34C
S315000051C002F56142C2F8803113606145D7D10322EE
S315000051D04FF44035044B0A499D621A625A62616275
S315000051E00020F0BD00400840000017408003174033
S315000051F06003174000E100E0A43C0020006000408E
S315000052004843444100222DE9F04F82468B4601690E
S315000052108D4B8E4C496985B0027043F8102BA34222
S31500005220FBD1CA6A8A4B8B48DA640A6B01F18C049B
S315000052301A654A6B401A5A650A6DC3F8C0214A6D51
S31500005240C3F8C4218A6DC3F8C821CA6DC3F8CC213E
S315000052500A6EC3F8D02101F16C03C21853F8041F7B
S31500005260A3421160F9D10027CAE901779BF8002013
S31500005270002A00F0E58051465B46BA46BB461A4610
S315000052800846754E0121536853F8275095F800C01B
S315000052906B682C7923F07F4301FA0CF104FA0CF4C5
S315000052A089B223F0FF034BEA040B4AEA010A002BFA
S315000052B040F0C080AB68002B40F0BC8083680B4395
S315000052C083602B786979654C1B0119512B78A97974
S315000052D01B01043419512978AB68090104340B51B8
S315000052E02B69297804F59C7444F82130EB78002B5F
S315000052F051D00024DFF86C91DFF85481009009E06A
S31500005300622902D10121C8F82013E8780134E1B2FC
S3150000531088423FD9A96951F824301978586809019B
S3150000532001F1804101F5B811C1F800069868C1F88D
S315000053300406D868C1F808061869C1F80C06596849
S31500005340C1F306216129DBD13178C909DDD101928A
S31500005350EFF3108C012181F31088D9F80C0020F4AA
S315000053608000C9F80C00D9F80C008CF3108896F868
S3150000537000C01E204CF0800C86F800C000F098FAA1
S315000053803178013441F010013170E878E1B2884299
S31500005390019ABFD8009813780137F9B28B423FF6CD
S315000053A071AF044611465A468B46216950464F69ED
S315000053B0A24697F82210B7F820C0CC4381F002012C
S315000053C0C1F340018DF80D1004F00101CCF30A0C75
S315000053D08DF80C1093B34FEA830EDAF804300FFA07
S315000053E08CFC4FEA4C0C4E3743B300231E46DBF8C9
S315000053F0048058F8031037F8025F49780CEB05046F
S315000054001031694411F8041C01B92C1DA64203F1A0
S31500005410040338BF26467345EBD101360C4BCAF858
S315000054200C60986400200E49DA65CAF8201005B0B1
S31500005430BDE8F08F43680B43436042E70126EDE782
S3150000544001261046EAE700BF00061740500817403D
S3150000545000001740D401174000300F40C00017402D
S3150000546048434441004008402DE9F04190B09DF882
S315000054705870EFF303841F4D103C64B255F8245066
S315000054806E698EB30593FF23ADF81810D5F8188012
S31500005490E9698DF80200ADF80070049201918DF86B
S315000054A00830B8F1000F23D0C4464746BCE80F00C9
S315000054B0EE4608AE0FC69CE80F0086E80F00BEE871
S315000054C00F000FC79EE80F008CE80F006B6940467F
S315000054D09847AB6943B19C4608AD0FCDACE80F00C9
S315000054E095E80F008CE80F00204610B0BDE8F0816B
S315000054F0E846EBE7A43C0020002310B515490370ED
S31500005500C1F8083CC3681BB1D1F8802C013BFBD124
