S00B00003030302E7372656389
S31500000000904E0020C15E0000F95C0000BD5E00005D
S31500000010BD5E0000BD5E0000BD5E0000BD5E00006E
S31500000020000000000000000000000000BD5E0000AF
S31500000030BD5E000000000000BD5E0000BD5E000069
S31500000040E94F0000BD590000655A0000155B00002D
S31500000050E94F0000A54400001544000035450000A6
S3150000006081450000E53B0000753C0000513D000065
S31500000070213E00000348044B834202D0034B03B1E8
S3150000008018477047D4020020D40200200000000068
S31500000090064B0749C91A891048BF0131491003D0D8
S315000000A0044B0BB101481847704700BFD40200202B
S315000000B0D40200200000000010B5064C237843B996
S315000000C0FFF7D8FF044B13B10448AFF300800123B8
S315000000D0237010BDF002002000000000D0A6000032
S315000000E008B5054B1BB105490548AFF30080BDE8CF
S315000000F00840FFF7CDBF00BF00000000F40200205B
S31500000100D0A60000082010B503F088F94FF003329E
S3150000011040F20110044B054C0549C3E90022DC609E
S315000001209A60A1F86F0010BD0C03002003030301C1
S315000001301C03002070B52DED028B6D4CA5686E1C5E
S315000001401CBF0135A560A57B002D6DD140F20110C5
S31500000150E0814FF0000C0020C2F800C0187094ED4A
S31500000160007A9FED646ADFED646A27EE067A60EE38
S31500000170A66A37EE267A614D37EE608AD5ED047AA7
S31500000180012684ED007A68EE277A9FED5D7A84ED8C
S31500000190017A77EE877A9FED5B7AF4EEC77A0023D1
S315000001A0F1EE10FA0B6028DC9FED577AF4EEC77A71
S315000001B0F1EE10FA65D581ED017A544BD3E90001D1
S315000001C005F088FF95ED057A07EE900A67EE877AC7
S315000001D067EE880AF5EEC00A0023F1EE10FA6373A3
S315000001E001DCDFED470AD4ED017A77EEA07AC4EDA3
S315000001F0017A2673BDEC028B70BD81ED017A434B0B
S31500000200D3E9000105F066FF95ED057A07EE900A41
S3150000021067EE877A67EE880AF5EEC00A0023F1EEEC
S3150000022010FA6373DDDCDEE7E57B012D3CD00028A8
S315000002304CD0207C02284FD0012082ED000A187095
S3150000024094ED007AD2ED006ADFED2A5A9FED2A6A14
S3150000025027EE257A66EE866A37EE267A274D37EE42
S31500000260608AD5ED047A637B84ED007A68EE277A9E
S315000002700BB10023636094F90C605EBB94ED017AC8
S3150000028087E7C1ED017A98DB204BD3E9000105F041
S3150000029021FF95ED057A07EE900A002367EE877A2F
S315000002A0637367EE880A9EE700283FF452AFF0EECC
S315000002B0007AF4EEE71AF1EE10FAFFF64AAF40F2D2
S315000002C002300025A4F80F00A560B5E70120A4F8C8
S315000002D00F003EE7002658E740F2E630A568854263
S315000002E002D901202074A7E79FED090AA4E700BF01
S315000002F094030020A4707D3F0AD7233C8800002089
S31500000300000000000D98463E0D9846BE8000002075
S315000003109A99193E0122014B5A73704794030020A3
S3150000032070B41B4E3378072B24D890F9001051B3C4
S315000003300122184D184C03E00132B2F5807F20D01F
S315000003402B7804EB0323134403F8011C10F9011F57
S315000003500029F1D100212B7804EB03242B78A1543A
S31500000360013303F007032B7033780133DBB23370AC
S3150000037070BC7047094A138801339BB2138070BC66
S315000003807047FF22E6E70A46024D034CE2E700BF4C
S31500000390F8050020FA050020FC050020F6050020DF
S315000003A030B54FF0000C0725164C85B00223164ACF
S315000003B000951649164884F800C003F08BFA154BD1
S315000003C0C2B21A7090B9144B039303E0039B013B2E
S315000003D0039313B12378002BF8D0039B43B10A4B48
S315000003E00E4918785A780E4B08701A7005B030BD51
S315000003F001210C4B0C4A197013780B44DBB21370B5
S31500000400EDE700BF7E050020280500203805002006
S31500000410743C002073050020009F24007605002010
S31500000420750500207405002072050020002208B51D
S31500000430044B60F07F0018705A70FFF7B1FF024B53
S31500000440587808BD3805002028050020B5EEC00AFA
S31500000450F1EE10FAF8B504462DED028B1546B0EE16
S31500000460408A3FD400274E1EFCEEC88A224A18EE68
S31500000470903A06F091FD3844B0422DDA2E2300F171
S31500000480010C6645235404EB00011FDDF8EE688A73
S31500000490B2EE047A38EE680A6A1C024420EE070AB5
S315000004A0FDEEC07A17EE903A092BA8BF092307EE96
S315000004B0903AF8EEE77A0CF1010C3033944530EEC1
S315000004C0670A01F8013F08D06645E7DC624600236B
S315000004D0A354BDEC028BF8BD0B220023A354BDEC44
S315000004E0028BF8BD2D234E1EB1EE408A3146012700
S315000004F000F8013BB8E700BFD49400002DE9F04FA7
S31500000500A84BE1B01B78042B04D1A74A138801330A
S315000005109BB21380A54B1A781AB11A78013AD2B257
S315000005201A70A34D2B889BB2002B5BD1A14C23786C
S31500000530002B40F09480A04CA04FA14DB5F900309F
S31500000540002B04DB9F4A1278072A40F26981B7F92B
S315000005500030002B07DB9C490A780132D2B2042A0C
S315000005600A7000F2FC80994B1B7843B1984A1388B5
S3150000057001339BB2B3F5FA6F138080F07C81237848
S315000005806BB3904B1B78072B29D89249924A0B885C
S31500000590128801339BB292B293420B801FD3002282
S315000005A08E4B8F481B7890ED000A03F0FF050A80FA
S315000005B0002B00F05583F6EE007A30EE270ABDEEEA
S315000005C0C00A10EE101A874EDFF84C823278531CA0
S315000005D0DBB2042B337028F8121000F20D8261B0E2
S315000005E0BDE8F08F804E734C338801339BB2338065
S315000005F033889BB2C72B9AD92378032B23D82B8811
S315000006009BB23E2B00F293812A8892B29146DFF884
S315000006100C82764F98F80000754907EB801006F0BB
S315000006203BFD002398F8002007EB821707F80930F6
S3150000063098F80030013303F0030388F8003023787C
S315000006400133DBB2237000236A4A2B803380138880
S3150000065001339BB213802378002B3FF46CAF664DB9
S31500000660624B2A780DF1400E03EB821CBCE80F00AA
S31500000670AEE80F00BCE80F00AEE80F00BCE80F00C4
S31500000680AEE80F009CE80F008EE80F002B7810A84C
S31500000690013303F003032B702378013BDBB2237095
S315000006A006F007FD00283FF446AF10AB0025534C7B
S315000006B01A1805E0CB070BD5013815703FF43BAF90
S315000006C012F8013D093BDBB2172B24FA03F1F1D9ED
S315000006D04B4C042223884B4901339BB210A823803C
S315000006E006F0B6FC0446002840F0D980464A254666
S315000006F01388464E01339BB211AF138003E00135D8
S31500000700382D00F0458356F82400394606F0BAFC29
S3150000071003340028F3D105EB450506EB85052B7A56
S31500000720012B00F04383022B00F02E82002B40F0B9
S315000007303B836B680CAC93ED000A04221021204623
S3150000074020AEFFF783FE4FF480713B463046304AB9
S31500000750009406F021FC3046FFF7E2FDEBE6194A6D
S315000007601278072A3FF6FFAE0022372B0A7000F3F5
S315000007707082264A03EB430102EB81025168127A2A
S31500000780002A00F0FC800A7820AE00922021304634
S31500000790204A06F001FC3046FFF7C2FD3B880133D4
S315000007A03B80E0E6F2050020EC0500208E050020E7
S315000007B0000F0020FD0D002088050020AC00002061
S315000007C0AE000020F8050020AA04002096050020AF
S315000007D0A804002086050020B4000020B0000020F8
S315000007E0083B002018050020F4050020000E00201C
S315000007F0040F002090050020FE0D0020130080004D
S31500000800940500204C9600009205002038990000BF
S31500000810EC940000E89500001C050020FF0D002068
S31500000820372B38DC5F4E03EB430206EB8202107A6D
S315000008305A00002879D05C49DFF8B8C1012808BF02
S315000008406146134406EB8302507A0091574A584991
S3150000085056F82330002818BF0A464FF480710192DB
S3150000086020A8544A06F098FB20A8FFF759FD2B88CC
S3150000087001332B806BE6504B1B78072B3FF67FAE80
S3150000088000234E481380FFF74BFD4D4A1388013372
S315000008909BB2138073E64FF6FF732B8057E6042254
S315000008A0484910A806F0D4FB0546002843D111AFED
S315000008B02021384606F0ACFB8046002800F0A381D4
S315000008C02C46384E057003E00135382D00F0608265
S315000008D056F82400394606F0D5FB03340028F3D138
S315000008E005EB450506EB85056B7A002B00F07E824D
S315000008F02B7A08F10108012B00F0BA82022B00F0D6
S31500000900C782002B40F05082404605F033FC51EC84
S31500000910100B05F0DFFB00EE100A6B680CAC04222E
S315000009201021204683ED000A0AE7274989E74FF0A0
S315000009303F094A466BE6254910A806F0A3FB0028A6
S3150000094000F02E810922224910A806F081FB00281A
S3150000095040F038829DF94930202B00F0AB826422AA
S31500000960002301201B491C4D0A801C4C1C491D4AB2
S315000009702B7020700B801C4F1C4D1370DEE510ADE4
S3150000098091ED000A284604220C21FFF75FFD20AEF8
S31500000990009520213046164AB7F9003006F0FCFAD9
S315000009A0F9E600BF38990000D8940000E8940000EA
S315000009B0E4940000CC950000F8050020FC950000AA
S315000009C0A205002024950000DC9400005895000044
S315000009D080950000B400002018050020880500203E
S315000009E08605002084050020AC000020AE00002013
S315000009F0DC950000E0940000DFF874A303229AED72
S31500000A00000A0C2120A8FFF721FD05234FF4807171
S31500000A10BC4ABD4806F0C0FA0225BB4FDFF860931A
S31500000A2008F10A0B38F9023BC5F5807178194A4678
S31500000A3006F0B2FAC3450544F4D1B44BDAED003AF8
S31500000A40D3ED007AB24BF2EE042AD3ED006A93EDB1
S31500000A50015AD3ED025AAF4B9FEDAF2A93ED004AF0
S31500000A60D3ED014A93ED026AAC4B26EE226A1B785F
S31500000A70BDEEC66A0993AA4BF6EE001A1B7867EE1E
S31500000A80A27A0893A74B9FEDA83A93ED007A27EE3A
S31500000A90027ABDEEC77A8DED066A8DED077AA34B15
S31500000AA077EEA17A93ED006AA14B63EE823A93ED5D
S31500000AB0007A66EE836A25EE035A65EE835A24EEC3
S31500000AC0224A64EEA24AFDEEE77A27EE037A26EE84
S31500000AD0026AFDEEE44ABDEEC44AFDEEE55ABDEEFD
S31500000AE0C55AFDEEE66ACDED007AFDEEE37ABDEE7F
S31500000AF0C66ABDEEC77AC5F580718DED044ACDEDA7
S31500000B00054A8DED025ACDED035ACDED016A17EE79
S31500000B10903A884A78198DED0A6A8DED0B7A06F0BF
S31500000B203BFA4119002940F3F9810023764A7D18E2
S31500000B3012F9010B43409542DBB2F9D17E4A78188F
S31500000B40C1F5807106F028FA6F48FFF7E9FB00212E
S31500000B507A4A3170138805339BB21380784B1A7822
S31500000B60002A3FF43CAD774A187813780133DBB29C
S31500000B7083421370FFF433AD7348217003881170FC
S31500000B8001339BB203802AE56B6820AE1C684FF4E4
S31500000B9080713B4630466D4A009406F0FDF9DAE571
S31500000BA004256B4B6B4C20AEDFF8D8A1DFF8D8914B
S31500000BB0DFF8D88193E8030004F5287730608DF8D4
S31500000BC08410637A73B1D72D00F31681237A012B33
S31500000BD03AD0022B33D0EBB10C34A74205D0637A5E
S31500000BE0002BF3D10C34A742EBD1042D00F3048182
S31500000BF0304606F05EFA024657493046C2F1FF0219
S31500000C0006F013FAA7E55548FFF78AFB544C554FF3
S31500000C10554D93E463680DF1300B042293ED000A01
S31500000C2010215846FFF712FC4246CDF800B0C5F534
S31500000C3080717019236806F0AFF90544D2E763683E
S31500000C404A461B680093F2E7636852461B78009396
S31500000C50EDE74FF6FF7345483B80FFF761FB82E403
S31500000C6001220C210CA8FFF7F1FB414B10AE93EDCE
S31500000C70000A0C2103223046FFF7E8FB234BB6EEB1
S31500000C80006AD3ED007A3B4B77EE867A93ED007AD5
S31500000C90394B37EE067AD3ED006A76EE866ABCEEFD
S31500000CA0C77AFCEEE66AFCEEE77A4FF48071334AC7
S31500000CB00CABCDED036A8DED027ACDED017A00968F
S31500000CC020A806F069F920A8FFF72AFB1B4A1C4951
S31500000CD0138801339BB213800B78002B3FF47FAC53
S31500000CE0184A097813780133DBB28B421370FFF48C
S31500000CF076AC154925700B88157001339BB20B80B5
S31500000D006DE400BF04960000A8030020A00F002099
S31500000D10580500204C0500200000C842980F00200E
S31500000D20103B0020CC3A002000007A44840F0020BB
S31500000D304437002008960000309600008205002007
S31500000D40850500208405002080050020049500000C
S31500000D506095000038990000F89500002C95000079
S31500000D6088050020AC000020AE000020F4950000AD
S31500000D70D03A0020C4000020C000002038960000B1
S31500000D802C9600007095000078950000689500008C
S31500000D903B464FF48071AD4A20A806F0FDF820A826
S31500000DA0FFF7BEFAFFF7C7BB20AED4E46B6820AEF0
S31500000DB01C784FF480713B463046A54A009406F0F5
S31500000DC0EBF8C8E49DF84030522B1CD19DF8413019
S31500000DD0CBB901229F49A04C0B70A048A049A14F56
S31500000DE0A14D03800B702270FFF7A8BB3B464FF462
S31500000DF080719E4A20A8D0E7013D73572C2B04BF73
S31500000E0000237355F4E69DF94030572B00F0888097
S31500000E10472B5FD19DF84130303B092B67D80DF148
S31500000E20410005F0AAF983B2372B3FF684AB0C21BB
S31500000E308F4B84B201FB04331A7A5B68002A40F0B8
S31500000E40118293ED000A04220CAD284620AEFFF76E
S31500000E50FDFA202123463046864A009506F09CF886
S31500000E603046FFF75DFA7C4C7E4F7F4DFFF766BB41
S31500000E70404605F082F96B68C0B220AE18704FF498
S31500000E80807100903B463046714A06F085F862E470
S31500000E9001460A22404606F075F804466D6820AE03
S31500000EA02C604FF480713B463046734A009406F03E
S31500000EB073F850E40DF14A0005F05FF983B2642B34
S31500000EC028BF6423012B4FF47A7238BF0123B2FB8B
S31500000ED0F3F245E5502B44D03F2B40F0F2809DF9CC
S31500000EE041304D2B00F0A780542B00F0DD809DF89B
S31500000EF04030412B04D19DF84130002B3FF450AED9
S31500000F009DF84030442B6FD19DF84130002B6BD1BA
S31500000F10544F514C544D3B80FFF710BB00230DE658
S31500000F209DF84130303B092BE1D80DF1410005F029
S31500000F3024F907EE900AF8EEE77A504B9FED507AC7
S31500000F40C3ED007AD3ED007AF4EEC77AF1EE10FA2B
S31500000F507FF7F1AA83ED007A3F4C424F424DFFF7EF
S31500000F60EDBA9DF941302F2BC1DD392BBFDC3D2178
S31500000F7010A806F04DF8054600283FF4DCAA0DF14E
S31500000F80410005F0FAF883B2372B3FF6D4AA0C23BA
S31500000F90374E84B203FB0466737A002B3FF4CBAA68
S31500000FA0337A681C002B40F0938105F0E3F851EC8E
S31500000FB0100B05F08FF8334A736800EE100A93425F
S31500000FC000F07E81304A934200F066812F4A9342B8
S31500000FD000F052810832934200F04E8183ED000A00
S31500000FE004220C210CAD30E7294910A806F04AF876
S31500000FF0B0B1284910A806F045F888B1264910A8CE
S3150000100006F040F860B1254910A806F03BF8002824
S315000010107FF491AA144D104C124F2880FFF78EBA18
S3150000102000230D4C0B490E4A23700B700D4F0E4DCD
S315000010301370FFF783BA1A4B1021D3ED007AFDEE39
S31500001040E77A184A17EE903A20A8A6E6109500000F
S31500001050F8940000840500208805002086050020FD
S3150000106018050020AC000020AE00002044950000CA
S31500001070389900008C95000004950000D0000020EF
S3150000108000A08C45D4000020D80000208C00002051
S31500001090B4950000B8950000C0950000C495000006
S315000010A0940F0020A4950000904B032293ED000AB4
S315000010B00C210CA8FFF7CAF910218D4A0CAB20A809
S315000010C06BE6462B31D04D2B4BD19DF941302D2B64
S315000010D004D0303BDBB2092B3FF609AF0DF14100DE
S315000010E005F04BF807EE900AF8EEE77A814B9FED94
S315000010F0827AC3ED007AD3ED007AF4EEC77AF1EE88
S3150000110010FAC8BF83ED007ADFED7C7A93ED007AA2
S31500001110B4EEE77AF1EE10FA7FF50DAAC3ED007A88
S31500001120774C784F784DFFF709BA9DF84130303B40
S31500001130092B3FF6DCAE0DF1410005F01EF883B237
S31500001140642B28BF6423012B4FF47A7238BF012326
S31500001150B2FBF3F26D496A4C6A4F6B4D0A80FFF79A
S31500001160EDB9542B3AD19DF941302D2B04D0303BAB
S31500001170DBB2092B3FF6BBAE0DF1410004F0FDFFDB
S3150000118007EE900A9FED627AF8EEE77A67EE877AC5
S31500001190564B604AC3ED007A93ED007AD2ED007AA1
S315000011A0B4EEE77AF1EE10FAC4BF11681960D2ED19
S315000011B0007A93ED007AF1EE677AF4EEC77AF1EEF3
S315000011C010FA7FF7B8A9D2ED007AF1EE677A4C4CA7
S315000011D0C3ED007A4B4F4C4DFFF7B0B9452B30D1DC
S315000011E09DF94120A2F13003DBB2012B3FF67FAE21
S315000011F0312A19D000224848484B027093ED007AF4
S31500001200DFED477AB4EEE77A4649F1EE10FA0A7056
S315000012104FF00502C8BFC3ED007A434B384C394F37
S31500001220394D1A70FFF78AB93B4B1B78002B7FF4B8
S3150000123082A901223B4B324C324F334D1A70FFF7D5
S315000012407DB9432B7FF453AE9DF84130303BDBB282
S31500001250012B3FF64CAE354A294C2A4F2A4D1370C6
S31500001260FFF76CB91D7820AE234620213046304A60
S31500001270009505F091FEF3E5DFED2E7AB4EEE70A70
S31500001280F1EE10FA0FDCB5EEC00AF1EE10FA7FF5BA
S31500001290A5AE9FED290AA1E6F7EE007AB4EEE70ABD
S315000012A0F1EE10FA02DDB0EE670A97E6FFEE007A7D
S315000012B0B4EE670AF1EE10FA48BFB0EE670A8DE6A3
S315000012C0F7EE007AB4EEE70AF1EE10FAEBDCDAE7B5
S315000012D004F053FF7368C0B220AE1870202100904E
S315000012E023463046124A05F057FEB9E5D8000020DD
S315000012F0AC950000940F002000007A4400007AC4E8
S3150000130088050020AC000020AE000020B4000020BC
S315000013106F12833AD400002004370020880F002083
S3150000132009AC5C3F103B002005370020DC000020A4
S315000013309895000000004842000000002DE9F04F9B
S315000013402DED028BA54989B0A54802F003FAFEF7F8
S31500001350D9FEFEF7DFFFA349A34804F051F8034680
S31500001360A249A148059304F045F9034600219E4889
S31500001370069304F0B9FA9C4C0790204604A903F0A2
S31500001380E9FF9DF81030022BF7D0994999488DF85E
S31500001390123003F025FA974803F0FAF9964B1B78BA
S315000013A0002B40F06482002240F60551934803F07A
S315000013B03BF90120924904F073FC012240F60551E5
S315000013C08E4803F031F94FF47A710A2004F068FC74
S315000013D04FF0082300258B4F012183483B6003F023
S315000013E09FFF0421804803F09BFF4FF4FA742E46BA
S315000013F0DFF880824FF47A71012004F051FCB8F8CE
S315000014000020B8F80230013C16441D44F2D17E4B50
S315000014107E48A3FB0612A3FB051352095B090221B2
S315000014207B803A8003F0D4FD0221794803F0D0FD99
S315000014300221784803F0CCFD7749784803F0A8FBF1
S31500001440764803F007FA754803F0F8F9152240F6D6
S3150000145006616A4803F054F9012240F606616748BE
S3150000146003F0E2F8012240F60261644803F0DCF87A
S315000014704FF47A714FF4FA6004F012FC052240F63C
S3150000148006615E4803F03CF9012240F606615B48BE
S3150000149003F0CAF84FF47A714FF4FA6004F000FCD6
S315000014A05F4D40F605610DF11302544803F0AAF8AA
S315000014B05C4B9DF8132028465B491A7002F0E2FD4A
S315000014C0002800F00E826323584A5949039200917E
S315000014D013705849584802F025FA584BC2B20446D0
S315000014E01A70002800F0DA81554B564D0193DFED56
S315000014F0568A9FED568ADFF880B1DFF880A1DFF8C3
S315000015008081534EDFF87C913C4C40F603610DF12F
S315000015101302204603F076F89DF813300DF11302FE
S31500001520A3F10103B3FA83F340F604615B09204695
S315000015308BF8003003F066F89DF81330454AA3F1A6
S315000015400103B3FA83F35B091370DAF80030012B59
S3150000155000F0468198F80030002B40F0958099F80D
S315000015600030002BD1D0009F3B78002BCDD13A4ADA
S315000015701378002BC9D139483949007801EB00208E
S3150000158005F097FD0246D8B1012334483B70017837
S31500001590334B234803EB0121029202F0B1FC314B9D
S315000015A0029AC0B21870304B304992B21A800B883A
S315000015B0294A01339BB20B802D4B1B78DBB213708B
S315000015C0264A1378013303F00703137099F80030A5
S315000015D0013BDBB289F8003097E700BFD89B0000DB
S315000015E0403B0020C89D0000FC3B00201C9F0000E3
S315000015F0109C0000803B0020B10F0020383B0020EB
S3150000160040420F00E8000020D34D62109C3B0020B2
S31500001610BC3B0020DC3B00203CA00000243C00201A
S31500001620443C0020B800002098A00000F2050020ED
S31500001630FC0D0020CCA00000743C0020B20000206D
S315000016407C050020380500200000003A3333834132
S3150000165028050020B90F00208E050020F90500207E
S31500001660FC050020B60000208C0500208A0500201D
S31500001670B7000020003B0020BA0F00209C05002088
S3150000168048050020F8050020002388F80030019B5B
S315000016901B78002B3FF463AF9F232B80FEF780FE61
S315000016A0A02372782B800292FEF77AFEA123029A7B
S315000016B02B80737843EA0223B94A1BB2174613807C
S315000016C0FEF76EFEA22372782B800292FEF768FE6A
S315000016D0A323029A2B80737843EA02231BB27B80F2
S315000016E0FEF75EFEA42372782B800292FEF758FE68
S315000016F0A523029A2B80737843EA02231BB2BB8090
S31500001700FEF74EFEA62372782B800292FEF748FE65
S31500001710A723029A2B807378A24943EA02231BB2BD
S315000017200F460B80FEF73CFEA82372782B800292B0
S31500001730FEF736FEA923029A2B80737843EA02232A
S315000017401BB27B80FEF72CFEAA2372782B800292B6
S31500001750FEF726FE029A7378934843EA02231BB2E9
S315000017608F4ABB8013881BB207EE903AF8EEE77AF1
S3150000177067EEA87AC0ED007A53881BB207EE903A5E
S31500001780F8EEE77A67EEA87AC0ED017A9388874A81
S315000017901BB207EE903AF8EEE77A67EEA87AC0ED4C
S315000017A0027A3B881BB207EE903AF8EEE77A87EEAC
S315000017B0887A82ED007A7B881BB207EE903AF8EEC3
S315000017C0E77A87EE887A82ED017ABB881BB207EE4C
S315000017D0903AF8EEE77A87EE887A82ED027ABEE6EC
S315000017E0734802F0CFFB102240F60561204602F056
S315000017F087FF00226F4F704BD7F8FCC04FF47A7109
S315000018004CF0807CC7F8FCC05A60D3F800C04FF497
S31500001810FA704CF0010CC3F800C004F041FA022340
S315000018200022CAF80030654B1A60654BB3F8C43025
S3150000183013F02003F9D1604A5360614BB3F8C4300A
S315000018409B06FAD503235C4A5C49526820460A6027
S315000018505C4A40F60561CAF8003002F051FF5A4969
S31500001860534802F00FFC0423039A137072E6012218
S3150000187040F60161554802F0D7FE4FF47A710A200E
S3150000188004F00EFA002240F60161504802F0CCFE48
S315000018904FF47A713C2004F003FA84E54FF47A7130
S315000018A00A2004F0FDF9012740F21113484E494D74
S315000018B037702B80FEF774FD4FF47A710A2004F01E
S315000018C0EFF9022375203370FEF7B0FD0322424B79
S315000018D0187032701B78422B2BD0404B01931C7032
S315000018E005E602233E4F3F4A40F6066137483B7005
S315000018F0039702F005FF4FF47A714FF4FA7004F083
S31500001900CFF9394B2146402238481C7005F078FB48
S315000019100423374E374A3480364E2D6A0092364AB3
S3150000192034702C6951783548354A046011703B7023
S31500001930CFE576232B80FEF733FD4FF405632B802E
S31500001940FEF72EFD4FF47A71384604F0A9F940F6F9
S315000019504F032B80FEF724FD4FF47A71384604F0CE
S315000019609FF940F64E732B80FEF71AFD4FF47A71FD
S31500001970C82004F095F94E20FEF758FD0346214A8B
S3150000198050201370FEF752FD03461F4A2D20137098
S31500001990FEF74CFD11491D4A019110700F70A6E526
S315000019A06C05002064050020580500204C05002029
S315000019B0443C002000ED00E0001000E09805002007
S315000019C000F101400000010598A00000383B00200E
S315000019D078050020380500207D0500207C050020C4
S315000019E0F205002010000105A8050020AC05002026
S315000019F0F0050020FC0D0020EC000020A4050020CE
S31500001A00A00500207B0500207A050020790500202E
S31500001A10022800D070470249024802F067BE00BFA4
S31500001A2030A10000383B00202DE9F04F2DED048B4E
S31500001A30048B8BB0012C04D00BB0BDEC048BBDE83D
S31500001A40F08F4A4D0DF10F022B684FF430610133D0
S31500001A5047482B6002F0D6FD9DF80F30454AB3FA91
S31500001A6083F35B0913701378002B35D1424B1B7837
S31500001A70002B36D1414B424D0193424C0121224667
S31500001A80414803F061FF2178002900F08286002397
S31500001A904A1EDFF814813D4F3D4EDFF810A1DFF8F6
S31500001AA01091D2B204EB830C9CF80700032BBCF810
S31500001AB004E0C0F3C01BC0F3060C24D89A422AF8EF
S31500001AC013E009F803C028F813E007F803C006F886
S31500001AD003B024D00133E5E7274B1C701B78002B9D
S31500001AE0C8D000214FF07C532A4A00201160516073
S31500001AF00122234D214C2B606B60AB60264B019479
S31500001B0020701A70B9E79A4228F813E007F803C064
S31500001B1006F803B003F1010301D0082BC2D100235C
S31500001B201E481F4EDFF88CC01E4FDFF88C80DFF892
S31500001B308CE0017004EB8300C179808801F07F019D
S31500001B40102942D8DFE811F0400041004100410071
S31500001B50770341004100410041004100410041003E
S31500001B6074037203790341006F0300BF8C370020B2
S31500001B70383B0020CD0F0020CC0F0020103B00206A
S31500001B80F43A0020F4040020FC3B002064370020D7
S31500001B905C370020E03A0020053700207C37002023
S31500001BA0003B00209A0F00206C370020543700209D
S31500001BB0503700209C0F00209E0F0020A80F002009
S31500001BC000F07F45333353403080934203F10103E5
S31500001BD001D0082BAED1B8F800305FED076A9BB292
S31500001BE007EE903AB8EE677A1FED0A6AC7EE267AD4
S31500001BF0B2EE0A5A67EE867A67EE857AD94CF2EE2D
S31500001C00065AC4ED007ABEF80030D74A9BB207EEFA
S31500001C10903AB8EE677AC7EE267A67EE867A67EE6E
S31500001C20A57AC2ED007ABCF800309BB20A2B07D920
S31500001C3040F6F472BCF800309BB2934240F2428503
S31500001C403B889BB20A2B06D940F6F4723B889BB2BE
S31500001C50934240F20685C54F97ED0D7AB5EEC07AF0
S31500001C60F1EE10FA40F3F583C14BD3ED007AC7EEDF
S31500001C70876AF5EEC06AF1EE10FA00F1EA83F7EE34
S31500001C80007AF4EE676AF1EE10FA77FEA66ADFF8DC
S31500001C908483D8ED007AF4EEE67AF1EE10FA40F19C
S31500001CA053849FEDB46A77EE867AF4EEE67AF1EE27
S31500001CB010FA40F35584C8ED006AF0EE667A27EE16
S31500001CC0277ADFF85493DFF854A3AB4B4A4683EDEB
S31500001CD0007A5146A94BAA4801F0D2FBA94BDAED8E
S31500001CE0004AD3ED007A9FEDA87A74EEE77AF4EE17
S31500001CF0C77AD9ED006AF1EE10FAA44AC2ED006A7D
S31500001D0040F315849FEDA27A77EEC77AA149DFF8F2
S31500001D1010C391ED007A77EE877AC3ED004A9E4AAA
S31500001D20BCF800309D4802EB830201339BB2C72BFF
S31500001D3092ED006AC1ED007AC0ED007AC2ED007A3C
S31500001D40ACF8003040F2D18300230122ACF8003019
S31500001D50934B1A7077EEC67A9FED927A97ED006AEA
S31500001D60C7EE875AF6EE006A85EE867AB4EEE67A14
S31500001D70F1EE10FA01D59FED8C7AD7ED0D7A9FED35
S31500001D80826A77EEA77ADFED896A67EE867A87EE52
S31500001D90A66AB5EEC06AF1EE10FA854B83ED007ABD
S31500001DA040F3E283834BF7EE007A93ED005AC7EED9
S31500001DB0065A27EE267AD3ED006A7F4B9FED744ACA
S31500001DC093ED006A77EEC57AC7EE043A67EE867A37
S31500001DD026EEA57A77EE877A98ED005AB4EEE55AA4
S31500001DE0F1EE10FAC3ED007A744BC8BF75EE657A52
S31500001DF0C3ED005A724BD8BF75EEC57AC3ED003AF3
S31500001E00704B1978704B1970704BC3ED007A704B9C
S31500001E1093ED007A6F4B37EE247A1A78002A40F059
S31500001E201B8301200022F0EE477A18706A4B83ED7F
S31500001E30007A6A4B1A606A4A6A4BC2ED007A6A4AAD
S31500001E409FED6A6A82ED007AC3ED057AD3ED052A25
S31500001E50C3ED057A93ED042A7388654A07EE903A36
S31500001E6030885688F8EE674A07EE106A07EE900A41
S31500001E701288F8EE676AB8EE477A07EE902A74EE93
S31500001E80C74AF8EE677A64EE864A76EEE76A66EE49
S31500001E90866A34EEA46A9FED574A36EE266A26EE27
S31500001EA0046A26EEA23A26EE027A37EE437A26EE48
S31500001EB0224AB5EEC07A66EE827AF1EE10FA77EE35
S31500001EC0847ADFF86091D8BFB1EE473AD9ED001AAF
S31500001ED0C8BFB0EE473AF5EEC07AF1EE10FAF4EE6E
S31500001EE0C31AD4BFB1EE674AB0EE674AF1EE10FAF4
S31500001EF048BF89ED003ADFF83081DFED3F1A98EDF3
S31500001F00003AB4EEC43AF1EE10FA27EE073A48BFAB
S31500001F1088ED004A27EEA74A34EE034AB4EEE14ABA
S31500001F20F1EE10FA09DD354AC2ED006A344AC2ED17
S31500001F30004A344A1080344A1380019B334A187889
S31500001F40334B92ED004AD3ED004ADFF8E0E09FED17
S31500001F502A3ACEED006ADFF8D8E077EEC47A8EED45
S31500001F60006A67E0A00F0020AC0F002038000020B8
S31500001F70940F0020ACC5A7370C3B0020E83A0020A0
S31500001F80403B0020A0370020DB0F4940903700205F
S31500001F90DB0FC9409C370020A8370020943700206B
S31500001FA0A43700200AD7A33C0000000000007042BE
S31500001FB098370020E0000020D83A0020DC3A0020C4
S31500001FC0083B0020D43A00201837002014370020A0
S31500001FD0C80F0020F0040020EC040020E8040020D4
S31500001FE03837002000100240343700200000003A45
S31500001FF0E80000203ACD133FCDCCCC3D243700205D
S31500002000203700201C3700201A370020E404002067
S31500002010E0040020C83A0020EC3A0020F03A002004
S31500002020A63700202C370020283700204C37002008
S315000020304837002037EE646A67EE837A26EE036A35
S3150000204077EE847A36EE246A7D4EDFF834C2C2ED2E
S31500002050007ACCED007A83ED006A86ED006A0028EE
S3150000206000F01081002900F00D81764B1A78002AC5
S3150000207000F0D882744E7548754AD6ED001A90ED78
S31500002080001A92ED003A97ED0D9A9FED720A83EED3
S31500002090897A714B27EE007A93ED018AD3ED004AD7
S315000020A06E4BDFED6F0AD3ED026A78EE463A37EEF5
S315000020B0617A74EEE74A93ED004A63EEA67A27EE5C
S315000020C0207A24EE844A37EE217A77EE837A34EE4C
S315000020D0014A77EE877A64EE046A86ED007A27EE87
S315000020E0A77ADFED608A36EE877AB4EEE87AF1EE0B
S315000020F010FA00F3278393ED017AB5EEC07AF1EE7C
S3150000210010FA19DDDFED581A27EE217A27EE247A28
S31500002110DFED566A37EE017AB4EEE67AF1EE10FAA2
S3150000212008DCDFED536AB4EEE67AF1EE10FA58BF3A
S31500002130F0EE476AC0ED006A93ED037AB5EEC07A19
S31500002140F1EE10FA13DDDFED484A27EE247A27EE8A
S31500002150237ADFED466A33EE073AB4EEE63AF1EE5D
S3150000216010FA40F3FA82C2ED006AB0EE663A64EE07
S31500002170026A67EEA23A67EE824A64EE227A76EE49
S31500002180E36A74EEA74A9FED3B4AB6EE007A64EE28
S31500002190844A26EE877AF1EE477A34EEC77AF4EE71
S315000021A0C76AF1EE10FA344B77EEE47A83ED003A23
S315000021B040F1B982B4EEE77AF1EE10FA00F1DB8273
S315000021C0B0EE474AF0EE664AF4EE674AF1EE10FAD0
S315000021D077FEA44A74EE844ABEEE003A64EE834A61
S315000021E0B6EE004A76EEA46A37EE247A77EEA47A43
S315000021F0DFED223A66EE846A27EE047A67EE847A89
S3150000220066EEA36A27EE237A67EEA37A76EE846AF1
S3150000221037EE047A77EE847AC5ED006A85ED017AA9
S31500002220C5ED027A3DE0AEF80000CEE43880CCE49D
S31500002230ACF80000C9E47080C7E4A8F80000C4E464
S31500002240D03A0020DC040020D0040020D80400206E
S31500002250D4040020B81E053FE03A00208800002084
S315000022600AD7A33B3D0A673F17B7D138CDCC4C3DC3
S31500002270CDCC4CBDD0B35D3F443700203ACD933F23
S31500002280CC3A0020B6EE007A0022F0EE477A85EDD1
S31500002290007A85ED017A85ED027AF0EE476AC44B45
S315000022A01A704FF08040C34BC34A1B781060002B56
S315000022B03ED0C24A138801339BB2138013889BB267
S315000022C0632B35D90026BE4B16801A88BD4892B2BC
S315000022D002EB820200EB820282ED005A1A88BA4FA4
S315000022E092B202EB820200EB8202C2ED015A1A8818
S315000022F07F6892B202EB820200EB820282ED026AF2
S315000023001A8892B202EB820200EB8202D7601A8828
S3150000231092B202EB820200EB820001741A8801324B
S3150000232092B21A801A8892B2B2F5FA7F28BF1E803E
S31500002330A64B1B78002B4AD0D4ED005AB2EE046AA5
S31500002340F4EEC65AF1EE10FA41DDD4ED003AB3EEE2
S31500002350023AB7EE084AC3EE235AF4EE445AB6EEF2
S31500002360006AF1EE10FA76EEC66A37EE467A77EE36
S31500002370C67A74FE255A66EEA56A27EE257A67EEBA
S31500002380A57A76EE866A37EE067A77EE867AC5ED18
S31500002390006A85ED017AC5ED027A8D4D9FED8D5A65
S315000023A0DFED8D4A2B4605F10C02F3EC017AF4EED3
S315000023B0C57AF1EE10FA40F1DF8003ED015A93423F
S315000023C0F3D1D5ED006A95ED017AD5ED027AD4ED1B
S315000023D0005AB2EE046AF4EEC65AF1EE10FA02DDC5
S315000023E022687E4B1A609FED7E6A7E4B41F27076C4
S315000023F0C3ED006A66EE866A83ED017A27EE067AF9
S31500002400C3ED027A67EE867AFCEEE66ABCEEC77A20
S31500002410FCEEE77A16EE904A17EE102A17EE903A7F
S31500002420B44228BF3446B24228BF3246B34228BF20
S3150000243033466D4D04A96D482C60CDE905236A60CD
S315000024400494AB6002F0AAF90BB0BDEC048BBDE8B6
S31500002450F08FDFED736A1AE4654BDFED667AD3ED34
S31500002460004A77EE646AF4EEE76AF1EE10FA40F39A
S315000024709380DFED617A76EEE76A9FED606A9FED05
S31500002480604A26EE866A5F4AF3EE0E7AD2ED002A9D
S3150000249026EE046A66EEA77A36EE226A77EE867A2A
S315000024A067EE847A9FED543A77EEA47AF4EEC37A17
S315000024B0F1EE10FA68DD77EEC37AF5EEC06A82EDCA
S315000024C0006AF1EE10FA504AD8BFF1EE666AC3ED23
S315000024D0007AD2ED007AF4EEE67AF1EE10FAD3ED58
S315000024E0007A48BFC2ED006AA5E4484B1B78002B72
S315000024F07FF430ACF0EEE67A9FED457AF4EE477A5B
S31500002500F1EE10FA3FF637ACD7ED007AF5EEC07A69
S31500002510F1EE10FA7FF72FAC86EEA77AF6EE007A88
S31500002520B4EEE77AF1EE10FA3FF525AC25E49FED1F
S31500002530397AF4EEC77AF1EE10FA44BF9FED2E7A9F
S3150000254077EE877AFFF7E2BB7FF7B9AB9FED326A8A
S3150000255077EEC67AF4EEE67AF1EE10FA3FF5ABAB1B
S31500002560C8ED007AFFF7ABBBDFED2D7A2B4BF0EE13
S31500002570673AF0EE675A2FE4F4EEE47AF1EE10FAD9
S31500002580C8BF43ED014A1AE7F5EEC07AF1EE10FA3C
S3150000259048BF77EE837A90E7DFED1E7AF4EEE76ABE
S315000025A0F1EE10FA44BFDFED147A76EEA76A64E71F
S315000025B0DC040020CC000020E4000020E80F00200E
S315000025C0EA0F0020EC0F0020E03A00207D370020C3
S315000025D0F43A00200AD7A33C48E17A3F7000002075
S315000025E00080BB45D00F0020DC0F0020803B002080
S315000025F0EC040020DB0F4940DB0FC9400000FA4322
S3150000260017B7D138E804002030370020A43700205F
S31500002610FFFF7F7FDB0F49C0ACC5A737D83A002044
S31500002620000000001FED027A604E614886ED007AD8
S31500002630604E614A86ED007A604E89ED007A88ED3B
S31500002640007A86ED007A0126B0EE473A1E7080EDDC
S31500002650007A82ED007AB0EE471AF0EE471A584E2D
S3150000266011E53A889FED577A92B207EE902AF8EE76
S31500002670676A3B8837EE667A9BB207EE903ADFEDE3
S31500002680525AF8EE677A27EE257A9FED506A87EE62
S31500002690270A80EE060A06F0BDFDDFED4D7A9FEDB6
S315000026A04D7A60EE277AB7EE006A77EE877ADFED2D
S315000026B04A6A86EE277A77EE667A484BC3ED007A49
S315000026C0FFF7C9BABCF80020BCF8003092B207EE9A
S315000026D0902AB8EE677A9BB207EE903A76EEC76A12
S315000026E0DFED395AF8EE677A66EEA56A9FED376A2E
S315000026F086EEA70A80EE060A06F08CFDDFED347A38
S315000027009FED347A60EE277AB7EE006A77EE877A25
S31500002710DFED316A86EE277A77EE667A304BC3EDC7
S31500002720007AFFF78DBAF4EEE76AF1EE10FAF4EEEE
S31500002730C76A25D4F1EE10FAB0EE664A1DDDF0EE5A
S31500002740474A41E5F1EEC76ADFED261A81EEA67A21
S3150000275024EE074A67EE877ACDE49FED237AB4EE3E
S31500002760C73AF1EE10FA52BF82ED003A82ED007AD6
S31500002770B0EE473AFBE4B0EE674AF0EE664A23E570
S31500002780F1EE10FAB0EE674AD8BFF0EE664AD6DC34
S3150000279020E5164B164EDFF860C0164FDFF85C805A
S315000027A0DFF85CE01970FFF716BA00BF403700206B
S315000027B0D80400203C370020D40400203037002005
S315000027C0D004002000F07F4500401C4600E0AB46E8
S315000027D0467967390FCF5B3B33938843C0000020AF
S315000027E0C40000203333733FCDCC4CBD7C37002072
S315000027F0003B00209A0F00209C0F00209E0F002017
S31500002800A80F0020704700BF2DE9F04F7F4C804E87
S315000028102368804D013323603378287883B013B161
S31500002820002840F05883DFF854922368B3F57A7F86
S3150000283000F019842368B3F5FA6F00F0C883764B6D
S315000028401B78002B00F0CF83744BD3ED007A744BCA
S3150000285093ED007AB4EEE77AF1EE10FA48BFD3EDC5
S31500002860007A93ED007AB1EE477AB4EEE77AF1EEAC
S3150000287010FAC8BFD3ED007A6A4BC8BFF1EE677A8B
S3150000288093ED007AB5EEC07AF1EE10FA2DDD664AC8
S3150000289092ED0D7A654AD2ED006A27EE267AB5EEFC
S315000028A0C07AF1EE10FAD3ED006AD8BFB1EE477ADE
S315000028B093ED006AB4EEC76AF1EE10FA00F10584F2
S315000028C09FED5B6A66EE866AB4EEE67AF1EE10FA82
S315000028D00BDDD3ED005A93ED006A75EEC75A36EE5E
S315000028E0667AC5EE876A67EEA67A524F002397EDA1
S315000028F0007A67EE877ADFF888A14F4ACAED017A37
S315000029001360CAF800304D4BDFF87881187040F636
S315000029100E610DF106024A4801F074FE9DF806C0EC
S31500002920484BACF10100B0FA80F047491A784009EB
S315000029300870002A3CD1BCF1010F00F00B8443491A
S315000029400A6043490A60434A1278002A32D0424A52
S31500002950F1EE047A92ED007AB4EEE77AF1EE10FA2F
S3150000296040F142843D490A88013292B20E2A0A8019
S3150000297020D9012200201A7000234FF07C514FF01D
S31500002980020C28700320CAF80030CAF80430344B11
S31500002990196059609960334B40F6075183F800C0BF
S315000029A0314B1A70314B1870254801F03DFE01E09D
S315000029B0284B1B782E4BF2EE087A93ED007AB4EE94
S315000029C0E77AF1EE10FA5FD593ED007AF7EE007A2A
S315000029D0B4EEE77AF1EE10FA56DD26490A8801329E
S315000029E092B2B2F5FA7F0A80C0F0EB8393ED007ADB
S315000029F0F2EE0C7AB4EEE77AF1EE10FA40F1FC83CF
S31500002A009FED1D7A03221B684EE000BF8837002029
S31500002A10C50F0020103B0020DC000020D80000205D
S31500002A20D4000020D000002038000020D83A002032
S31500002A306666663FBC000020043B0020D43A0020B6
S31500002A40383B0020BB0F0020B80F0020BC0F002031
S31500002A50B40F0020B10F0020AC0F0020A60F0020FD
S31500002A60F43A0020B00F0020B20F002005370020F6
S31500002A70A00F0020C004002000000000CC3A002077
S31500002A80E03A0020D03A002093ED007AF2EE0C7A7C
S31500002A90B4EEE77A0021F1EE10FAB34A118000F1A4
S31500002AA0F681B7EE007A0022D8ED003A99ED004A99
S31500002AB063EEA37A24EE046AAC4B77EE867AD3ED06
S31500002AC0006AF4EEE76AF1EE10FA48BFC3ED007A49
S31500002AD0A7499FEDA85AD1ED004A77EEE47ADFF8D0
S31500002AE008E3DFF808C3D1ED005A9EED006ADCED7D
S31500002AF0006A67EE857A33EE866A74EE266A77EEAA
S31500002B00A57A9D488EED006A0378CCED006A013304
S31500002B10DBB2092BC1ED007A037015D9F2EE045A27
S31500002B20C6EE257A86EEA56A67EEA77A26EE066ACF
S31500002B30002377EE867ACEF80030CCF800308F4B43
S31500002B400021C3ED007A01703378002B53D00021A9
S31500002B508B4B1960D3ED005A9FED8A6AC5EE866AE3
S31500002B60894BF7EE007AC3ED006AD3ED006AF4EE06
S31500002B70E76AF1EE10FAC0F25482F5EEC03AF1EED1
S31500002B8010FAB5EEC04AD8BFF1EE633AF1EE10FA8C
S31500002B904FF00102D8BFB1EE444A7C4B08211A70AF
S31500002BA09FED7B7A03227B4BC3ED003A7A4B83ED94
S31500002BB0004A7A4B19707A4BDFED7A7AD3ED006AC8
S31500002BC0F4EEE76AF1EE10FA35DAD3ED006ADFEDDE
S31500002BD0767AF4EEE76AF1EE10FAC0F2E281DFED02
S31500002BE0737AB4EE677A022A38BF0222F1EE10FA3F
S31500002BF037FE877A22E0624B9FED6D5AD3ED004A8D
S31500002C005E49C4EE855AD1ED007A9FED5A6A77EE99
S31500002C10E57AD3ED006A67EE867A77EEA67AC3ED9B
S31500002C20007AD3ED007AF5EEC07A0021F1EE10FAC3
S31500002C3048BF19608EE79FED567A03225D4BDFEDA4
S31500002C40597AD3ED006AF4EEE76AF1EE10FA15DA76
S31500002C50D3ED006ADFED547AF4EEE76AF1EE10FA8E
S31500002C60C0F22381DFED517AB4EE677A022A38BFCB
S31500002C700222F1EE10FA37FE877A02E09FED447ADF
S31500002C8003224D4E327087ED007A3378022B04D939
S31500002C9000230421414A2B70117040F605210DF1E5
S31500002CA00702464801F0AEFC9DF807204449A2F110
S31500002CB00100B0FA80F00B784009834200F0DD8114
S31500002CC0404F3B8801339BB21D2B3B8011D900231B
S31500002CD0012A08703B800CD03B483C4A03780133FC
S31500002CE0A2FB031202F4FF7101EB52029B1ADBB244
S31500002CF0037040F60A510DF10702304801F082FCDC
S31500002D009DF807203249A2F10100B0FA80F00B7855
S31500002D104009834200F0AD812E4F3B8801339BB2C0
S31500002D201D2B3B800AD90023012A08703B8005D061
S31500002D30294A1378B3FA83F35B091370274B1B7880
S31500002D4003F0FF07002B53D1254B1B78002B00F017
S31500002D50168102242B78002B00F0938144F00404A2
S31500002D60204B1C704BE000BFC00400204037002001
S31500002D703C3700206F12833AB4040020B0040020D0
S31500002D80880F002009ACDC3F840F002004370020A8
S31500002D900000000000370020FC3600200537002028
S31500002DA0C40000200000B4420000A0429A99993E57
S31500002DB066662C42C0000020980F0020383B002099
S31500002DC0BA0000208E0F0020910F0020ABAAAAAAFD
S31500002DD0B90000208C0F0020900F0020A50F0020C6
S31500002DE0CC0F0020A40F0020BC040020B804002053
S31500002DF0B74B1C7884F00407C7F38007E4B2E243BC
S31500002E0040F60F5102F00102B24801F00DFC84F0C9
S31500002E10020240F60641C2F34002AE4801F004FC4D
S31500002E203A4640F60741AB4801F0FEFB84F0080243
S31500002E3040F60151C2F3C002A64801F0F5FB84F04A
S31500002E40100240F60251C2F30012A24801F0ECFB58
S31500002E5084F02002C2F3401240F603519D4801F06F
S31500002E60E3FB9D4A138801339BB2092B05D81380D7
S31500002E70FDF744FB03B0BDE8F08F00200121974B1E
S31500002E8010801970FDF73AFB03B0BDE8F08F93EDA3
S31500002E90007AF7EE007AB4EEE77AF1EE10FA7FF7F1
S31500002EA000AEB6EE007A0122FEE5D3ED006ADFED54
S31500002EB08C7AF4EEE76AF1EE10FAFFF6E2AEDFED99
S31500002EC0897AB4EE677A012A38BF0122F1EE10FA48
S31500002ED037FE877AD5E6844ADFF86892138801338D
S31500002EE09BB2B3F5FA7F13807FF69FACD9ED007ADB
S31500002EF0F5EEC07AF1EE10FA7C4FD8BFF1EE677AA4
S31500002F0097ED007A40F2DB5E37EE877ADFF838C25B
S31500002F107345DCF8001087ED007A01F10101CCF869
S31500002F2000107FF682AC002900F0838107EE901A2C
S31500002F30F8EE677AC7EE276A6D4BD3ED007AF4EEAA
S31500002F40E67AF1EE10FA00F366816A4900234FF043
S31500002F50000E3B600B78A2F800E00133DBB20B7089
S31500002F600B78CCF800E00C2B40F24C81624B1A68CF
S31500002F70624B1A6086F800E081F800E055E4337889
S31500002F80022B3FF6E6AE3378002B00F0398123683A
S31500002F905B4AA2FB032313F0100F14BF0324012482
S31500002FA0D8E6D3ED006ADFED4E7AF4EEE76AF1EE8D
S31500002FB010FAFFF643AEDFED4B7AB4EE677A012ADC
S31500002FC038BF0122F1EE10FA37FE877A36E64D4B0E
S31500002FD04D4A1B6812689B1A4C4A13604C4B1B786F
S31500002FE0002B7FF431AC4B4BDFF860A1D3ED001A18
S31500002FF0494BDFF85C81D3ED000A484B484F93ED0F
S31500003000000A98ED001A5146464B474AFDF792F8DA
S31500003010DAED017A97ED007A67EE877ACAED017AE2
S3150000302075E493ED006ADFED416AB4EEE66AF1EE0F
S3150000303010FA28DB93ED006A9FED3D5A76EE666A3C
S3150000304086EE856AF6EE005A77EEC67A67EEA57AC0
S31500003050B4EE677A022A34BF02220322F1EE10FA96
S3150000306037FE877AA7E5274B1A68274B1A60FFF7C2
S31500003070E6BB00222F4B1A8060E600222E4B1A80F8
S3150000308037E601276CE6D3ED006A9FED166AF4EE8B
S31500003090C66AF1EE10FAFFF68EADD3ED006AB6EE13
S315000030A0005A76EEC66ADFED255A66EE856A86EE2A
S315000030B0A56A77EEC67AB4EE677A012A38BF01228E
S315000030C0F1EE10FA37FE877A75E5DFED1D7A0CE42E
S315000030D0A40F0020383B0020AC0400204805002047
S315000030E000008C423333333FCC040020C804002058
S315000030F0C8000020C40F0020C00F0020C80F002009
S31500003100D34D62108C370020843700208037002092
S31500003110DC000020E4000020D83A0020C83A002055
S31500003120BC000020D43A0020043B00209A99593F65
S315000031309899193E8C0F00208E0F00209C99193EFD
S3150000314000000000CC3A0020C4040020E03A002031
S31500003150D03A002040F6B73E3748DFF810B1016894
S31500003160013171450160CBF800107FF6ECAB4FF0F2
S315000031707C504FF0000E4FF0020B2A702F4A304958
S3150000318082F800C083F800C06246DFF8E4C0086039
S315000031904860886040F607512A488CF800B0CAF8A3
S315000031A000E0CAF804E001F03FFA274A274B1278FC
S315000031B0002A3FF4FFAB1A78002A3FF4C8ABFFF7AA
S315000031C0F9BBD3ED006AB2EE0C7AF4EEC76AF1EE03
S315000031D010FA7FF566AC93ED007AB4EEE77AF1EE7D
S315000031E010FA3FF75EAE5CE400210122184B19800D
S315000031F0184B1A70FFF7DEBB9FED177A032253E4D4
S315000032000124A7E50A78154B03EB82031A68144BD1
S315000032101A60FFF70ABBC3ED006A12490F4B91F81B
S315000032200080DFF850E003EB88031B68CEF800301F
S315000032308CE6DFED0D6A7FE6BC0F0020B20F0020A2
S31500003240F43A0020383B0020B10F0020BB0F0020CD
S31500003250A60F0020B00F0020000000000499000017
S31500003260C80F0020C40F00200000C642B40F002083
S3150000327005370020C00F0020064A0749137801339E
S31500003280DBB213700379012B08BF044A0B7008BF29
S315000032901370704777050020B10000207E050020DE
S315000032A00379023B1E2B11D8DFE803F03F101710FD
S315000032B01010111010101010101011101010101006
S315000032C01010101010101010101011007047304A16
S315000032D0138801339BB2138070472DE9F0412D4CC2
S315000032E02D492388027A01339BB223800B783F2B2A
S315000032F006D80B78294C581CC0B2DBB20870E254D1
S315000033000D2A16D00A2A14D025490B889BB27E2B8B
S3150000331009D800240B889BB2581C80B2088021482B
S315000033202149C2540C80BDE8F08100221F4B1A705F
S3150000333070471B4C23889BB20BB31D4D2B78032B78
S315000033401DD823889BB23E2B1DD8228892B2904668
S31500003350184E194F3078134907EB801003F09CFE86
S315000033600023327807EB821707F8083033780133E9
S3150000337003F0030333702B780133DBB22B70002389
S315000033802380BDE8F0814FF03F084246E0E700BFEA
S31500003390EE050020F0050020A8050020AC05002061
S315000033A0000F0020040F0020F4050020FC0D002073
S315000033B0FD0D0020FF0D0020000E0020FFFFFFFF87
S315000033C09FED010B704700BF000000000000F07F7A
S315000033D09FED010A704700BF0000807FFFFFFFFFDF
S315000033E09FED010B704700BF000000000000F0FFDA
S315000033F09FED010A704700BF000080FFFFFFFFFF3F
S315000034009FED010B704700BF000000000000F8FFB1
S315000034109FED010A704700BF0000C0FF08B5FFF727
S31500003420EFFF0E4B83ED000BFFF7F2FF0C4B83ED26
S31500003430000AFFF7C5FF0B4B83ED000BFFF7C8FF34
S31500003440094B83ED000AFFF7CBFF084B83ED000B1A
S31500003450FFF7CEFF064B83ED000A08BD203B002098
S31500003460143B0020303B00201C3B0020283B002062
S31500003470183B002008B5FDF761FF002008BD00BF1E
S315000034802DE9F043C36B06795C6846712388A94F22
S315000034901D0A2D0155FA83F357F82330C3F3400371
S315000034A09B00037165884FEA152C4FEA0C1C5CFAE9
S315000034B085F557F8255005F002052B430371A588BD
S315000034C04FEA152C4FEA0C1C5CFA85F557F8255087
S315000034D0C5F3400E4EEA030E80F804E0002E00F01D
S315000034E0C480038EA58C9D4284BF01330386038965
S315000034F001339BB20381B4F82880984528BF9846CB
S315000035007645A0F8088000F0B380A31D9C4690F88D
S31500003510069004F10C0580F807901CF8017F7745AA
S3150000352005D11CF8017CB74204BF012787716545A8
S31500003530F3D113F801CBE64504D11F78B74204BF97
S31500003540002787719D42F4D1857D6B1CDBB2062B6B
S3150000355028BF002300EB4505A5F80A808679837508
S31500003560B14500F0AD8000273D46BC46E38C63F3D1
S315000035700F0763F31F47C0F80A70E78C984667F396
S315000035800F0567F31F45C0F80E50E58CB94665F385
S315000035900F0C65F31F4CC0F812C0AC4643443B44C5
S315000035A04B442B44634407EE903A9FED637AF8EE62
S315000035B0E77A87EE276A012E1ABFB1EE466A9FEDBB
S315000035C05F7A9FED5F7A002380ED076A80ED067AC9
S315000035D00381D4ED046ADFED5B7A66EEA76A66EED8
S315000035E0866AC0ED086AD4ED057A6FF00407DFED50
S315000035F0564A9FED515ADFED555A37EE277A631D2D
S3150000360004F10B063F1B9C4613F8015F75450DD16F
S3150000361007EB0C0507EE905AF8EEE77A67EEA47A08
S3150000362067EE857A87EEA56A37EE067AB342EAD167
S31500003630DFED417AB4EEE77AF1EE10FA31DD37EEDE
S31500003640677AF0EEE67A94ED0B6AB4EEE76AF1EE8D
S3150000365010FA03DD90F83830012B3BD0002380F8B8
S315000036603830C2ED006A81ED007A0020BDE8F083B3
S3150000367090ED067AD0ED076ADFED307A37EE267ADE
S31500003680B4EEE77AF1EE10FA80ED067A11DCDFEDA2
S315000036902C7AB4EEE77AF1EE10FA0AD4D0ED086A85
S315000036A0A1E7B5EEC07AF1EE10FA48BF37EE277AF9
S315000036B0C7E7C0ED067AD0ED086AB0EE677A92E702
S315000036C04389B0F80C80C789B0F81090458AB0F8E5
S315000036D014C063E7A58C038E9D421AD890ED0D6A3F
S315000036E0B5EEC06AF1EE10FAD0ED0A6AD0ED0B7AAB
S315000036F012DB76EEA76AC0ED0A6AD4ED077AF4EE1D
S31500003700E76AF1EE10FAACDDC0ED0A7AF0EE676A10
S31500003710A7E7DFED0F6AA4E776EEE76AC0ED0A6A6F
S31500003720D4ED077AF1EE677AF4EEE76AF1EE10FA75
S3150000373097D5E9E700F80140DB0FC940920A063F3A
S31500003740920A06BF00007A44000070420000B443AB
S315000037500000000070B5C16303464868F7EE006AD2
S3150000376090ED047AC6EE877AC3ED0B7A90ED077A70
S3150000377067EE877AC3ED0B7AD0ED086A87EEA67AF4
S315000037804FF0000E0024012583ED0B7A0F4E48689A
S3150000379003F1080203F1140C5E6083F83850C3F895
S315000037A018E0C3F81CE0C3F820E0C3F828E0C3F82B
S315000037B034E01C819C751C86C18C22F8021F624570
S315000037C0FAD1034A00201A6070BD00BF0000010153
S315000037D04853544D2DE9F0411D4683689DF818C0A5
S315000037E01E6E002E5FD1BCF10F0F04460F46C0E9D6
S315000037F00312C0E90566C56180F820C04CD8BCF14B
S31500003800070F94BF4FF000084FF00108636859692D
S31500003810C9B14FF0020CA5615B69A8B25968096885
S31500003820C881C8788A6068F30510C87088786CF318
S3150000383083008870002A3AD09A68186853689847B7
S3150000384000282CD163681A699AB1022065611A6949
S31500003850ADB253681968CB78CD8168F3051360F370
S3150000386083034F60CB704FB3936810685B689847CB
S31500003870A8B90121A26894F82000536923F4F8132B
S3150000388043EA00435361A3683046D966A268936849
S315000038900B439360BDE8F0814FF00208B6E7064699
S315000038A03046BDE8F08108263046BDE8F081C0B25A
S315000038B062F38300054A88708A60BDE7DBB267F36E
S315000038C08303CB70024B4B60CEE700BFB83C0020B1
S315000038D0B43C002010B49DF8044001945DF8044BFC
S315000038E0FFF778BF30B5836A85B004468C4601ADD4
S315000038F0ABB193E8070085E80700626818461278BE
S3150000390083F804C01A60E26A9A60636A9847A36AF9
S315000039101BB195E8070083E8070005B030BD2B46CC
S31500003920EBE700BF2DE9F0470B78D1F8108003F5DF
S31500003930800303F58D530D4604461F02B8F1000FB0
S3150000394013D04FF00062D8F804301B681A60D8F81C
S3150000395004301B689F60D8F80830D8E900011B685E
S3150000396098470646002840F01A816B6983B14FF4E8
S3150000397000215A68126811605A68126857609A687E
S31500003980D3E90001126890470646002840F00A81F4
S3150000399000236560A9698C4A6162E969C4E90A3154
S315000039A02B7803F5800303F58D531B02A3606E7A13
S315000039B0697B002E18BF4FF44412EF7A2B6AA87A5F
S315000039C0090341EA47010143D87942EAC0721878EF
S315000039D0002840F0F380B6FA86F0400941EAC011AB
S315000039E0587808B942F400329D7842EA0070DA78D5
S315000039F01F7A954045EA072A1F7912062FB1022F32
S31500003A000CBF4FF440174FF4001793F805C0BCF1F4
S31500003A10000F06D0BCF1010F14BF40F4807040F4D3
S31500003A20407093F809C00CF0030C42EA8C020A437A
S31500003A3093F806C0002E40F0C4801E7BD97A360467
S31500003A409B7A46EA012642F460421E43EFF3108851
S31500003A50012181F310886368DFF884E11B78DEF8C2
S31500003A600490C3F1130301FA03F329EA0303CEF822
S31500003A700430DEF8043088F31088544BA568AB6632
S31500003A80A368534DC3F810A0A3685E60A368DF6007
S31500003A90A3685A61A36820F08042C3F840C0A368B7
S31500003AA09A60A3689A68986063684A489E7993F911
S31500003AB002303601484AEF18F6B287F8006340F83C
S31500003AC0234003F1C00652F8267027F4803742F8E7
S31500003AD0267052F82660BFF35F8F5E09B60003F0CA
S31500003AE01F0306F1604601FA03F306F56146C6F8C0
S31500003AF08031336063685E7993F901303601EF18DF
S31500003B00F6B287F8006340F8234003F1C00652F886
S31500003B10267027F4803742F8267052F82660BFF3E5
S31500003B205F8F5E09B60003F01F0306F1604601FAD7
S31500003B3003F306F56146C6F8803133606668337A6A
S31500003B4096F904601B01AF19DBB287F8003340F821
S31500003B50264006F1C00352F8237027F4803742F856
S31500003B60237052F82330BFF35F8F73099B0006F072
S31500003B701F0603F16043B14003F56143C3F88011AA
S31500003B8019600026636893F90320DB7915441B014D
S31500003B90DBB285F80033114B40F8224023603046F3
S31500003BA0BDE8F087B8F1000FF9D0D8F80830D8F89A
S31500003BB000001B6A98473046BDE8F08742F08072E5
S31500003BC00EE7002642E700BF00103140000080FDEE
S31500003BD000E100E0043D00200060004049505352DF
S31500003BE000400840EFF30383103B1F4A5BB203F12A
S31500003BF0C00152F8210020F4803042F8210052F82A
S31500003C0021201A4A52F82330D3E906218A421CD0D1
S31500003C101869996828B393F820C00968BCF10F0F9A
S31500003C200FD8BCF1070F8CBF20F812108154996889
S31500003C304FF000408866D969013291429A6104D0FA
S31500003C40704740F822109968F2E75B6893F90330F1
S31500003C50012203F01F0006495B09824041F8232038
S31500003C6070470868E4E700BF00600040043D00209C
S31500003C7000E100E030B4EFF30383103B31495BB25F
S31500003C8003F1C00251F8220020F4803041F82200EE
S31500003C9051F822202C4A52F823305D68DC692A6AE2
S31500003CA050785A6901281CD0A2420FD0D3E90201EC
S31500003CB0A9B193F820400F2C0AD951F822100160BF
S31500003CC04FF000509968013288665A6130BC7047DF
S31500003CD0072C03D931F812100160F1E7895C016005
S31500003CE0EEE704F1FF3C62450ED029690029DBD0DE
S31500003CF095F90320154902F01F04A040520941F826
S31500003D0022005A69DC69CFE795F9034004F1C00245
S31500003D1051F8225025F4803541F8225051F82220DE
S31500003D20BFF35F8F6209920004F01F0402F1604244
S31500003D3000FA04F402F56142C2F8804114605A693F
S31500003D40DC69B1E700600040043D002000E100E0CE
S31500003D5030B4EFF30382103A2E4953B203F1C00098
S31500003D6051F8204002F0FF0224F4803441F820404C
S31500003D7051F82010284951F823008168096D8901FE
S31500003D8005D54168497A012901D030BC7047012127
S31500003D90224C5B0902F01F02203301FA02F244F8BA
S31500003DA02320BFF34F8FBFF36F8F436893F9023021
S31500003DB05A0903F01F0301FA03F3203244F82230B4
S31500003DC0BFF34F8FBFF36F8F8468124BA26822F048
S31500003DD00102A260426892F9022002F1C00453F87F
S31500003DE0245025F4803543F8245053F82430BFF38B
S31500003DF05F8F53099B0002F01F0203F1604301FA33
S31500003E0002F203F56143C3F880211A6030BCFFF764
S31500003E1069BD00BF00600040043D002000E100E0F5
S31500003E2070B5EFF30383324A103B5CB252F824605C
S31500003E30012273682F4893F90230590903F01F03D2
S31500003E40203102FA03F340F82130BFF34F8FBFF35E
S31500003E506F8FB1688B6823F001038B607368264906
S31500003E6093F9023003F1C00051F8205025F4803553
S31500003E7041F8205051F82010BFF35F8F03F01F0167
S31500003E805B099B0003F160438A4003F56143C3F875
S31500003E9080211A60B368194A1D6D9A662A0112D4E8
S31500003EA0EB0116D405F0A055B5F1A05F1AD0124A61
S31500003EB004F1C00352F8231021F4803142F8231094
S31500003EC052F8233070BD05213046FFF70BFDEB019C
S31500003ED0E8D50421304605F0A055FFF703FDB5F1FE
S31500003EE0A05FE4D108213046FFF7FCFCDFE700BF06
S31500003EF0043D002000E100E000600040000080FD7D
S31500003F00844610B4006A836823F440138360DCF8A7
S31500003F102040A36C5800FCD5A36823F01003A360CF
S31500003F20DCF82040237FC3F30010DB06FAD4CCE98B
S31500003F300312A36843F01013A3605DF8044B7047A7
S31500003F40F0B5846A85B005460F4694466E46B4B110
S31500003F5094E80F0086E80F00EB6920461B78A760FF
S31500003F60236084F804C0EB6AE3606B6A9847AC6A26
S31500003F701CB196E80F0084E80F0005B0F0BD34468A
S31500003F80EAE700BF3C4B4168994272D170B4016ABE
S31500003F9002468B6823F440138B60016A8B6823F01A
S31500003FA010038B60006A037FC3F30011DB06FAD4AB
S31500003FB00120D369314C93F907304FEA531C03F0C3
S31500003FC01F030CF1200C00FA03F344F82C30BFF366
S31500003FD04F8FBFF36F8FD36993F909304FEA531CA4
S31500003FE003F01F0300FA03F30CF1200C44F82C3005
S31500003FF0BFF34F8FBFF36F8F156AAB6823F480331F
S31500004000AB60D36993F905304FEA531C03F01F03E5
S3150000401000FA03F30CF1200C44F82C30BFF34F8F59
S31500004020BFF36F8FD36993F90B304FEA531C03F03C
S315000040301F0300FA03F30CF1200C44F82C30BFF3F5
S315000040404F8FBFF36F8FEFF3108480F310884FF01C
S315000040500043D6690A4896F800C0456823FA0CF36F
S315000040602B434360436884F310885160084670BC54
S3150000407070470720704700BF4249435300E100E004
S31500004080004008402DE9F04300264FF0010C0A7865
S31500004090067002F5800202F58C521202C0E9071280
S315000040A04A69034642628A69D04DC0E90A6282784B
S315000040B0CC696CF3010282704A78B24214BF604642
S315000040C002209A7860F301029A7091F90B0091F838
S315000040D00AE0420900F01F0720320CFA07F745F8FC
S315000040E02270BFF34F8FBFF36F8FC14A00F1C00735
S315000040F052F8278066F3104842F8278052F8277056
S31500004100BC4F4FEA0E1E05EB00085FFA8EFE88F8DC
S3150000411000E347F8203091F9050091F804E04FEAF2
S31500004120501800F01F0908F120080CFA09F945F8A3
S315000041302890BFF34F8FBFF36F8F00F1C00852F87E
S31500004140289066F3104942F8289052F828804FEAE2
S315000041500E1E05EB00085FFA8EFE88F800E347F8AE
S31500004160203091F9070091F806E04FEA501800F068
S315000041701F0908F120080CFA09F945F82890BFF341
S315000041804F8FBFF36F8F00F1C00852F8289066F387
S31500004190104942F8289052F828804FEA0E1E05EB87
S315000041A000085FFA8EFE88F800E347F8203091F9A0
S315000041B0090091F808E04FEA501800F01F0908F1CD
S315000041C020080CFA09F945F82890BFF34F8FBFF382
S315000041D06F8F00F1C00852F8289066F3104942F834
S315000041E0289052F828204FEA0E12D2B2054485F8DC
S315000041F0002347F82030EFF310868CF310884FF039
S31500004200004508787C4AC540506820EA05005060A1
S31500004210526886F310884FF480601A6A90604A7874
S31500004220CD78C8691202AD0305F4804502F44072E8
S315000042302A43057846682D0605F040752A434578D9
S31500004240ED03ADB22A43457B6D0505F400152A43FF
S315000042501D6A42F480526A610578AA1E624540F2E0
S31500004260BE8032681D6A2A61057B8A7805F00305DF
S3150000427045F0300532B1022A14BF4FF440724FF4B4
S31500004280807215434FF0000C012640F21F278278FA
S31500004290120702F080522A431D6AEA601A6AC2F8BF
S315000042A018C00A7806FA02F23A4202D01A6A53494C
S315000042B05162827BC57B017C02F0010205F01F0082
S315000042C042EA002200201D6A01F01F0142EA014273
S315000042D02A63C3E90300C3E90500196A6489484DE6
S315000042E01C818D66D969424A91F9051001F1C00415
S315000042F052F8245060F3104542F8245052F82440F6
S31500004300BFF35F8F012501F01F044909890001F100
S31500004310604101F5614105FA04F4C1F880410C6081
S31500004320D96991F90B4004F1C00152F8216060F39C
S31500004330104642F8216052F82110BFF35F8F6109E1
S31500004340890004F01F0401F1604105FA04F401F547
S315000043506141C1F880410C60D96991F9074004F1C7
S31500004360C00152F8216060F3104642F8216052F80D
S315000043702110BFF35F8F6109890004F01F0401F16A
S31500004380604105FA04F401F56141C1F880410C6011
S31500004390D96991F9091001F1C00452F8246060F35B
S315000043A0104642F8246052F82420BFF35F8F4A0972
S315000043B0920001F01F0102F160428D4002F5614258
S315000043C0C2F8805115600F491A6A9160196A0A7F0E
S315000043D0D207FCD50C4A00205A60BDE8F0830B4A90
S315000043E00B4E022D18BF32463CE700BF00E100E04D
S315000043F000600040043D00200040084000001F1FF0
S315000044001000079D110401004249435324FF00FF99
S3150000441004FF00FFEFF30383103B204A5BB203F176
S31500004420C00152F8210020F4803042F8210052F8F1
S3150000443021201B4A52F82300C3691B6983B1036913
S3150000444003B17047026A0021936823F4801343F492
S3150000445000139360436AC160C3B18022FFF770BD49
S315000044600369026A002BEED08378C16803F0030368
S31500004470022B0CD00B7813718278D0E9031302F06B
S3150000448003029B1A1144C0E90313D9E770470B884E
S3150000449023F4DC439BB25360EEE700BF00600040AC
S315000044A0043D002010B582B0EFF30383103B1F4A92
S315000044B05BB203F1C00152F8210020F4803042F8CB
S315000044C0210052F821201A4A52F82340A27802F01D
S315000044D00303022B236A0CBF19681978A3690CBF62
S315000044E0C1F30801C9B2019143B9636AB3B10422A9
S315000044F0204602B0BDE81040FFF722BD02F00302DD
S3150000450001A9606902F0C8FDD4E90521A37803F08A
S3150000451003031A44C91AC4E9052109B102B010BD42
S31500004520636A002BFAD00122E2E700BF0060004078
S31500004530043D002010B5EFF303830F4A103B5CB235
S3150000454052F82400026A936823F4401323F0100300
S315000045509360436A1BB102220021FFF7F1FC074A70
S3150000456004F1C00352F8231021F4803142F82310DD
S3150000457052F8233010BD00BF043D0020006000400B
S3150000458038B5EFF303831D4A103B5CB252F82400A2
S315000045908378056A03F00303022B0CBF2968297888
S315000045A0AA6C08BFC1F30801C2F30073C2F3006C22
S315000045B04FEA031343EA4C13C2F3C06243EAC20C48
S315000045C018BFC9B2DB06624604D5AB6C1B0458BFE4
S315000045D04CF04002AB6E43F0C853AB66436A0BB176
S315000045E0FFF7AEFC064A04F1C00352F8231021F48B
S315000045F0803142F8231052F8233038BD043D0020A4
S315000046000060004010B40B0A064C1B0153FA81F1FE
S3150000461054F821300020C3F340035DF8044B1370B7
S31500004620704700BF00F801400120CBB2984080B22D
S3150000463002B900040B0A5B0103F1804303F5F8336A
S3150000464098600020704700BFF0B5EFF31082012399
S3150000465083F31088224E33681BB922490B7340231B
S315000046600B7333680133336082F31088038823B3F6
S3150000467000211D4D08E01B01134445F82340028824
S3150000468001318BB29A4218D9436853F8314003EB93
S31500004690C1029288E7034FEA1223D2B2EBD502EBAE
S315000046A0031C55F82CE024F480372EF4803E45F8A0
S315000046B02CE01B0145F82C70DEE7EFF31082012396
S315000046C083F31088336813B13368013B3360336872
S315000046D01BB9802003490B73087382F31088F0BD61
S315000046E0003D002000FD014000F8014008B5034BE5
S315000046F003600846FFF7A8FF002008BD54524F503C
S3150000470030B4EFF31084012383F310881D4B18682F
S3150000471028B94FF0400C1C4D287385F80CC018685A
S315000047200130186084F31088D4034FEA1120C9B20F
S3150000473019D40001154C084444F82020EFF31082E8
S31500004740012181F31088196811B1196801391960BE
S315000047501B681BB980200C490B73087382F3108801
S31500004760002030BC7047094C01EB001C54F82C505B
S31500004770000125F4803544F82C5022F4803544F8A5
S315000047802C50D7E7003D002000FD014000F8014015
S3150000479003465A681B69002053607047034610B4ED
S315000047A0043900F10C0C53F8044F51F8042F6265DC
S315000047B01C68A265027D022A0BD082695268526883
S315000047C01278062A05D06345EDD100205DF8044B2A
S315000047D070471C68CA68E2651C682266F3E700BF7A
S315000047E02DE9F04106460D4607460C4601F10C0838
S315000047F054F8043FD3E9000100F0CAF923681B68A6
S315000048009B6847F8043F2A78022A03D11A6C42F4BF
S3150000481020221A644445EBD16A69044B32612A7836
S31500004820B561327533600020BDE8F08133545047DE
S3150000483003460020D3E90223936070470346002015
S31500004840D3E902235360704703460020D3E90223CD
S31500004850D3607047034670B45A689E68D2690020D8
S31500004860D2E9011444F00045D46875619D6844F0AE
S315000048700044AC619C6841F000412161146999686B
S315000048804C629B6852699A6270BC704703464FF04F
S315000048900041002210B49C68104621619C68616149
S315000048A09C68A16199684A629B689A625DF8044BAC
S315000048B0704700BF43681B78032B88BF0A4683688E
S315000048C098BF01F1FF329A6643681B782BB983685B
S315000048D0490801395965836899658368D96AC907A2
S315000048E007D44FF4AA015A6683681964D0E90232E4
S315000048F0DA600020704700BF03469B681232013918
S3150000490003EB820300205960704700BF03469A6894
S315000049100020D26AC2F300020A719B689B6C0B608E
S31500004920704700BF84460020CCE90632CCF814104C
S31500004930704700BF70B5836984B004468C4616463E
S3150000494001AD9BB193E8070085E8070083F804C032
S315000049509E60E26918461A6063699847A3691BB1AD
S3150000496095E8070083E8070004B070BD2B46EDE725
S31500004970D0E9012312785B6E032A98BF01338B605E
S3150000498080680B4A0B4BC06A126A1B68C2F3026C42
S3150000499003FA0CF34FF0010C02F00702C0F3C35008
S315000049A0D340C3404B60002081F800C0704700BF71
S315000049B000E00140443D002010B490F800C0886E2D
S315000049C0BCF1030F1ED80130AAB9019C496BE4075C
S315000049D054BF01F01F01C1F3044101F00C01A1F124
S315000049E00401B1FA81F14909E2B921BB02225DF85D
S315000049F0044B5A6070479042E7D9013A5DF8044B80
S31500004A001A6070470AB19042F8D8019C496BE407D6
S31500004A1054BF01F01F01C1F30441090981F00101EE
S31500004A20002AE2D0824201D30029DFD103225DF8B9
S31500004A30044B5A6070470028D8D0F7E7FFFFFFFF06
S31500004A409FED397B2DE9F04385B00092866802AB75
S31500004A50074688461446406802F003090A4631466E
S31500004A608DED027BFFF7A8FF039B356B93B914F01E
S31500004A70080F14BF04220222A107029820D502F1D2
S31500004A80120106EB81014860B968133201EB82011D
S31500004A904860BE6862061BD5326CB9F1010F42F45C
S31500004AA08002326427D025F44035BE6845EA0345C6
S31500004AB0B9F1000F16D10020356305B0BDE8F083CB
S31500004AC04A44123206EB820250606206BE68E3D4A4
S31500004AD0B9F1010F23D025F44035022C45EA0345F0
S31500004AE0E6D173B925F0407545EA036500203563C4
S31500004AF005B0BDE8F08325F04075BE6845EA03655C
S31500004B00F4E70121786802AB009142463146FFF78F
S31500004B1053FF039B25F0407545EA0365E6E7022C43
S31500004B20E0D1DEE7AFF30080FFFFFFFF00000000EB
S31500004B30002800DA704710B400F160430901124CF6
S31500004B40C9B203F5614383F80013104B44F82020E3
S31500004B5000F1C00253F8221021F4803143F82210EC
S31500004B6053F82230BFF35F8F012243099B0000F008
S31500004B701F0003F1604303F561438240C3F88021BF
S31500004B801A605DF8044B7047043D00200060004049
S31500004B902DE9F04301270B7C002607FA03F3C360D7
S31500004BA0C3F30903B3FA83F35B09416003740B7C17
S31500004BB0A94ADFF8B4C21A44120282604B690D4654
S31500004BC043618B690446C0E9066385B0CE69CCF8BB
S31500004BD0007BEFF3108187F31088A04B1A6922F04F
S31500004BE000421A611B6981F31088C3681B070CD049
S31500004BF0EFF3108187F31088994AC06853889BB2F7
S31500004C0023EA0003538081F310884FF425410023E3
S31500004C10A2681160A268D362A268D363A268936493
S31500004C2029782B7A6A6803294FEAC35302F1FF30C9
S31500004C3000F04A8184BF104643EA01434FF0004228
S31500004C400021A7689FED827BFB62A3688DED027B46
S31500004C501A61A3685A61A3689A61A3685962A36836
S31500004C609962A368B269DA61A368F2691A62A368F5
S31500004C709866A36858662B78D6F83880002B40F0E3
S31500004C800F8101234FF0030C6A68A7685208013AA6
S31500004C9002927A65A1688A652978032903D9A168F1
S31500004CA0CA65A1680A66B26BBAB932788AB12F783A
S31500004CB07278022F4FEA82104FEA021100F00C813F
S31500004CC040F21381032248EA020202430A4342F4F5
S31500004CD08078B278002A40F0C9806268D26992F87A
S31500004CE03010C80705D5916AA0680139C16492F8E9
S31500004CF03010890703D5D26AA168013A0A650121F5
S31500004D002A7C01FA02F2C2F30902002A42D00020EC
S31500004D10A2685064776BD4F808E0002F00F0B580E5
S31500004D20287CBA7897F8039001FA00F01206C0F3CF
S31500004D30090042EA0972002836D0B868002800F057
S31500004D40C680CEF888104FF0010EA168B868C1F889
S31500004D508C00297C0EFA01F1C1F30901B9B1A168F1
S31500004D60F868C1F89000787E397E000240EA81102A
S31500004D70B97E40EA0130A1684864A168386997F8AD
S31500004D8004E00867A168786942EA0E42C867D4F869
S31500004D9008E009E0776BD4F808E0002F75D0FA78C0
S31500004DA0B978120742EA0162CEF83820B26B7AB9B6
S31500004DB03A7FF97E520642EA412248EA020896F80C
S31500004DC0212096F82010520742EA413248EA0208AA
S31500004DD096F83020002A14BF4FF4A0014FF4AA0120
S31500004DE0A26811642A78012A04D10021A268D1643C
S31500004DF0A2681165A268C2F83480A268C2F830C001
S31500004E00A2681363D4E90232DA60697C224695F916
S31500004E101200FFF78DFE224696F8221096F924001E
S31500004E20FFF786FE224696F8231096F92500FFF72F
S31500004E307FFE2FB12246397897F90100FFF778FEF9
S31500004E400020084B236005B0BDE8F083AFF3008077
S31500004E50FFFFFFFF000000009016400000400840E2
S31500004E6000A016405450470000901640F17828786C
S31500004E700A01022842EA811230D03BD903210A43B3
S31500004E8048EA024242F0807827E70027CEF83870D9
S31500004E90A268C2F88870B26B002A99D117468EE7CD
S31500004EA0012BA7681CD00091EA68394602AB6068FE
S31500004EB0FFF782FDDDE902210B0643EA014343F0D9
S31500004EC0030C43F00103E4E643F48033B6E6F968E5
S31500004ED0003918BF012134E70922F4E60921CEE79B
S31500004EE04FF0030C4FF0FF32D3E6002A0CBF062228
S31500004EF00922E8E600290CBF06210921BFE700BF09
S31500004F0030B44268034692F91210D269002910DBC8
S31500004F10012401F01F05AC4048092B4D203045F80F
S31500004F202040BFF34F8FBFF36F8F0024274840F810
S31500004F30214092F92410002910DB012401F01F05FD
S31500004F40AC404809204D203045F82040BFF34F8F34
S31500004F50BFF36F8F00241D4840F8214092F92510B9
S31500004F60002910DB012401F01F05AC404809164D4D
S31500004F70203045F82040BFF34F8FBFF36F8F0024DA
S31500004F80124840F82140526BA2B192F90120002A42
S31500004F9010DB01200C4C510902F01F052031A840FE
S31500004FA044F82100BFF34F8FBFF36F8F00200749EE
S31500004FB041F822000020D3E90221186091609B6825
S31500004FC0586330BC704700BF00E100E0043D00209C
S31500004FD082680129536B02D043F4807309B143F010
S31500004FE08073002053637047F0B5EFF30382103AE5
S31500004FF0214C51B201F1C00C54F82C3023F480330B
S3150000500044F82C308B0003F1804303F5C043D3F8FA
S3150000501000031A4850F82100456895F800E0BEF1F3
S31500005020010F08D043692BB1BDE8F04000221146BC
S31500005030FFF780BCF0BD0025D0E90267B76086683F
S3150000504002F0FF02B5648668F5648668356554F833
S315000050502C6065F3104644F82C60D3F80033BFF398
S315000050605F8F074C4B0902F01F020EFA02F2603303
S3150000507044F82320D6E700BF00600040043D00202E
S3150000508000E100E0844630B482B0019100921D49EF
S3150000509090F904201C4D51F82200C03255F8221018
S315000050A01A4C21F0807145F822109CF9041041F445
S315000050B00041E28992B29142FBD008222274019A01
S315000050C00AB1019A4260009A0AB1009A8260C278D7
S315000050D002F0C001802913D03F2A98BFC38118224D
S315000050E000200A4B08491A749CF90430C03351F861
S315000050F0232042F0807241F8232002B030BC704772
S315000051008381ECE70000002000600040005400406E
S315000051100620704706207047034693F90430054978
S31500005120C03351F82320002042F0807241F823203A
S31500005130704700BF00600040034693F904300549FC
S31500005140C03351F82320002022F0807241F823203A
S31500005150704700BF00600040002290F90400124B27
S3150000516053F82030C1E90022DA783F2A0CD94FF4EF
S3150000517080728A60DA89D2B2CA60DA7802F0C00236
S31500005180802A09D0002070474FF480328A60DB897C
S3150000519000209BB2CB6070474FF480320A609B8937
S315000051A000209BB24B60704700000020062070472D
S315000051B0062070470346002230B593F904C0074C19
S315000051C00CF1C00E54F82E10054D21F0807144F8F4
S315000051D02E1045F82C201A60104630BD00600040A5
S315000051E00000002030B5864690F904301C4DC033CF
S315000051F055F823201B4C22F0807245F8232090F9A5
S31500005200042042F40042E3899BB29A42FBD00B464B
S31500005210DA789C463F2A05D9DA89D2B202EB022215
S3150000522092B2DA819CF8022010333F2AF0D84FF070
S31500005230080C18220B4B0C4D83F810C09EF904C0C5
S31500005240074C45F82C101A749EF904300020C03320
S3150000525054F8232042F0807244F8232030BD00BF6A
S31500005260006000400054004000000020F8B5274AC6
S31500005270044613780D4643B36B6893F90030002B50
S315000052803FDB234850F82320002A3CD123712D68A8
S31500005290BDB12B46DA7819463F2A05D9DA89D2B24A
S315000052A002EB022292B2DA818A7810333F2AF1D8D1
S315000052B008211822174B197494F9041040F821504C
S315000052C01A74154B00202360F8BD01261670EFF303
S315000052D0108086F31088114A116821F4800111604C
S315000052E0126880F310880A4F19463422384601F0B6
S315000052F087FE084B5F611E736B6893F90030002BC5
S31500005300BFDA0B20F8BD0820F8BD00BFBC3C00206A
S315000053100000002000540040004354440040084070
S31500005320844610B40A4ADCF80430D2F8084C0B4024
S315000053302343C2F8083CDCF80840D2F8103C214070
S315000053401943C2F8101C00205DF8044B704700BFDB
S3150000535000001740084BD3F8802C0378013B032B41
S3150000536005D9131E18BF012300200B7070470223B6
S3150000537000200B70704700BF0000174003461A78E4
S31500005380052A17D8DFE802F02A2E1D1803034FF06E
S31500005390050C1A691949506990F8902002F0070225
S315000053A0C1F8802290F89020C2F30212C1F88C2234
S315000053B083F800C00020704702224FF440701A7034
S315000053C0704704210D4A1970D2F88C124907D6D0BD
S315000053D007234FF48060C2F88C3270470122032005
S315000053E01A7070470321054A1970D2F880124807CF
S315000053F0C5D007230420C2F880327047000017404A
S315000054000023F0B50161CA68044642610A69037067
S31500005410C0E906324969EFF31080012383F310884F
S315000054206C4BDA6822F48032DA60DA6880F310882E
S315000054300A7F02F00302012A0AD1EFF3108082F3F9
S3150000544010881A6922F000421A611B6980F31088DD
S3150000545000230A6A6048C26003604368002BFCD1DF
S315000054600125CA6982605C4A056050680128FCD142
S315000054700025486A584E10645564D1F89C50081FA0
S31500005480C2F8605291F8905005F00705C2F88052B4
S3150000549091F89050C5F30215C2F88C52D1F8945089
S315000054A0C2F88852D1F89850C2F894524D69C2F8A1
S315000054B040538D69C2F8445350F8042F03F1B005E8
S315000054C0013342F48032042B46F82520F4D10B7CBC
S315000054D0424D1804002B18BF40F00100C6F8000327
S315000054E0486E3F4BC6F86402886E01F19C02C6F80E
S315000054F0B00252F8040F043343F8040C106AAB42AE
S31500005500D861506C1864F4D1002240F2FF174FF0B6
