S00B00003030302E7372656389
S31500000000684E0020515D0000895B00004D5D0000D8
S315000000104D5D00004D5D00004D5D00004D5D000032
S315000000200000000000000000000000004D5D000020
S315000000304D5D0000000000004D5D00004D5D0000BC
S31500000040794E00004D580000F5580000A5590000F3
S31500000050794E000035430000A5420000C54300006C
S3150000006011440000753A0000053B0000E13B00002A
S31500000070B13C00000348044B834202D0034B03B15A
S3150000008018477047D4020020D40200200000000068
S31500000090064B0749C91A891048BF0131491003D0D8
S315000000A0044B0BB101481847704700BFD40200202B
S315000000B0D40200200000000010B5064C237843B996
S315000000C0FFF7D8FF044B13B10448AFF300800123B8
S315000000D0237010BDF00200200000000018A50000EB
S315000000E008B5054B1BB105490548AFF30080BDE8CF
S315000000F00840FFF7CDBF00BF00000000F40200205B
S3150000010018A50000082010B503F0D0F84FF0033210
S3150000011040F20110044B054C0549C3E90022DC609E
S315000001209A60A1F86F0010BD0C03002003030301C1
S315000001301C03002070B52DED028B6D4CA5686E1C5E
S315000001401CBF0135A560A57B002D6DD140F20110C5
S31500000150E0814FF0000C0020C2F800C0187094ED4A
S31500000160007A9FED646ADFED646A27EE067A60EE38
S31500000170A66A37EE267A614D37EE608AD5ED047AA7
S31500000180012684ED007A68EE277A9FED5D7A84ED8C
S31500000190017A77EE877A9FED5B7AF4EEC77A0023D1
S315000001A0F1EE10FA0B6028DC9FED577AF4EEC77A71
S315000001B0F1EE10FA65D581ED017A544BD3E90001D1
S315000001C005F0D0FE95ED057A07EE900A67EE877A80
S315000001D067EE880AF5EEC00A0023F1EE10FA6373A3
S315000001E001DCDFED470AD4ED017A77EEA07AC4EDA3
S315000001F0017A2673BDEC028B70BD81ED017A434B0B
S31500000200D3E9000105F0AEFE95ED057A07EE900AFA
S3150000021067EE877A67EE880AF5EEC00A0023F1EEEC
S3150000022010FA6373DDDCDEE7E57B012D3CD00028A8
S315000002304CD0207C02284FD0012082ED000A187095
S3150000024094ED007AD2ED006ADFED2A5A9FED2A6A14
S3150000025027EE257A66EE866A37EE267A274D37EE42
S31500000260608AD5ED047A637B84ED007A68EE277A9E
S315000002700BB10023636094F90C605EBB94ED017AC8
S3150000028087E7C1ED017A98DB204BD3E9000105F041
S3150000029069FE95ED057A07EE900A002367EE877AE8
S315000002A0637367EE880A9EE700283FF452AFF0EECC
S315000002B0007AF4EEE71AF1EE10FAFFF64AAF40F2D2
S315000002C002300025A4F80F00A560B5E70120A4F8C8
S315000002D00F003EE7002658E740F2E630A568854263
S315000002E002D901202074A7E79FED090AA4E700BF01
S315000002F094030020A4707D3F0AD7233C8800002089
S31500000300000000000D98463E0D9846BE8000002075
S315000003109A99193E0122014B5A73704794030020A3
S3150000032070B41B4E3378072B24D890F9001051B3C4
S315000003300122184D184C03E00132B2F5807F20D01F
S315000003402B7804EB0323134403F8011C10F9011F57
S315000003500029F1D100212B7804EB03242B78A1543A
S31500000360013303F007032B7033780133DBB23370AC
S3150000037070BC7047094A138801339BB2138070BC66
S315000003807047FF22E6E70A46024D034CE2E700BF4C
S31500000390D8050020DA050020DC050020D60500205F
S315000003A030B54FF0000C0725164C85B00223164ACF
S315000003B000951649164884F800C003F0D3F9154B8A
S315000003C0C2B21A7090B9144B039303E0039B013B2E
S315000003D0039313B12378002BF8D0039B43B10A4B48
S315000003E00E4918785A780E4B08701A7005B030BD51
S315000003F001210C4B0C4A197013780B44DBB21370B5
S31500000400EDE700BF5E050020080500201805002066
S315000004104C3C002053050020009F24005605002078
S31500000420550500205405002052050020002208B57D
S31500000430044B60F07F0018705A70FFF7B1FF024B53
S31500000440587808BD1805002008050020B5EEC00A3A
S31500000450F1EE10FAF8B504462DED028B1546B0EE16
S31500000460408A3FD400274E1EFCEEC88A224A18EE68
S31500000470903A06F0D9FC3844B0422DDA2E2300F12A
S31500000480010C6645235404EB00011FDDF8EE688A73
S31500000490B2EE047A38EE680A6A1C024420EE070AB5
S315000004A0FDEEC07A17EE903A092BA8BF092307EE96
S315000004B0903AF8EEE77A0CF1010C3033944530EEC1
S315000004C0670A01F8013F08D06645E7DC624600236B
S315000004D0A354BDEC028BF8BD0B220023A354BDEC44
S315000004E0028BF8BD2D234E1EB1EE408A3146012700
S315000004F000F8013BB8E700BF649300002DE9F04F18
S31500000500A84BE1B01B78042B04D1A74A138801330A
S315000005109BB21380A54B1A781AB11A78013AD2B257
S315000005201A70A34D2B889BB2002B5BD1A14C23786C
S31500000530002B40F09480A04CA04FA14DB5F900309F
S31500000540002B04DB9F4A1278072A40F26981B7F92B
S315000005500030002B07DB9C490A780132D2B2042A0C
S315000005600A7000F2FC80994B1B7843B1984A1388B5
S3150000057001339BB2B3F5FA6F138080F07C81237848
S315000005806BB3904B1B78072B29D89249924A0B885C
S31500000590128801339BB292B293420B801FD3002282
S315000005A08E4B8F481B7890ED000A03F0FF050A80FA
S315000005B0002B00F05583F6EE007A30EE270ABDEEEA
S315000005C0C00A10EE101A874EDFF84C823278531CA0
S315000005D0DBB2042B337028F8121000F20D8261B0E2
S315000005E0BDE8F08F804E734C338801339BB2338065
S315000005F033889BB2C72B9AD92378032B23D82B8811
S315000006009BB23E2B00F293812A8892B29146DFF884
S315000006100C82764F98F80000754907EB801006F0BB
S3150000062083FC002398F8002007EB821707F80930AF
S3150000063098F80030013303F0030388F8003023787C
S315000006400133DBB2237000236A4A2B803380138880
S3150000065001339BB213802378002B3FF46CAF664DB9
S31500000660624B2A780DF1400E03EB821CBCE80F00AA
S31500000670AEE80F00BCE80F00AEE80F00BCE80F00C4
S31500000680AEE80F009CE80F008EE80F002B7810A84C
S31500000690013303F003032B702378013BDBB2237095
S315000006A006F04FFC00283FF446AF10AB0025534C34
S315000006B01A1805E0CB070BD5013815703FF43BAF90
S315000006C012F8013D093BDBB2172B24FA03F1F1D9ED
S315000006D04B4C042223884B4901339BB210A823803C
S315000006E006F0FEFB0446002840F0D980464A25461F
S315000006F01388464E01339BB211AF138003E00135D8
S31500000700352D00F0458356F82400394606F002FCE4
S3150000071003340028F3D105EB450506EB85052B7A56
S31500000720012B00F04383022B00F02E82002B40F0B9
S315000007303B836B680CAC93ED000A04221021204623
S3150000074020AEFFF783FE4FF480713B463046304AB9
S31500000750009406F069FB3046FFF7E2FDEBE6194A26
S315000007601278072A3FF6FFAE0022342B0A7000F3F8
S315000007707082264A03EB430102EB81025168127A2A
S31500000780002A00F0FC800A7820AE00922021304634
S31500000790204A06F049FB3046FFF7C2FD3B8801338D
S315000007A03B80E0E6D2050020CC0500206E05002047
S315000007B0E00E0020DD0D002068050020AC000020C2
S315000007C0AE000020D8050020AA04002076050020EF
S315000007D0A804002066050020B4000020B000002018
S315000007E0DC3A0020F8040020D4050020E00D0020AB
S315000007F0E40E002070050020DE0D002013008000AE
S3150000080074050020DC94000072050020A497000007
S315000008107C93000078940000FC040020DF0D00208B
S31500000820342B38DC5F4E03EB430206EB8202107A70
S315000008305A00002879D05C49DFF8B8C1012808BF02
S315000008406146134406EB8302507A0091574A584991
S3150000085056F82330002818BF0A464FF480710192DB
S3150000086020A8544A06F0E0FA20A8FFF759FD2B8885
S3150000087001332B806BE6504B1B78072B3FF67FAE80
S3150000088000234E481380FFF74BFD4D4A1388013372
S315000008909BB2138073E64FF6FF732B8057E6042254
S315000008A0484910A806F01CFB0546002843D111AFA5
S315000008B02021384606F0F4FA8046002800F0A3818D
S315000008C02C46384E057003E00135352D00F0608268
S315000008D056F82400394606F01DFB03340028F3D1F0
S315000008E005EB450506EB85056B7A002B00F07E824D
S315000008F02B7A08F10108012B00F0BA82022B00F0D6
S31500000900C782002B40F05082404605F07BFB51EC3D
S31500000910100B05F027FB00EE100A6B680CAC0422E6
S315000009201021204683ED000A0AE7274989E74FF0A0
S315000009303F094A466BE6254910A806F0EBFA00285F
S3150000094000F02E810922224910A806F0C9FA0028D3
S3150000095040F038829DF94930202B00F0AB826422AA
S31500000960002301201B491C4D0A801C4C1C491D4AB2
S315000009702B7020700B801C4F1C4D1370DEE510ADE4
S3150000098091ED000A284604220C21FFF75FFD20AEF8
S31500000990009520213046164AB7F9003006F044FA91
S315000009A0F9E600BFA4970000689300007893000062
S315000009B0749300005C940000D80500208C9400001D
S315000009C082050020B49300006C930000E8930000B9
S315000009D010940000B4000020F804002068050020F0
S315000009E06605002064050020AC000020AE00002053
S315000009F06C94000070930000DFF874A303229AED54
S31500000A00000A0C2120A8FFF721FD05234FF4807171
S31500000A10BC4ABD4806F008FA0225BB4FDFF86093D2
S31500000A2008F10A0B38F9023BC5F5807178194A4678
S31500000A3006F0FAF9C3450544F4D1B44BDAED003AB1
S31500000A40D3ED007AB24BF2EE042AD3ED006A93EDB1
S31500000A50015AD3ED025AAF4B9FEDAF2A93ED004AF0
S31500000A60D3ED014A93ED026AAC4B26EE226A1B785F
S31500000A70BDEEC66A0993AA4BF6EE001A1B7867EE1E
S31500000A80A27A0893A74B9FEDA83A93ED007A27EE3A
S31500000A90027ABDEEC77A8DED066A8DED077AA34B15
S31500000AA077EEA17A93ED006AA14B63EE823A93ED5D
S31500000AB0007A66EE836A25EE035A65EE835A24EEC3
S31500000AC0224A64EEA24AFDEEE77A27EE037A26EE84
S31500000AD0026AFDEEE44ABDEEC44AFDEEE55ABDEEFD
S31500000AE0C55AFDEEE66ACDED007AFDEEE37ABDEE7F
S31500000AF0C66ABDEEC77AC5F580718DED044ACDEDA7
S31500000B00054A8DED025ACDED035ACDED016A17EE79
S31500000B10903A884A78198DED0A6A8DED0B7A06F0BF
S31500000B2083F94119002940F3F9810023764A7D189B
S31500000B3012F9010B43409542DBB2F9D17E4A78188F
S31500000B40C1F5807106F070F96F48FFF7E9FB0021E7
S31500000B507A4A3170138805339BB21380784B1A7822
S31500000B60002A3FF43CAD774A187813780133DBB29C
S31500000B7083421370FFF433AD7348217003881170FC
S31500000B8001339BB203802AE56B6820AE1C684FF4E4
S31500000B9080713B4630466D4A009406F045F9DAE529
S31500000BA004256B4B6B4C20AEDFF8D8A1DFF8D8914B
S31500000BB0DFF8D88193E8030004F51F7730608DF8DD
S31500000BC08410637A73B1D72D00F31681237A012B33
S31500000BD03AD0022B33D0EBB10C34A74205D0637A5E
S31500000BE0002BF3D10C34A742EBD1042D00F3048182
S31500000BF0304606F0A6F9024657493046C2F1FF02D2
S31500000C0006F05BF9A7E55548FFF78AFB544C554FAC
S31500000C10554D93E463680DF1300B042293ED000A01
S31500000C2010215846FFF712FC4246CDF800B0C5F534
S31500000C3080717019236806F0F7F80544D2E76368F7
S31500000C404A461B680093F2E7636852461B78009396
S31500000C50EDE74FF6FF7345483B80FFF761FB82E403
S31500000C6001220C210CA8FFF7F1FB414B10AE93EDCE
S31500000C70000A0C2103223046FFF7E8FB234BB6EEB1
S31500000C80006AD3ED007A3B4B77EE867A93ED007AD5
S31500000C90394B37EE067AD3ED006A76EE866ABCEEFD
S31500000CA0C77AFCEEE66AFCEEE77A4FF48071334AC7
S31500000CB00CABCDED036A8DED027ACDED017A00968F
S31500000CC020A806F0B1F820A8FFF72AFB1B4A1C490A
S31500000CD0138801339BB213800B78002B3FF47FAC53
S31500000CE0184A097813780133DBB28B421370FFF48C
S31500000CF076AC154925700B88157001339BB20B80B5
S31500000D006DE400BF94940000A8030020800F00202B
S31500000D10380500202C0500200000C842780F00206E
S31500000D20E43A0020A03A002000007A44640F002034
S31500000D301837002098940000C09400006205002037
S31500000D4065050020640500206005002094930000DE
S31500000D50F0930000A497000088940000BC93000064
S31500000D6068050020AC000020AE000020849400003E
S31500000D70A43A0020C4000020C0000020C89400004F
S31500000D80BC9400000094000008940000F893000052
S31500000D903B464FF48071AD4A20A806F045F820A8DE
S31500000DA0FFF7BEFAFFF7C7BB20AED4E46B6820AEF0
S31500000DB01C784FF480713B463046A54A009406F0F5
S31500000DC033F8C8E49DF84030522B1CD19DF84130D1
S31500000DD0CBB901229F49A04C0B70A048A049A14F56
S31500000DE0A14D03800B702270FFF7A8BB3B464FF462
S31500000DF080719E4A20A8D0E7013D73572C2B04BF73
S31500000E0000237355F4E69DF94030572B00F0888097
S31500000E10472B5FD19DF84130303B092B67D80DF148
S31500000E20410005F0F2F883B2342B3FF684AB0C2177
S31500000E308F4B84B201FB04331A7A5B68002A40F0B8
S31500000E40118293ED000A04220CAD284620AEFFF76E
S31500000E50FDFA202123463046864A009505F0E4FF38
S31500000E603046FFF75DFA7C4C7E4F7F4DFFF766BB41
S31500000E70404605F0CAF86B68C0B220AE18704FF451
S31500000E80807100903B463046714A05F0CDFF62E422
S31500000E9001460A22404605F0BDFF04466D6820AEB5
S31500000EA02C604FF480713B463046734A009405F03F
S31500000EB0BBFF50E40DF14A0005F0A7F883B2642B9E
S31500000EC028BF6423012B4FF47A7238BF0123B2FB8B
S31500000ED0F3F245E5502B44D03F2B40F0F2809DF9CC
S31500000EE041304D2B00F0A780542B00F0DD809DF89B
S31500000EF04030412B04D19DF84130002B3FF450AED9
S31500000F009DF84030442B6FD19DF84130002B6BD1BA
S31500000F10544F514C544D3B80FFF710BB00230DE658
S31500000F209DF84130303B092BE1D80DF1410005F029
S31500000F306CF807EE900AF8EEE77A504B9FED507A80
S31500000F40C3ED007AD3ED007AF4EEC77AF1EE10FA2B
S31500000F507FF7F1AA83ED007A3F4C424F424DFFF7EF
S31500000F60EDBA9DF941302F2BC1DD392BBFDC3D2178
S31500000F7010A805F095FF054600283FF4DCAA0DF100
S31500000F80410005F042F883B2342B3FF6D4AA0C2375
S31500000F90374E84B203FB0466737A002B3FF4CBAA68
S31500000FA0337A681C002B40F0938105F02BF851EC46
S31500000FB0100B04F0D7FF334A736800EE100A934211
S31500000FC000F07E81304A934200F066812F4A9342B8
S31500000FD000F052810832934200F04E8183ED000A00
S31500000FE004220C210CAD30E7294910A805F092FF28
S31500000FF0B0B1284910A805F08DFF88B1264910A880
S3150000100005F088FF60B1254910A805F083FF002888
S315000010107FF491AA144D104C124F2880FFF78EBA18
S3150000102000230D4C0B490E4A23700B700D4F0E4DCD
S315000010301370FFF783BA1A4B1021D3ED007AFDEE39
S31500001040E77A184A17EE903A20A8A6E6A093000081
S3150000105088930000640500206805002066050020CE
S31500001060F8040020AC000020AE000020D49300005D
S31500001070A49700001C94000094930000D000002068
S3150000108000A08C45D4000020D80000208C00002051
S3150000109044940000489400005094000054940000CA
S315000010A0740F002034940000904B032293ED000A45
S315000010B00C210CA8FFF7CAF910218D4A0CAB20A809
S315000010C06BE6462B31D04D2B4BD19DF941302D2B64
S315000010D004D0303BDBB2092B3FF609AF0DF14100DE
S315000010E004F093FF07EE900AF8EEE77A814B9FED46
S315000010F0827AC3ED007AD3ED007AF4EEC77AF1EE88
S3150000110010FAC8BF83ED007ADFED7C7A93ED007AA2
S31500001110B4EEE77AF1EE10FA7FF50DAAC3ED007A88
S31500001120774C784F784DFFF709BA9DF84130303B40
S31500001130092B3FF6DCAE0DF1410004F066FF83B2E9
S31500001140642B28BF6423012B4FF47A7238BF012326
S31500001150B2FBF3F26D496A4C6A4F6B4D0A80FFF79A
S31500001160EDB9542B3AD19DF941302D2B04D0303BAB
S31500001170DBB2092B3FF6BBAE0DF1410004F045FF93
S3150000118007EE900A9FED627AF8EEE77A67EE877AC5
S31500001190564B604AC3ED007A93ED007AD2ED007AA1
S315000011A0B4EEE77AF1EE10FAC4BF11681960D2ED19
S315000011B0007A93ED007AF1EE677AF4EEC77AF1EEF3
S315000011C010FA7FF7B8A9D2ED007AF1EE677A4C4CA7
S315000011D0C3ED007A4B4F4C4DFFF7B0B9452B30D1DC
S315000011E09DF94120A2F13003DBB2012B3FF67FAE21
S315000011F0312A19D000224848484B027093ED007AF4
S31500001200DFED477AB4EEE77A4649F1EE10FA0A7056
S315000012104FF00502C8BFC3ED007A434B384C394F37
S31500001220394D1A70FFF78AB93B4B1B78002B7FF4B8
S3150000123082A901223B4B324C324F334D1A70FFF7D5
S315000012407DB9432B7FF453AE9DF84130303BDBB282
S31500001250012B3FF64CAE354A294C2A4F2A4D1370C6
S31500001260FFF76CB91D7820AE234620213046304A60
S31500001270009505F0D9FDF3E5DFED2E7AB4EEE70A29
S31500001280F1EE10FA0FDCB5EEC00AF1EE10FA7FF5BA
S31500001290A5AE9FED290AA1E6F7EE007AB4EEE70ABD
S315000012A0F1EE10FA02DDB0EE670A97E6FFEE007A7D
S315000012B0B4EE670AF1EE10FA48BFB0EE670A8DE6A3
S315000012C0F7EE007AB4EEE70AF1EE10FAEBDCDAE7B5
S315000012D004F09BFE7368C0B220AE18702021009007
S315000012E023463046124A05F09FFDB9E5D800002096
S315000012F03C940000740F002000007A4400007AC479
S3150000130068050020AC000020AE000020B4000020DC
S315000013106F12833AD4000020E4360020680F0020C4
S3150000132009AC5C3FE43A0020E5360020DC000020F2
S315000013302894000000004842000000002DE9F04F0C
S315000013402DED028BA54989B0A54802F04BF9FEF7B1
S31500001350D9FEFEF7DFFFA349A34803F099FF034632
S31500001360A249A148059304F08DF8034600219E4842
S31500001370069304F001FA9C4C0790204604A903F05A
S3150000138031FF9DF81030022BF7D0994999488DF816
S31500001390123003F06DF9974803F042F9964B1B782B
S315000013A0002B40F06482002240F60551934803F07A
S315000013B083F80120924904F0BBFB012240F6055157
S315000013C08E4803F079F84FF47A710A2004F0B0FBE6
S315000013D04FF0082300258B4F012183483B6003F023
S315000013E0E7FE0421804803F0E3FE4FF4FA742E462C
S315000013F0DFF880824FF47A71012004F099FBB8F887
S315000014000020B8F80230013C16441D44F2D17E4B50
S315000014107E48A3FB0612A3FB051352095B090221B2
S315000014207B803A8003F01CFD0221794803F018FD09
S315000014300221784803F014FD7749784803F0F0FA62
S31500001440764803F04FF9754803F040F9152240F647
S3150000145006616A4803F09CF8012240F60661674877
S3150000146003F02AF8012240F60261644803F024F8EA
S315000014704FF47A714FF4FA6004F05AFB052240F6F5
S3150000148006615E4803F084F8012240F606615B4877
S3150000149003F012F84FF47A714FF4FA6004F048FB47
S315000014A05F4D40F605610DF11302544802F0F2FF5C
S315000014B05C4B9DF8132028465B491A7002F02AFD02
S315000014C0002800F00E826323584A5949039200917E
S315000014D013705849584802F06DF9584BC2B2044689
S315000014E01A70002800F0DA81554B564D0193DFED56
S315000014F0568A9FED568ADFF880B1DFF880A1DFF8C3
S315000015008081534EDFF87C913C4C40F603610DF12F
S315000015101302204602F0BEFF9DF813300DF11302B0
S31500001520A3F10103B3FA83F340F604615B09204695
S315000015308BF8003002F0AEFF9DF81330454AA3F158
S315000015400103B3FA83F35B091370DAF80030012B59
S3150000155000F0468198F80030002B40F0958099F80D
S315000015600030002BD1D0009F3B78002BCDD13A4ADA
S315000015701378002BC9D139483949007801EB00208E
S3150000158005F0DFFC0246D8B1012334483B700178F0
S31500001590334B234803EB0121029202F0F9FB314B56
S315000015A0029AC0B21870304B304992B21A800B883A
S315000015B0294A01339BB20B802D4B1B78DBB213708B
S315000015C0264A1378013303F00703137099F80030A5
S315000015D0013BDBB289F8003097E700BF209A000094
S315000015E0183B0020109C0000D43B0020649D0000A6
S315000015F0589A0000583B0020910F0020103B002015
S3150000160040420F00E8000020D34D6210743B0020DA
S31500001610943B0020B43B0020849E0000FC3B00204D
S315000016201C3C0020B8000020E09E0000D2050020EF
S31500001630DC0D0020149F00004C3C0020B20000206E
S315000016405C050020180500200000003A3333834172
S3150000165008050020990F00206E050020D9050020FE
S31500001660DC050020B60000206C0500206A0500207D
S31500001670B7000020D43A00209A0F00207C050020F5
S3150000168028050020D8050020002388F80030019B9B
S315000016901B78002B3FF463AF9F232B80FEF780FE61
S315000016A0A02372782B800292FEF77AFEA123029A7B
S315000016B02B80737843EA0223B94A1BB2174613807C
S315000016C0FEF76EFEA22372782B800292FEF768FE6A
S315000016D0A323029A2B80737843EA02231BB27B80F2
S315000016E0FEF75EFEA42372782B800292FEF758FE68
S315000016F0A523029A2B80737843EA02231BB2BB8090
S31500001700FEF74EFEA62372782B800292FEF748FE65
S31500001710A723029A2B807378A24943EA02231BB2BD
S315000017200F460B80FEF73CFEA82372782B800292B0
S31500001730FEF736FEA923029A2B80737843EA02232A
S315000017401BB27B80FEF72CFEAA2372782B800292B6
S31500001750FEF726FE029A7378934843EA02231BB2E9
S315000017608F4ABB8013881BB207EE903AF8EEE77AF1
S3150000177067EEA87AC0ED007A53881BB207EE903A5E
S31500001780F8EEE77A67EEA87AC0ED017A9388874A81
S315000017901BB207EE903AF8EEE77A67EEA87AC0ED4C
S315000017A0027A3B881BB207EE903AF8EEE77A87EEAC
S315000017B0887A82ED007A7B881BB207EE903AF8EEC3
S315000017C0E77A87EE887A82ED017ABB881BB207EE4C
S315000017D0903AF8EEE77A87EE887A82ED027ABEE6EC
S315000017E0734802F017FB102240F60561204602F00E
S315000017F0CFFE00226F4F704BD7F8FCC04FF47A71C2
S315000018004CF0807CC7F8FCC05A60D3F800C04FF497
S31500001810FA704CF0010CC3F800C004F089F90223F9
S315000018200022CAF80030654B1A60654BB3F8C43025
S3150000183013F02003F9D1604A5360614BB3F8C4300A
S315000018409B06FAD503235C4A5C49526820460A6027
S315000018505C4A40F60561CAF8003002F099FE5A4922
S31500001860534802F057FB0423039A137072E60122D1
S3150000187040F60161554802F01FFE4FF47A710A20C6
S3150000188004F056F9002240F60161504802F014FEB9
S315000018904FF47A713C2004F04BF984E54FF47A71E9
S315000018A00A2004F045F9012740F21113484E494D2C
S315000018B037702B80FEF774FD4FF47A710A2004F01E
S315000018C037F9022375203370FEF7B0FD0322424B31
S315000018D0187032701B78422B2BD0404B01931C7032
S315000018E005E602233E4F3F4A40F6066137483B7005
S315000018F0039702F04DFE4FF47A714FF4FA7004F03C
S3150000190017F9394B2146402238481C7005F0C0FAB9
S315000019100423374E374A3480364E2D6A0092364AB3
S3150000192034702C6951783548354A046011703B7023
S31500001930CFE576232B80FEF733FD4FF405632B802E
S31500001940FEF72EFD4FF47A71384604F0F1F840F6B2
S315000019504F032B80FEF724FD4FF47A71384604F0CE
S31500001960E7F840F64E732B80FEF71AFD4FF47A71B6
S31500001970C82004F0DDF84E20FEF758FD0346214A44
S3150000198050201370FEF752FD03461F4A2D20137098
S31500001990FEF74CFD11491D4A019110700F70A6E526
S315000019A04C05002044050020380500202C050020A9
S315000019B01C3C002000ED00E0001000E0780500204F
S315000019C000F1014000000105E09E0000103B0020F0
S315000019D058050020180500205D0500205C05002044
S315000019E0D205002010000105880500208C05002086
S315000019F0D0050020DC0D0020EC000020840500202E
S31500001A00800500205B0500205A05002059050020AE
S31500001A10022800D070470249024802F0AFBD00BF5D
S31500001A20789F0000103B00202DE9F04F2DED048B30
S31500001A30048B8BB0012C04D00BB0BDEC048BBDE83D
S31500001A40F08F4A4D0DF10F022B684FF430610133D0
S31500001A5047482B6002F01EFD9DF80F30454AB3FA49
S31500001A6083F35B0913701378002B35D1424B1B7837
S31500001A70002B36D1414B424D0193424C0121224667
S31500001A80414803F0A9FE2178002900F00C860023C6
S31500001A904A1EDFF814813D4F3D4EDFF810A1DFF8F6
S31500001AA01091D2B204EB830C9CF80700032BBCF810
S31500001AB004E0C0F3C01BC0F3060C24D89A422AF8EF
S31500001AC013E009F803C028F813E007F803C006F886
S31500001AD003B024D00133E5E7274B1C701B78002B9D
S31500001AE0C8D000214FF07C532A4A00201160516073
S31500001AF00122234D214C2B606B60AB60264B019479
S31500001B0020701A70B9E79A4228F813E007F803C064
S31500001B1006F803B003F1010301D0082BC2D100235C
S31500001B201E481F4EDFF88CC01E4FDFF88C80DFF892
S31500001B308CE0017004EB8300C179808801F07F019D
S31500001B40102942D8DFE811F0400041004100410071
S31500001B505B0341004100410041004100410041005A
S31500001B60580356035D034100530300BF603700204E
S31500001B70103B0020AD0F0020AC0F0020E43A0020FF
S31500001B80C83A0020D4040020D43B00203837002077
S31500001B9030370020B43A0020E536002050370020C8
S31500001BA0D43A00207A0F0020403700202837002042
S31500001BB0243700207C0F00207E0F0020880F002095
S31500001BC000F07F45333353403080934203F10103E5
S31500001BD001D0082BAED1B8F800305FED076A9BB292
S31500001BE007EE903AB8EE677A1FED0A6AC7EE267AD4
S31500001BF0B2EE0A5A67EE867A67EE857ADA4CF2EE2C
S31500001C00065AC4ED007ABEF80030D84A9BB207EEF9
S31500001C10903AB8EE677AC7EE267A67EE867A67EE6E
S31500001C20A57AC2ED007ABCF800309BB20A2B07D920
S31500001C3040F6F472BCF800309BB2934240F2CC847A
S31500001C403B889BB20A2B06D940F6F4723B889BB2BE
S31500001C50934240F24A84C64F97ED0D7AB5EEC07AAC
S31500001C60F1EE10FA40F3D583C24BD3ED007AC7EEFE
S31500001C70876AF5EEC06AF1EE10FA00F1CA83F7EE54
S31500001C80007AF4EE676AF1EE10FA77FEA66ADFF8DC
S31500001C907883D8ED007AF4EEE67AF1EE10FA40F1A8
S31500001CA0E9839FEDB56A77EE867AF4EEE67AF1EE91
S31500001CB010FA40F3EB83C8ED006AF0EE667A27EE81
S31500001CC0277ADFF84893DFF848A3AC4B4A4683ED02
S31500001CD0007A5146AA4BAB4801F01AFBAA4BDAED43
S31500001CE0004AD3ED007A9FEDA97A74EEE77AF4EE16
S31500001CF0C77AD9ED006AF1EE10FAA54AC2ED006A7C
S31500001D0040F3AC839FEDA37A77EEC77AA249DFF85A
S31500001D1004C391ED007A77EE877AC3ED004A9F4AB5
S31500001D20BCF800309E4802EB830201339BB2C72BFE
S31500001D3092ED006AC1ED007AC0ED007AC2ED007A3C
S31500001D40ACF8003040F2688300230122ACF8003082
S31500001D50944B1A7077EEC67A9FED937A97ED006AE8
S31500001D60C7EE875AF6EE006A85EE867AB4EEE67A14
S31500001D70F1EE10FA01D59FED8D7AD7ED0D7A9FED34
S31500001D80836A77EEA77ADFED8A6A67EE867A87EE50
S31500001D90A66AB5EEC06AF1EE10FA864B83ED007ABC
S31500001DA040F37783844BF7EE007A93ED005AC7EE43
S31500001DB0065A27EE267AD3ED006A804B9FED754AC8
S31500001DC093ED006A77EEC57AC7EE043A67EE867A37
S31500001DD026EEA57A77EE877A98ED005AB4EEE55AA4
S31500001DE0F1EE10FAC3ED007A754BC8BF75EE657A51
S31500001DF0C3ED005A734BD8BF75EEC57AC3ED003AF2
S31500001E00714B724A1978724B9FED726A1970724B58
S31500001E109FED724AC3ED007A714BDFF8FC91D3ED6A
S31500001E20007A77EEA47A6F4BDFF8F081C3ED057A7E
S31500001E30D3ED052AC3ED057A93ED042A738830881D
S31500001E4007EE903A5688F8EE674A07EE106A07EEF4
S31500001E50900A1288F8EE676AB8EE477A07EE902A7B
S31500001E6074EEC74AF8EE677A64EE864A76EEE76A5B
S31500001E7066EE866A34EEA46A36EE266A26EE046AB2
S31500001E8026EEA23A26EE027A37EE437A26EE224A6A
S31500001E90B5EEC07A66EE827AF1EE10FA77EE847AC3
S31500001EA0D9ED001AD4BFB1EE473AB0EE473AF5EE97
S31500001EB0C07AF1EE10FAF4EEC31AD4BFB1EE674A57
S31500001EC0B0EE674AF1EE10FA48BF89ED003A98ED98
S31500001ED0003AB4EEC43AF1EE10FA27EE073A48BFDC
S31500001EE088ED004A27EEA74ADFED3F1A34EE034A93
S31500001EF0B4EEE14AF1EE10FA09DD3C4AC2ED006AA1
S31500001F003B4AC2ED004A3B4A10803B4A1380019B84
S31500001F103A4A18783A4B92ED004AD3ED004ADFF878
S31500001F2000E19FED313ACEED006ADFF8F8E077EE9A
S31500001F30C47A8EED006A37EE646A67EE837A26EE1F
S31500001F40036A77EE847A36EE246A2E4EDFF8D8C01E
S31500001F50C2ED007ACCED007A83ED006A86ED006A68
S31500001F60002800F06F8161E0800F00208C0F0020B8
S31500001F7038000020740F0020ACC5A737E03A0020D7
S31500001F80BC3A0020183B002074370020DB0F494084
S31500001F9064370020DB0FC940703700207C370020F3
S31500001FA068370020783700200AD7A33C00000000DD
S31500001FB0000070426C370020E0000020AC3A0020A0
S31500001FC0B03A0020DC3A0020A83A0020E8000020C1
S31500001FD0F83600200000003AF43600203ACD133FD0
S31500001FE0A80F002000100240CDCCCC3D04370020C5
S31500001FF000370020FC360020FA360020D0040020EE
S31500002000CC040020A43A00209C3A0020C03A0020CC
S31500002010C43A00207A3700200C3700200837002009
S31500002020203700201C370020A03A0020002900F0AD
S315000020300981754B1A78002A00F03B82734E74486A
S31500002040744AD6ED001A90ED001A92ED003A97ED1B
S315000020500D9A9FED710A83EE897A704B27EE007A0E
S3150000206093ED018AD3ED004A6D4BDFED6E0AD3ED99
S31500002070026A78EE463A37EE617A74EEE74A93EDF5
S31500002080004A63EEA67A27EE207A24EE844A37EEDB
S31500002090217A77EE837A34EE014A77EE877A64EE18
S315000020A0046A86ED007A27EEA77ADFED5F8A36EEC0
S315000020B0877AB4EEE87AF1EE10FA00F3CD8293ED6A
S315000020C0017AB5EEC07AF1EE10FA19DDDFED571A96
S315000020D027EE217A27EE247ADFED556A37EE017A6C
S315000020E0B4EEE67AF1EE10FA08DCDFED526AB4EEF1
S315000020F0E67AF1EE10FA58BFF0EE476AC0ED006AD4
S3150000210093ED037AB5EEC07AF1EE10FA13DDDFED4A
S31500002110474A27EE247A27EE237ADFED456A33EE27
S31500002120073AB4EEE63AF1EE10FA40F3A082C2EDB9
S31500002130006AB0EE663A64EE026A67EEA23A67EEAD
S31500002140824A64EE227A76EEE36A74EEA74A9FED3F
S315000021503A4AB6EE007A64EE844A26EE877AF1EEC3
S31500002160477A34EEC77AF4EEC76AF1EE10FA334BCB
S3150000217077EEE47A83ED003A40F15F82B4EEE77AD7
S31500002180F1EE10FA00F18182B0EE474AF0EE664AAF
S31500002190F4EE674AF1EE10FA77FEA44A74EE844A2A
S315000021A0BEEE003A64EE834AB6EE004A76EEA46AC4
S315000021B037EE247A77EEA47ADFED213A66EE846A6A
S315000021C027EE047A67EE847A66EEA36A27EE237A10
S315000021D067EEA37A76EE846A37EE047A77EE847A2F
S315000021E0C5ED006A85ED017AC5ED027A39E0AEF8F3
S315000021F00000EAE43880E8E4ACF80000E5E470802A
S31500002200E3E4A8F80000E0E4C8040020BC040020D1
S31500002210C4040020C0040020B81E053FB43A0020C4
S31500002220880000200AD7A33B3D0A673F17B7D1387D
S31500002230CDCC4C3DCDCC4CBDD0B35D3F1837002046
S315000022403ACD933FB6EE007A0022F0EE477A85ED5E
S31500002250007A85ED017A85ED027AF0EE476ABB4B8E
S315000022601A704FF08040BA4BBA4A1B781060002BA8
S315000022703ED0B94A138801339BB2138013889BB2B0
S31500002280632B35D90026B54B16801A88B44892B20E
S3150000229002EB820200EB820282ED005A1A88B14FED
S315000022A092B202EB820200EB8202C2ED015A1A8858
S315000022B07F6892B202EB820200EB820282ED026A32
S315000022C01A8892B202EB820200EB8202D7601A8869
S315000022D092B202EB820200EB820001741A8801328C
S315000022E092B21A801A8892B2B2F5FA7F28BF1E807F
S315000022F09D4B1B78002B4AD0D4ED005AB2EE046AEF
S31500002300F4EEC65AF1EE10FA41DDD4ED003AB3EE22
S31500002310023AB7EE084AC3EE235AF4EE445AB6EE32
S31500002320006AF1EE10FA76EEC66A37EE467A77EE76
S31500002330C67A74FE255A66EEA56A27EE257A67EEFA
S31500002340A57A76EE866A37EE067A77EE867AC5ED58
S31500002350006A85ED017AC5ED027A844D9FED845AB7
S31500002360DFED844A2B4605F10C02F3EC017AF4EE1C
S31500002370C57AF1EE10FA40F1948003ED015A9342CA
S31500002380F3D1D5ED006A95ED017AD5ED027AD4ED5B
S31500002390005AB2EE046AF4EEC65AF1EE10FA02DD05
S315000023A02268754B1A609FED756A754B41F270761F
S315000023B0C3ED006A66EE866A83ED017A27EE067A39
S315000023C0C3ED027A67EE867AFCEEE66ABCEEC77A61
S315000023D0FCEEE77A16EE904A17EE102A17EE903AC0
S315000023E0B44228BF3446B24228BF3246B34228BF61
S315000023F03346644D04A964482C60CDE905236A6020
S315000024000494AB6002F012F90BB0BDEC048BBDE88E
S31500002410F08FDFED5E6A3AE45D4B1B78002B7FF4AC
S3150000242099ACF0EEE67A9FED5B7AF4EE477AF1EE40
S3150000243010FA3FF6A0ACD7ED007AF5EEC07AF1EED1
S3150000244010FA7FF798AC86EEA77AF6EE007AB4EE2D
S31500002450E77AF1EE10FA3FF58EAC8EE49FED4E7AF8
S31500002460F4EEC77AF1EE10FA44BF9FED4C7A77EEA0
S31500002470877A4BE47FF723AC9FED496A77EEC67AFD
S31500002480F4EEE67AF1EE10FA3FF515ACC8ED007AF7
S3150000249015E4DFED3E7A434BF0EE673AF0EE675A0D
S315000024A09AE4F4EEE47AF1EE10FAC8BF43ED014A7D
S315000024B065E79FED367A3C4E3C4886ED007A3C4E09
S315000024C03C4A86ED007A012689ED007A1E70B0EE50
S315000024D0473A80ED007A82ED007A88ED007AB0EE18
S315000024E0471AF0EE471A344EB1E53A889FED337A33
S315000024F092B207EE902AF8EE676A3B8837EE667A64
S315000025009BB207EE903ADFED2F5AF8EE677A27EE88
S31500002510257A9FED2D6A87EE270A80EE060A06F0D9
S31500002520C1FDDFED2A7A9FED2A7A60EE277AB7EEB3
S31500002530006A77EE877ADFED276A86EE277A77EEEE
S31500002540667A1F4BC3ED007AFFF785BBC8040020EF
S31500002550CC000020E4000020C80F0020CA0F002095
S31500002560CC0F0020B43A002051370020C83A002092
S315000025700AD7A33C48E17A3F700000200080BB45A3
S31500002580B00F0020BC0F0020583B002000000000C8
S3150000259078370020FFFF7F7FDB0F49C0DB0FC94084
S315000025A0ACC5A737AC3A002014370020C40400207D
S315000025B010370020C0040020BC04002000F07F4536
S315000025C0C000002000401C4600E0AB464679673953
S315000025D00FCF5B3B33938843BCF80020BCF8003038
S315000025E092B207EE902AB8EE677A9BB207EE903A5F
S315000025F076EEC76A5FED0D5AF8EE677A66EEA56A63
S315000026001FED0F6A86EEA70A80EE060A06F04AFD5F
S315000026105FED127A1FED127A60EE277AB7EE006A46
S3150000262077EE877A5FED156A86EE277A77EE667A19
S31500002630234BC3ED007AFFF703BBF4EEE76AF1EE36
S3150000264010FAF4EEC76A25D4F1EE10FAB0EE664A37
S315000026501DDDF0EE474A9BE5F1EEC76ADFED191A7C
S3150000266081EEA67A24EE074A67EE877A27E59FED84
S31500002670167AB4EEC73AF1EE10FA52BF82ED003A7E
S3150000268082ED007AB0EE473A55E5B0EE674AF0EED5
S31500002690664A7DE5F1EE10FAB0EE674AD8BFF0EE75
S315000026A0664AD6DC7AE5094B094EDFF82CC0094F9D
S315000026B0DFF82880DFF828E01970FFF78CBA00BF32
S315000026C0C40000203333733FCDCC4CBD50370020BF
S315000026D0D43A00207A0F00207C0F00207E0F0020C5
S315000026E0880F0020704700BF2DE9F04FC94CCA4E35
S315000026F02368CA4D013323603378287883B013B139
S31500002700002840F00883DFF8B4932368B3F57A7F96
S3150000271000F00C842368B3F5FA6F00F0BB83C04B5E
S315000027201B78002B00F0C283BE4BD3ED007ABE4B64
S3150000273093ED007AB4EEE77AF1EE10FA48BFD3EDE6
S31500002740007A93ED007AB1EE477AB4EEE77AF1EECD
S3150000275010FAC8BFD3ED007AB44BC8BFF1EE677A62
S3150000276093ED007AB5EEC07AF1EE10FA2DDDB04A9F
S3150000277092ED0D7AAF4AD2ED006A27EE267AB5EED3
S31500002780C07AF1EE10FAD3ED006AD8BFB1EE477AFF
S3150000279093ED006AB4EEC76AF1EE10FA00F1F88321
S315000027A09FEDA56A66EE866AB4EEE67AF1EE10FA59
S315000027B00BDDD3ED005A93ED006A75EEC75A36EE7F
S315000027C0667AC5EE876A67EEA67A9C4F002397ED78
S315000027D0007A67EE877ADFF8E8A2994ACAED017AAD
S315000027E01360CAF80030974BDFF8D882187040F6AD
S315000027F00E610DF10602944801F04CFE9DF806C0EC
S31500002800924BACF10100B0FA80F091491A78400978
S315000028100870002A3CD1BCF1010F00F0BC838D4941
S315000028200A608D490A608D4A1278002A32D08C4A95
S31500002830F1EE047A92ED007AB4EEE77AF1EE10FA50
S3150000284040F1F28387490A88013292B20E2A0A8041
S3150000285020D9012200201A7000234FF07C514FF03E
S31500002860020C28700320CAF80030CAF804307E4BE8
S315000028701960596099607D4B40F6075183F800C096
S315000028807B4B1A707B4B18706F4801F015FE01E008
S31500002890724B1B78784BF2EE087A93ED007AB4EE21
S315000028A0E77AF1EE10FA20D593ED007AF7EE007A8A
S315000028B0B4EEE77AF1EE10FA17DD70490A880132B4
S315000028C092B2B2F5FA7F0A80C0F09B8393ED007A4C
S315000028D0F2EE0C7AB4EEE77AF1EE10FA40F1AB8341
S315000028E01B68DFED676A03230FE093ED007AF2EED3
S315000028F00C7AB4EEE77A0021F1EE10FA5F4A118005
S3150000290000F1E581F7EE006A0023D8ED005A99ED53
S31500002910006A65EEA57A26EE065A5A4A77EE857A59
S3150000292092ED007AB4EEE77AF1EE10FA48BFC2ED06
S31500002930007A554A9FED554A92ED007A37EEC77AEE
S31500002940D2ED004A27EE047A9FED515A37EE247AEB
S31500002950F4EE457A82ED007AF1EE10FA327875FEE1
S31500002960277A002A00F0B08000214A4A1160D2ED91
S31500002970004A9FED495A84EE857A484AF7EE007A76
S3150000298082ED007A92ED007AB4EEE77AF1EE10FA73
S31500002990C0F2AA82F5EEC05AF1EE10FAB5EEC06AA0
S315000029A0D8BFF1EE655AF1EE10FA4FF00102D8BF2A
S315000029B0B1EE466A3A4B08211A703A4BDFED306A9F
S315000029C0C3ED005A384B2B4A83ED006A032311707E
S315000029D0364ADFED377A92ED007AB4EEE77AF1EE19
S315000029E010FA80F28E8092ED007ADFED327AB4EE44
S315000029F0E77AF1EE10FAC0F23782DFED2F7AF4EEC5
S31500002A00676A022B38BF0223F1EE10FA77FEA66A38
S31500002A107AE000BF5C370020A50F0020E43A0020D2
S31500002A20DC000020D8000020D4000020D0000020C8
S31500002A3038000020AC3A00206666663FBC000020E5
S31500002A40D83A0020A83A0020103B00209B0F002017
S31500002A50980F00209C0F0020940F0020910F00205B
S31500002A608C0F0020860F0020C83A0020900F00200F
S31500002A70920F0020E5360020800F0020AE040020D3
S31500002A800000000014370020103700206F12833A30
S31500002A900AD7233E680F002009ACDC3F640F0020F4
S31500002AA0E4360020E0360020DC360020C40000209A
S31500002AB00000B4420000A0429A99993EA03A002034
S31500002AC0B43A0020A43A0020BD4A9FEDBE4AD2ED9A
S31500002AD0003AC3EE844A9FEDBC5A77EEE47A92ED53
S31500002AE0007A67EE857A77EE877AC2ED007AD2EDC4
S31500002AF0007AF5EEC07A0021F1EE10FA48BF1160B7
S31500002B0035E7DFEDB26A0323B14ADFEDB27A92ED23
S31500002B10007AB4EEE77AF1EE10FA15DA92ED007A61
S31500002B20DFEDAD7AB4EEE77AF1EE10FAC0F2DD80B1
S31500002B30DFEDAA7AF4EE676A022B38BF0223F1EEC4
S31500002B4010FA77FEA66A02E0DFEDA06A0323A44E20
S31500002B503370C7ED006A3378022B04D900230421B1
S31500002B60A04A2B70117040F605210DF107029E4810
S31500002B7001F090FC9DF807209C49A2F10100B0FAF3
S31500002B8080F00B784009834200F0DA81984F3B8849
S31500002B9001339BB21D2B3B8011D90023012A0870FB
S31500002BA03B800CD09348944A03780133A2FB03126E
S31500002BB002F4FF7101EB52029B1ADBB2037040F67E
S31500002BC00A510DF10702884801F064FC9DF80720C0
S31500002BD08A49A2F10100B0FA80F00B7840098342DD
S31500002BE000F0AA81864F3B8801339BB21D2B3B80A8
S31500002BF00AD90023012A08703B8005D0814A137840
S31500002C00B3FA83F35B0913707F4B1B7803F0FF075E
S31500002C1073B97E4B1B78002B00F0148102242B78AD
S31500002C20002B00F0918144F00404794B1C7006E0FF
S31500002C30774B1C7884F00407C7F38007E4B2E243BD
S31500002C4040F60F5102F00102674801F035FC84F0AE
S31500002C50020240F60641C2F34002634801F02CFC32
S31500002C603A4640F60741604801F026FC84F0080227
S31500002C7040F60151C2F3C0025B4801F01DFC84F02E
S31500002C80100240F60251C2F30012574801F014FC3C
S31500002C9084F02002C2F3401240F60351524801F07C
S31500002CA00BFC5C4A138801339BB2092B05D81380B1
S31500002CB0FDF724FC03B0BDE8F08F00200121564B40
S31500002CC010801970FDF71AFC03B0BDE8F08F93ED84
S31500002CD0007AF7EE007AB4EEE77AF1EE10FA7FF7B3
S31500002CE011AEF6EE006A01230FE692ED007ADFEDF3
S31500002CF04B7AB4EEE77AF1EE10FAFFF628AFDFED85
S31500002D00487AF4EE676A012B38BF0123F1EE10FA18
S31500002D1077FEA66A1BE7434ADFF820911388013342
S31500002D209BB2B3F5FA7F13807FF6EFACD9ED007A4C
S31500002D30F5EEC07AF1EE10FA3B4FD8BFF1EE677AA6
S31500002D4097ED007A40F2DB5E37EE877ADFF8F0C067
S31500002D507345DCF8001087ED007A01F10101CCF82B
S31500002D6000107FF6D2AC002900F0828107EE901A9F
S31500002D70F8EE677AC7EE276A2C4BD3ED007AF4EEAD
S31500002D80E67AF1EE10FA00F36581294900234FF047
S31500002D90000E3B600B78A2F800E00133DBB20B704B
S31500002DA00B78CCF800E00C2B40F24B81214B1A68D3
S31500002DB0214B1A6086F800E081F800E0A5E400BF28
S31500002DC0680F002066662C426F12833A00000000EE
S31500002DD0C00000200000B4420000A0429A99993E2B
S31500002DE0780F0020E5360020103B0020BA000020B6
S31500002DF06E0F0020710F0020ABAAAAAAB90000200E
S31500002E006C0F0020700F0020850F0020AC0F0020F3
S31500002E10840F0020AC0400202805002000008C420E
S31500002E203333333FB8040020B4040020C800002028
S31500002E30A40F0020A00F0020A80F0020A03A002019
S31500002E40B00400203378022B3FF6E8AE3378002B2F
S31500002E5000F0F5802368884AA2FB032313F0100FC5
S31500002E6014BF03240124DAE692ED007ADFED837ABB
S31500002E70B4EEE77AF1EE10FAFFF646AEDFED807AB1
S31500002E80F4EE676A012B38BF0123F1EE10FA77FEE4
S31500002E90A66A39E67B4B7C4A1B6812689B1A7B4AFA
S31500002EA013607B4B1B78002B7FF43EAC794BDFF82D
S31500002EB044A2D3ED001A784BDFF83C82D3ED000A2A
S31500002EC0764B774F93ED000A98ED001A5146754BF5
S31500002ED0754AFDF72FF9DAED017A97ED007A67EE7C
S31500002EE0877ACAED017A82E492ED006A9FED6F7AE5
S31500002EF0B4EEC76AF1EE10FA28DB92ED006A9FED98
S31500002F006C5A36EE477A87EE056AF6EE005A77EE89
S31500002F10C67A67EEA57AF4EE676A022B34BF0223FF
S31500002F200323F1EE10FA77FEA66A51E5554B1A68AF
S31500002F30554B1A60FFF7F3BB00225E4B1A8063E61F
S31500002F4000225D4B1A803AE601276EE692ED007A82
S31500002F509FED4B6AB4EEC67AF1EE10FAFFF638AD85
S31500002F6092ED007AB6EE005A37EE467ADFED535A06
S31500002F7027EE057A87EE256A77EEC67AF4EE676A5B
S31500002F80012B38BF0123F1EE10FA77FEA66A1FE582
S31500002F90DFED4B7A19E440F6B73E4A48DFF85CB1FC
S31500002FA00168013171450160CBF800107FF63BAC3A
S31500002FB04FF07C504FF0000E4FF0020B2A70424A41
S31500002FC0424982F800C083F800C06246DFF830C18B
S31500002FD008604860886040F607513D488CF800B0AC
S31500002FE0CAF800E0CAF804E001F066FA394A3A4B3A
S31500002FF01278002A3FF44EAC1A78002A3FF417AC38
S3150000300048E4D3ED006AB2EE0C7AF4EEC76AF1EE4C
S3150000301010FA7FF577AC93ED007AB4EEE77AF1EE2D
S3150000302010FA3FF75EAE6DE4002101222B4B1980AA
S315000030302B4B1A702EE4DFED226A032365E401248C
S31500003040EDE50A78274B03EB82031A68264B1A60D4
S31500003050FFF75BBBC3ED006A2449224B91F8008061
S31500003060DFF8A0E003EB88031B68CEF800308DE69E
S31500003070DFED1F6A80E600BFD34D621000008C4270
S315000030803333333F60370020583700205437002051
S31500003090DC000020E4000020AC3A00209C3A00202E
S315000030A0BC000020A83A0020D83A00209A99593F3F
S315000030B09899193E6C0F00206E0F00209C99193EBE
S315000030C0000000009C0F0020920F0020C83A00204C
S315000030D0103B0020910F00209B0F0020860F002040
S315000030E0900F002070970000A80F0020A40F00206A
S315000030F00000C642B43A0020A43A0020940F0020F3
S31500003100E5360020A00F0020064A07491378013350
S31500003110DBB213700379012B08BF044A0B7008BF9A
S315000031201370704757050020B10000205E0500208F
S315000031300379023B1E2B11D8DFE803F03F1017106E
S315000031401010111010101010101011101010101077
S315000031501010101010101010101011007047304A87
S31500003160138801339BB2138070472DE9F0412D4C33
S315000031702D492388027A01339BB223800B783F2B9B
S3150000318006D80B78294C581CC0B2DBB20870E25442
S315000031900D2A16D00A2A14D025490B889BB27E2BFD
S315000031A009D800240B889BB2581C80B2088021489D
S315000031B02149C2540C80BDE8F08100221F4B1A70D1
S315000031C070471B4C23889BB20BB31D4D2B78032BEA
S315000031D01DD823889BB23E2B1DD8228892B29046DA
S315000031E0184E194F3078134907EB801003F09CFEF8
S315000031F00023327807EB821707F80830337801335B
S3150000320003F0030333702B780133DBB22B700023FA
S315000032102380BDE8F0814FF03F084246E0E700BF5B
S31500003220CE050020D0050020880500208C05002052
S31500003230E00E0020E40E0020D4050020DC0D002066
S31500003240DD0D0020DF0D0020E00D0020FFFFFFFF59
S315000032509FED010B704700BF000000000000F07FEB
S315000032609FED010A704700BF0000807FFFFFFFFF50
S315000032709FED010B704700BF000000000000F0FF4B
S315000032809FED010A704700BF000080FFFFFFFFFFB0
S315000032909FED010B704700BF000000000000F8FF23
S315000032A09FED010A704700BF0000C0FF08B5FFF799
S315000032B0EFFF0E4B83ED000BFFF7F2FF0C4B83ED98
S315000032C0000AFFF7C5FF0B4B83ED000BFFF7C8FFA6
S315000032D0094B83ED000AFFF7CBFF084B83ED000B8C
S315000032E0FFF7CEFF064B83ED000A08BDF83A002033
S315000032F0E83A0020083B0020F03A0020003B00207E
S31500003300EC3A002008B5FEF719F8002008BD00BF0A
S315000033102DE9F043C36B06795C6846712388A94F93
S315000033201D0A2D0155FA83F357F82330C3F34003E2
S315000033309B00037165884FEA152C4FEA0C1C5CFA5A
S3150000334085F557F8255005F002052B430371A5882E
S315000033504FEA152C4FEA0C1C5CFA85F557F82550F8
S31500003360C5F3400E4EEA030E80F804E0002E00F08E
S31500003370C480038EA58C9D4284BF013303860389D6
S3150000338001339BB20381B4F82880984528BF98463C
S315000033907645A0F8088000F0B380A31D9C4690F8FF
S315000033A0069004F10C0580F807901CF8017F77451C
S315000033B005D11CF8017CB74204BF0127877165451A
S315000033C0F3D113F801CBE64504D11F78B74204BF09
S315000033D0002787719D42F4D1857D6B1CDBB2062BDD
S315000033E028BF002300EB4505A5F80A80867983757A
S315000033F0B14500F0AD8000273D46BC46E38C63F343
S315000034000F0763F31F47C0F80A70E78C984667F307
S315000034100F0567F31F45C0F80E50E58CB94665F3F6
S315000034200F0C65F31F4CC0F812C0AC4643443B4436
S315000034304B442B44634407EE903A9FED637AF8EED3
S31500003440E77A87EE276A012E1ABFB1EE466A9FED2C
S315000034505F7A9FED5F7A002380ED076A80ED067A3A
S315000034600381D4ED046ADFED5B7A66EEA76A66EE49
S31500003470866AC0ED086AD4ED057A6FF00407DFEDC1
S31500003480564A9FED515ADFED555A37EE277A631D9E
S3150000349004F10B063F1B9C4613F8015F75450DD1E1
S315000034A007EB0C0507EE905AF8EEE77A67EEA47A7A
S315000034B067EE857A87EEA56A37EE067AB342EAD1D9
S315000034C0DFED417AB4EEE77AF1EE10FA31DD37EE50
S315000034D0677AF0EEE67A94ED0B6AB4EEE76AF1EEFF
S315000034E010FA03DD90F83830012B3BD0002380F82A
S315000034F03830C2ED006A81ED007A0020BDE8F08325
S3150000350090ED067AD0ED076ADFED307A37EE267A4F
S31500003510B4EEE77AF1EE10FA80ED067A11DCDFED13
S315000035202C7AB4EEE77AF1EE10FA0AD4D0ED086AF6
S31500003530A1E7B5EEC07AF1EE10FA48BF37EE277A6A
S31500003540C7E7C0ED067AD0ED086AB0EE677A92E773
S315000035504389B0F80C80C789B0F81090458AB0F856
S3150000356014C063E7A58C038E9D421AD890ED0D6AB0
S31500003570B5EEC06AF1EE10FAD0ED0A6AD0ED0B7A1C
S3150000358012DB76EEA76AC0ED0A6AD4ED077AF4EE8E
S31500003590E76AF1EE10FAACDDC0ED0A7AF0EE676A82
S315000035A0A7E7DFED0F6AA4E776EEE76AC0ED0A6AE1
S315000035B0D4ED077AF1EE677AF4EEE76AF1EE10FAE7
S315000035C097D5E9E700F80140DB0FC940920A063FAC
S315000035D0920A06BF00007A44000070420000B4431D
S315000035E00000000070B5C16303464868F7EE006A44
S315000035F090ED047AC6EE877AC3ED0B7A90ED077AE2
S3150000360067EE877AC3ED0B7AD0ED086A87EEA67A65
S315000036104FF0000E0024012583ED0B7A0F4E48680B
S3150000362003F1080203F1140C5E6083F83850C3F806
S3150000363018E0C3F81CE0C3F820E0C3F828E0C3F89C
S3150000364034E01C819C751C86C18C22F8021F6245E1
S31500003650FAD1034A00201A6070BD00BF00000101C4
S315000036604853544D2DE9F0411D4683689DF818C016
S315000036701E6E002E5FD1BCF10F0F04460F46C0E947
S315000036800312C0E90566C56180F820C04CD8BCF1BC
S31500003690070F94BF4FF000084FF00108636859699F
S315000036A0C9B14FF0020CA5615B69A8B259680968F7
S315000036B0C881C8788A6068F30510C87088786CF38A
S315000036C083008870002A3AD09A6818685368984729
S315000036D000282CD163681A699AB1022065611A69BB
S315000036E0ADB253681968CB78CD8168F3051360F3E2
S315000036F083034F60CB704FB3936810685B6898473D
S31500003700A8B90121A26894F82000536923F4F8139C
S3150000371043EA00435361A3683046D966A2689368BA
S315000037200B439360BDE8F0814FF00208B6E706460A
S315000037303046BDE8F08108263046BDE8F081C0B2CB
S3150000374062F38300054A88708A60BDE7DBB267F3DF
S315000037508303CB70024B4B60CEE700BF903C00204A
S315000037608C3C002010B49DF8044001945DF8044B95
S31500003770FFF778BF30B5836A85B004468C4601AD45
S31500003780ABB193E8070085E807006268184612782F
S3150000379083F804C01A60E26A9A60636A9847A36A6B
S315000037A01BB195E8070083E8070005B030BD2B463E
S315000037B0EBE700BF2DE9F0470B78D1F8108003F551
S315000037C0800303F58D530D4604461F02B8F1000F22
S315000037D013D04FF00062D8F804301B681A60D8F88E
S315000037E004301B689F60D8F80830D8E900011B68D0
S315000037F098470646002840F01A816B6983B14FF45A
S3150000380000215A68126811605A68126857609A68EF
S31500003810D3E90001126890470646002840F00A8165
S3150000382000236560A9698C4A6162E969C4E90A31C5
S315000038302B7803F5800303F58D531B02A3606E7A84
S31500003840697B002E18BF4FF44412EF7A2B6AA87AD0
S31500003850090341EA47010143D87942EAC072187860
S31500003860002840F0F380B6FA86F0400941EAC0111C
S31500003870587808B942F400329D7842EA0070DA7846
S315000038801F7A954045EA072A1F7912062FB1022FA3
S315000038900CBF4FF440174FF4001793F805C0BCF166
S315000038A0000F06D0BCF1010F14BF40F4807040F445
S315000038B0407093F809C00CF0030C42EA8C020A43EC
S315000038C093F806C0002E40F0C4801E7BD97A3604D9
S315000038D09B7A46EA012642F460421E43EFF31088C3
S315000038E0012181F310886368DFF884E11B78DEF834
S315000038F00490C3F1130301FA03F329EA0303CEF894
S315000039000430DEF8043088F31088544BA568AB66A3
S31500003910A368534DC3F810A0A3685E60A368DF6078
S31500003920A3685A61A36820F08042C3F840C0A36828
S315000039309A60A3689A68986063684A489E7993F982
S3150000394002303601484AEF18F6B287F8006340F8AD
S31500003950234003F1C00652F8267027F4803742F858
S31500003960267052F82660BFF35F8F5E09B60003F03B
S315000039701F0306F1604601FA03F306F56146C6F831
S315000039808031336063685E7993F901303601EF1850
S31500003990F6B287F8006340F8234003F1C00652F8F8
S315000039A0267027F4803742F8267052F82660BFF357
S315000039B05F8F5E09B60003F01F0306F1604601FA49
S315000039C003F306F56146C6F8803133606668337ADC
S315000039D096F904601B01AF19DBB287F8003340F893
S315000039E0264006F1C00352F8237027F4803742F8C8
S315000039F0237052F82330BFF35F8F73099B0006F0E4
S31500003A001F0603F16043B14003F56143C3F880111B
S31500003A1019600026636893F90320DB7915441B01BE
S31500003A20DBB285F80033114B40F822402360304664
S31500003A30BDE8F087B8F1000FF9D0D8F80830D8F80B
S31500003A4000001B6A98473046BDE8F08742F0807256
S31500003A500EE7002642E700BF00103140000080FD5F
S31500003A6000E100E0DC3C0020006000404950535279
S31500003A7000400840EFF30383103B1F4A5BB203F19B
S31500003A80C00152F8210020F4803042F8210052F89B
S31500003A9021201A4A52F82330D3E906218A421CD043
S31500003AA01869996828B393F820C00968BCF10F0F0C
S31500003AB00FD8BCF1070F8CBF20F8121081549968FB
S31500003AC04FF000408866D969013291429A6104D06C
S31500003AD0704740F822109968F2E75B6893F9033063
S31500003AE0012203F01F0006495B09824041F82320AA
S31500003AF070470868E4E700BF00600040DC3C002037
S31500003B0000E100E030B4EFF30383103B31495BB2D0
S31500003B1003F1C00251F8220020F4803041F822005F
S31500003B2051F822202C4A52F823305D68DC692A6A53
S31500003B3050785A6901281CD0A2420FD0D3E902015D
S31500003B40A9B193F820400F2C0AD951F82210016030
S31500003B504FF000509968013288665A6130BC704750
S31500003B60072C03D931F812100160F1E7895C016076
S31500003B70EEE704F1FF3C62450ED029690029DBD04F
S31500003B8095F90320154902F01F04A040520941F897
S31500003B9022005A69DC69CFE795F9034004F1C002B7
S31500003BA051F8225025F4803541F8225051F8222050
S31500003BB0BFF35F8F6209920004F01F0402F16042B6
S31500003BC000FA04F402F56142C2F8804114605A69B1
S31500003BD0DC69B1E700600040DC3C002000E100E069
S31500003BE030B4EFF30382103A2E4953B203F1C0000A
S31500003BF051F8204002F0FF0224F4803441F82040BE
S31500003C0051F82010284951F823008168096D89016F
S31500003C1005D54168497A012901D030BC7047012198
S31500003C20224C5B0902F01F02203301FA02F244F82B
S31500003C302320BFF34F8FBFF36F8F436893F9023092
S31500003C405A0903F01F0301FA03F3203244F8223025
S31500003C50BFF34F8FBFF36F8F8468124BA26822F0B9
S31500003C600102A260426892F9022002F1C00453F8F0
S31500003C70245025F4803543F8245053F82430BFF3FC
S31500003C805F8F53099B0002F01F0203F1604301FAA4
S31500003C9002F203F56143C3F880211A6030BCFFF7D6
S31500003CA069BD00BF00600040DC3C002000E100E090
S31500003CB070B5EFF30383324A103B5CB252F82460CE
S31500003CC0012273682F4893F90230590903F01F0344
S31500003CD0203102FA03F340F82130BFF34F8FBFF3D0
S31500003CE06F8FB1688B6823F001038B607368264978
S31500003CF093F9023003F1C00051F8205025F48035C5
S31500003D0041F8205051F82010BFF35F8F03F01F01D8
S31500003D105B099B0003F160438A4003F56143C3F8E6
S31500003D2080211A60B368194A1D6D9A662A0112D459
S31500003D30EB0116D405F0A055B5F1A05F1AD0124AD2
S31500003D4004F1C00352F8231021F4803142F8231005
S31500003D5052F8233070BD05213046FFF70BFDEB010D
S31500003D60E8D50421304605F0A055FFF703FDB5F16F
S31500003D70A05FE4D108213046FFF7FCFCDFE700BF77
S31500003D80DC3C002000E100E000600040000080FD17
S31500003D90844610B4006A836823F440138360DCF819
S31500003DA02040A36C5800FCD5A36823F01003A36041
S31500003DB0DCF82040237FC3F30010DB06FAD4CCE9FD
S31500003DC00312A36843F01013A3605DF8044B704719
S31500003DD0F0B5846A85B005460F4694466E46B4B182
S31500003DE094E80F0086E80F00EB6920461B78A76071
S31500003DF0236084F804C0EB6AE3606B6A9847AC6A98
S31500003E001CB196E80F0084E80F0005B0F0BD3446FB
S31500003E10EAE700BF3C4B4168994272D170B4016A2F
S31500003E2002468B6823F440138B60016A8B6823F08B
S31500003E3010038B60006A037FC3F30011DB06FAD41C
S31500003E400120D369314C93F907304FEA531C03F034
S31500003E501F030CF1200C00FA03F344F82C30BFF3D7
S31500003E604F8FBFF36F8FD36993F909304FEA531C15
S31500003E7003F01F0300FA03F30CF1200C44F82C3076
S31500003E80BFF34F8FBFF36F8F156AAB6823F4803390
S31500003E90AB60D36993F905304FEA531C03F01F0357
S31500003EA000FA03F30CF1200C44F82C30BFF34F8FCB
S31500003EB0BFF36F8FD36993F90B304FEA531C03F0AE
S31500003EC01F0300FA03F30CF1200C44F82C30BFF367
S31500003ED04F8FBFF36F8FEFF3108480F310884FF08E
S31500003EE00043D6690A4896F800C0456823FA0CF3E1
S31500003EF02B434360436884F310885160084670BCC6
S31500003F0070470720704700BF4249435300E100E075
S31500003F10004008402DE9F04300264FF0010C0A78D6
S31500003F20067002F5800202F58C521202C0E90712F1
S31500003F304A69034642628A69D04DC0E90A628278BC
S31500003F40CC696CF3010282704A78B24214BF6046B3
S31500003F5002209A7860F301029A7091F90B0091F8A9
S31500003F600AE0420900F01F0720320CFA07F745F86D
S31500003F702270BFF34F8FBFF36F8FC14A00F1C007A6
S31500003F8052F8278066F3104842F8278052F82770C7
S31500003F90BC4F4FEA0E1E05EB00085FFA8EFE88F84E
S31500003FA000E347F8203091F9050091F804E04FEA64
S31500003FB0501800F01F0908F120080CFA09F945F815
S31500003FC02890BFF34F8FBFF36F8F00F1C00852F8F0
S31500003FD0289066F3104942F8289052F828804FEA54
S31500003FE00E1E05EB00085FFA8EFE88F800E347F820
S31500003FF0203091F9070091F806E04FEA501800F0DA
S315000040001F0908F120080CFA09F945F82890BFF3B2
S315000040104F8FBFF36F8F00F1C00852F8289066F3F8
S31500004020104942F8289052F828804FEA0E1E05EBF8
S3150000403000085FFA8EFE88F800E347F8203091F911
S31500004040090091F808E04FEA501800F01F0908F13E
S3150000405020080CFA09F945F82890BFF34F8FBFF3F3
S315000040606F8F00F1C00852F8289066F3104942F8A5
S31500004070289052F828204FEA0E12D2B2054485F84D
S31500004080002347F82030EFF310868CF310884FF0AA
S31500004090004508787C4AC540506820EA0500506013
S315000040A0526886F310884FF480601A6A90604A78E6
S315000040B0CD78C8691202AD0305F4804502F440725A
S315000040C02A43057846682D0605F040752A4345784B
S315000040D0ED03ADB22A43457B6D0505F400152A4371
S315000040E01D6A42F480526A610578AA1E624540F252
S315000040F0BE8032681D6A2A61057B8A7805F0030551
S3150000410045F0300532B1022A14BF4FF440724FF425
S31500004110807215434FF0000C012640F21F2782786B
S31500004120120702F080522A431D6AEA601A6AC2F830
S3150000413018C00A7806FA02F23A4202D01A6A5349BD
S315000041405162827BC57B017C02F0010205F01F00F3
S3150000415042EA002200201D6A01F01F0142EA0142E4
S315000041602A63C3E90300C3E90500196A6489484D57
S315000041701C818D66D969424A91F9051001F1C00486
S3150000418052F8245060F3104542F8245052F8244067
S31500004190BFF35F8F012501F01F044909890001F172
S315000041A0604101F5614105FA04F4C1F880410C60F3
S315000041B0D96991F90B4004F1C00152F8216060F30E
S315000041C0104642F8216052F82110BFF35F8F610953
S315000041D0890004F01F0401F1604105FA04F401F5B9
S315000041E06141C1F880410C60D96991F9074004F139
S315000041F0C00152F8216060F3104642F8216052F87F
S315000042002110BFF35F8F6109890004F01F0401F1DB
S31500004210604105FA04F401F56141C1F880410C6082
S31500004220D96991F9091001F1C00452F8246060F3CC
S31500004230104642F8246052F82420BFF35F8F4A09E3
S31500004240920001F01F0102F160428D4002F56142C9
S31500004250C2F8805115600F491A6A9160196A0A7F7F
S31500004260D207FCD50C4A00205A60BDE8F0830B4A01
S315000042700B4E022D18BF32463CE700BF00E100E0BE
S3150000428000600040DC3C00200040084000001F1F8A
S315000042901000079D110401004249435324FF00FF0B
S315000042A004FF00FFEFF30383103B204A5BB203F1E8
S315000042B0C00152F8210020F4803042F8210052F863
S315000042C021201B4A52F82300C3691B6983B1036985
S315000042D003B17047026A0021936823F4801343F404
S315000042E000139360436AC160C3B18022FFF770BDBB
S315000042F00369026A002BEED08378C16803F00303DA
S31500004300022B0CD00B7813718278D0E9031302F0DC
S3150000431003029B1A1144C0E90313D9E770470B88BF
S3150000432023F4DC439BB25360EEE700BF006000401D
S31500004330DC3C002010B582B0EFF30383103B1F4A2C
S315000043405BB203F1C00152F8210020F4803042F83C
S31500004350210052F821201A4A52F82340A27802F08E
S315000043600303022B236A0CBF19681978A3690CBFD3
S31500004370C1F30801C9B2019143B9636AB3B104221A
S31500004380204602B0BDE81040FFF722BD02F003024E
S3150000439001A9606902F0C8FDD4E90521A37803F0FC
S315000043A003031A44C91AC4E9052109B102B010BDB4
S315000043B0636A002BFAD00122E2E700BF00600040EA
S315000043C0DC3C002010B5EFF303830F4A103B5CB2D0
S315000043D052F82400026A936823F4401323F0100372
S315000043E09360436A1BB102220021FFF7F1FC074AE2
S315000043F004F1C00352F8231021F4803142F823104F
S3150000440052F8233010BD00BFDC3C002000600040A5
S3150000441038B5EFF303831D4A103B5CB252F8240013
S315000044208378056A03F00303022B0CBF29682978F9
S31500004430AA6C08BFC1F30801C2F30073C2F3006C93
S315000044404FEA031343EA4C13C2F3C06243EAC20CB9
S3150000445018BFC9B2DB06624604D5AB6C1B0458BF55
S315000044604CF04002AB6E43F0C853AB66436A0BB1E7
S31500004470FFF7AEFC064A04F1C00352F8231021F4FC
S31500004480803142F8231052F8233038BDDC3C00203E
S315000044900060004010B40B0A064C1B0153FA81F170
S315000044A054F821300020C3F340035DF8044B137029
S315000044B0704700BF00F801400120CBB2984080B29F
S315000044C002B900040B0A5B0103F1804303F5F833DC
S315000044D098600020704700BFF0B5EFF3108201230B
S315000044E083F31088224E33681BB922490B7340238D
S315000044F00B7333680133336082F31088038823B368
S3150000450000211D4D08E01B01134445F82340028895
S3150000451001318BB29A4218D9436853F8314003EB04
S31500004520C1029288E7034FEA1223D2B2EBD502EB1F
S31500004530031C55F82CE024F480372EF4803E45F811
S315000045402CE01B0145F82C70DEE7EFF31082012307
S3150000455083F31088336813B13368013B33603368E3
S315000045601BB9802003490B73087382F31088F0BDD2
S31500004570D83C002000FD014000F8014008B5034B7F
S3150000458003600846FFF7A8FF002008BD54524F50AD
S3150000459030B4EFF31084012383F310881D4B1868A1
S315000045A028B94FF0400C1C4D287385F80CC01868CC
S315000045B00130186084F31088D4034FEA1120C9B281
S315000045C019D40001154C084444F82020EFF310825A
S315000045D0012181F31088196811B119680139196030
S315000045E01B681BB980200C490B73087382F3108873
S315000045F0002030BC7047094C01EB001C54F82C50CD
S31500004600000125F4803544F82C5022F4803544F816
S315000046102C50D7E7D83C002000FD014000F80140AF
S3150000462003465A681B69002053607047034610B45E
S31500004630043900F10C0C53F8044F51F8042F62654D
S315000046401C68A265027D022A0BD0826952685268F4
S315000046501278062A05D06345EDD100205DF8044B9B
S3150000466070471C68CA68E2651C682266F3E700BFEB
S315000046702DE9F04106460D4607460C4601F10C08A9
S3150000468054F8043FD3E9000100F0CAF923681B6817
S315000046909B6847F8043F2A78022A03D11A6C42F431
S315000046A020221A644445EBD16A69044B32612A78A8
S315000046B0B561327533600020BDE8F0813354504750
S315000046C003460020D3E90223936070470346002087
S315000046D0D3E902235360704703460020D3E902233F
S315000046E0D3607047034670B45A689E68D26900204A
S315000046F0D2E9011444F00045D46875619D6844F020
S315000047000044AC619C6841F00041216114699968DC
S315000047104C629B6852699A6270BC704703464FF0C0
S315000047200041002210B49C68104621619C686161BA
S315000047309C68A16199684A629B689A625DF8044B1D
S31500004740704700BF43681B78032B88BF0A468368FF
S3150000475098BF01F1FF329A6643681B782BB98368CC
S31500004760490801395965836899658368D96AC90713
S3150000477007D44FF4AA015A6683681964D0E9023255
S31500004780DA600020704700BF03469B681232013989
S3150000479003EB820300205960704700BF03469A6806
S315000047A00020D26AC2F300020A719B689B6C0B6000
S315000047B0704700BF84460020CCE90632CCF81410BE
S315000047C0704700BF70B5836984B004468C461646B0
S315000047D001AD9BB193E8070085E8070083F804C0A4
S315000047E09E60E26918461A6063699847A3691BB11F
S315000047F095E8070083E8070004B070BD2B46EDE797
S31500004800D0E9012312785B6E032A98BF01338B60CF
S3150000481080680B4A0B4BC06A126A1B68C2F3026CB3
S3150000482003FA0CF34FF0010C02F00702C0F3C35079
S31500004830D340C3404B60002081F800C0704700BFE2
S3150000484000E001401C3D002010B490F800C0886EC6
S31500004850BCF1030F1ED80130AAB9019C496BE407CD
S3150000486054BF01F01F01C1F3044101F00C01A1F195
S315000048700401B1FA81F14909E2B921BB02225DF8CE
S31500004880044B5A6070479042E7D9013A5DF8044BF1
S315000048901A6070470AB19042F8D8019C496BE40748
S315000048A054BF01F01F01C1F30441090981F0010160
S315000048B0002AE2D0824201D30029DFD103225DF82B
S315000048C0044B5A6070470028D8D0F7E7FFFFFFFF78
S315000048D09FED397B2DE9F04385B00092866802ABE7
S315000048E0074688461446406802F003090A463146E0
S315000048F08DED027BFFF7A8FF039B356B93B914F090
S31500004900080F14BF04220222A107029820D502F143
S31500004910120106EB81014860B968133201EB82018E
S315000049204860BE6862061BD5326CB9F1010F42F4CD
S315000049308002326427D025F44035BE6845EA034537
S31500004940B9F1000F16D10020356305B0BDE8F0833C
S315000049504A44123206EB820250606206BE68E3D415
S31500004960B9F1010F23D025F44035022C45EA034561
S31500004970E6D173B925F0407545EA03650020356335
S3150000498005B0BDE8F08325F04075BE6845EA0365CD
S31500004990F4E70121786802AB009142463146FFF701
S315000049A053FF039B25F0407545EA0365E6E7022CB5
S315000049B0E0D1DEE7AFF30080FFFFFFFF000000005D
S315000049C0002800DA704710B400F160430901124C68
S315000049D0C9B203F5614383F80013104B44F8202055
S315000049E000F1C00253F8221021F4803143F822105E
S315000049F053F82230BFF35F8F012243099B0000F07A
S31500004A001F0003F1604303F561438240C3F8802130
S31500004A101A605DF8044B7047DC3C002000600040E3
S31500004A202DE9F04301270B7C002607FA03F3C36048
S31500004A30C3F30903B3FA83F35B09416003740B7C88
S31500004A40A94ADFF8B4C21A44120282604B690D46C5
S31500004A5043618B690446C0E9066385B0CE69CCF82C
S31500004A60007BEFF3108187F31088A04B1A6922F0C0
S31500004A7000421A611B6981F31088C3681B070CD0BA
S31500004A80EFF3108187F31088994AC06853889BB268
S31500004A9023EA0003538081F310884FF42541002355
S31500004AA0A2681160A268D362A268D363A268936405
S31500004AB029782B7A6A6803294FEAC35302F1FF303B
S31500004AC000F04A8184BF104643EA01434FF000429A
S31500004AD00021A7689FED827BFB62A3688DED027BB8
S31500004AE01A61A3685A61A3689A61A3685962A368A8
S31500004AF09962A368B269DA61A368F2691A62A36867
S31500004B009866A36858662B78D6F83880002B40F054
S31500004B100F8101234FF0030C6A68A7685208013A17
S31500004B2002927A65A1688A652978032903D9A16862
S31500004B30CA65A1680A66B26BBAB932788AB12F78AB
S31500004B407278022F4FEA82104FEA021100F00C81B0
S31500004B5040F21381032248EA020202430A4342F466
S31500004B608078B278002A40F0C9806268D26992F8EB
S31500004B703010C80705D5916AA0680139C16492F85A
S31500004B803010890703D5D26AA168013A0A65012166
S31500004B902A7C01FA02F2C2F30902002A42D000205E
S31500004BA0A2685064776BD4F808E0002F00F0B58057
S31500004BB0287CBA7897F8039001FA00F01206C0F341
S31500004BC0090042EA0972002836D0B868002800F0C9
S31500004BD0C680CEF888104FF0010EA168B868C1F8FB
S31500004BE08C00297C0EFA01F1C1F30901B9B1A16863
S31500004BF0F868C1F89000787E397E000240EA81109C
S31500004C00B97E40EA0130A1684864A168386997F81E
S31500004C1004E00867A168786942EA0E42C867D4F8DA
S31500004C2008E009E0776BD4F808E0002F75D0FA7831
S31500004C30B978120742EA0162CEF83820B26B7AB927
S31500004C403A7FF97E520642EA412248EA020896F87D
S31500004C50212096F82010520742EA413248EA02081B
S31500004C6096F83020002A14BF4FF4A0014FF4AA0191
S31500004C70A26811642A78012A04D10021A268D164AD
S31500004C80A2681165A268C2F83480A268C2F830C072
S31500004C90A2681363D4E90232DA60697C224695F988
S31500004CA01200FFF78DFE224696F8221096F9240090
S31500004CB0FFF786FE224696F8231096F92500FFF7A1
S31500004CC07FFE2FB12246397897F90100FFF778FE6B
S31500004CD00020084B236005B0BDE8F083AFF30080E9
S31500004CE0FFFFFFFF00000000901640000040084054
S31500004CF000A016405450470000901640F1782878DE
S31500004D000A01022842EA811230D03BD903210A4324
S31500004D1048EA024242F0807827E70027CEF838704A
S31500004D20A268C2F88870B26B002A99D117468EE73E
S31500004D30012BA7681CD00091EA68394602AB60686F
S31500004D40FFF782FDDDE902210B0643EA014343F04A
S31500004D50030C43F00103E4E643F48033B6E6F96856
S31500004D60003918BF012134E70922F4E60921CEE70C
S31500004D704FF0030C4FF0FF32D3E6002A0CBF062299
S31500004D800922E8E600290CBF06210921BFE700BF7A
S31500004D9030B44268034692F91210D269002910DB3A
S31500004DA0012401F01F05AC4048092B4D203045F881
S31500004DB02040BFF34F8FBFF36F8F0024274840F882
S31500004DC0214092F92410002910DB012401F01F056F
S31500004DD0AC404809204D203045F82040BFF34F8FA6
S31500004DE0BFF36F8F00241D4840F8214092F925102B
S31500004DF0002910DB012401F01F05AC404809164DBF
S31500004E00203045F82040BFF34F8FBFF36F8F00244B
S31500004E10124840F82140526BA2B192F90120002AB3
S31500004E2010DB01200C4C510902F01F052031A8406F
S31500004E3044F82100BFF34F8FBFF36F8F002007495F
S31500004E4041F822000020D3E90221186091609B6896
S31500004E50586330BC704700BF00E100E0DC3C002036
S31500004E6082680129536B02D043F4807309B143F081
S31500004E708073002053637047F0B5EFF30382103A56
S31500004E80214C51B201F1C00C54F82C3023F480337C
S31500004E9044F82C308B0003F1804303F5C043D3F86C
S31500004EA000031A4850F82100456895F800E0BEF165
S31500004EB0010F08D043692BB1BDE8F040002211462E
S31500004EC0FFF780BCF0BD0025D0E90267B7608668B1
S31500004ED002F0FF02B5648668F5648668356554F8A5
S31500004EE02C6065F3104644F82C60D3F80033BFF30A
S31500004EF05F8F074C4B0902F01F020EFA02F2603375
S31500004F0044F82320D6E700BF00600040DC3C0020C8
S31500004F1000E100E0844630B482B0019100921D4960
S31500004F2090F904201C4D51F82200C03255F8221089
S31500004F301A4C21F0807145F822109CF9041041F4B6
S31500004F400041E28992B29142FBD008222274019A72
S31500004F500AB1019A4260009A0AB1009A8260C27848
S31500004F6002F0C001802913D03F2A98BFC3811822BE
S31500004F7000200A4B08491A749CF90430C03351F8D2
S31500004F80232042F0807241F8232002B030BC7047E3
S31500004F908381ECE7000000200060004000540040E0
S31500004FA00620704706207047034693F904300549EA
S31500004FB0C03351F82320002042F0807241F82320AC
S31500004FC0704700BF00600040034693F9043005496E
S31500004FD0C03351F82320002022F0807241F82320AC
S31500004FE0704700BF00600040002290F90400124B99
S31500004FF053F82030C1E90022DA783F2A0CD94FF461
S3150000500080728A60DA89D2B2CA60DA7802F0C002A7
S31500005010802A09D0002070474FF480328A60DB89ED
S3150000502000209BB2CB6070474FF480320A609B89A8
S3150000503000209BB24B60704700000020062070479E
S31500005040062070470346002230B593F904C0074C8A
S315000050500CF1C00E54F82E10054D21F0807144F865
S315000050602E1045F82C201A60104630BD0060004016
S315000050700000002030B5864690F904301C4DC03340
S3150000508055F823201B4C22F0807245F8232090F916
S31500005090042042F40042E3899BB29A42FBD00B46BD
S315000050A0DA789C463F2A05D9DA89D2B202EB022287
S315000050B092B2DA819CF8022010333F2AF0D84FF0E2
S315000050C0080C18220B4B0C4D83F810C09EF904C037
S315000050D0074C45F82C101A749EF904300020C03392
S315000050E054F8232042F0807244F8232030BD00BFDC
S315000050F0006000400054004000000020F8B5274A38
S31500005100044613780D4643B36B6893F90030002BC1
S315000051103FDB234850F82320002A3CD123712D6819
S31500005120BDB12B46DA7819463F2A05D9DA89D2B2BB
S3150000513002EB022292B2DA818A7810333F2AF1D842
S3150000514008211822174B197494F9041040F82150BD
S315000051501A74154B00202360F8BD01261670EFF374
S31500005160108086F31088114A116821F480011160BD
S31500005170126880F310880A4F19463422384601F027
S3150000518087FE084B5F611E736B6893F90030002B36
S31500005190BFDA0B20F8BD0820F8BD00BF943C002004
S315000051A000000020005400400043544400400840E2
S315000051B0844610B40A4ADCF80430D2F8084C0B4096
S315000051C02343C2F8083CDCF80840D2F8103C2140E2
S315000051D01943C2F8101C00205DF8044B704700BF4D
S315000051E000001740084BD3F8802C0378013B032BB3
S315000051F005D9131E18BF012300200B707047022328
S3150000520000200B70704700BF0000174003461A7855
S31500005210052A17D8DFE802F02A2E1D1803034FF0DF
S31500005220050C1A691949506990F8902002F0070296
S31500005230C1F8802290F89020C2F30212C1F88C22A5
S3150000524083F800C00020704702224FF440701A70A5
S31500005250704704210D4A1970D2F88C124907D6D02E
S3150000526007234FF48060C2F88C3270470122032076
S315000052701A7070470321054A1970D2F88012480740
S31500005280C5D007230420C2F88032704700001740BB
S315000052900023F0B50161CA68044642610A690370D9
S315000052A0C0E906324969EFF31080012383F31088C1
S315000052B06C4BDA6822F48032DA60DA6880F31088A0
S315000052C00A7F02F00302012A0AD1EFF3108082F36B
S315000052D010881A6922F000421A611B6980F310884F
S315000052E000230A6A6048C26003604368002BFCD151
S315000052F00125CA6982605C4A056050680128FCD1B4
S315000053000025486A584E10645564D1F89C50081F11
S31500005310C2F8605291F8905005F00705C2F8805225
S3150000532091F89050C5F30215C2F88C52D1F89450FA
S31500005330C2F88852D1F89850C2F894524D69C2F812
S3150000534040538D69C2F8445350F8042F03F1B00559
S31500005350013342F48032042B46F82520F4D10B7C2D
S31500005360424D1804002B18BF40F00100C6F8000398
S31500005370486E3F4BC6F86402886E01F19C02C6F87F
S31500005380B00252F8040F043343F8040C106AAB421F
S31500005390D861506C1864F4D1002240F2FF174FF028
S315000053A0010ED1F8E000304B324EC3F8A003C3F82B
S315000053B00024C3F80424C3F80824C3F80C240A8F75
S315000053C02D4DC3F8C0244A8F2C48C3F8C424CA6B99
S315000053D0C3F8C8240A6CC3F8CC244A6CC3F8D0249A
S315000053E08A6CC3F8D424CA6CC3F8D824C3F8F07CFA
S315000053F023695B69DB6E03F11C0103F1380C11F9BB
S31500005400013B002B21DB11F81D2CF7181201D2B23B
S3150000541087F8002303F1C00245F8234050F82270B4
S3150000542027F4803740F8227050F82220BFF35F8FB0
S315000054305A09920003F01F0302F160420EFA03F3C9
S3150000544002F56142C2F8803113606145D7D103226B
S315000054504FF44035044B0A499D621A625A626162F2
S315000054600020F0BD004008400000174080031740B0
S315000054706003174000E100E0DC3C002000600040D3
S315000054804843444100222DE9F04F82468B4601698C
S315000054908D4B8E4C496985B0027043F8102BA342A0
S315000054A0FBD1CA6A8A4B8B48DA640A6B01F18C0419
S315000054B01A654A6B401A5A650A6DC3F8C0214A6DCF
S315000054C0C3F8C4218A6DC3F8C821CA6DC3F8CC21BC
S315000054D00A6EC3F8D02101F16C03C21853F8041FF9
S315000054E0A3421160F9D10027CAE901779BF8002091
S315000054F0002A00F0E58051465B46BA46BB461A468E
S315000055000846754E0121536853F8275095F800C098
