S00B00003030302E7372656389
S31500000000384E0020495E0000815C0000455E00001D
S31500000010455E0000455E0000455E0000455E00004E
S31500000020000000000000000000000000455E000027
S31500000030455E000000000000455E0000455E0000D1
S31500000040714F000045590000ED5900009D5A00000F
S31500000050714F00002D4400009D430000BD44000088
S31500000060094500006D3B0000FD3B0000D93C000047
S31500000070A93D00000348044B834202D0034B03B161
S3150000008018477047D0020020D00200200000000070
S31500000090064B0749C91A891048BF0131491003D0D8
S315000000A0044B0BB101481847704700BFD00200202F
S315000000B0D00200200000000010B5064C237843B99A
S315000000C0FFF7D8FF044B13B10448AFF300800123B8
S315000000D0237010BDF002002000000000E8A400001C
S315000000E008B5054B1BB105490548AFF30080BDE8CF
S315000000F00840FFF7CDBF00BF00000000F40200205B
S31500000100E8A40000082010B503F04CF94FF00332C4
S3150000011040F20110044B054C0549C3E90022DC609E
S315000001209A60A1F86F0010BD0C03002003030301C1
S315000001301C03002070B52DED028B6D4CA5686E1C5E
S315000001401CBF0135A560A57B002D6DD140F20110C5
S31500000150E0814FF0000C0020C2F800C0187094ED4A
S31500000160007A9FED646ADFED646A27EE067A60EE38
S31500000170A66A37EE267A614D37EE608AD5ED047AA7
S31500000180012684ED007A68EE277A9FED5D7A84ED8C
S31500000190017A77EE877A9FED5B7AF4EEC77A0023D1
S315000001A0F1EE10FA0B6028DC9FED577AF4EEC77A71
S315000001B0F1EE10FA65D581ED017A544BD3E90001D1
S315000001C005F04CFF95ED057A07EE900A67EE877A03
S315000001D067EE880AF5EEC00A0023F1EE10FA6373A3
S315000001E001DCDFED470AD4ED017A77EEA07AC4EDA3
S315000001F0017A2673BDEC028B70BD81ED017A434B0B
S31500000200D3E9000105F02AFF95ED057A07EE900A7D
S3150000021067EE877A67EE880AF5EEC00A0023F1EEEC
S3150000022010FA6373DDDCDEE7E57B012D3CD00028A8
S315000002304CD0207C02284FD0012082ED000A187095
S3150000024094ED007AD2ED006ADFED2A5A9FED2A6A14
S3150000025027EE257A66EE866A37EE267A274D37EE42
S31500000260608AD5ED047A637B84ED007A68EE277A9E
S315000002700BB10023636094F90C605EBB94ED017AC8
S3150000028087E7C1ED017A98DB204BD3E9000105F041
S31500000290E5FE95ED057A07EE900A002367EE877A6C
S315000002A0637367EE880A9EE700283FF452AFF0EECC
S315000002B0007AF4EEE71AF1EE10FAFFF64AAF40F2D2
S315000002C002300025A4F80F00A560B5E70120A4F8C8
S315000002D00F003EE7002658E740F2E630A568854263
S315000002E002D901202074A7E79FED090AA4E700BF01
S315000002F094030020A4707D3F0AD7233C8800002089
S31500000300000000000D98463E0D9846BE8000002075
S315000003109A99193E0122014B5A73704794030020A3
S3150000032070B41B4E3378072B24D890F9001051B3C4
S315000003300122184D184C03E00132B2F5807F20D01F
S315000003402B7804EB0323134403F8011C10F9011F57
S315000003500029F1D100212B7804EB03242B78A1543A
S31500000360013303F007032B7033780133DBB23370AC
S3150000037070BC7047094A138801339BB2138070BC66
S315000003807047FF22E6E70A46024D034CE2E700BF4C
S31500000390D0050020D2050020D4050020CE0500207F
S315000003A030B54FF0000C0725164C85B00223164ACF
S315000003B000951649164884F800C003F04FFA154B0D
S315000003C0C2B21A7090B9144B039303E0039B013B2E
S315000003D0039313B12378002BF8D0039B43B10A4B48
S315000003E00E4918785A780E4B08701A7005B030BD51
S315000003F001210C4B0C4A197013780B44DBB21370B5
S31500000400EDE700BF5605002000050020100500207E
S315000004101C3C00204B050020009F24004E050020B8
S315000004204D0500204C0500204A050020002208B595
S31500000430044B60F07F0018705A70FFF7B1FF024B53
S31500000440587808BD1005002000050020B5EEC00A4A
S31500000450F1EE10FAF8B504462DED028B1546B0EE16
S31500000460408A3FD400274E1EFCEEC88A224A18EE68
S31500000470903A06F055FD3844B0422DDA2E2300F1AD
S31500000480010C6645235404EB00011FDDF8EE688A73
S31500000490B2EE047A38EE680A6A1C024420EE070AB5
S315000004A0FDEEC07A17EE903A092BA8BF092307EE96
S315000004B0903AF8EEE77A0CF1010C3033944530EEC1
S315000004C0670A01F8013F08D06645E7DC624600236B
S315000004D0A354BDEC028BF8BD0B220023A354BDEC44
S315000004E0028BF8BD2D234E1EB1EE408A3146012700
S315000004F000F8013BB8E700BF5C9400002DE9F04F1F
S31500000500A84BDDB01B78042B04D1A74A138801330E
S315000005109BB21380A54B1A781AB11A78013AD2B257
S315000005201A70A34D2B889BB2002B5BD1A14C23786C
S31500000530002B40F09480A04CA04FA14DB5F900309F
S31500000540002B04DB9F4A1278072A40F26981B7F92B
S315000005500030002B07DB9C490A780132D2B2042A0C
S315000005600A7000F2FC80994B1B7843B1984A1388B5
S3150000057001339BB2B3F5FA6F138080F07C81237848
S315000005806BB3904B1B78072B29D89249924A0B885C
S31500000590128801339BB292B293420B801FD3002282
S315000005A08E4B8F481B7890ED000A03F0FF050A80FA
S315000005B0002B00F06883F6EE007A30EE270ABDEED7
S315000005C0C00A10EE101A874EDFF84C823278531CA0
S315000005D0DBB2042B337028F8121000F2E2815DB012
S315000005E0BDE8F08F804E734C338801339BB2338065
S315000005F033889BB2C72B9AD92378032B23D82B8811
S315000006009BB23E2B00F293812A8892B29146DFF884
S315000006100C82764F98F80000754907EB801006F0BB
S31500000620FFFC002398F8002007EB821707F8093033
S3150000063098F80030013303F0030388F8003023787C
S315000006400133DBB2237000236A4A2B803380138880
S3150000065001339BB213802378002B3FF46CAF664DB9
S31500000660624B2A780DF1300E03EB821CBCE80F00BA
S31500000670AEE80F00BCE80F00AEE80F00BCE80F00C4
S31500000680AEE80F009CE80F008EE80F002B780CA850
S31500000690013303F003032B702378013BDBB2237095
S315000006A006F0CBFC00283FF446AF0CAB0025534CBC
S315000006B01A1805E0CB070BD5013815703FF43BAF90
S315000006C012F8013D093BDBB2172B24FA03F1F1D9ED
S315000006D04B4C042223884B4901339BB20CA8238040
S315000006E006F07AFC0446002840F0D980464A2546A2
S315000006F01388464E01339BB20DAF138003E00135DC
S315000007002B2D00F0B58256F82400394606F07EFC03
S3150000071003340028F3D105EB450506EB85052B7A56
S31500000720012B00F00383022B00F0EB81002B40F03D
S31500000730FB826B6808AC93ED000A04221021204668
S315000007401CADFFF783FE4FF480713B462846304AC6
S31500000750009406F0E5FB2846FFF7E2FDEBE6194AB2
S315000007601278072A3FF6FFAE00222A2B0A7000F302
S315000007707882264A03EB430102EB81025168127A22
S31500000780002A00F0FC800A781CAD00922021284641
S31500000790204A06F0C5FB2846FFF7C2FD3B88013319
S315000007A03B80E0E6CA050020C4050020660500205F
S315000007B0D80E0020D50D002060050020AC000020DA
S315000007C0AE000020D0050020AA0400206E050020FF
S315000007D0A80400205E050020B4000020B000002020
S315000007E0B03A0020F0040020CC050020D80D0020EF
S315000007F0DC0E002068050020D60D002013008000C6
S315000008006C050020C89500006A050020EC970000E2
S315000008107494000070950000F4040020D70D0020A9
S315000008202A2B38DCBD4E03EB430206EB8202107A1C
S315000008305A00002879D0BA49DFF868C3012808BFF2
S315000008406146134406EB8302507A0091B54AB649D5
S3150000085056F82330002818BF0A464FF480710192DB
S315000008601CA8B24A06F05CFB1CA8FFF759FD2B88B2
S3150000087001332B806BE6AE4B1B78072B3FF67FAE22
S315000008800023AC481380FFF74BFDAB4A13880133B6
S315000008909BB2138073E64FF6FF732B8057E6042254
S315000008A0A6490CA806F098FB0546002843D10DAFD3
S315000008B02021384606F070FB8046002800F0AB8108
S315000008C02C46964E057003E001352B2D00F0D081A5
S315000008D056F82400394606F099FB03340028F3D174
S315000008E005EB450506EB85056B7A002B00F03E828D
S315000008F02B7A08F10108012B00F07C82022B00F014
S315000009008982002B40F01082404605F0F7FB51EC3F
S31500000910100B05F0A3FB00EE100A6B6808AC04226E
S315000009201021204683ED000A0AE7854989E74FF042
S315000009303F094A466BE683490CA806F067FB002888
S3150000094000F03681092280490CA806F045FB0028F4
S3150000095040F0F8819DF93930202B00F06D82642239
S315000009600023012079497A4D0A807A4C7A497B4ADC
S315000009702B7020700B807A4F7A4D1370DEE50CAE2B
S3150000098091ED000A304604220C21FFF75FFD1CADF5
S31500000990009620212846744AB7F9003006F0C0FABE
S315000009A0F9E6DFF804A203229AED000A0C211CA83E
S315000009B0FFF74CFD05234FF480716C4A6C4806F036
S315000009C0AFFA02256A4FDFF8E49108F10A0B38F90D
S315000009D0023BC5F5807178194A4606F0A1FAC3456F
S315000009E00544F4D1634BF2EE043AD3ED004A624B70
S315000009F09AED003AD3ED007A604BDFED612A93ED74
S31500000A00004A93ED017AD3ED026A5E4B9FED5E2AB2
S31500000A1093ED006AF6EE001AD3ED015A67EEA37A5B
S31500000A2093ED025A23EE023A64EE824A24EE224AFB
S31500000A3027EE227A66EEA26A26EE236A65EEA35AAE
S31500000A4025EE235A77EEA17AFDEEE44AFDEEC33A8F
S31500000A50BDEEC44ABDEEC55AFDEEE55ABDEEC66A08
S31500000A60FDEEE66ABDEEC77AFDEEE77AC5F5807162
S31500000A7013EE903A8DED014ACDED074A8DED065AFB
S31500000A80CDED055A8DED046ACDED036A8DED027A42
S31500000A90CDED007A3D4A781906F042FA411900294F
S31500000AA040F334820023324A7D1812F9010B434089
S31500000AB09542DBB2F9D1364A7818C1F5807106F055
S31500000AC02FFA2B48FFF72CFC0021324A317013888D
S31500000AD005339BB21380304B1A78002A3FF47FAD62
S31500000AE01E4A187813780133DBB283421370FFF481
S31500000AF076AD2A4821700388117001339BB20380BA
S31500000B006DE56B681CAD1C684FF480713B4628464A
S31500000B10234A009406F004FA1DE600BFEC97000095
S31500000B2060940000709400006C94000054950000DE
S31500000B30D0050020849500007A050020AC940000C2
S31500000B4064940000E094000008950000B4000020C2
S31500000B50F0040020600500205E0500205C050020F2
S31500000B60AC000020AE000020649500008C950000CB
S31500000B70A8030020743A0020740F002030050020DE
S31500000B8000007A44240500200000C8429095000029
S31500000B90AC9500005A0500205D0500205805002090
S31500000BA08C94000068940000783A0020A895000014
S31500000BB00426A94BA94C1CADDFF8FCA2DFF8FC9279
S31500000BC0DFF8FC8293E8030004F5017728608DF8CE
S31500000BD07410637A73B1D72E00F3CE80237A012B7B
S31500000BE03AD0022B33D0EBB10C34A74205D0637A4E
S31500000BF0002BF3D10C34A742EBD1042E00F3BC80BA
S31500000C00284606F01AFA024695492846C2F1FF021E
S31500000C1006F0CFF99FE59348FFF782FB924C934F7E
S31500000C20934D8BE463680DF1200B042293ED000ACB
S31500000C3010215846FFF70AFC4246CDF800B0C6F52B
S31500000C408071A819236806F06BF90644D2E7636839
S31500000C504A461B680093F2E7636852461B78009386
S31500000C60EDE74FF6FF7383483B80FFF759FB7AE4C5
S31500000C703B464FF48071804A1CA806F051F91CA827
S31500000C80FFF74EFB57E401220C2108A8FFF7DEFB15
S31500000C907A4B0CAE93ED000A0C2103223046FFF787
S31500000CA0D5FB774BB6EE006AD3ED007A754B77EE3F
S31500000CB0867A93ED007A744B37EE067AD3ED006AA6
S31500000CC076EE866ABCEEC77AFCEEE66AFCEEE77A5A
S31500000CD04FF480716D4A08ABCDED036A8DED027A53
S31500000CE0CDED017A00961CA806F01AF91CA8FFF7AC
S31500000CF017FB674A6749138801339BB213800B7849
S31500000D00002B3FF46CAC644A097813780133DBB2EC
S31500000D108B421370FFF463AC604925700B88157025
S31500000D2001339BB20B805AE41CAD14E56B681CAD15
S31500000D301C784FF480713B462846594A009406F0C9
S31500000D40EFF808E59DF83030522B1CD19DF8313074
S31500000D50CBB901225049444C0B7052485249434F7B
S31500000D60434D03800B702270FFF7E8BB3B464FF400
S31500000D7080714E4A1CA880E7013EAB572C2B04BF5E
S31500000D800023AB553CE79DF93030572B00F0C0806F
S31500000D90472B40F097809DF83130303B092B00F20D
S31500000DA09E800DF1310005F0ACF983B22A2B3FF697
S31500000DB0C2AB0C21294B84B201FB04331A7A5B685F
S31500000DC0002A40F0508293ED000A042208AE304615
S31500000DD01CADFFF73BFB202123462846344A0096EC
S31500000DE006F09EF82846FFF79BFA1F4C1F4F204D32
S31500000DF0FFF7A4BB404605F084F96B68C0B21CAD92
S31500000E0018704FF4807100903B462846244A06F03D
S31500000E1087F8A0E401460A22404606F077F8044621
S31500000E206E681CAD34604FF480713B462846214AFB
S31500000E30009406F075F88EE40DF13A0005F061F9BC
S31500000E4083B2642B28BF6423012B4FF47A7238BF18
S31500000E500123B2FBF3F283E5E8940000EC9700006F
S31500000E6080950000B494000060050020AC000020CE
S31500000E70AE0000207C95000098940000783A00208F
S31500000E80740F0020C8000020C4000020B4950000A4
S31500000E905A0500205D0500205C050020580500204D
S31500000EA0809400005E050020F0040020CC94000031
S31500000EB0149500008C940000F89400000095000042
S31500000EC0F0940000502B44D03F2B40F0C4809DF995
S31500000ED031304D2B00F0A780542B00F0AF809DF8E9
S31500000EE03030412B04D19DF83130002B3FF460AEF9
S31500000EF09DF83030442B6FD19DF83130002B6BD1EB
S31500000F00B54FB64CB64D3B80FFF718BB0023D2E574
S31500000F109DF83130303B092BE1D80DF1310005F059
S31500000F20F0F807EE900AF8EEE77AAE4B9FEDAE7A50
S31500000F30C3ED007AD3ED007AF4EEC77AF1EE10FA3B
S31500000F407FF7F9AA83ED007AA44CA34FA44DFFF7CF
S31500000F50F5BA9DF931302F2BC1DD392BBFDC3D2190
S31500000F600CA806F019F8054600283FF4E4AA0DF18E
S31500000F70310005F0C6F883B22A2B3FF6DCAA0C2313
S31500000F809A4E84B203FB0466737A002B3FF4D3AA0D
S31500000F90337A681C002B40F09B8105F0AFF851ECCA
S31500000FA0100B05F05BF8924A736800EE100A934244
S31500000FB000F084818F4A934200F06F818E4A9342FB
S31500000FC000F05B810832934200F0578183ED000AFE
S31500000FD004220C2108AEFAE688490CA806F016F899
S31500000FE0B0B187490CA806F011F888B185490CA85C
S31500000FF006F00CF860B184490CA806F007F8002842
S315000010007FF499AA764D754C734F2880FFF796BAF0
S315000010100023724C7D497E4A23700B706E4F704DD3
S315000010201370FFF78BBA7B4B1021D3ED007AFDEEE0
S31500001030E77A794A17EE903A1CA81EE66D4B032212
S3150000104093ED000A0C2108A8FFF700FA1021734A55
S3150000105008AB1CA811E6462B31D04D2B4BD19DF980
S3150000106031302D2B04D0303BDBB2092B3FF637AFA6
S315000010700DF1310005F045F807EE900AF8EEE77A33
S31500001080644B9FED677AC3ED007AD3ED007AF4EEF8
S31500001090C77AF1EE10FAC8BF83ED007ADFED617A08
S315000010A093ED007AB4EEE77AF1EE10FA7FF543AAF3
S315000010B0C3ED007A494C484F494DFFF73FBA9DF8BA
S315000010C03130303B092B3FF60AAF0DF1310005F008
S315000010D018F883B2642B28BF6423012B4FF47A726D
S315000010E038BF0123B2FBF3F24F493C4C3A4F3C4D1B
S315000010F00A80FFF723BA542B3AD19DF931302D2BB4
S3150000110004D0303BDBB2092B3FF6E9AE0DF13100DE
S3150000111004F0F7FF07EE900A9FED447AF8EEE77ABF
S3150000112067EE877A334B324AC3ED007A93ED007A45
S31500001130D2ED007AB4EEE77AF1EE10FAC4BF116888
S315000011401960D2ED007A93ED007AF1EE677AF4EE4B
S31500001150C77AF1EE10FA7FF7EEA9D2ED007AF1EE3A
S31500001160677A1E4CC3ED007A1B4F1D4DFFF7E6B99B
S31500001170452B67D19DF93120A2F13003DBB2012B5B
S315000011803FF6ADAE312A19D000222948294B02700C
S3150000119093ED007ADFED287AB4EEE77A2749F1EE8F
S315000011A010FA0A704FF00502C8BFC3ED007A244B4F
S315000011B00A4C094F0A4D1A70FFF7C0B91C4B1B7831
S315000011C0002B7FF4B8A901221C4B044C024F044D9E
S315000011D01A70FFF7B3B900BFAC000020600500200D
S315000011E0AE000020D000002000A08C45EC97000047
S315000011F0D4000020D80000208C0000203C95000080
S3150000120040950000489500004C9500005C050020C4
S31500001210F0040020BC0000202C950000349500004E
S3150000122000007A4400007AC4B40000206F12833AAA
S31500001230D0360020600F002009AC5C3FB83A002091
S31500001240D1360020432B7FF44AAE9DF83130303B37
S31500001250DBB2012B3FF643AE244A254C254F264DE3
S315000012601370FFF76BB91E781CAD23462021284664
S31500001270224A009605F054FEB4E5DFED217AB4EE7D
S31500001280E70AF1EE10FA20DCB5EEC00AF1EE10FA2C
S315000012907FF59CAE9FED1B0A98E6DFED1B7AB4EE58
S315000012A0E70AF1EE10FA10DCDFED187AB4EE670A01
S315000012B0F1EE10FA48BFB0EE670A87E6DFED127A64
S315000012C0B4EEE70AF1EE10FADEDDB0EE670A7DE66F
S315000012D004F017FF7368C0B21CAD1870202100908F
S315000012E023462846054A05F01BFE7BE534370020D9
S315000012F060050020AC000020AE0000202095000014
S3150000130000004842000000009A99993E9A9999BEB9
S315000013102DE9F04F2DED028BA54989B0A54802F0C5
S31500001320DDF9FEF7EFFEFEF7F5FFA349A34804F04B
S315000013302BF80346A249A148059304F01FF903467A
S3150000134000219E48069304F093FA9C4C0790204691
S3150000135004A903F0C3FF9DF81030022BF7D099497A
S3150000136099488DF8123003F0FFF9974803F0D4F945
S31500001370964B1B78002B40F06482002240F6055104
S31500001380934803F015F90120924904F04DFC01221F
S3150000139040F605518E4803F00BF94FF47A710A2096
S315000013A004F042FC4FF0082300258B4F01218348AF
S315000013B03B6003F079FF0421804803F075FF4FF48A
S315000013C0FA742E46DFF880824FF47A71012004F019
S315000013D02BFCB8F80020B8F80230013C16441D4436
S315000013E0F2D17E4B7E48A3FB0612A3FB05135209DE
S315000013F05B0902217B803A8003F0AEFD0221794829
S3150000140003F0AAFD0221784803F0A6FD7749784843
S3150000141003F082FB764803F0E1F9754803F0D2F950
S31500001420152240F606616A4803F02EF9012240F6BD
S315000014300661674803F0BCF8012240F60261644881
S3150000144003F0B6F84FF47A714FF4FA6004F0ECFB4F
S31500001450052240F606615E4803F016F9012240F6C1
S3150000146006615B4803F0A4F84FF47A714FF4FA6012
S3150000147004F0DAFB5F4D40F605610DF113025448A6
S3150000148003F084F85C4B9DF8132028465B491A70DC
S3150000149002F0BCFD002800F00E826323584A594929
S315000014A00392009113705849584802F0FFF9584BBF
S315000014B0C2B204461A70002800F0DA81554B564D28
S315000014C00193DFED568A9FED568ADFF880B1DFF88B
S315000014D080A1DFF88081534EDFF87C913C4C40F6CA
S315000014E003610DF11302204603F050F89DF8133006
S315000014F00DF11302A3F10103B3FA83F340F604617D
S315000015005B0920468BF8003003F040F89DF8133055
S31500001510454AA3F10103B3FA83F35B091370DAF8C2
S315000015200030012B00F0468198F80030002B40F087
S31500001530958099F80030002BD1D0009F3B78002B86
S31500001540CDD13A4A1378002BC9D1394839490078A8
S3150000155001EB002005F071FD0246D8B101233448A5
S315000015603B700178334B234803EB0121029202F0D2
S315000015708BFC314B029AC0B21870304B304992B294
S315000015801A800B88294A01339BB20B802D4B1B789E
S31500001590DBB21370264A1378013303F00703137086
S315000015A099F80030013BDBB289F8003097E700BFBD
S315000015B0F0990000E83A0020E09B0000A43B0020E0
S315000015C0349D0000289A0000283B0020850F00204B
S315000015D0E03A002040420F00E4000020D34D6210A4
S315000015E0443B0020643B0020843B0020549E0000C6
S315000015F0CC3B0020EC3B0020B8000020B09E000051
S31500001600CA050020D40D0020E49E00001C3C0020EA
S31500001610B200002054050020100500200000003A0A
S3150000162033338341000500208D0F0020660500201E
S31500001630D1050020D4050020B60000206405002056
S3150000164062050020B7000020A83A00208E0F002077
S315000016507405002020050020D0050020002388F80E
S315000016600030019B1B78002B3FF463AF9F232B8038
S31500001670FEF796FEA02372782B800292FEF790FE6C
S31500001680A123029A2B80737843EA0223B94A1BB23C
S3150000169017461380FEF784FEA22372782B800292EF
S315000016A0FEF77EFEA323029A2B80737843EA022379
S315000016B01BB27B80FEF774FEA42372782B80029205
S315000016C0FEF76EFEA523029A2B80737843EA022367
S315000016D01BB2BB80FEF764FEA62372782B800292B3
S315000016E0FEF75EFEA723029A2B807378A24943EA8F
S315000016F002231BB20F460B80FEF752FEA823727818
S315000017002B800292FEF74CFEA923029A2B80737857
S3150000171043EA02231BB27B80FEF742FEAA237278BD
S315000017202B800292FEF73CFE029A7378934843EAB6
S3150000173002231BB28F4ABB8013881BB207EE903A76
S31500001740F8EEE77A67EEA87AC0ED007A53881BB206
S3150000175007EE903AF8EEE77A67EEA87AC0ED017ADE
S315000017609388874A1BB207EE903AF8EEE77A67EE5F
S31500001770A87AC0ED027A3B881BB207EE903AF8EEE3
S31500001780E77A87EE887A82ED007A7B881BB207EECD
S31500001790903AF8EEE77A87EE887A82ED017ABB888E
S315000017A01BB207EE903AF8EEE77A87EE887A82ED7A
S315000017B0027ABEE6734802F0A9FB102240F60561E4
S315000017C0204602F061FF00226F4F704BD7F8FCC035
S315000017D04FF47A714CF0807CC7F8FCC05A60D3F89D
S315000017E000C04FF4FA704CF0010CC3F800C004F0CE
S315000017F01BFA02230022CAF80030654B1A60654BBB
S31500001800B3F8C43013F02003F9D1604A5360614B3A
S31500001810B3F8C4309B06FAD503235C4A5C49526888
S3150000182020460A605C4A40F60561CAF8003002F0BC
S315000018302BFF5A49534802F0E9FB0423039A13701D
S3150000184072E6012240F60161554802F0B1FE4FF4FE
S315000018507A710A2004F0E8F9002240F60161504846
S3150000186002F0A6FE4FF47A713C2004F0DDF984E51F
S315000018704FF47A710A2004F0D7F9012740F21113C8
S31500001880484E494D37702B80FEF78AFD4FF47A712A
S315000018900A2004F0C9F9022375203370FEF7C6FD4D
S315000018A00322424B187032701B78422B2BD0404BD0
S315000018B001931C7005E602233E4F3F4A40F606613F
S315000018C037483B70039702F0DFFE4FF47A714FF40E
S315000018D0FA7004F0A9F9394B2146402238481C70A9
S315000018E005F052FB0423374E374A3480364E2D6AB4
S315000018F00092364A34702C6951783548354A04606E
S3150000190011703B70CFE576232B80FEF749FD4FF42F
S3150000191005632B80FEF744FD4FF47A71384604F0D8
S3150000192083F940F64F032B80FEF73AFD4FF47A71A8
S31500001930384604F079F940F64E732B80FEF730FDF9
S315000019404FF47A71C82004F06FF94E20FEF76EFD51
S315000019500346214A50201370FEF768FD03461F4ACE
S315000019602D201370FEF762FD11491D4A019110707A
S315000019700F70A6E5440500203C0500203005002038
S3150000198024050020EC3B002000ED00E0001000E004
S315000019907005002000F1014000000105B09E000026
S315000019A0E03A0020500500201005002055050020D3
S315000019B054050020CA0500201000010580050020FE
S315000019C084050020C8050020D40D0020E800002072
S315000019D07C050020780500205305002052050020D4
S315000019E051050020022800D070470249024802F043
S315000019F041BE00BF489F0000E03A00202DE9F04FAD
S31500001A00058B8BB0012D02D00BB0BDE8F08F4B4C8F
S31500001A100DF10F0223684FF430610133484823600B
S31500001A2002F0B4FD9DF80F30464AB3FA83F35B0922
S31500001A3013701378002B36D1434B1B78002B37D10C
S31500001A40424B434F434E0193434C012122464348A8
S31500001A5003F03EFF2178002900F0318700234A1E5B
S31500001A60DFF80CA1DFF80C91DFF80C81D2B204EBA1
S31500001A70830C9CF80700032BBCF804E0C0F3C01BE2
S31500001A80C0F3060C26D836489A4220F813E03548AB
S31500001A9000F803C02AF813E009F803C008F803B0F9
S31500001AA024D00133E3E7284B1D701B78002BC7D0E9
S31500001AB000224FF07C53264F00213A607A600122C3
S31500001AC0244E224833607360B360274B0190017047
S31500001AD01A70B9E79A422AF813E009F803C008F821
S31500001AE003B003F1010301D0082BC0D100231F4826
S31500001AF0DFF88880DFF888E0DFF88890DFF888B0C4
S31500001B00DFF888A0017004EB8300C179808801F0BA
S31500001B107F01102942D8DFE811F03F004100410063
S31500001B2041004D0341004100410041004100410098
S31500001B3041004A0347034403410041033037002074
S31500001B40E03A0020990F0020980F0020B83A0020B4
S31500001B50883A00209C3A0020CC040020A43B0020B8
S31500001B60F8360020F4360020D13600202037002039
S31500001B70103700200837002000370020A83A002040
S31500001B806E0F00206C0F0020700F00207C0F0020CD
S31500001B9000F07F4533335340A8F800009A4203F122
S31500001BA0010301D0082BAED1BBF800305FED086A07
S31500001BB09BB207EE903AB8EE677A1FED0A6AC7EE57
S31500001BC0267AB2EE0A5A67EE867A67EE857ADB4C9B
S31500001BD0F2EE065AC4ED007ABAF80030D84A9BB243
S31500001BE007EE903AB8EE677AC7EE267A67EE867AFF
S31500001BF067EEA57AC2ED007ABEF800309BB20A2BDA
S31500001C0007D940F6F472BEF800309BB2934240F218
S31500001C100D86B9F800309BB20A2B07D940F6F4724C
S31500001C20B9F800309BB2934240F2CD85DFF8A89315
S31500001C3099ED0D7AB5EEC07AF1EE10FA40F3BD8259
S31500001C40C04BD3ED007AC7EE876AF5EEC06AF1EEB7
S31500001C5010FA00F1B282F7EE007AF4EE676AF1EE5E
S31500001C6010FA77FEA66ADFF874A3DAED007AF4EECE
S31500001C70E67AF1EE10FA40F125839FEDB36A77EE2E
S31500001C80867AF4EEE67AF1EE10FA40F32783CAED8F
S31500001C90006AF0EE667A27EE277ADFF844B3AB4B9C
S31500001CA05A4683ED007AAA49AA4BAB4801F0ACFB31
S31500001CB0A749AA4BD1ED004AD3ED007A9FEDA87A49
S31500001CC074EEE77AF4EEC77ADBED006AF1EE10FA0D
S31500001CD0A44AC2ED006A40F304839FEDA37A77EE2F
S31500001CE0C77AA248A24990ED007A77EE877AC3EDCB
S31500001CF0004AA04A0B88DFF8ECC202EB83020133EC
S31500001D009BB2C72B92ED006AC0ED007ACCED007A4B
S31500001D10C2ED007A0B8040F2B382002301220B80D1
S31500001D20954B1A7077EEC67A9FED947A99ED006A14
S31500001D30C7EE875AF6EE006A85EE867AB4EEE67A44
S31500001D40F1EE10FA01D59FED8E7AD9ED0D7A9FED61
S31500001D50846A77EEA77ADFED8B6A67EE867A87EE7E
S31500001D60A66AB5EEC06AF1EE10FA874B83ED007AEB
S31500001D7040F39984854BF7EE007A93ED004AC7EE5F
S31500001D80065A27EE267AD3ED006A814BDFED763AC6
S31500001D9093ED005A77EEC47A87EE236A67EE857A6A
S31500001DA026EEA57A77EE877A9AED005AB4EEE55AD2
S31500001DB035EE653AF1EE10FA4FF00102C3ED007A06
S31500001DC0D4BF75EEC57AF0EE437A724B7248C3ED16
S31500001DD0005A724B80ED006A1A70714B714AC3ED5E
S31500001DE0007A714BDFED713AD3ED007A77EEA47A83
S31500001DF06F4BDFED702AC3ED057A93ED054AC3ED0F
S31500001E00057AB8F80210D3ED044A07EE901AB8F82E
S31500001E100010F8EE677A06EE901A5188128806EEE0
S31500001E20101A07EE102AB8EE466AB8EE477A77EE31
S31500001E30C67AF8EE666A67EEA37A76EEC76A77EE3A
S31500001E40A77A66EEA36A77EEA67A67EEA27A26EE00
S31500001E50A47A66EE843A67EE842A27EEA46A019B8A
S31500001E6037EE227A1B7836EE636A002B40F0A881A3
S31500001E705149524AD1ED002AD2ED003ADFF8688185
S31500001E809FED4F2AC8ED006ADFF8608136EE636A7F
S31500001E90C8ED007A77EE627A26EE026A67EE827AFB
S31500001EA036EE236A77EEA27ADFF844C1DFF844E122
S31500001EB0ACF80030DFF84081DFF840C188ED003A29
S31500001EC0C1ED007ACEED007A82ED006A8CED006AF3
S31500001ED097ED007AB5EE407AF1EE10FA00F0D7846D
S31500001EE000223849DFF818C10A809CF80010C9B2F0
S31500001EF0002B40F0E9831A464FF0030E01298CF8B7
S31500001F0000E000F05A84B6EE007A0022F0EE477A3E
S31500001F1086ED007A86ED017A86ED027AF0EE476A62
S31500001F20294B1A704FF08041284B294A1B781160C3
S31500001F30002B00F0A480274A138863E0740F00206A
S31500001F40800F0020BC000020ACC5A737B43A0020A3
S31500001F50983A0020903A0020E83A002048370020BE
S31500001F60DB0F494038370020DB0FC94044370020DB
S31500001F704E370020503700204C3700200AD7A33CAC
S31500001F80000000000000704240370020DC00002006
S31500001F90803A0020843A0020B03A0020E43600203F
S31500001FA0E0360020E4000020940F00200000003AF4
S31500001FB0001002403ACD133FC4040020C0040020A4
S31500001FC0CDCCCC3DBE040020BC040020CC000020BB
S31500001FD0E0000020B40F002038000020703A0020F6
S31500001FE0943A00203C370020EC360020E8360020EA
S31500001FF0C8040020743A0020F0360020783A002009
S31500002000DD36002001339BB2138013889BB2632B0D
S3150000201035D90020B94B10801A88B94992B202EB23
S31500002020820201EB820282ED005A1A88012592B2E1
S3150000203002EB820201EB8202C2ED015A1A887F6826
S3150000204092B202EB820201EB820282ED026A1A88E8
S3150000205092B202EB820201EB8202D7601A8892B238
S3150000206002EB820201EB82010D741A882A4492B2B5
S315000020701A801A8892B2B2F5FA7F28BF1880A14B4F
S315000020801B78002B4AD0D4ED005AB2EE046AF4EE67
S31500002090C65AF1EE10FA41DDD4ED003AB3EE023A3B
S315000020A0B7EE084AC3EE235AF4EE445AB6EE006A77
S315000020B0F1EE10FA37EE467A76EEC66A77EEC67A13
S315000020C074FE255A27EE257A66EEA56A67EEA57A8E
S315000020D037EE067A76EE866A77EE867A86ED007AAF
S315000020E0C6ED016AC6ED027A874E9FED885ADFED8E
S315000020F0884A334606F10C02F3EC017AF4EEC57A0F
S31500002100F1EE10FA40F1D88203ED015A9342F3D171
S3150000211096ED007AD6ED016AD6ED027AD4ED005A34
S31500002120B2EE046AF4EEC65AF1EE10FA02DD226847
S31500002130784B1A609FED786A784B41F2707683EDA2
S31500002140007A27EE067AC3ED016ABCEEC77A66EE20
S31500002150866AC3ED027A67EE867A17EE102ABCEE1F
S31500002160E67AFCEEE77A17EE104A17EE903AB2429C
S3150000217028BF3246B44228BF3446B34228BF33464E
S31500002180674D04A967482A60CDE905436C6004924F
S31500002190AB6002F0C7FA0BB0BDE8F08FAAF80000FA
S315000021A0FCE4ABF80000F9E4A9F80000F6E4AEF8A8
S315000021B00000F3E4A8F80200F0E4DFED5B6A52E504
S315000021C041F2873C59490A88624540F2D580B5EE0E
S315000021D0C06AF1EE10FADFED562AD4BFF1EE463AA8
S315000021E0F0EE463AB5EEC07AF1EE10FAF4EEE23AC7
S315000021F0D4BFB1EE472AB0EE472AF1EE10FA40F30B
S31500002200728200224FF0010E0721DFF854C13A60B6
S315000022107A60484A8CF800E0C2ED003A464A82ED00
S31500002220002A464A11704649464AD1ED002AD2EDA7
S31500002230003ADFF830819FED442AC8ED006ADFF8E6
S31500002240288136EE636AC8ED007A77EE627A26EE6A
S31500002250026A67EE827A36EE236A77EEA27ADFF8B2
S315000022600CC1DFF80CE1DFF80C81C1ED007A88EDD6
S31500002270003ACEED007A82ED006A8CED006AB0E09D
S31500002280324B1B78002B7FF44DADF0EEE67A9FEDD6
S31500002290307AF4EE477AF1EE10FA3FF654ADD9ED06
S315000022A0007AF5EEC07AF1EE10FA7FF74CAD86EEC5
S315000022B0A77AF6EE007AB4EEE77AF1EE10FA3FF579
S315000022C042AD42E57FF7E7AC9FED226A77EEC67A2C
S315000022D0F4EEE67AF1EE10FA3FF5D9ACCAED007AE3
S315000022E0D9E49FED1D7AF4EEC77AF1EE10FA44BFF9
S315000022F09FED1A7A77EE877AF3E400BFB60F0020D7
S31500002300B80F0020CD0000209C3A00200AD7A33C3D
S3150000231048E17A3F700000200080BB459C0F0020FA
S31500002320A80F0020283B002000000000C804002061
S315000023309A99193FCC360020C8360020D1360020A5
S31500002340C4040020C0040020CDCCCC3D4C37002076
S31500002350FFFF7F7FACC5A737DB0F49C0DB0FC94046
S31500002360D0360020EC360020E8360020783A0020EF
S31500002370743A0020F0360020013292B20A80DFF86B
S31500002380D8C3DC49DCED002AD1ED003ADFF8CCA356
S315000023909FEDD92ACAED006ADFF8C4A336EE636A58
S315000023A0CAED007A77EE627A26EE026A67EE827AE4
S315000023B041F2883E77EEA27A36EE236ADFF8A483EE
S315000023C0DFF8A493DFF8A4A372458AED003ACCEDBA
S315000023D0007AC9ED007A81ED006A88ED006A7FF423
S315000023E077ADB5EEC06AF1EE10FA9FEDC47AD4BFB0
S315000023F0F1EE463AF0EE463AF5EEC07AF1EE10FA14
S31500002400F4EEC73AD4BFB1EE673AB0EE673AF1EEF2
S3150000241010FA05DCB4EEC73AF1EE10FA7FF758ADC4
S315000024209FEDB77A4FF0010C0621F0EE476A87ED73
S31500002430007A87ED017AB34A82F800C0B24AC2ED4B
S31500002440003AB24A82ED003AB14A117042F20F7C6C
S31500002450B0490A88624500F2A681DFF814C301324A
S3150000246092B20A809CF80010C9B2002B3FF444AD2A
S3150000247041F2873E724540F227814FF0020E012954
S315000024808CF800E07FF43FAD9CF8001001293FF482
S315000024903AADD0ED003AF5EEC03AF1EE10FAC8BF0B
S315000024A0FCEEE33A9CF800109B48C9B201709B49C8
S315000024B0DFF8C0C281ED006A9949C1ED006ACABF62
S315000024C013EE901A002189B2ACF8001095490978EC
S315000024D0022984BF03210170002B3FF414AD41F2A1
S315000024E087339A423FF60FAD8F4B1A78002A00F0D9
S315000024F043818E4B1A88B2F5FA6FC0F0078297EDCA
S31500002500011A8B4B37EE677AD3ED006AD3ED027A68
S3150000251031EE461A8749884AD1ED001A92ED002A13
S3150000252067EE266A61EE277ADFED753A76EEA16AE6
S3150000253077EE827A76EEA36A77EEA37A66EEA63A0D
S3150000254067EEA72A9FED7D3A73EEA23AF4EEC33A00
S31500002550F1EE10FA00F3C181F0EE673AF0EE662A6A
S3150000256093ED013AB5EEC03AF1EE10FA0DDDDFED6E
S31500002570740A23EE203A72EEE66A23EE077A37EE05
S31500002580267A71EE871AC1ED001A93ED037AB5EE3D
S31500002590C07AF1EE10FA0DDDDFED696A27EE267AD4
S315000025A073EEE77A27EE017A77EE277A32EE272A5C
S315000025B082ED002ADFED637AF4EEE71AF1EE10FA07
S315000025C006DCDFED617AF4EEE71AF1EE10FA01D5DA
S315000025D0C1ED007ADFED5B7AB4EEE72AF1EE10FA90
S315000025E006DCDFED597AB4EEE72AF1EE10FA01D5F2
S315000025F0C2ED007A22EEA47A23EE843A63EEA44A70
S3150000260062EE842ADFED517A37EE437AF6EE006AFF
S3150000261074EEA24A67EE266A64EEA74AF1EE667A7F
S3150000262074EEE66AB4EEE67AF1EE10FA77EEE47A44
S3150000263040F13681F4EEE76AF1EE10FA00F15881C6
S31500002640B0EE664AF0EE474AF4EE674AF1EE10FA4B
S3150000265077FEA44A74EE844ABEEE003A64EE834ADC
S31500002660DFED3B3A76EEA46A77EEA47A37EE247A6B
S31500002670B6EE004A66EEA36A67EEA37A27EE237AE1
S3150000268066EE846A67EE847A27EE047A76EE846ACA
S3150000269077EE847A37EE047AC6ED016AC6ED027AE1
S315000026A086ED007A3EE4DFED167A2A4BB0EE676AD5
S315000026B0F0EE675AFFF778BBF4EEE47AF1EE10FA23
S315000026C0C8BF43ED014A21E54FF0010E71458CF874
S315000026D000E07FF409AF9CF8001071453FF404AFA9
S315000026E0D7ED016AD5E6B4EEE22AF1EE10FA3FF72D
S315000026F088AD98E5C0040020CDCCCC3D9A99993E92
S3150000270000000000D0360020CC360020C83600205D
S31500002710D1360020BE040020DC360020D83600204A
S31500002720D43600206A0F0020BC040020B00400202C
S3150000273088000020B8040020B40400203D0A673F4A
S3150000274017B7D138CDCC4C3DCDCC4CBDD0B35D3FC9
S315000027503ACD933F803A0020C4040020EC36002096
S31500002760E8360020783A0020743A0020F03600203F
S31500002770DD360020D2360020012100221970654B7B
S315000027801A60654B1A60654BDFED656A9FED657AE9
S31500002790F0EE667A86ED007AC6ED016AC6ED026A4B
S315000027A01D80FFF7BFBBDFF8A8C19CF80010C9B2B7
S315000027B0002B7FF462AEFFF79FBB9CF80010012947
S315000027C08ED1FFF7A0BBB9F800209FED577A92B2E1
S315000027D007EE902AF8EE676AB9F8003037EE667AA7
S315000027E09BB207EE903ADFED515AF8EE677A27EE84
S315000027F0257A9FED4F6A87EE270A80EE060A06F0D5
S31500002800CDFCDFED4C7A9FED4C7A60EE277AB7EE81
S31500002810006A77EE877ADFED496A86EE277A77EEE9
S31500002820667A474BC3ED007AFFF700BABEF8002080
S31500002830BEF8003092B207EE902AB8EE677A9BB2E5
S3150000284007EE903A76EEC76ADFED385AF8EE677A09
S3150000285066EEA56A9FED366A86EEA70A80EE060A40
S3150000286006F09CFCDFED337A9FED337A60EE277A33
S31500002870B7EE006A77EE877ADFED306A86EE277A62
S3150000288077EE667A2F4BC3ED007AFFF7C2B9D7ED24
S31500002890016AF5EE406AF1EE10FA7FF421ABD5E558
S315000028A0B4EEE77AF1EE10FAB4EEE67A25D4F1EE5C
S315000028B010FAB0EE474A1DDDF0EE664AC4E6224B3A
S315000028C0DFF89080DFF890E0DFF89090DFF890B0C6
S315000028D0DFF890A01970FFF767B9DFED1C2AB1EE9B
S315000028E0E33AC2EE833A66EEA32A67EEA33A37E6E8
S315000028F0B0EE674AF0EE474AA6E6F1EE10FAB0EE01
S31500002900674AD8BFF0EE474AD6DCA3E6013295B255
S315000029103AE700BFB8040020B4040020B004002049
S315000029206666063FCDCC0C3F00F07F4500401C4656
S3150000293000E0AB46467967390FCF5B3B339388435C
S31500002940C4000020C8000020203700203333733F26
S31500002950DD360020A83A00206E0F00206C0F002004
S31500002960700F00207C0F0020704700BF2DE9F04754
S31500002970C24C82B02368013323602368B3F57A7FA3
S3150000298000F02F832368B3F5FA6F00F0FF82BC4B8B
S31500002990BC4D1B782878002B00F06883BA4BBB4AE5
S315000029A0D2ED007A93ED007AB4EEE77AF1EE10FA02
S315000029B048BFD3ED007A93ED007AB1EE477AB4EED4
S315000029C0E77AF1EE10FAC8BFD3ED007AB04BC8BF74
S315000029D0F1EE677A93ED007AB5EEC07AF1EE10FA71
S315000029E02DDDAC4A92ED0D7AAB4AD2ED006A27EEA8
S315000029F0267AB5EEC07AF1EE10FAD3ED006AD8BFAA
S31500002A00B1EE477A93ED006AB4EEC76AF1EE10FABA
S31500002A1000F177839FEDA16A66EE866AB4EEE67AE8
S31500002A20F1EE10FA0BDDD3ED005A93ED006A75EE68
S31500002A30C75A36EE667AC5EE876A67EEA67A9FEDC6
S31500002A40B87A974FDFF8CC82D7ED006A954E98F8A2
S31500002A50003086ED007A002B00F05782002286EDCA
S31500002A60017A914BDFF8B0921A60904B187040F6DD
S31500002A700E610DF106028E4801F088FD9DF80620D4
S31500002A80DFF898A2A2F10100B0FA80F089499AF81D
S31500002A90003040090870002B3AD1012A00F0348337
S31500002AA0854A1360854A1360854B1B78002B31D00D
S31500002AB0844BF1EE047A93ED007AB4EEE77AF1EE08
S31500002AC010FA40F16783804A138801339BB20E2BBC
S31500002AD013801FD9002000234FF07C514FF0020CC9
S31500002AE001222870032033607360784B8AF8002037
S31500002AF0196059609960764B40F6075183F800C01B
S31500002B00744B1A70744B1870694801F051FD01E05E
S31500002B106B4B1B78714BF2EE087A93ED007AB4EEAC
S31500002B20E77AF1EE10FA20D593ED007AF7EE007A07
S31500002B30B4EEE77AF1EE10FA17DD69490A88013238
S31500002B4092B2B2F5FA7F0A80C0F0118393ED007A53
S31500002B50F2EE0C7AB4EEE77AF1EE10FA40F1218348
S31500002B609FED6F7A03221B680FE093ED007AF2EE79
S31500002B700C7AB4EEE77A0021F1EE10FA584A118089
S31500002B8000F1B581B7EE007A0022564B99ED006A46
S31500002B90D3ED006A544BDFED553A93ED003A66EEFD
S31500002BA0067A26EEA64AC3EE234A77EE847A9FED8E
S31500002BB0505A77EEE47AD3ED005A67EE857A77EECF
S31500002BC0A57AC3ED007AD3ED007AF5EEC07A00213E
S31500002BD0F1EE10FA48BF1960D3ED004A9FED455A51
S31500002BE0C4EE855A444BF7EE007AC3ED005AD3ED96
S31500002BF0005AF4EEE75AF1EE10FAC0F2CF81B5EEC4
S31500002C00C06AF1EE10FAF5EEC06AD8BFB1EE466AB8
S31500002C10F1EE10FA4FF00103D8BFF1EE666A082113
S31500002C209FED3F7A032288F80030344B83ED006A2B
S31500002C30334BC3ED006A284B1970324BDFED327A05
S31500002C40D3ED006AF4EEE76AF1EE10FA6ADAD3ED34
S31500002C50006ADFED2E7AF4EEE76AF1EE10FAC0F2C2
S31500002C607F81DFED2B7AB4EE677A022A38BF022223
S31500002C70F1EE10FA37FE877A57E000BF2C370020B6
S31500002C8034370020B83A0020D4000020D8000020B5
S31500002C90D000002038000020803A00206666663F9B
S31500002CA0C0000020883A0020AC3A00207C3A002080
S31500002CB0E03A00208C0F0020900F0020880F0020A3
S31500002CC0850F0020800F00207A0F00209C3A0020FC
S31500002CD0840F0020860F0020D1360020740F0020BC
S31500002CE0AE040020743A0020600F002066662C4275
S31500002CF06F12833A09ACDC3F5C0F0020CC36002013
S31500002D00C8360020C80000200000B4420000A042DF
S31500002D109A99993ED0360020783A00208F0F0020ED
S31500002D20000000001FED027A0322B44BDFEDB47AF7
S31500002D30D3ED006AF4EEE76AF1EE10FA15DAD3ED98
S31500002D40006ADFEDB07AF4EEE76AF1EE10FAC0F24F
S31500002D50DF80DFEDAD7AB4EE677A022A38BF022251
S31500002D60F1EE10FA37FE877A02E09FEDA87A032289
S31500002D70A74E327087ED007A3378022B04D90023F0
S31500002D800421A44A2B70117040F605210DF10702AB
S31500002D90A14801F0FBFB9DF80720A049A2F1010024
S31500002DA0B0FA80F00B784009834200F023819C4FF3
S31500002DB03B8801339BB21D2B3B8011D90023012A8E
S31500002DC008703B800CD09748974A03780133A2FBE2
S31500002DD0031202F4FF7101EB52029B1ADBB203707D
S31500002DE040F60A510DF107028B4801F0CFFB9DF822
S31500002DF007208E49A2F10100B0FA80F00B78400955
S31500002E00834200F0F3808A4F3B8801339BB21D2B2F
S31500002E103B800AD90023012A08703B8005D0854AE9
S31500002E201378B3FA83F35B091370834B1B7803F0B3
S31500002E30FF076BB9814B1B78002B7FD002242B78C0
S31500002E40002B00F03A8144F004047D4B1C7006E030
S31500002E507B4B1C7884F00407C7F38007E4B2E24397
S31500002E6040F60F5102F001026B4801F0A1FB84F01D
S31500002E70020240F60641C2F34002674801F098FBA1
S31500002E803A4640F60741644801F092FB84F0080296
S31500002E9040F60151C2F3C0025F4801F089FB84F09D
S31500002EA0100240F60251C2F300125B4801F080FBAB
S31500002EB084F02002C2F3401240F60351564801F056
S31500002EC077FB604A138801339BB2092B05D8138020
S31500002ED0FDF714FB02B0BDE8F087002001215A4B34
S31500002EE010801970FDF70AFB02B0BDE8F08793ED7C
S31500002EF0007AF7EE007AB4EEE77AF1EE10FA7FF791
S31500002F0041AEB6EE007A01223FE627EEA67AA5E5A7
S31500002F10D3ED006ADFED4D7AF4EEE76AF1EE10FAD2
S31500002F20FFF626AFDFED4A7AB4EE677A012A38BF9C
S31500002F300122F1EE10FA37FE877A19E73378022B71
S31500002F403FF67CAF3378002B00F02F812368414A8F
S31500002F50A2FB032313F0100F14BF032401246EE712
S31500002F60D3ED006ADFED397AF4EEE76AF1EE10FA96
S31500002F70FFF6DBAEDFED367AB4EE677A012A38BFAC
S31500002F800122F1EE10FA37FE877ACEE6324A334B4B
S31500002F9011681B68324A5B1A1360F8E493ED006A05
S31500002FA0DFED306AB4EEE66AF1EE10FAC0F2878021
S31500002FB093ED006A9FED2C5A76EE666A86EE856A78
S31500002FC0F6EE005A77EEC67A67EEA57AB4EE677A21
S31500002FD0022A34BF02220322F1EE10FA37FE877A64
S31500002FE02BE61E4A1C4B12681A60D0E40022104BD6
S31500002FF01A801AE700220A4B1A80F1E6C400002064
S315000030000000B4420000A0429A99993E00000000D8
S315000030106A0F0020D1360020E03A0020BA000020D6
S31500003020660F0020690F0020ABAAAAAAB9000020EB
S31500003030640F0020680F0020790F0020980F0020F1
S31500003040780F0020AC0400202005002000008C42F0
S315000030503333333FD34D62102837002030370020FA
S31500003060243700209A99593F9899193E504B514E52
S31500003070D3ED001A504BDFF87891D3ED000A4F4B91
S315000030804F4F93ED000A99ED001A4E4B31464E4ACA
S31500003090FDF750F897ED007AD6ED017A67EE877A5C
S315000030A0DFF85081C6ED017A98F80030002B3FF426
S315000030B0DEAC002333607360D9E40127C5E6D3EDA7
S315000030C0006A9FED426AF4EEC66AF1EE10FAFFF668
S315000030D0B4ADD3ED006AB6EE005A76EEC66ADFED01
S315000030E03C5A66EE856A86EEA56A77EEC67AB4EE37
S315000030F0677A012A38BF0122F1EE10FA37FE877A85
S315000031009BE5DFED347A9AE440F6B73C3248DFF8C7
S31500003110E8E00168013161450160CEF800107FF6F4
S31500003120C3AC4FF07C5100204FF0020EDFF8CCC04C
S315000031302B702A4B8CF80020DFF8C4C01960596048
S3150000314099603060706040F6075125488AF8002083
S315000031508CF800E001F02CFA224B1B78002B3FF490
S31500003160D9AC9AF80030002B3FF4A2ACD2E4D3EDF0
S31500003170006AB2EE0C7AF4EEC76AF1EE10FA7FF549
S3150000318001AD93ED007AB4EEE77AF1EE10FA3FF76F
S31500003190B8AEF7E400210122134B1980134B1A70C5
S315000031A0B8E49FED0C7A0322EFE4012447E600BF62
S315000031B0E0000020883A0020803A0020703A002083
S315000031C0C00000207C3A0020AC3A00203333333F65
S315000031D09C99193E00000000900F00209C3A0020A8
S315000031E0E03A0020850F00207A0F0020840F00208F
S315000031F0783A0020D0360020880F0020860F002065
S31500003200D1360020064A074913780133DBB2137022
S315000032100379012B08BF044A0B7008BF137070476F
S315000032204F050020B1000020560500200379023B1F
S315000032301E2B11D8DFE803F03F10171010101110E5
S315000032401010101010101110101010101010101077
S3150000325010101010101011007047304A13880133F7
S315000032609BB2138070472DE9F0412D4C2D492388E0
S31500003270027A01339BB223800B783F2B06D80B785A
S31500003280294C581CC0B2DBB20870E2540D2A16D085
S315000032900A2A14D025490B889BB27E2B09D8002414
S315000032A00B889BB2581C80B2088021482149C25421
S315000032B00C80BDE8F08100221F4B1A7070471B4C32
S315000032C023889BB20BB31D4D2B78032B1DD8238867
S315000032D09BB23E2B1DD8228892B29046184E194FAB
S315000032E03078134907EB801003F09AFE00233278FA
S315000032F007EB821707F808303378013303F003032E
S3150000330033702B780133DBB22B7000232380BDE8AA
S31500003310F0814FF03F084246E0E700BFC6050020B7
S31500003320C80500208005002084050020D80E002056
S31500003330DC0E0020CC050020D40D0020D50D002089
S31500003340D70D0020D80D00209FED010B704700BF60
S31500003350000000000000F07F9FED010A704700BFEB
S315000033600000807FFFFFFFFF9FED010B704700BF4E
S31500003370000000000000F0FF9FED010A704700BF4B
S31500003380000080FFFFFFFFFF9FED010B704700BFAE
S31500003390000000000000F8FF9FED010A704700BF23
S315000033A00000C0FF08B5FFF7EFFF0E4B83ED000BE3
S315000033B0FFF7F2FF0C4B83ED000AFFF7C5FF0B4B3F
S315000033C083ED000BFFF7C8FF094B83ED000AFFF7FB
S315000033D0CBFF084B83ED000BFFF7CEFF064B83EDCB
S315000033E0000A08BDC83A0020BC3A0020D83A00209E
S315000033F0C43A0020D03A0020C03A002008B5FDF7B4
S3150000340087FF002008BD00BF2DE9F043C36B067996
S315000034105C6846712388A94F1D0A2D0155FA83F36E
S3150000342057F82330C3F340039B00037165884FEAC6
S31500003430152C4FEA0C1C5CFA85F557F8255005F05B
S3150000344002052B430371A5884FEA152C4FEA0C1C85
S315000034505CFA85F557F82550C5F3400E4EEA030E83
S3150000346080F804E0002E00F0C480038EA58C9D42F7
S3150000347084BF01330386038901339BB20381B4F809
S315000034802880984528BF98467645A0F8088000F021
S31500003490B380A31D9C4690F8069004F10C0580F8B5
S315000034A007901CF8017F774505D11CF8017CB742CF
S315000034B004BF012787716545F3D113F801CBE645B3
S315000034C004D11F78B74204BF002787719D42F4D10B
S315000034D0857D6B1CDBB2062B28BF002300EB450560
S315000034E0A5F80A8086798375B14500F0AD8000277E
S315000034F03D46BC46E38C63F30F0763F31F47C0F8F2
S315000035000A70E78C984667F30F0567F31F45C0F806
S315000035100E50E58CB94665F30F0C65F31F4CC0F8E9
S3150000352012C0AC4643443B444B442B44634407EE31
S31500003530903A9FED637AF8EEE77A87EE276A012ED6
S315000035401ABFB1EE466A9FED5F7A9FED5F7A002360
S3150000355080ED076A80ED067A0381D4ED046ADFED1B
S315000035605B7A66EEA76A66EE866AC0ED086AD4EDF7
S31500003570057A6FF00407DFED564A9FED515ADFEDED
S31500003580555A37EE277A631D04F10B063F1B9C46FE
S3150000359013F8015F75450DD107EB0C0507EE905A40
S315000035A0F8EEE77A67EEA47A67EE857A87EEA56A83
S315000035B037EE067AB342EAD1DFED417AB4EEE77A26
S315000035C0F1EE10FA31DD37EE677AF0EEE67A94ED39
S315000035D00B6AB4EEE76AF1EE10FA03DD90F83830C4
S315000035E0012B3BD0002380F83830C2ED006A81ED14
S315000035F0007A0020BDE8F08390ED067AD0ED076AE8
S31500003600DFED307A37EE267AB4EEE77AF1EE10FA8D
S3150000361080ED067A11DCDFED2C7AB4EEE77AF1EE76
S3150000362010FA0AD4D0ED086AA1E7B5EEC07AF1EE39
S3150000363010FA48BF37EE277AC7E7C0ED067AD0ED15
S31500003640086AB0EE677A92E74389B0F80C80C789BA
S31500003650B0F81090458AB0F814C063E7A58C038EC5
S315000036609D421AD890ED0D6AB5EEC06AF1EE10FAD9
S31500003670D0ED0A6AD0ED0B7A12DB76EEA76AC0EDC2
S315000036800A6AD4ED077AF4EEE76AF1EE10FAACDDD9
S31500003690C0ED0A7AF0EE676AA7E7DFED0F6AA4E7E6
S315000036A076EEE76AC0ED0A6AD4ED077AF1EE677A3C
S315000036B0F4EEE76AF1EE10FA97D5E9E700F8014073
S315000036C0DB0FC940920A063F920A06BF00007A4401
S315000036D0000070420000B4430000000070B5C163F2
S315000036E003464868F7EE006A90ED047AC6EE877ADC
S315000036F0C3ED0B7A90ED077A67EE877AC3ED0B7A06
S31500003700D0ED086A87EEA67A4FF0000E0024012558
S3150000371083ED0B7A0F4E486803F1080203F1140C8F
S315000037205E6083F83850C3F818E0C3F81CE0C3F8AD
S3150000373020E0C3F828E0C3F834E01C819C751C86A1
S31500003740C18C22F8021F6245FAD1034A00201A6092
S3150000375070BD00BF000001014853544D2DE9F041F2
S315000037601D4683689DF818C01E6E002E5FD1BCF101
S315000037700F0F04460F46C0E90312C0E90566C5618E
S3150000378080F820C04CD8BCF1070F94BF4FF000085A
S315000037904FF0010863685969C9B14FF0020CA56181
S315000037A05B69A8B259680968C881C8788A6068F3F5
S315000037B00510C87088786CF383008870002A3AD0A8
S315000037C09A6818685368984700282CD163681A6964
S315000037D09AB1022065611A69ADB253681968CB784F
S315000037E0CD8168F3051360F383034F60CB704FB34D
S315000037F0936810685B689847A8B90121A26894F895
S315000038002000536923F4F81343EA00435361A36885
S315000038103046D966A26893680B439360BDE8F08191
S315000038204FF00208B6E706463046BDE8F0810826A6
S315000038303046BDE8F081C0B262F38300054A887065
S315000038408A60BDE7DBB267F38303CB70024B4B6044
S31500003850CEE700BF603C00205C3C002010B49DF821
S31500003860044001945DF8044BFFF778BF30B5836AD6
S3150000387085B004468C4601ADABB193E8070085E8F8
S31500003880070062681846127883F804C01A60E26A74
S315000038909A60636A9847A36A1BB195E8070083E8B4
S315000038A0070005B030BD2B46EBE700BF2DE9F0471A
S315000038B00B78D1F8108003F5800303F58D530D4680
S315000038C004461F02B8F1000F13D04FF00062D8F87B
S315000038D004301B681A60D8F804301B689F60D8F85B
S315000038E00830D8E900011B6898470646002840F0D2
S315000038F01A816B6983B14FF400215A68126811600E
S315000039005A68126857609A68D3E9000112689047AE
S315000039100646002840F00A8100236560A9698C4AA2
S315000039206162E969C4E90A312B7803F5800303F57E
S315000039308D531B02A3606E7A697B002E18BF4FF46D
S315000039404412EF7A2B6AA87A090341EA4701014338
S31500003950D87942EAC0721878002840F0F380B6FAA7
S3150000396086F0400941EAC011587808B942F400329D
S315000039709D7842EA0070DA781F7A954045EA072A70
S315000039801F7912062FB1022F0CBF4FF440174FF4C8
S31500003990001793F805C0BCF1000F06D0BCF1010F6B
S315000039A014BF40F4807040F4407093F809C00CF0E6
S315000039B0030C42EA8C020A4393F806C0002E40F03C
S315000039C0C4801E7BD97A36049B7A46EA012642F4E5
S315000039D060421E43EFF31088012181F3108863686B
S315000039E0DFF884E11B78DEF80490C3F1130301FAD3
S315000039F003F329EA0303CEF80430DEF8043088F333
S31500003A001088544BA568AB66A368534DC3F810A045
S31500003A10A3685E60A368DF60A3685A61A36820F0AC
S31500003A208042C3F840C0A3689A60A3689A68986009
S31500003A3063684A489E7993F902303601484AEF187E
S31500003A40F6B287F8006340F8234003F1C00652F847
S31500003A50267027F4803742F8267052F82660BFF3A6
S31500003A605F8F5E09B60003F01F0306F1604601FA98
S31500003A7003F306F56146C6F88031336063685E7904
S31500003A8093F901303601EF18F6B287F8006340F873
S31500003A90234003F1C00652F8267027F4803742F817
S31500003AA0267052F82660BFF35F8F5E09B60003F0FA
S31500003AB01F0306F1604601FA03F306F56146C6F8F0
S31500003AC0803133606668337A96F904601B01AF195A
S31500003AD0DBB287F8003340F8264006F1C00352F8FF
S31500003AE0237027F4803742F8237052F82330BFF34F
S31500003AF05F8F73099B0006F01F0603F16043B14018
S31500003B0003F56143C3F8801119600026636893F9D1
S31500003B100320DB7915441B01DBB285F80033114B1A
S31500003B2040F8224023603046BDE8F087B8F1000F28
S31500003B30F9D0D8F80830D8F800001B6A9847304604
S31500003B40BDE8F08742F080720EE7002642E700BF2C
S31500003B5000103140000080FD00E100E0AC3C002098
S31500003B60006000404950535200400840EFF3038381
S31500003B70103B1F4A5BB203F1C00152F8210020F44A
S31500003B80803042F8210052F821201A4A52F8233098
S31500003B90D3E906218A421CD01869996828B393F89C
S31500003BA020C00968BCF10F0F0FD8BCF1070F8CBFFE
S31500003BB020F81210815499684FF000408866D96940
S31500003BC0013291429A6104D0704740F822109968F8
S31500003BD0F2E75B6893F90330012203F01F00064900
S31500003BE05B09824041F8232070470868E4E700BF7C
S31500003BF000600040AC3C002000E100E030B4EFF390
S31500003C000383103B31495BB203F1C00251F8220035
S31500003C1020F4803041F8220051F822202C4A52F834
S31500003C2023305D68DC692A6A50785A6901281CD0FD
S31500003C30A2420FD0D3E90201A9B193F820400F2C7C
S31500003C400AD951F8221001604FF0005099680132EC
S31500003C5088665A6130BC7047072C03D931F81210B8
S31500003C600160F1E7895C0160EEE704F1FF3C624523
S31500003C700ED029690029DBD095F90320154902F0F9
S31500003C801F04A040520941F822005A69DC69CFE7B7
S31500003C9095F9034004F1C00251F8225025F480350D
S31500003CA041F8225051F82220BFF35F8F620992003B
S31500003CB004F01F0402F1604200FA04F402F56142C6
S31500003CC0C2F8804114605A69DC69B1E700600040BF
S31500003CD0AC3C002000E100E030B4EFF30382103A80
S31500003CE02E4953B203F1C00051F8204002F0FF0202
S31500003CF024F4803441F8204051F82010284951F826
S31500003D0023008168096D890105D54168497A012931
S31500003D1001D030BC70470121224C5B0902F01F0222
S31500003D20203301FA02F244F82320BFF34F8FBFF38A
S31500003D306F8F436893F902305A0903F01F0301FAA3
S31500003D4003F3203244F82230BFF34F8FBFF36F8F57
S31500003D508468124BA26822F00102A260426892F9BE
S31500003D60022002F1C00453F8245025F4803543F8AC
S31500003D70245053F82430BFF35F8F53099B0002F0A1
S31500003D801F0203F1604301FA02F203F56143C3F82F
S31500003D9080211A6030BCFFF769BD00BF006000409B
S31500003DA0AC3C002000E100E070B5EFF30383324A3B
S31500003DB0103B5CB252F82460012273682F4893F9D5
S31500003DC00230590903F01F03203102FA03F340F8C9
S31500003DD02130BFF34F8FBFF36F8FB1688B6823F02D
S31500003DE001038B607368264993F9023003F1C00022
S31500003DF051F8205025F4803541F8205051F8201014
S31500003E00BFF35F8F03F01F015B099B0003F1604363
S31500003E108A4003F56143C3F880211A60B368194AE2
S31500003E201D6D9A662A0112D4EB0116D405F0A05531
S31500003E30B5F1A05F1AD0124A04F1C00352F823105C
S31500003E4021F4803142F8231052F8233070BD052149
S31500003E503046FFF70BFDEB01E8D50421304605F0AF
S31500003E60A055FFF703FDB5F1A05FE4D10821304668
S31500003E70FFF7FCFCDFE700BFAC3C002000E100E000
S31500003E8000600040000080FD844610B4006A83682C
S31500003E9023F440138360DCF82040A36C5800FCD563
S31500003EA0A36823F01003A360DCF82040237FC3F34C
S31500003EB00010DB06FAD4CCE90312A36843F0101312
S31500003EC0A3605DF8044B7047F0B5846A85B005467B
S31500003ED00F4694466E46B4B194E80F0086E80F008C
S31500003EE0EB6920461B78A760236084F804C0EB6A60
S31500003EF0E3606B6A9847AC6A1CB196E80F0084E8E9
S31500003F000F0005B0F0BD3446EAE700BF3C4B416800
S31500003F10994272D170B4016A02468B6823F4401349
S31500003F208B60016A8B6823F010038B60006A037F45
S31500003F30C3F30011DB06FAD40120D369314C93F99F
S31500003F4007304FEA531C03F01F030CF1200C00FA54
S31500003F5003F344F82C30BFF34F8FBFF36F8FD36951
S31500003F6093F909304FEA531C03F01F0300FA03F3D9
S31500003F700CF1200C44F82C30BFF34F8FBFF36F8F3A
S31500003F80156AAB6823F48033AB60D36993F90530C7
S31500003F904FEA531C03F01F0300FA03F30CF1200C45
S31500003FA044F82C30BFF34F8FBFF36F8FD36993F96B
S31500003FB00B304FEA531C03F01F0300FA03F30CF116
S31500003FC0200C44F82C30BFF34F8FBFF36F8FEFF305
S31500003FD0108480F310884FF00043D6690A4896F89B
S31500003FE000C0456823FA0CF32B434360436884F30F
S31500003FF010885160084670BC70470720704700BFA4
S315000040004249435300E100E0004008402DE9F043F7
S3150000401000264FF0010C0A78067002F5800202F5C0
S315000040208C521202C0E907124A69034642628A6943
S31500004030D04DC0E90A628278CC696CF301028270C5
S315000040404A78B24214BF604602209A7860F30102B1
S315000040509A7091F90B0091F80AE0420900F01F07E7
S3150000406020320CFA07F745F82270BFF34F8FBFF3E3
S315000040706F8FC14A00F1C00752F8278066F31048D7
S3150000408042F8278052F82770BC4F4FEA0E1E05EB08
S3150000409000085FFA8EFE88F800E347F8203091F9B1
S315000040A0050091F804E04FEA501800F01F0908F1E6
S315000040B020080CFA09F945F82890BFF34F8FBFF393
S315000040C06F8F00F1C00852F8289066F3104942F845
S315000040D0289052F828804FEA0E1E05EB00085FFA7A
S315000040E08EFE88F800E347F8203091F9070091F832
S315000040F006E04FEA501800F01F0908F120080CFAF4
S3150000410009F945F82890BFF34F8FBFF36F8F00F181
S31500004110C00852F8289066F3104942F8289052F8E1
S3150000412028804FEA0E1E05EB00085FFA8EFE88F81F
S3150000413000E347F8203091F9090091F808E04FEACA
S31500004140501800F01F0908F120080CFA09F945F883
S315000041502890BFF34F8FBFF36F8F00F1C00852F85E
S31500004160289066F3104942F8289052F828204FEA22
S315000041700E12D2B2054485F8002347F82030EFF33B
S3150000418010868CF310884FF0004508787C4AC540AD
S31500004190506820EA05005060526886F310884FF494
S315000041A080601A6A90604A78CD78C8691202AD03B9
S315000041B005F4804502F440722A43057846682D06C8
S315000041C005F040752A434578ED03ADB22A43457B99
S315000041D06D0505F400152A431D6A42F480526A6192
S315000041E00578AA1E624540F2BE8032681D6A2A61C1
S315000041F0057B8A7805F0030545F0300532B1022AC1
S3150000420014BF4FF440724FF4807215434FF0000C08
S31500004210012640F21F278278120702F080522A43B5
S315000042201D6AEA601A6AC2F818C00A7806FA02F22B
S315000042303A4202D01A6A53495162827BC57B017C9D
S3150000424002F0010205F01F0042EA002200201D6A6A
S3150000425001F01F0142EA01422A63C3E90300C3E9F0
S315000042600500196A6489484D1C818D66D969424AE0
S3150000427091F9051001F1C00452F8245060F310457D
S3150000428042F8245052F82440BFF35F8F012501F015
S315000042901F044909890001F1604101F5614105FAF0
S315000042A004F4C1F880410C60D96991F90B4004F11E
S315000042B0C00152F8216060F3104642F8216052F8BE
S315000042C02110BFF35F8F6109890004F01F0401F11B
S315000042D0604105FA04F401F56141C1F880410C60C2
S315000042E0D96991F9074004F1C00152F8216060F3E1
S315000042F0104642F8216052F82110BFF35F8F610922
S31500004300890004F01F0401F1604105FA04F401F587
S315000043106141C1F880410C60D96991F9091001F138
S31500004320C00452F8246060F3104642F8246052F844
S315000043302420BFF35F8F4A09920001F01F0102F1AA
S3150000434060428D4002F56142C2F8805115600F4906
S315000043501A6A9160196A0A7FD207FCD50C4A0020B6
S315000043605A60BDE8F0830B4A0B4E022D18BF324649
S315000043703CE700BF00E100E000600040AC3C0020EC
S315000043800040084000001F1F1000079D1104010097
S315000043904249435324FF00FF04FF00FFEFF303836A
S315000043A0103B204A5BB203F1C00152F8210020F411
S315000043B0803042F8210052F821201B4A52F823008F
S315000043C0C3691B6983B1036903B17047026A00219F
S315000043D0936823F4801343F400139360436AC16027
S315000043E0C3B18022FFF770BD0369026A002BEED0CD
S315000043F08378C16803F00303022B0CD00B7813718A
S315000044008278D0E9031302F003029B1A1144C0E933
S315000044100313D9E770470B8823F4DC439BB2536040
S31500004420EEE700BF00600040AC3C002010B582B053
S31500004430EFF30383103B1F4A5BB203F1C00152F84E
S31500004440210020F4803042F8210052F821201A4A37
S3150000445052F82340A27802F00303022B236A0CBF12
S3150000446019681978A3690CBFC1F30801C9B2019193
S3150000447043B9636AB3B10422204602B0BDE81040D6
S31500004480FFF722BD02F0030201A9606902F0C8FD30
S31500004490D4E90521A37803F003031A44C91AC4E931
S315000044A0052109B102B010BD636A002BFAD00122C2
S315000044B0E2E700BF00600040AC3C002010B5EFF31F
S315000044C003830F4A103B5CB252F82400026A9368D9
S315000044D023F4401323F010039360436A1BB10222B6
S315000044E00021FFF7F1FC074A04F1C00352F823103C
S315000044F021F4803142F8231052F8233010BD00BF5A
S31500004500AC3C00200060004038B5EFF303831D4A41
S31500004510103B5CB252F824008378056A03F003036B
S31500004520022B0CBF29682978AA6C08BFC1F30801C1
S31500004530C2F30073C2F3006C4FEA031343EA4C1351
S31500004540C2F3C06243EAC20C18BFC9B2DB066246B8
S3150000455004D5AB6C1B0458BF4CF04002AB6E43F065
S31500004560C853AB66436A0BB1FFF7AEFC064A04F1CB
S31500004570C00352F8231021F4803142F8231052F878
S31500004580233038BDAC3C00200060004010B40B0A5C
S31500004590064C1B0153FA81F154F821300020C3F375
S315000045A040035DF8044B1370704700BF00F80140EC
S315000045B00120CBB2984080B202B900040B0A5B011D
S315000045C003F1804303F5F83398600020704700BF7D
S315000045D0F0B5EFF31082012383F31088224E33687F
S315000045E01BB922490B7340230B73336801333360C5
S315000045F082F31088038823B300211D4D08E01B01B8
S31500004600134445F82340028801318BB29A4218D9E7
S31500004610436853F8314003EBC1029288E7034FEA3F
S315000046201223D2B2EBD502EB031C55F82CE024F48E
S3150000463080372EF4803E45F82CE01B0145F82C709F
S31500004640DEE7EFF31082012383F31088336813B19A
S315000046503368013B336033681BB9802003490B7311
S31500004660087382F31088F0BDA83C002000FD0140CD
S3150000467000F8014008B5034B03600846FFF7A8FFA2
S31500004680002008BD54524F5030B4EFF3108401237C
S3150000469083F310881D4B186828B94FF0400C1C4D49
S315000046A0287385F80CC018680130186084F31088E8
S315000046B0D4034FEA1120C9B219D40001154C08449D
S315000046C044F82020EFF31082012181F31088196845
S315000046D011B11968013919601B681BB980200C4992
S315000046E00B73087382F31088002030BC7047094CA6
S315000046F001EB001C54F82C50000125F4803544F8D9
S315000047002C5022F4803544F82C50D7E7A83C0020E2
S3150000471000FD014000F8014003465A681B6900206D
S3150000472053607047034610B4043900F10C0C53F87B
S31500004730044F51F8042F62651C68A265027D022AA7
S315000047400BD08269526852681278062A05D06345F2
S31500004750EDD100205DF8044B70471C68CA68E2651D
S315000047601C682266F3E700BF2DE9F04106460D46B8
S3150000477007460C4601F10C0854F8043FD3E9000142
S3150000478000F0CAF923681B689B6847F8043F2A783B
S31500004790022A03D11A6C42F420221A644445EBD152
S315000047A06A69044B32612A78B5613275336000203C
S315000047B0BDE8F0813354504703460020D3E9022375
S315000047C09360704703460020D3E902235360704785
S315000047D003460020D3E90223D3607047034670B432
S315000047E05A689E68D2690020D2E9011444F0004557
S315000047F0D46875619D6844F00044AC619C6841F0E2
S3150000480000412161146999684C629B6852699A62F9
S3150000481070BC704703464FF00041002210B49C68FC
S31500004820104621619C6861619C68A16199684A6231
S315000048309B689A625DF8044B704700BF43681B781B
S31500004840032B88BF0A46836898BF01F1FF329A6638
S3150000485043681B782BB98368490801395965836811
S3150000486099658368D96AC90707D44FF4AA015A66BD
S3150000487083681964D0E90232DA600020704700BF0D
S3150000488003469B681232013903EB8203002059600C
S31500004890704700BF03469A680020D26AC2F300023E
S315000048A00A719B689B6C0B60704700BF84460020B2
S315000048B0CCE90632CCF81410704700BF70B5836996
S315000048C084B004468C46164601AD9BB193E80700BA
S315000048D085E8070083F804C09E60E26918461A60FE
S315000048E063699847A3691BB195E8070083E8070049
S315000048F004B070BD2B46EDE7D0E9012312785B6E5C
S31500004900032A98BF01338B6080680B4A0B4BC06A41
S31500004910126A1B68C2F3026C03FA0CF34FF0010C27
S3150000492002F00702C0F3C350D340C3404B600020DF
S3150000493081F800C0704700BF00E00140EC3C002059
S3150000494010B490F800C0886EBCF1030F1ED8013079
S31500004950AAB9019C496BE40754BF01F01F01C1F3DA
S31500004960044101F00C01A1F10401B1FA81F14909F8
S31500004970E2B921BB02225DF8044B5A6070479042AF
S31500004980E7D9013A5DF8044B1A6070470AB19042C4
S31500004990F8D8019C496BE40754BF01F01F01C1F32D
S315000049A00441090981F00101002AE2D0824201D3C3
S315000049B00029DFD103225DF8044B5A6070470028B6
S315000049C0D8D0F7E7FFFFFFFF9FED397B2DE9F043D6
S315000049D085B00092866802AB074688461446406852
S315000049E002F003090A4631468DED027BFFF7A8FF68
S315000049F0039B356B93B914F0080F14BF04220222EF
S31500004A00A107029820D502F1120106EB8101486048
S31500004A10B968133201EB82014860BE6862061BD595
S31500004A20326CB9F1010F42F48002326427D025F4CA
S31500004A304035BE6845EA0345B9F1000F16D100209E
S31500004A40356305B0BDE8F0834A44123206EB8202B4
S31500004A5050606206BE68E3D4B9F1010F23D025F495
S31500004A604035022C45EA0345E6D173B925F0407579
S31500004A7045EA03650020356305B0BDE8F08325F0FF
S31500004A804075BE6845EA0365F4E70121786802AB24
S31500004A90009142463146FFF753FF039B25F04075D0
S31500004AA045EA0365E6E7022CE0D1DEE7AFF30080D6
S31500004AB0FFFFFFFF00000000002800DA704710B477
S31500004AC000F160430901124CC9B203F5614383F852
S31500004AD00013104B44F8202000F1C00253F82210B6
S31500004AE021F4803143F8221053F82230BFF35F8F50
S31500004AF0012243099B0000F01F0003F1604303F508
S31500004B0061438240C3F880211A605DF8044B704708
S31500004B10AC3C0020006000402DE9F04301270B7CEF
S31500004B20002607FA03F3C360C3F30903B3FA83F35A
S31500004B305B09416003740B7CA94ADFF8B4C21A44CE
S31500004B40120282604B690D4643618B690446C0E9D7
S31500004B50066385B0CE69CCF8007BEFF3108187F34E
S31500004B601088A04B1A6922F000421A611B6981F372
S31500004B701088C3681B070CD0EFF3108187F31088E9
S31500004B80994AC06853889BB223EA0003538081F395
S31500004B9010884FF425410023A2681160A268D362F1
S31500004BA0A268D363A268936429782B7A6A6803297A
S31500004BB04FEAC35302F1FF3000F04A8184BF10462A
S31500004BC043EA01434FF000420021A7689FED827B34
S31500004BD0FB62A3688DED027B1A61A3685A61A36824
S31500004BE09A61A3685962A3689962A368B269DA6197
S31500004BF0A368F2691A62A3689866A36858662B7858
S31500004C00D6F83880002B40F00F8101234FF0030CBB
S31500004C106A68A7685208013A02927A65A1688A65AD
S31500004C202978032903D9A168CA65A1680A66B26B07
S31500004C30BAB932788AB12F787278022F4FEA821089
S31500004C404FEA021100F00C8140F21381032248EA78
S31500004C50020202430A4342F48078B278002A40F006
S31500004C60C9806268D26992F83010C80705D5916A82
S31500004C70A0680139C16492F83010890703D5D26A59
S31500004C80A168013A0A6501212A7C01FA02F2C2F3FF
S31500004C900902002A42D00020A2685064776BD4F83B
S31500004CA008E0002F00F0B580287CBA7897F80390CA
S31500004CB001FA00F01206C0F3090042EA0972002860
S31500004CC036D0B868002800F0C680CEF888104FF0BD
S31500004CD0010EA168B868C1F88C00297C0EFA01F1B2
S31500004CE0C1F30901B9B1A168F868C1F89000787EEE
S31500004CF0397E000240EA8110B97E40EA0130A1689F
S31500004D004864A168386997F804E00867A16878697B
S31500004D1042EA0E42C867D4F808E009E0776BD4F897
S31500004D2008E0002F75D0FA78B978120742EA0162D6
S31500004D30CEF83820B26B7AB93A7FF97E520642EA4B
S31500004D40412248EA020896F8212096F820105207D8
S31500004D5042EA413248EA020896F83020002A14BF97
S31500004D604FF4A0014FF4AA01A26811642A78012A1F
S31500004D7004D10021A268D164A2681165A268C2F8B4
S31500004D803480A268C2F830C0A2681363D4E9023244
S31500004D90DA60697C224695F91200FFF78DFE2246FD
S31500004DA096F8221096F92400FFF786FE224696F81A
S31500004DB0231096F92500FFF77FFE2FB1224639789A
S31500004DC097F90100FFF778FE0020084B236005B035
S31500004DD0BDE8F083AFF30080FFFFFFFF0000000097
S31500004DE0901640000040084000A01640545047006E
S31500004DF000901640F17828780A01022842EA8112CA
S31500004E0030D03BD903210A4348EA024242F0807877
S31500004E1027E70027CEF83870A268C2F88870B26B10
S31500004E20002A99D117468EE7012BA7681CD000915E
S31500004E30EA68394602AB6068FFF782FDDDE90221C8
S31500004E400B0643EA014343F0030C43F00103E4E697
S31500004E5043F48033B6E6F968003918BF012134E718
S31500004E600922F4E60921CEE74FF0030C4FF0FF329A
S31500004E70D3E6002A0CBF06220922E8E600290CBF69
S31500004E8006210921BFE700BF30B44268034692F904
S31500004E901210D269002910DB012401F01F05AC4075
S31500004EA048092B4D203045F82040BFF34F8FBFF304
S31500004EB06F8F0024274840F8214092F924100029DA
S31500004EC010DB012401F01F05AC404809204D2030BD
S31500004ED045F82040BFF34F8FBFF36F8F00241D4866
S31500004EE040F8214092F92510002910DB012401F039
S31500004EF01F05AC404809164D203045F82040BFF349
S31500004F004F8FBFF36F8F0024124840F82140526B39
S31500004F10A2B192F90120002A10DB01200C4C5109A4
S31500004F2002F01F052031A84044F82100BFF34F8F3F
S31500004F30BFF36F8F0020074941F822000020D3E914
S31500004F400221186091609B68586330BC704700BFAF
S31500004F5000E100E0AC3C002082680129536B02D0DE
S31500004F6043F4807309B143F08073002053637047A4
S31500004F70F0B5EFF30382103A214C51B201F1C00CA7
S31500004F8054F82C3023F4803344F82C308B0003F192
S31500004F90804303F5C043D3F800031A4850F82100B4
S31500004FA0456895F800E0BEF1010F08D043692BB1C2
S31500004FB0BDE8F04000221146FFF780BCF0BD002599
S31500004FC0D0E90267B760866802F0FF02B5648668BA
S31500004FD0F5648668356554F82C6065F3104644F828
S31500004FE02C60D3F80033BFF35F8F074C4B0902F0F8
S31500004FF01F020EFA02F2603344F82320D6E700BF00
S3150000500000600040AC3C002000E100E0844630B483
S3150000501082B0019100921D4990F904201C4D51F86F
S315000050202200C03255F822101A4C21F0807145F842
S3150000503022109CF9041041F40041E28992B2914297
S31500005040FBD008222274019A0AB1019A4260009AA2
S315000050500AB1009A8260C27802F0C001802913D09A
S315000050603F2A98BFC381182200200A4B08491A74A8
S315000050709CF90430C03351F8232042F0807241F885
S31500005080232002B030BC70478381ECE7000000208B
S31500005090006000400054004006207047062070471C
S315000050A0034693F904300549C03351F82320002004
S315000050B042F0807241F82320704700BF0060004034
S315000050C0034693F904300549C03351F823200020E4
S315000050D022F0807241F82320704700BF0060004034
S315000050E0002290F90400124B53F82030C1E9002247
S315000050F0DA783F2A0CD94FF480728A60DA89D2B204
S31500005100CA60DA7802F0C002802A09D0002070470F
S315000051104FF480328A60DB8900209BB2CB607047F7
S315000051204FF480320A609B8900209BB24B60704727
S315000051300000002006207047062070470346002224
S3150000514030B593F904C0074C0CF1C00E54F82E107C
S31500005150054D21F0807144F82E1045F82C201A6078
S31500005160104630BD006000400000002030B5864685
S3150000517090F904301C4DC03355F823201B4C22F007
S31500005180807245F8232090F9042042F40042E38916
S315000051909BB29A42FBD00B46DA789C463F2A05D949
S315000051A0DA89D2B202EB022292B2DA819CF80220AC
S315000051B010333F2AF0D84FF0080C18220B4B0C4D39
S315000051C083F810C09EF904C0074C45F82C101A74D9
S315000051D09EF904300020C03354F8232042F0807238
S315000051E044F8232030BD00BF00600040005400405A
S315000051F000000020F8B5274A044613780D4643B34D
S315000052006B6893F90030002B3FDB234850F82320CE
S31500005210002A3CD123712D68BDB12B46DA78194698
S315000052203F2A05D9DA89D2B202EB022292B2DA819A
S315000052308A7810333F2AF1D808211822174B19749F
S3150000524094F9041040F821501A74154B002023607D
S31500005250F8BD01261670EFF3108086F31088114A08
S31500005260116821F480011160126880F310880A4FDA
S3150000527019463422384601F087FE084B5F611E73DB
S315000052806B6893F90030002BBFDA0B20F8BD0820BD
S31500005290F8BD00BF643C0020000000200054004020
S315000052A00043544400400840844610B40A4ADCF8DF
S315000052B00430D2F8084C0B402343C2F8083CDCF813
S315000052C00840D2F8103C21401943C2F8101C0020B7
S315000052D05DF8044B704700BF00001740084BD3F839
S315000052E0802C0378013B032B05D9131E18BF01231D
S315000052F000200B707047022300200B70704700BF20
S315000053000000174003461A78052A17D8DFE802F08E
S315000053102A2E1D1803034FF0050C1A691949506906
S3150000532090F8902002F00702C1F8802290F89020B1
S31500005330C2F30212C1F88C2283F800C00020704725
S3150000534002224FF440701A70704704210D4A1970FA
S31500005350D2F88C124907D6D007234FF48060C2F8E2
S315000053608C327047012203201A7070470321054AC8
S315000053701970D2F880124807C5D007230420C2F856
S3150000538080327047000017400023F0B50161CA68FB
S31500005390044642610A690370C0E906324969EFF3BF
S315000053A01080012383F310886C4BDA6822F4803274
S315000053B0DA60DA6880F310880A7F02F00302012AB5
S315000053C00AD1EFF3108082F310881A6922F00042A6
S315000053D01A611B6980F3108800230A6A6048C2605C
S315000053E003604368002BFCD10125CA6982605C4AD0
S315000053F0056050680128FCD10025486A584E1064A3
S315000054005564D1F89C50081FC2F8605291F890502C
S3150000541005F00705C2F8805291F89050C5F30215C1
S31500005420C2F88C52D1F89450C2F88852D1F89850EC
S31500005430C2F894524D69C2F840538D69C2F844537C
S3150000544050F8042F03F1B005013342F48032042BE7
S3150000545046F82520F4D10B7C424D1804002B18BFCA
S3150000546040F00100C6F80003486E3F4BC6F86402E0
S31500005470886E01F19C02C6F8B00252F8040F04339C
S3150000548043F8040C106AAB42D861506C1864F4D12E
S31500005490002240F2FF174FF0010ED1F8E000304B2A
S315000054A0324EC3F8A003C3F80024C3F80424C3F89B
S315000054B00824C3F80C240A8F2D4DC3F8C0244A8F44
S315000054C02C48C3F8C424CA6BC3F8C8240A6CC3F8B2
S315000054D0CC244A6CC3F8D0248A6CC3F8D424CA6C92
S315000054E0C3F8D824C3F8F07C23695B69DB6E03F14B
S315000054F01C0103F1380C11F9013B002B21DB11F8DB
S315000055001D2CF7181201D2B287F8002303F1C0024E
