S00B00003030302E7372656389
S31500000000204E0020F958000031570000F558000036
S31500000010F5580000F5580000F5580000F5580000A6
S31500000020000000000000000000000000F55800007D
S31500000030F558000000000000F5580000F5580000D3
S31500000040214A0000F55300009D5400004D55000064
S31500000050214A0000DD3E00004D3E00006D3F0000DD
S31500000060B93F00001D360000AD360000893700009C
S31500000070593800000348044B834202D0034B03B1B6
S3150000008018477047C8020020C80200200000000080
S31500000090064B0749C91A891048BF0131491003D0D8
S315000000A0044B0BB101481847704700BFC802002037
S315000000B0C80200200000000010B5064C237843B9A2
S315000000C0FFF7D8FF044B13B10448AFF300800123B8
S315000000D0237010BDE802002000000000389F0000D9
S315000000E008B5054B1BB105490548AFF30080BDE8CF
S315000000F00840FFF7CDBF00BF00000000EC02002063
S31500000100389F0000082010B502F0A4FE4FF003321D
S3150000011040F20110044B054C0549C3E90022DC609E
S315000001209A60A1F86F0010BD0403002003030301C9
S315000001301403002070B52DED028B6D4CA5686E1C66
S315000001401CBF0135A560A57B002D6DD140F20110C5
S31500000150E0814FF0000C0020C2F800C0187094ED4A
S31500000160007A9FED646ADFED646A27EE067A60EE38
S31500000170A66A37EE267A614D37EE608AD5ED047AA7
S31500000180012684ED007A68EE277A9FED5D7A84ED8C
S31500000190017A77EE877A9FED5B7AF4EEC77A0023D1
S315000001A0F1EE10FA0B6028DC9FED577AF4EEC77A71
S315000001B0F1EE10FA65D581ED017A544BD3E90001D1
S315000001C005F0A4FC95ED057A07EE900A67EE877AAE
S315000001D067EE880AF5EEC00A0023F1EE10FA6373A3
S315000001E001DCDFED470AD4ED017A77EEA07AC4EDA3
S315000001F0017A2673BDEC028B70BD81ED017A434B0B
S31500000200D3E9000105F082FC95ED057A07EE900A28
S3150000021067EE877A67EE880AF5EEC00A0023F1EEEC
S3150000022010FA6373DDDCDEE7E57B012D3CD00028A8
S315000002304CD0207C02284FD0012082ED000A187095
S3150000024094ED007AD2ED006ADFED2A5A9FED2A6A14
S3150000025027EE257A66EE866A37EE267A274D37EE42
S31500000260608AD5ED047A637B84ED007A68EE277A9E
S315000002700BB10023636094F90C605EBB94ED017AC8
S3150000028087E7C1ED017A98DB204BD3E9000105F041
S315000002903DFC95ED057A07EE900A002367EE877A16
S315000002A0637367EE880A9EE700283FF452AFF0EECC
S315000002B0007AF4EEE71AF1EE10FAFFF64AAF40F2D2
S315000002C002300025A4F80F00A560B5E70120A4F8C8
S315000002D00F003EE7002658E740F2E630A568854263
S315000002E002D901202074A7E79FED090AA4E700BF01
S315000002F08C030020A4707D3F0AD7233C8800002091
S31500000300000000000D98463E0D9846BE8000002075
S315000003109A99193E0122014B5A7370478C030020AB
S3150000032070B41B4E3378072B24D890F9001051B3C4
S315000003300122184D184C03E00132B2F5807F20D01F
S315000003402B7804EB0323134403F8011C10F9011F57
S315000003500029F1D100212B7804EB03242B78A1543A
S31500000360013303F007032B7033780133DBB23370AC
S3150000037070BC7047094A138801339BB2138070BC66
S315000003807047FF22E6E70A46024D034CE2E700BF4C
S31500000390C0050020C2050020C4050020BE050020BF
S315000003A030B54FF0000C0725164C85B00223164ACF
S315000003B000951649164884F800C002F0A7FF154BB1
S315000003C0C2B21A7090B9144B039303E0039B013B2E
S315000003D0039313B12378002BF8D0039B43B10A4B48
S315000003E00E4918785A780E4B08701A7005B030BD51
S315000003F001210C4B0C4A197013780B44DBB21370B5
S31500000400EDE700BF46050020F004002000050020AF
S31500000410043C00203B050020009F24003E050020F0
S315000004203D0500203C0500203A050020002208B5C5
S31500000430044B60F07F0018705A70FFF7B1FF024B53
S31500000440587808BD00050020F0040020B5EEC00A6B
S31500000450F1EE10FAF8B504462DED028B1546B0EE16
S31500000460408A3FD400274E1EFCEEC88A224A18EE68
S31500000470903A06F0ADFA3844B0422DDA2E2300F158
S31500000480010C6645235404EB00011FDDF8EE688A73
S31500000490B2EE047A38EE680A6A1C024420EE070AB5
S315000004A0FDEEC07A17EE903A092BA8BF092307EE96
S315000004B0903AF8EEE77A0CF1010C3033944530EEC1
S315000004C0670A01F8013F08D06645E7DC624600236B
S315000004D0A354BDEC028BF8BD0B220023A354BDEC44
S315000004E0028BF8BD2D234E1EB1EE408A3146012700
S315000004F000F8013BB8E700BF0C8F00002DE9F04F74
S31500000500A84BDDB01B78042B04D1A74A138801330E
S315000005109BB21380A54B1A781AB11A78013AD2B257
S315000005201A70A34D2B889BB2002B5BD1A14C23786C
S31500000530002B40F09480A04CA04FA14DB5F900309F
S31500000540002B04DB9F4A1278072A40F26981B7F92B
S315000005500030002B07DB9C490A780132D2B2042A0C
S315000005600A7000F2FC80994B1B7843B1984A1388B5
S3150000057001339BB2B3F5FA6F138080F07C81237848
S315000005806BB3904B1B78072B29D89249924A0B885C
S31500000590128801339BB292B293420B801FD3002282
S315000005A08E4B8F481B7890ED000A03F0FF050A80FA
S315000005B0002B00F06783F6EE007A30EE270ABDEED8
S315000005C0C00A10EE101A874EDFF84C823278531CA0
S315000005D0DBB2042B337028F8121000F2EC815DB008
S315000005E0BDE8F08F804E734C338801339BB2338065
S315000005F033889BB2C72B9AD92378032B23D82B8811
S315000006009BB23E2B00F292812A8892B29146DFF885
S315000006100C82764F98F80000754907EB801006F0BB
S3150000062057FA002398F8002007EB821707F80930DD
S3150000063098F80030013303F0030388F8003023787C
S315000006400133DBB2237000236A4A2B803380138880
S3150000065001339BB213802378002B3FF46CAF664DB9
S31500000660624B2A780DF1300E03EB821CBCE80F00BA
S31500000670AEE80F00BCE80F00AEE80F00BCE80F00C4
S31500000680AEE80F009CE80F008EE80F002B780CA850
S31500000690013303F003032B702378013BDBB2237095
S315000006A006F023FA00283FF446AF0CAB0025534C66
S315000006B01A1805E0CB070BD5013815703FF43BAF90
S315000006C012F8013D093BDBB2172B24FA03F1F1D9ED
S315000006D04B4C042223884B4901339BB20CA8238040
S315000006E006F0D2F90446002840F0D980464A25464D
S315000006F01388464E01339BB20DAF138003E00135DC
S31500000700272D00F03B8156F82400394606F0D6F92D
S3150000071003340028F3D105EB450506EB85052B7A56
S31500000720012B00F00283022B00F04082002B40F0E8
S31500000730FA826B6808AC93ED000A04221021204669
S315000007401CADFFF783FE4FF480713B462846304AC6
S31500000750009406F03DF92846FFF7E2FDEBE6194A5C
S315000007601278072A3FF6FFAE0022262B0A7000F306
S315000007706382264A03EB430102EB81025168127A37
S31500000780002A00F006810A781CAD00922021284636
S31500000790204A06F01DF92846FFF7C2FD3B880133C3
S315000007A03B80E0E6BA050020B4050020560500208F
S315000007B0C80E0020C50D002050050020AC0000200A
S315000007C0AE000020C0050020A20400205E05002027
S315000007D0A00400204E050020B4000020B000002038
S315000007E0983A0020E0040020BC050020C80D002037
S315000007F0CC0E002058050020C60D002013008000F6
S315000008005C050020789000005A0500206C920000DC
S31500000810248F000020900000E4040020C70D002073
S31500000820262B38DCBC4E03EB430206EB8202107A21
S315000008305A00002878D0B949DFF864C3012808BFF8
S315000008406146134406EB8302507A0091B44AB549D7
S3150000085056F82330002818BF0A464FF480710192DB
S315000008601CA8B14A06F0B4F81CA8FFF759FD2B885E
S3150000087001332B806BE6AD4B1B78072B3FF67FAE23
S315000008800023AB481380FFF74BFDAA4A13880133B8
S315000008909BB2138073E64FF6FF732B8057E6042254
S315000008A0A5490CA806F0F0F80546002842D10DAF80
S315000008B02021384606F0C8F88046002800F0B581A9
S315000008C02C46954E057002E00135272D56D056F878
S315000008D02400394606F0F2F803340028F4D105EB7B
S315000008E0450506EB85056B7A002B00F03E822B7AD8
S315000008F008F10108012B00F08E82022B00F07982AC
S31500000900002B40F01082404605F050F951EC100BD8
S3150000091005F0FCF800EE100A6B6808AC0422102102
S31500000920204683ED000A0BE784498AE74FF03F092A
S315000009304A466CE682490CA806F0C0F8002800F08A
S31500000940418109227F490CA806F09EF8002840F054
S31500000950F8819DF93930202B00F06D826422002346
S3150000096001207949794D0A80794C7A497A4A2B7067
S3150000097020700B80794F7A4D1370DFE53B464FF4BC
S315000009808071784A1CA806F023F81CA8FFF7C8FC5B
S31500000990D1E50CAE91ED000A304604220C21FFF79A
S315000009A055FD1CAD0096202128466F4AB7F9003048
S315000009B006F00EF8EFE6DFF8ECA103229AED000A46
S315000009C00C211CA8FFF742FD05234FF48071674AEE
S315000009D0674805F0FDFF0225654FDFF8CC9108F169
S315000009E00A0B38F9023BC5F5807178194A4605F0BD
S315000009F0EFFFC3450544F4D15E4BF2EE043AD3ED66
S31500000A00004A5D4B9AED003AD3ED007A5B4BDFED81
S31500000A105C2A93ED004A93ED017AD3ED026A594BB5
S31500000A209FED592A93ED006AF6EE001AD3ED015AAE
S31500000A3067EEA37A93ED025A23EE023A64EE824AF7
S31500000A4024EE224A27EE227A66EEA26A26EE236A70
S31500000A5065EEA35A25EE235A77EEA17AFDEEE44A17
S31500000A60FDEEC33ABDEEC44ABDEEC55AFDEEE55AEB
S31500000A70BDEEC66AFDEEE66ABDEEC77AFDEEE77A22
S31500000A80C5F5807113EE903A8DED014ACDED074A1A
S31500000A908DED065ACDED055A8DED046ACDED036A4E
S31500000AA08DED027ACDED007A384A781905F090FF7F
S31500000AB04119002940F3288200232D4A7D1812F996
S31500000AC0010B43409542DBB2F9D1314A7818C1F5A2
S31500000AD0807105F07DFF2648FFF722FC00212D4A94
S31500000AE03170138805339BB213802B4B1A78002A7A
S31500000AF03FF475AD184A187813780133DBB2834298
S31500000B001370FFF46CAD2548217003881170013312
S31500000B109BB2038063E500BF6C920000108F00005B
S31500000B20208F00001C8F000004900000C0050020EC
S31500000B30349000006A0500205C8F0000148F0000CE
S31500000B40908F0000B88F0000B4000020E004002061
S31500000B50500500204E0500204C050020AC0000206A
S31500000B60AE000020488F0000149000003C9000006A
S31500000B70A00300205C3A0020600F00202005002022
S31500000B8000007A44140500200000C842409000008E
S31500000B905C9000004A0500204D0500204805002015
S31500000BA0188F0000603A0020589000006B681CAD5A
S31500000BB01C684FF480713B462846A74A009405F00E
S31500000BC007FFC8E50426A54BA54C1CADDFF8E4A23B
S31500000BD0DFF8E492DFF8E48293E8030004F5EA77AD
S31500000BE028608DF87410637A73B1D72E00F3C38032
S31500000BF0237A012B41D0022B3AD023B30C34A742DF
S31500000C0005D0637A002BF3D10C34A742EBD1042E26
S31500000C1000F3B180284605F068FF02469149284650
S31500000C20C2F1FF0205F01DFF95E58F48FFF778FB3F
S31500000C308E4C8F4F8F4D81E44FF6FF738E483B806D
S31500000C40FFF76EFB8FE463680DF1200B042293ED32
S31500000C50000A10215846FFF7F9FB4246CDF800B0CE
S31500000C60C6F58071A819236805F0B2FE0644CBE7E5
S31500000C7063684A461B680093F2E7636852461B782E
S31500000C800093EDE701220C2108A8FFF7DFFB7B4B61
S31500000C900CAE93ED000A0C2103223046FFF7D6FB7B
S31500000CA0774BB6EE006AD3ED007A764B77EE867A0E
S31500000CB093ED007A744B37EE067AD3ED006A76EE42
S31500000CC0866ABCEEC77AFCEEE66AFCEEE77A4FF47B
S31500000CD080716E4A08ABCDED036A8DED027ACDEDDB
S31500000CE0017A00961CA805F073FE1CA8FFF718FBF6
S31500000CF0674A6849138801339BB213800B78002B2F
S31500000D003FF46DAC644A097813780133DBB28B4249
S31500000D101370FFF464AC614925700B8815700133BC
S31500000D209BB20B805BE41CAD15E56B681CAD1C78B3
S31500000D304FF480713B462846594A009405F048FE18
S31500000D4009E59DF83030522B1CD19DF83130CBB9D6
S31500000D5001225149454C0B7052485349444F454D69
S31500000D6003800B702270FFF7E9BB3B464FF480719E
S31500000D704E4A1CA807E6013EAB572C2B04BF0023A6
S31500000D80AB5547E79DF93030572B00F0BF80472B16
S31500000D9040F096809DF83130303B092B00F29D8063
S31500000DA00DF1310004F005FF83B2262B3FF6C3ABED
S31500000DB00C212B4B84B201FB04331A7A5B68002AA0
S31500000DC040F0398108AE93ED000A042230461CAD8E
S31500000DD0FFF73CFB202123462846354A009605F0BE
S31500000DE0F7FD2846FFF79CFA204C214F214DFFF7CF
S31500000DF0A5BB01460A22404605F0E0FD04466E68A2
S31500000E001CAD34604FF480713B462846124A00946C
S31500000E1005F0DEFD9FE4404604F0CBFE6B68C0B2F1
S31500000E201CAD18704FF4807100903B4628461C4A52
S31500000E3005F0CEFD8FE40DF13A0004F0BAFE83B260
S31500000E40642B28BF6423012B4FF47A7238BF012329
S31500000E50B2FBF3F283E500BF3C8F0000988F0000E1
S31500000E606C92000030900000648F00005005002056
S31500000E70AC000020AE0000202C900000603A00205C
S31500000E80600F0020C4000020C00000206490000015
S31500000E904A0500204D0500204C050020480500208D
S31500000EA0308F00004E050020E00400207C8F0000FB
S31500000EB0C48F0000A88F0000B08F0000A08F000034
S31500000EC0502B38D03F2B40F0C0809DF931304D2B50
S31500000ED000F08B80542B00F093809DF83030412B2E
S31500000EE004D19DF83130002B3FF46CAE9DF83030C4
S31500000EF0442B53D19DF83130002B4FD1B14FB24C1A
S31500000F00B24D3B80FFF71ABB0023DEE59DF831307A
S31500000F10303B092BE1D80DF1310004F04AFE07EE13
S31500000F20900AF8EEE77AAA4BA74CC3ED007AA54FD4
S31500000F30A64DFFF703BB9DF931302F2BCDDD392BA5
S31500000F40CBDC3D210CA805F07FFD054600283FF4CB
S31500000F50F2AA0DF1310004F02CFE83B2262B3FF6E7
S31500000F60EAAA0C279B4E84B207FB0466737A002B11
S31500000F703FF4E1AA337A681C002B4ED104F016FE2A
S31500000F8051EC100B04F0C2FD00EE100A736808AEB7
S31500000F9004223946304683ED000A18E78E490CA82C
S31500000FA005F08CFDB0B18D490CA805F087FD88B120
S31500000FB08B490CA805F082FD60B18A490CA805F0A2
S31500000FC07DFD00287FF4B7AA804D7F4C7D4F288099
S31500000FD0FFF7B4BA00237C4C8349844A23700B7014
S31500000FE0784F7A4D1370FFF7A9BA814B1021D3EDD4
S31500000FF0007AFDEEE77A7F4A17EE903A1CA8C2E423
S315000010007D4B032293ED000A0C2108A8FFF71EFA78
S3150000101010217A4A08AB1CA8B5E404F0CAFD73682F
S31500001020C0B21CAD18702021009023462846744A91
S3150000103005F0CEFCD5E61E781CAD234620212846B9
S315000010406F4A009605F0C4FCCBE6462B31D04D2BFB
S315000010504BD19DF931302D2B04D0303BDBB2092B1F
S315000010603FF63BAF0DF1310004F0A3FD07EE900A09
S31500001070F8EEE77A5E4B9FED637AC3ED007AD3ED27
S31500001080007AF4EEC77AF1EE10FAC8BF83ED007A63
S31500001090DFED5D7A93ED007AB4EEE77AF1EE10FAC1
S315000010A07FF549AAC3ED007A474C464F474DFFF7F7
S315000010B045BA9DF83130303B092B3FF60EAF0DF1A6
S315000010C0310004F076FD83B2642B28BF6423012B24
S315000010D04FF47A7238BF0123B2FBF3F24B493A4C14
S315000010E0384F3A4D0A80FFF729BA542B3AD19DF969
S315000010F031302D2B04D0303BDBB2092B3FF6EDAE61
S315000011000DF1310004F055FD07EE900A9FED407A8F
S31500001110F8EEE77A67EE877A374B3E4AC3ED007AF8
S3150000112093ED007AD2ED007AB4EEE77AF1EE10FA9A
S31500001130C4BF11681960D2ED007A93ED007AF1EE22
S31500001140677AF4EEC77AF1EE10FA7FF7F4A9D2EDDA
S31500001150007AF1EE677A1C4CC3ED007A194F1B4DED
S31500001160FFF7ECB9452B1CD19DF93120A2F13003D4
S31500001170DBB2012B3FF6B1AE312A0AD000200522A0
S315000011802549264B0870104C0E4F104D1A70FFF76C
S31500001190D5B90122204B0C4C0A4F0C4D1A70FFF7A3
S315000011A0CDB9432B7FF499AE9DF83130303BDBB29D
S315000011B0012B3FF692AE1A4A034C024F034D1370B1
S315000011C0FFF7BCB9AC00002050050020AE0000209F
S315000011D0CC0000206C920000EC8F0000F08F000025
S315000011E0F88F0000FC8F00004C050020E004002072
S315000011F0540F0020DC8F000018370020E48F000019
S31500001200D08F000000007A4400007AC4B4000020A9
S315000012106F12833AD0000020A03A0020B436002096
S315000012201C3700202DE9F04F2DED028BA54989B022
S31500001230A54801F0ABFFFEF765FFFFF76BF8A34982
S31500001240A34803F0F9FD0346A249A148059303F01C
S31500001250EDFE034600219E48069304F061F89C4C7F
S315000012600790204604A903F091FD9DF81030022B4B
S31500001270F7D0994999488DF8123002F0CDFF97487A
S3150000128002F0A2FF964B1B78002B40F064820022EE
S3150000129040F60551934802F0E3FE0120924904F01E
S315000012A01BFA012240F605518E4802F0D9FE4FF492
S315000012B07A710A2004F010FA4FF0082300258B4FAC
S315000012C0012183483B6003F047FD0421804803F079
S315000012D043FD4FF4FA742E46DFF880824FF47A719C
S315000012E0012004F0F9F9B8F80020B8F80230013C02
S315000012F016441D44F2D17E4B7E48A3FB0612A3FB87
S31500001300051352095B0902217B803A8003F07CFBBE
S315000013100221794803F078FB0221784803F074FB38
S315000013207749784803F050F9764802F0AFFF7548E0
S3150000133002F0A0FF152240F606616A4802F0FCFEA4
S31500001340012240F60661674802F08AFE012240F655
S315000013500261644802F084FE4FF47A714FF4FA6039
S3150000136004F0BAF9052240F606615E4802F0E4FE92
S31500001370012240F606615B4802F072FE4FF47A7174
S315000013804FF4FA6004F0A8F95F4D40F605610DF1DF
S315000013901302544802F052FE5C4B9DF81320284677
S315000013A05B491A7002F08AFB002800F00E82632364
S315000013B0584A59490392009113705849584801F008
S315000013C0CDFF584BC2B204461A70002800F0DA81ED
S315000013D0554B564D0193DFED568A9FED568ADFF841
S315000013E080B1DFF880A1DFF88081534EDFF87C9171
S315000013F03C4C40F603610DF11302204602F01EFE3E
S315000014009DF813300DF11302A3F10103B3FA83F330
S3150000141040F604615B0920468BF8003002F00EFEB0
S315000014209DF81330454AA3F10103B3FA83F35B0930
S315000014301370DAF80030012B00F0468198F800307E
S31500001440002B40F0958099F80030002BD1D0009FFA
S315000014503B78002BCDD13A4A1378002BC9D13948B5
S315000014603949007801EB002005F03FFB0246D8B170
S31500001470012334483B700178334B234803EB0121A9
S31500001480029202F059FA314B029AC0B21870304BF0
S31500001490304992B21A800B88294A01339BB20B80DD
S315000014A02D4B1B78DBB21370264A1378013303F0F9
S315000014B00703137099F80030013BDBB289F800305E
S315000014C097E700BF40940000D03A00203096000015
S315000014D08C3B00208497000078940000103B00208D
S315000014E0710F0020C83A002040420F00DC000020A7
S315000014F0D34D62102C3B00204C3B00206C3B00205F
S31500001500A4980000B43B0020D43B0020B800002083
S3150000151000990000BA050020C40D0020349900008F
S31500001520043C0020B20000204405002000050020F5
S315000015300000003A33338341F0040020790F002085
S3150000154056050020C1050020C4050020B600002075
S315000015505405002052050020B7000020903A0020D4
S315000015607A0F00206405002010050020C005002029
S31500001570002388F80030019B1B78002B3FF463AFF3
S315000015809F232B80FEF70CFFA02372782B800292FC
S31500001590FEF706FFA123029A2B80737843EA022303
S315000015A0B94A1BB217461380FEF7FAFEA2237278D9
S315000015B02B800292FEF7F4FEA323029A2B80737807
S315000015C043EA02231BB27B80FEF7EAFEA42372786D
S315000015D02B800292FEF7E4FEA523029A2B807378F5
S315000015E043EA02231BB2BB80FEF7DAFEA62372781B
S315000015F02B800292FEF7D4FEA723029A2B807378E3
S31500001600A24943EA02231BB20F460B80FEF7C8FE2F
S31500001610A82372782B800292FEF7C2FEA923029AB3
S315000016202B80737843EA02231BB27B80FEF7B8FE59
S31500001630AA2372782B800292FEF7B2FE029A737882
S31500001640934843EA02231BB28F4ABB8013881BB21E
S3150000165007EE903AF8EEE77A67EEA87AC0ED007AE0
S3150000166053881BB207EE903AF8EEE77A67EEA87A4F
S31500001670C0ED017A9388874A1BB207EE903AF8EEDE
S31500001680E77A67EEA87AC0ED027A3B881BB207EECE
S31500001690903AF8EEE77A87EE887A82ED007A7B88D0
S315000016A01BB207EE903AF8EEE77A87EE887A82ED7B
S315000016B0017ABB881BB207EE903AF8EEE77A87EE1E
S315000016C0887A82ED027ABEE6734802F077F9102234
S315000016D040F60561204602F02FFD00226F4F704B49
S315000016E0D7F8FCC04FF47A714CF0807CC7F8FCC088
S315000016F05A60D3F800C04FF4FA704CF0010CC3F8EE
S3150000170000C003F0E9FF02230022CAF80030654B4F
S315000017101A60654BB3F8C43013F02003F9D1604A60
S315000017205360614BB3F8C4309B06FAD503235C4A79
S315000017305C49526820460A605C4A40F60561CAF870
S31500001740003002F0F9FC5A49534802F0B7F9042375
S31500001750039A137072E6012240F60161554802F0C1
S315000017607FFC4FF47A710A2003F0B6FF002240F6A0
S315000017700161504802F074FC4FF47A713C2003F08A
S31500001780ABFF84E54FF47A710A2003F0A5FF012729
S3150000179040F21113484E494D37702B80FEF700FE7C
S315000017A04FF47A710A2003F097FF022375203370F5
S315000017B0FEF73CFE0322424B187032701B78422B18
S315000017C02BD0404B01931C7005E602233E4F3F4A47
S315000017D040F6066137483B70039702F0ADFC4FF4C4
S315000017E07A714FF4FA7003F077FF394B21464022A5
S315000017F038481C7005F020F90423374E374A3480E8
S31500001800364E2D6A0092364A34702C695178354826
S31500001810354A046011703B70CFE576232B80FEF7C6
S31500001820BFFD4FF405632B80FEF7BAFD4FF47A71C6
S31500001830384603F051FF40F64F032B80FEF7B0FD0C
S315000018404FF47A71384603F047FF40F64E732B800B
S31500001850FEF7A6FD4FF47A71C82003F03DFF4E2037
S31500001860FEF7E4FD0346214A50201370FEF7DEFD25
S3150000187003461F4A2D201370FEF7D8FD11491D4A55
S31500001880019110700F70A6E5340500202C0500208C
S315000018902005002014050020D43B002000ED00E0C8
S315000018A0001000E06005002000F101400000010585
S315000018B000990000C83A00204005002000050020DD
S315000018C04505002044050020BA050020100001054A
S315000018D07005002074050020B8050020C40D002006
S315000018E0E00000206C05002068050020430500206C
S315000018F04205002041050020022800D07047024919
S31500001900024802F00FBC00BF98990000C83A0020B8
S315000019102DE9F04F2DED028B048B8BB0012C04D0FA
S315000019200BB0BDEC028BBDE8F08F4B4D0DF10F02F5
S315000019302B684FF43061013348482B6002F07EFB80
S315000019409DF80F30464AB3FA83F35B091370137898
S31500001950002B37D1434B1B78002B38D1424B434DDC
S315000019600193434B0093434C01212246424803F026
S3150000197007FD2178002900F0F48500234A1EDFF8D0
S3150000198014813E4F3E4EDFF810A1DFF81091D2B21F
S3150000199004EB830C9CF80700032BBCF804E0C0F3AF
S315000019A0C01BC0F3060C25D89A422AF813E009F8A2
S315000019B003C028F813E007F803C006F803B025D0E3
S315000019C00133E5E7274B1C701B78002BC6D000229D
S315000019D04FF07C5326480021026042600122234DCD
S315000019E0214C2B606B60AB60264B009001942170FC
S315000019F01A70B8E79A4228F813E007F803C006F809
S31500001A0003B003F1010301D0082BC1D100201E4B06
S31500001A101E4EDFF88CC0DFF88C801D4FDFF888E0A3
S31500001A20197004EB8001CB79898803F07F03102BB2
S31500001A3041D8DFE813F03F00400040004000620359
S31500001A4040004000400040004000400040005F036E
S31500001A505C035A034000570314370020C83A00209D
S31500001A60850F0020840F0020A03A0020843A002031
S31500001A70703A0020BC0400208C3B0020EC3600208D
S31500001A80E4360020B436002004370020903A0020C7
S31500001A905E0F0020F4360020DC360020D836002009
S31500001AA05C0F00205A0F0020680F002000F07F45D1
S31500001AB0333353403180904200F1010001D00828B1
S31500001AC0AFD13B885FED076A9BB207EE903AB8EE5E
S31500001AD0677A1FED096AC7EE267AB2EE0A5A67EEF2
S31500001AE0867A67EE857AD94FF2EE065AC7ED007A06
S31500001AF0BEF80030D64A9BB207EE903AB8EE677A47
S31500001B00C7EE267A67EE867A67EEA57AC2ED007A88
S31500001B10BCF800309BB20A2B07D940F6F472BCF829
S31500001B2000309BB2934240F2B984B8F800309BB2C1
S31500001B300A2B07D940F6F472B8F800309BB29342EC
S31500001B4040F23C84C34C94ED0D7AB5EEC07AF1EECA
S31500001B5010FA40F3BF83C04BD3ED007AC7EE876A15
S31500001B60F5EEC06AF1EE10FA00F1B483F7EE007AF2
S31500001B70F4EE676AF1EE10FA77FEA66ADFF868837C
S31500001B80D8ED007AF4EEE67AF1EE10FA40F1D3835E
S31500001B909FEDB26A77EE867AF4EEE67AF1EE10FA07
S31500001BA040F3D583C8ED006AF0EE667A27EE277A11
S31500001BB0DFF83893DFF838A3A94B4A4683ED007A5D
S31500001BC05146A84BA84801F077F9A84BDAED006A10
S31500001BD0D3ED007A9FEDA67A76EEE77AF4EEC77A31
S31500001BE099ED006AF1EE10FAA24A82ED006A40F31E
S31500001BF096839FEDA17A77EEC77AA048A04990ED2B
S31500001C00007A77EE877AC3ED006A9E4A0B88DFF882
S31500001C10E4C202EB830201339BB2C72BD2ED005A1A
S31500001C20C0ED007ACCED007AC2ED007A0B8040F26E
S31500001C305483002301220B80934B1A7077EEE57ACA
S31500001C409FED927AD4ED005A87EE875AB6EE006A77
S31500001C5085EE257AB4EEC67AF1EE10FA01D59FED3F
S31500001C608C7AD4ED0D7ADFED825A77EEA77A9FED66
S31500001C70896A67EEA57A87EE865AB5EEC05AF1EE06
S31500001C8010FA854B83ED007A40F36483834BF7EEBD
S31500001C90007A93ED004AC7EE055A93ED005A804B41
S31500001CA027EE067ADFED743AD3ED004A77EEC47A72
S31500001CB087EE236A67EEA47A25EE257A77EE877A91
S31500001CC098ED005AB4EEE55A75EE650AF1EE10FA93
S31500001CD04FF00102C3ED007AD4BF75EEC57AF0EE7F
S31500001CE0607A704BDFF810C2C3ED005A6E4B8CED74
S31500001CF0006A1A706D4B6E48C3ED007A6D4B9FED0E
S31500001D006E1AD3ED007A77EEA67A6C4B9FED6C0ACD
S31500001D10C3ED057A93ED054AC3ED057AB6F802E000
S31500001D20368807EE90EA06EE906A4688008804EE4A
S31500001D30906AF8EE677AF8EE644A07EE100A77EED4
S31500001D40E47AB8EE477AF8EE666A67EE817A76EE5E
S31500001D50C76A77EEA77A66EE816A77EEA67AD3ED42
S31500001D60043A67EE807ADFF894A1DFF89491CAED21
S31500001D70006A26EEA37A66EE844AC9ED007A67EE1B
S31500001D80846A67EEA37A4F4A4F4992ED002A77EEAE
S31500001D90E47AD1ED001A37EE267ADFED4C2A009B65
S31500001DA077EEC27A93ED003A37EE617A67EEA27A61
S31500001DB027EE227AB5EE403A77EE827A37EE217A2E
S31500001DC0F1EE10FAC2ED007ADFF838B1DFF83881AB
S31500001DD0019B3F4AC8ED000A81ED007AC2ED007A08
S31500001DE08BED007A1B7840F0A181009AD2ED014A72
S31500001DF0F5EE404AF1EE10FA40F0988142F20F708B
S31500001E0034490A88824240F2AD8233480178C9B229
S31500001E10002B00F0958102260129067040F095817D
S31500001E200178012900F091819CED006AB5EEC06A47
S31500001E30F1EE10FAC8BFFCEEC66A01782748C9B2AF
S31500001E4001702749274EC1ED007A5FE0600F002040
S31500001E506C0F002038000020540F0020ACC5A737B7
S31500001E609C3A0020783A0020D03A002030370020F3
S31500001E70DB0F494020370020DB0FC9402C370020FC
S31500001E803637002038370020343700200AD7A33CE5
S31500001E90000000000000704228370020D400002017
S31500001EA0683A00206C3A0020C8360020C43600206C
S31500001EB0DC000020800F00200000003A00100240E5
S31500001EC03ACD133FB4040020B8040020CDCCCC3D5D
S31500001ED0603A0020B2040020C1360020C03600203F
S31500001EE0BC360020B6360020583A00207C3A002046
S31500001EF0803A002024370020983A0020D03600206F
S31500001F00CC3600205C3A0020D43600207C49C1ED56
S31500001F10004ACABF16EE901A002189B2318079496B
S31500001F200978022984BF03210170002B00F00D817E
S31500001F3041F287339A4200F20881734B1A78002ADD
S31500001F4000F02B827149724AD1ED001A92ED002AF7
S31500001F50DFED702AD4ED006A66EE222A6E4B33EE70
S31500001F60477A34EEE71A94ED038AD3ED024AD4EDAC
S31500001F700D8A93ED003A66EEE26A86EE280A27EEAF
S31500001F80033A21EE246A66EE886A73EE214A36EE3B
S31500001F90026A66EEA76A36EE006A76EEA46A26EE56
S31500001FA0063A66EEA64ADFED5D0A74EE834AF4EE63
S31500001FB0E04AF1EE10FA00F3BB82F0EE464AF0EE8C
S31500001FC0660A9FED570AD3ED012A62EE802A93ED49
S31500001FD0033A62EE872A70EEE66A23EE003A72EE64
S31500001FE0A66A34EEC66A76EEA16AB6EE008A23EEDB
S31500001FF0017AF4EEC86A37EE067AF1EE10FA37EE99
S31500002000027AC1ED006A82ED007A40F3878281EDA3
S31500002010008AF6EE006AB4EEE67AF1EE10FA06DC15
S31500002020FEEE006AB4EEE67AF1EE10FA01D5C2EDE4
S31500002030006A20EEA36A24EE843A60EE840A64EE17
S31500002040A34A9FED387A36EE436AF6EE006A74EEDE
S31500002050A04A66EE266A64EE874AB1EE667A74EEA8
S31500002060E66AB4EEE66AF1EE10FA37EE647A40F10B
S315000020704682F4EEC76AF1EE10FA00F16482B0EE21
S31500002080664AF0EE464AF4EE474AF1EE10FA77FE5B
S31500002090244A74EE844ABEEE003A64EE834ADFEDCB
S315000020A0223A76EEA46A37EE247A36EE246AB6EE43
S315000020B0004A66EEA36A27EE237A26EE236A66EEC8
S315000020C0846A27EE047A26EE046A76EE846A37EE90
S315000020D0047A36EE046AC5ED016A85ED027A85ED6D
S315000020E0006A41E0AEF80010E5E43980E3E4A8F8C0
S315000020F00010E0E4ACF80010DDE47180DBE400BF22
S31500002100B8360020580F0020B0040020AC04002090
S31500002110A80400205077D63D880000203D0A673F7E
S3150000212017B7D138D0B35D3F3ACD933F0022BD49B2
S31500002130BD480A800178C9B2002B40F021811A46B9
S3150000214003260129067000F03181F6EE006A0022AE
S31500002150B0EE667AC5ED006AC5ED016AC5ED026AA4
S31500002160B0EE666AB14B1A704FF08041B04BB14A7F
S315000021701B781160002B3FD0AF4A138801339BB206
S31500002180138013889BB2632B36D90020009B1080E6
S315000021905E68AA4BAA491A88012492B202EB82020F
S315000021A001EB820282ED005A1A8892B202EB820299
S315000021B001EB8202C2ED015A1A8892B202EB820248
S315000021C001EB8202C2ED027A1A8892B202EB820217
S315000021D001EB8202D6601A8892B202EB820201EB10
S315000021E082010C741A88224492B21A801A8892B21A
S315000021F0B2F5FA7F28BF1880924B1B7843B3D7ED10
S31500002200005AF2EE047AF4EEE75AF1EE10FA1FDD08
S31500002210F6EE007A97ED005AF3EE024A36EE676A5A
S31500002220C4EE855A76EEE76A37EE677A26EE256AB9
S3150000223066EEA56A27EE257A36EE276A76EEA76A57
S3150000224037EE277A85ED006AC5ED016A85ED027ADB
S31500002250D7ED005AF2EE047AF4EEE75AF1EE10FAF0
S3150000226002DD3A68784B1A60DFED787A784B41F2F6
S31500002270707683ED006A26EE276AC3ED016A83ED68
S31500002280027A66EEA76A27EE277AFCEEC67A17EE82
S31500002290904AFCEEE67A17EE902AFCEEC77A17EE25
S315000022A0903AB44228BF3446B24228BF3246B342BF
S315000022B028BF3346674D04A967482C60CDE905233E
S315000022C06A600494AB6001F085FF0BB0BDEC028B35
S315000022D0BDE8F08FDFED616A50E4614B1B78002B9F
S315000022E07FF4ACACF0EEC67A9FED5E7AF4EE477AF8
S315000022F0F1EE10FA3FF6B3ACD4ED007AF5EEC07A03
S31500002300F1EE10FA7FF7ABAC86EE277AF6EE007A9E
S31500002310B4EEE77AF1EE10FA3FF5A1ACA1E49FED39
S31500002320527AF4EEC77AF1EE10FA44BF9FED4F7A77
S3150000233077EE877A61E47FF739AC9FED4D6A77EEE9
S31500002340C67AF4EEE67AF1EE10FA3FF52BACC8ED5C
S31500002350007A2BE4DFED417A464BB0EE676AF0EE89
S31500002360675AADE43048013292B20A800178C9B2A8
S31500002370002B3FF4E5AE41F28736B2423FF64BAD55
S31500002380009ED6ED014A0126B14206707FF4D5AD16
S315000023900178B1427FF448ADCFE501229FED2F2AA7
S315000023A01A70F0EE421A3449344AD1E5017801290F
S315000023B03FF4CBAE0099D1ED014A35E5B8F80020DF
S315000023C09FED2F7A92B207EE902AF8EE676AB8F878
S315000023D0003037EE667A9BB207EE903ADFED2A5A66
S315000023E0F8EE677A27EE257A9FED286A87EE270AA8
S315000023F080EE060A06F02AFCDFED257A9FED257AA7
S3150000240060EE277AB7EE006A77EE877ADFED226A0A
S3150000241086EE277A77EE667A1A4BC3ED007AFFF7D7
S3150000242091BB00BFB2040020C1360020B0040020DA
S31500002430C8000020D8000020A00F0020A20F002016
S31500002440A40F0020C9000020700000200080BB45BA
S31500002450880F0020940F0020103B00200000000091
S3150000246034370020FFFF7F7FDB0F49C0DB0FC940F9
S31500002470ACC5A737683A0020AC040020A8040020A9
S3150000248000F07F45C000002000401C4600E0AB463F
S31500002490467967390FCF5B3B33938843BCF80020FE
S315000024A0BCF8003092B207EE902AB8EE677A9BB27B
S315000024B007EE903A76EEC76A5FED0D5AF8EE677A48
S315000024C066EEA56A1FED0F6A86EEA70A80EE060A7B
S315000024D006F0BCFB5FED127A1FED127A60EE277AEA
S315000024E0B7EE006A77EE877A5FED156A86EE277A91
S315000024F077EE667A214BC3ED007AFFF716BBB4EE92
S31500002500C76AF1EE10FAB4EEE66A21D4F1EE10FADB
S31500002510B0EE464A19DDF0EE664AB4E5BEEE006A54
S31500002520F4EEC66AF1EE10FA48BF81ED006A70E576
S31500002530B1EEE43ADFED122AC2EE834A66EEA40A51
S3150000254066EE244A3DE5B0EE474AF0EE464A9AE585
S31500002550F1EE10FAB0EE474AD8BFF0EE464ADADCA2
S3150000256097E5084B084EDFF828C0DFF82880074FAC
S31500002570DFF824E01970FFF7A4BA00BFC4000020FA
S315000025803333733F04370020903A00205E0F00205B
S315000025905C0F00205A0F0020680F0020704700BF14
S315000025A02DE9F041B54C82B02368013323602368DE
S315000025B0B3F57A7F00F09C822368B3F5FA6F00F0DA
S315000025C08782AF4BAF4D1B782878002B00F09582A1
S315000025D0AD4BAE4AD2ED007A93ED007AB4EEE77ACF
S315000025E0F1EE10FA48BFD3ED007A93ED007AB1EE22
S315000025F0477AB4EEE77AF1EE10FAC8BFD3ED007A67
S31500002600A34BC8BFF1EE677A93ED007AB5EEC07AB8
S31500002610F1EE10FA2DDD9F4A92ED0D7A9E4AD2ED2B
S31500002620006A27EE267AB5EEC07AF1EE10FAD3EDFF
S31500002630006AD8BFB1EE477A93ED006AB4EEC76A76
S31500002640F1EE10FA00F16D829FED946A66EE866AED
S31500002650B4EEE67AF1EE10FA0BDDD3ED005A93ED07
S31500002660006A75EEC75A36EE667AC5EE876A67EE79
S31500002670A67A00228A4B8B491A60C3ED017A8A4BEF
S315000026800A60187040F60E610DF10602874801F0E7
S31500002690D5FC9DF80620864EA2F10100B0FA80F026
S315000026A08449337840090870002B3BD1012A00F099
S315000026B03B82814A1360814A1360814B1B78002B51
S315000026C032D0804BF1EE047A93ED007AB4EEE77ADD
S315000026D0F1EE10FA40F17B827B4A138801339BB2FC
S315000026E00E2B138020D901220221784B32701970EB
S315000026F000264FF07C5100274FF0030E744B6848BC
S315000027001A70744BDFF8ECC10660466019605960B8
S315000027109960664840F607518CF800E02F7001F08A
S315000027209FFC01E0664B1B786B4BF2EE087A93ED4B
S31500002730007AB4EEE77AF1EE10FA39D593ED007A25
S31500002740F7EE007AB4EEE77AF1EE10FA30DDD3ED6B
S31500002750006AB2EE0C7A6149F4EEC76A0A88013261
S3150000276092B2B2F5FA7F0A8065D3F1EE10FA40F123
S31500002770818293ED007AB4EEE77AF1EE10FA40F337
S315000027807982574ADFED577A92ED007AB4EEE77A0E
S31500002790F1EE10FA2CDA92ED007ADFED537AB4EE10
S315000027A0E77AF1EE10FA23DADFED537A03230CE22F
S315000027B093ED007AF2EE0C7AB4EEE77A0021F1EEB0
S315000027C010FA464A118040D593ED007AF7EE007A6A
S315000027D0B4EEE77AF1EE10FA37DD414ADFED417AE1
S315000027E092ED007AB4EEE77AF1EE10FAC0F2E081EB
S315000027F0DFED417A03233D4A9FED3A7AD2ED006A36
S31500002800F4EEC76AF1EE10FA78DAD2ED006A9FEDBF
S31500002810367AF4EEC76AF1EE10FAC0F232819FED15
S31500002820347AF4EE477A022B38BF0223F1EE10FA1F
S3150000283077FE277A65E0F1EE10FA06D593ED007A79
S31500002840B4EEE77AF1EE10FAC7DC254ADFED257A19
S3150000285092ED007AB4EEE77AF1EE10FAC8DA92ED6C
S31500002860007ADFED217AB4EEE77AF1EE10FAC0F2E3
S315000028708D81DFED1F7A0223BDE700BF10370020F0
S315000028801C370020A03A0020D00000201837002076
S31500002890CC00002038000020683A00206666663FBB
S315000028A0703A0020943A0020643A0020C83A00208A
S315000028B07B0F0020780F00207C0F0020740F002073
S315000028C0710F00206C0F0020660F0020700F002093
S315000028D0720F0020843A0020600F0020A60400201A
S315000028E0C40000200000B4420000A042C000002046
S315000028F09A99993EB4360020000000005FED027AF6
S315000029000323B64EB64A3370C2ED007A3378022BF3
S3150000291004D900230421B34A2B70117040F6052117
S315000029200DF10702B04801F089FB9DF80720AF4979
S31500002930A2F10100B0FA80F00B784009834200F062
S31500002940CF80AB4F3B8801339BB21D2B3B8011D907
S315000029500023012A08703B800CD0A648A64A0378BB
S315000029600133A2FB031202F4FF7101EB52029B1A20
S31500002970DBB2037040F60A510DF107029A4801F0E6
S315000029805DFB9DF807209D49A2F10100B0FA80F099
S315000029900B784009834200F0A780994F3B880133AA
S315000029A09BB21D2B3B800AD90023012A08703B806D
S315000029B005D0944A1378B3FA83F35B091370924BEC
S315000029C01B7803F0FF076BB9904B1B78002B6ED07A
S315000029D002242B78002B00F0A28044F004048C4BD8
S315000029E01C7006E08A4B1C7884F00407C7F3800746
S315000029F0E4B2E24340F60F5102F001027A4801F0D8
S31500002A002FFB84F0020240F60641C2F340027648EC
S31500002A1001F026FB3A4640F60741734801F020FBD9
S31500002A2084F0080240F60151C2F3C0026E4801F07C
S31500002A3017FB84F0100240F60251C2F300126A48F6
S31500002A4001F00EFB84F02002C2F3401240F603515F
S31500002A50654801F005FB6F4A138801339BB2092BC9
S31500002A6005D81380FDF74AFD02B0BDE8F0810020CD
S31500002A700121694B10801970FDF740FD02B0BDE8D9
S31500002A80F081D2ED006A9FED657AF4EEC76AF1EE49
S31500002A9010FAFFF636AF9FED627AF4EE477A012B15
S31500002AA038BF0123F1EE10FA77FE277A29E733784B
S31500002AB0022B8DD83378002B00F0F4802368594A16
S31500002AC0A2FB032313F0100F14BF0324012480E795
S31500002AD0554A564B11681B68554A5B1A136070E5D8
S31500002AE00022434B1A8045E70022454B1A8066E7D1
S31500002AF04E4A4D4B12681A6063E54E4B4E4AD3ED73
S31500002B00001A4E4B4E4993ED001A4E4BD3ED000A78
S31500002B104D4B93ED000A4D4BFDF70CFBB2E501273B
S31500002B205DE7DFED4B7AA4E540F6B7374948DFF8B5
S31500002B303CC101680131B9420160CCF800107FF652
S31500002B40BCAD4FF07C5100274FF0020E3C482B7075
S31500002B50414BDFF890C0DFF8188119605960996021
S31500002B600760476040F607511F4888F8002032701A
S31500002B708CF800E001F074FA384B1B78002B3FF418
S31500002B80D3AD3378002B3FF49CADCDE592ED006AD2
S31500002B90DFED226AB4EEE66ADFED217AF1EE10FA95
S31500002BA0B7EE007AACBF0123002367FE877A22E6E0
S31500002BB092ED007ADFED2A7AB4EEE77AF1EE10FABA
S31500002BC0BFF657AEF6EE007A0123126813E600222E
S31500002BD00120244B24491A800870A5E5580F0020CF
S31500002BE0BC000020B4360020C83A0020BA000020FD
S31500002BF04E0F0020510F0020ABAAAAAAB900002050
S31500002C004C0F0020500F0020650F0020840F00207D
S31500002C10640F0020A40400201005002000008C4250
S31500002C203333333FD34D62100C3700201437002066
S31500002C3008370020D8000020943A0020603A00208F
S31500002C40703A0020683A0020583A0020643A002082
S31500002C50000000007C0F0020843A0020710F002045
S31500002C600000A042660F0020700F0020740F0020A5
S31500002C70720F00200C4BDFED0D7A93ED007AB4EE67
S31500002C80E77AF1EE10FABFF6B3AD93ED007ADFED19
S31500002C90087AB4EEE77AF1EE10FABFF6A9AD93ED35
S31500002CA0007AA5E5012494E6C40000200000B442A1
S31500002CB00000A042064A074913780133DBB21370BD
S31500002CC00379012B08BF044A0B7008BF13707047C5
S31500002CD03F050020B1000020460500200379023B95
S31500002CE01E2B11D8DFE803F03F101710101011103B
S31500002CF010101010101011101010101010101010CD
S31500002D0010101010101011007047304A138801334C
S31500002D109BB2138070472DE9F0412D4C2D49238835
S31500002D20027A01339BB223800B783F2B06D80B78AF
S31500002D30294C581CC0B2DBB20870E2540D2A16D0DA
S31500002D400A2A14D025490B889BB27E2B09D8002469
S31500002D500B889BB2581C80B2088021482149C25476
S31500002D600C80BDE8F08100221F4B1A7070471B4C87
S31500002D7023889BB20BB31D4D2B78032B1DD82388BC
S31500002D809BB23E2B1DD8228892B29046184E194F00
S31500002D903078134907EB801003F09AFE002332784F
S31500002DA007EB821707F808303378013303F0030383
S31500002DB033702B780133DBB22B7000232380BDE800
S31500002DC0F0814FF03F084246E0E700BFB60500201D
S31500002DD0B80500207005002074050020C80E0020EC
S31500002DE0CC0E0020BC050020C40D0020C50D00201F
S31500002DF0C70D0020C80D00209FED010B704700BFD6
S31500002E00000000000000F07F9FED010A704700BF40
S31500002E100000807FFFFFFFFF9FED010B704700BFA3
S31500002E20000000000000F0FF9FED010A704700BFA0
S31500002E30000080FFFFFFFFFF9FED010B704700BF03
S31500002E40000000000000F8FF9FED010A704700BF78
S31500002E500000C0FF08B5FFF7EFFF0E4B83ED000B38
S31500002E60FFF7F2FF0C4B83ED000AFFF7C5FF0B4B94
S31500002E7083ED000BFFF7C8FF094B83ED000AFFF750
S31500002E80CBFF084B83ED000BFFF7CEFF064B83ED20
S31500002E90000A08BDB03A0020A43A0020C03A00203B
S31500002EA0AC3A0020B83A0020A83A002008B5FEF750
S31500002EB0B9F9002008BD00BF2DE9F043C36B0679C0
S31500002EC05C6846712388A94F1D0A2D0155FA83F3C4
S31500002ED057F82330C3F340039B00037165884FEA1C
S31500002EE0152C4FEA0C1C5CFA85F557F8255005F0B1
S31500002EF002052B430371A5884FEA152C4FEA0C1CDB
S31500002F005CFA85F557F82550C5F3400E4EEA030ED8
S31500002F1080F804E0002E00F0C480038EA58C9D424C
S31500002F2084BF01330386038901339BB20381B4F85E
S31500002F302880984528BF98467645A0F8088000F076
S31500002F40B380A31D9C4690F8069004F10C0580F80A
S31500002F5007901CF8017F774505D11CF8017CB74224
S31500002F6004BF012787716545F3D113F801CBE64508
S31500002F7004D11F78B74204BF002787719D42F4D160
S31500002F80857D6B1CDBB2062B28BF002300EB4505B5
S31500002F90A5F80A8086798375B14500F0AD800027D3
S31500002FA03D46BC46E38C63F30F0763F31F47C0F847
S31500002FB00A70E78C984667F30F0567F31F45C0F85C
S31500002FC00E50E58CB94665F30F0C65F31F4CC0F83F
S31500002FD012C0AC4643443B444B442B44634407EE87
S31500002FE0903A9FED637AF8EEE77A87EE276A012E2C
S31500002FF01ABFB1EE466A9FED5F7A9FED5F7A0023B6
S3150000300080ED076A80ED067A0381D4ED046ADFED70
S315000030105B7A66EEA76A66EE866AC0ED086AD4ED4C
S31500003020057A6FF00407DFED564A9FED515ADFED42
S31500003030555A37EE277A631D04F10B063F1B9C4653
S3150000304013F8015F75450DD107EB0C0507EE905A95
S31500003050F8EEE77A67EEA47A67EE857A87EEA56AD8
S3150000306037EE067AB342EAD1DFED417AB4EEE77A7B
S31500003070F1EE10FA31DD37EE677AF0EEE67A94ED8E
S315000030800B6AB4EEE76AF1EE10FA03DD90F8383019
S31500003090012B3BD0002380F83830C2ED006A81ED69
S315000030A0007A0020BDE8F08390ED067AD0ED076A3D
S315000030B0DFED307A37EE267AB4EEE77AF1EE10FAE3
S315000030C080ED067A11DCDFED2C7AB4EEE77AF1EECC
S315000030D010FA0AD4D0ED086AA1E7B5EEC07AF1EE8F
S315000030E010FA48BF37EE277AC7E7C0ED067AD0ED6B
S315000030F0086AB0EE677A92E74389B0F80C80C78910
S31500003100B0F81090458AB0F814C063E7A58C038E1A
S315000031109D421AD890ED0D6AB5EEC06AF1EE10FA2E
S31500003120D0ED0A6AD0ED0B7A12DB76EEA76AC0ED17
S315000031300A6AD4ED077AF4EEE76AF1EE10FAACDD2E
S31500003140C0ED0A7AF0EE676AA7E7DFED0F6AA4E73B
S3150000315076EEE76AC0ED0A6AD4ED077AF1EE677A91
S31500003160F4EEE76AF1EE10FA97D5E9E700F80140C8
S31500003170DB0FC940920A063F920A06BF00007A4456
S31500003180000070420000B4430000000070B5C16347
S3150000319003464868F7EE006A90ED047AC6EE877A31
S315000031A0C3ED0B7A90ED077A67EE877AC3ED0B7A5B
S315000031B0D0ED086A87EEA67A4FF0000E00240125AE
S315000031C083ED0B7A0F4E486803F1080203F1140CE5
S315000031D05E6083F83850C3F818E0C3F81CE0C3F803
S315000031E020E0C3F828E0C3F834E01C819C751C86F7
S315000031F0C18C22F8021F6245FAD1034A00201A60E8
S3150000320070BD00BF000001014853544D2DE9F04147
S315000032101D4683689DF818C01E6E002E5FD1BCF156
S315000032200F0F04460F46C0E90312C0E90566C561E3
S3150000323080F820C04CD8BCF1070F94BF4FF00008AF
S315000032404FF0010863685969C9B14FF0020CA561D6
S315000032505B69A8B259680968C881C8788A6068F34A
S315000032600510C87088786CF383008870002A3AD0FD
S315000032709A6818685368984700282CD163681A69B9
S315000032809AB1022065611A69ADB253681968CB78A4
S31500003290CD8168F3051360F383034F60CB704FB3A2
S315000032A0936810685B689847A8B90121A26894F8EA
S315000032B02000536923F4F81343EA00435361A368DB
S315000032C03046D966A26893680B439360BDE8F081E7
S315000032D04FF00208B6E706463046BDE8F0810826FC
S315000032E03046BDE8F081C0B262F38300054A8870BB
S315000032F08A60BDE7DBB267F38303CB70024B4B609A
S31500003300CEE700BF483C0020443C002010B49DF8A6
S31500003310044001945DF8044BFFF778BF30B5836A2B
S3150000332085B004468C4601ADABB193E8070085E84D
S31500003330070062681846127883F804C01A60E26AC9
S315000033409A60636A9847A36A1BB195E8070083E809
S31500003350070005B030BD2B46EBE700BF2DE9F0476F
S315000033600B78D1F8108003F5800303F58D530D46D5
S3150000337004461F02B8F1000F13D04FF00062D8F8D0
S3150000338004301B681A60D8F804301B689F60D8F8B0
S315000033900830D8E900011B6898470646002840F027
S315000033A01A816B6983B14FF400215A681268116063
S315000033B05A68126857609A68D3E900011268904704
S315000033C00646002840F00A8100236560A9698C4AF8
S315000033D06162E969C4E90A312B7803F5800303F5D4
S315000033E08D531B02A3606E7A697B002E18BF4FF4C3
S315000033F04412EF7A2B6AA87A090341EA470101438E
S31500003400D87942EAC0721878002840F0F380B6FAFC
S3150000341086F0400941EAC011587808B942F40032F2
S315000034209D7842EA0070DA781F7A954045EA072AC5
S315000034301F7912062FB1022F0CBF4FF440174FF41D
S31500003440001793F805C0BCF1000F06D0BCF1010FC0
S3150000345014BF40F4807040F4407093F809C00CF03B
S31500003460030C42EA8C020A4393F806C0002E40F091
S31500003470C4801E7BD97A36049B7A46EA012642F43A
S3150000348060421E43EFF31088012181F310886368C0
S31500003490DFF884E11B78DEF80490C3F1130301FA28
S315000034A003F329EA0303CEF80430DEF8043088F388
S315000034B01088544BA568AB66A368534DC3F810A09B
S315000034C0A3685E60A368DF60A3685A61A36820F002
S315000034D08042C3F840C0A3689A60A3689A6898605F
S315000034E063684A489E7993F902303601484AEF18D4
S315000034F0F6B287F8006340F8234003F1C00652F89D
S31500003500267027F4803742F8267052F82660BFF3FB
S315000035105F8F5E09B60003F01F0306F1604601FAED
S3150000352003F306F56146C6F88031336063685E7959
S3150000353093F901303601EF18F6B287F8006340F8C8
S31500003540234003F1C00652F8267027F4803742F86C
S31500003550267052F82660BFF35F8F5E09B60003F04F
S315000035601F0306F1604601FA03F306F56146C6F845
S31500003570803133606668337A96F904601B01AF19AF
S31500003580DBB287F8003340F8264006F1C00352F854
S31500003590237027F4803742F8237052F82330BFF3A4
S315000035A05F8F73099B0006F01F0603F16043B1406D
S315000035B003F56143C3F8801119600026636893F927
S315000035C00320DB7915441B01DBB285F80033114B70
S315000035D040F8224023603046BDE8F087B8F1000F7E
S315000035E0F9D0D8F80830D8F800001B6A984730465A
S315000035F0BDE8F08742F080720EE7002642E700BF82
S3150000360000103140000080FD00E100E0943C002005
S31500003610006000404950535200400840EFF30383D6
S31500003620103B1F4A5BB203F1C00152F8210020F49F
S31500003630803042F8210052F821201A4A52F82330ED
S31500003640D3E906218A421CD01869996828B393F8F1
S3150000365020C00968BCF10F0F0FD8BCF1070F8CBF53
S3150000366020F81210815499684FF000408866D96995
S31500003670013291429A6104D0704740F8221099684D
S31500003680F2E75B6893F90330012203F01F00064955
S315000036905B09824041F8232070470868E4E700BFD1
S315000036A000600040943C002000E100E030B4EFF3FD
S315000036B00383103B31495BB203F1C00251F822008B
S315000036C020F4803041F8220051F822202C4A52F88A
S315000036D023305D68DC692A6A50785A6901281CD053
S315000036E0A2420FD0D3E90201A9B193F820400F2CD2
S315000036F00AD951F8221001604FF000509968013242
S3150000370088665A6130BC7047072C03D931F812100D
S315000037100160F1E7895C0160EEE704F1FF3C624578
S315000037200ED029690029DBD095F90320154902F04E
S315000037301F04A040520941F822005A69DC69CFE70C
S3150000374095F9034004F1C00251F8225025F4803562
S3150000375041F8225051F82220BFF35F8F6209920090
S3150000376004F01F0402F1604200FA04F402F561421B
S31500003770C2F8804114605A69DC69B1E70060004014
S31500003780943C002000E100E030B4EFF30382103AED
S315000037902E4953B203F1C00051F8204002F0FF0257
S315000037A024F4803441F8204051F82010284951F87B
S315000037B023008168096D890105D54168497A012987
S315000037C001D030BC70470121224C5B0902F01F0278
S315000037D0203301FA02F244F82320BFF34F8FBFF3E0
S315000037E06F8F436893F902305A0903F01F0301FAF9
S315000037F003F3203244F82230BFF34F8FBFF36F8FAD
S315000038008468124BA26822F00102A260426892F913
S31500003810022002F1C00453F8245025F4803543F801
S31500003820245053F82430BFF35F8F53099B0002F0F6
S315000038301F0203F1604301FA02F203F56143C3F884
S3150000384080211A6030BCFFF769BD00BF00600040F0
S31500003850943C002000E100E070B5EFF30383324AA8
S31500003860103B5CB252F82460012273682F4893F92A
S315000038700230590903F01F03203102FA03F340F81E
S315000038802130BFF34F8FBFF36F8FB1688B6823F082
S3150000389001038B607368264993F9023003F1C00077
S315000038A051F8205025F4803541F8205051F8201069
S315000038B0BFF35F8F03F01F015B099B0003F16043B9
S315000038C08A4003F56143C3F880211A60B368194A38
S315000038D01D6D9A662A0112D4EB0116D405F0A05587
S315000038E0B5F1A05F1AD0124A04F1C00352F82310B2
S315000038F021F4803142F8231052F8233070BD05219F
S315000039003046FFF70BFDEB01E8D50421304605F004
S31500003910A055FFF703FDB5F1A05FE4D108213046BD
S31500003920FFF7FCFCDFE700BF943C002000E100E06D
S3150000393000600040000080FD844610B4006A836881
S3150000394023F440138360DCF82040A36C5800FCD5B8
S31500003950A36823F01003A360DCF82040237FC3F3A1
S315000039600010DB06FAD4CCE90312A36843F0101367
S31500003970A3605DF8044B7047F0B5846A85B00546D0
S315000039800F4694466E46B4B194E80F0086E80F00E1
S31500003990EB6920461B78A760236084F804C0EB6AB5
S315000039A0E3606B6A9847AC6A1CB196E80F0084E83E
S315000039B00F0005B0F0BD3446EAE700BF3C4B416856
S315000039C0994272D170B4016A02468B6823F440139F
S315000039D08B60016A8B6823F010038B60006A037F9B
S315000039E0C3F30011DB06FAD40120D369314C93F9F5
S315000039F007304FEA531C03F01F030CF1200C00FAAA
S31500003A0003F344F82C30BFF34F8FBFF36F8FD369A6
S31500003A1093F909304FEA531C03F01F0300FA03F32E
S31500003A200CF1200C44F82C30BFF34F8FBFF36F8F8F
S31500003A30156AAB6823F48033AB60D36993F905301C
S31500003A404FEA531C03F01F0300FA03F30CF1200C9A
S31500003A5044F82C30BFF34F8FBFF36F8FD36993F9C0
S31500003A600B304FEA531C03F01F0300FA03F30CF16B
S31500003A70200C44F82C30BFF34F8FBFF36F8FEFF35A
S31500003A80108480F310884FF00043D6690A4896F8F0
S31500003A9000C0456823FA0CF32B434360436884F364
S31500003AA010885160084670BC70470720704700BFF9
S31500003AB04249435300E100E0004008402DE9F0434D
S31500003AC000264FF0010C0A78067002F5800202F516
S31500003AD08C521202C0E907124A69034642628A6999
S31500003AE0D04DC0E90A628278CC696CF3010282701B
S31500003AF04A78B24214BF604602209A7860F3010207
S31500003B009A7091F90B0091F80AE0420900F01F073C
S31500003B1020320CFA07F745F82270BFF34F8FBFF338
S31500003B206F8FC14A00F1C00752F8278066F310482C
S31500003B3042F8278052F82770BC4F4FEA0E1E05EB5D
S31500003B4000085FFA8EFE88F800E347F8203091F906
S31500003B50050091F804E04FEA501800F01F0908F13B
S31500003B6020080CFA09F945F82890BFF34F8FBFF3E8
S31500003B706F8F00F1C00852F8289066F3104942F89A
S31500003B80289052F828804FEA0E1E05EB00085FFACF
S31500003B908EFE88F800E347F8203091F9070091F887
S31500003BA006E04FEA501800F01F0908F120080CFA49
S31500003BB009F945F82890BFF34F8FBFF36F8F00F1D7
S31500003BC0C00852F8289066F3104942F8289052F837
S31500003BD028804FEA0E1E05EB00085FFA8EFE88F875
S31500003BE000E347F8203091F9090091F808E04FEA20
S31500003BF0501800F01F0908F120080CFA09F945F8D9
S31500003C002890BFF34F8FBFF36F8F00F1C00852F8B3
S31500003C10289066F3104942F8289052F828204FEA77
S31500003C200E12D2B2054485F8002347F82030EFF390
S31500003C3010868CF310884FF0004508787C4AC54002
S31500003C40506820EA05005060526886F310884FF4E9
S31500003C5080601A6A90604A78CD78C8691202AD030E
S31500003C6005F4804502F440722A43057846682D061D
S31500003C7005F040752A434578ED03ADB22A43457BEE
S31500003C806D0505F400152A431D6A42F480526A61E7
S31500003C900578AA1E624540F2BE8032681D6A2A6116
S31500003CA0057B8A7805F0030545F0300532B1022A16
S31500003CB014BF4FF440724FF4807215434FF0000C5E
S31500003CC0012640F21F278278120702F080522A430B
S31500003CD01D6AEA601A6AC2F818C00A7806FA02F281
S31500003CE03A4202D01A6A53495162827BC57B017CF3
S31500003CF002F0010205F01F0042EA002200201D6AC0
S31500003D0001F01F0142EA01422A63C3E90300C3E945
S31500003D100500196A6489484D1C818D66D969424A35
S31500003D2091F9051001F1C00452F8245060F31045D2
S31500003D3042F8245052F82440BFF35F8F012501F06A
S31500003D401F044909890001F1604101F5614105FA45
S31500003D5004F4C1F880410C60D96991F90B4004F173
S31500003D60C00152F8216060F3104642F8216052F813
S31500003D702110BFF35F8F6109890004F01F0401F170
S31500003D80604105FA04F401F56141C1F880410C6017
S31500003D90D96991F9074004F1C00152F8216060F336
S31500003DA0104642F8216052F82110BFF35F8F610977
S31500003DB0890004F01F0401F1604105FA04F401F5DD
S31500003DC06141C1F880410C60D96991F9091001F18E
S31500003DD0C00452F8246060F3104642F8246052F89A
S31500003DE02420BFF35F8F4A09920001F01F0102F100
S31500003DF060428D4002F56142C2F8805115600F495C
S31500003E001A6A9160196A0A7FD207FCD50C4A00200B
S31500003E105A60BDE8F0830B4A0B4E022D18BF32469E
S31500003E203CE700BF00E100E000600040943C002059
S31500003E300040084000001F1F1000079D11040100EC
S31500003E404249435324FF00FF04FF00FFEFF30383BF
S31500003E50103B204A5BB203F1C00152F8210020F466
S31500003E60803042F8210052F821201B4A52F82300E4
S31500003E70C3691B6983B1036903B17047026A0021F4
S31500003E80936823F4801343F400139360436AC1607C
S31500003E90C3B18022FFF770BD0369026A002BEED022
S31500003EA08378C16803F00303022B0CD00B781371DF
S31500003EB08278D0E9031302F003029B1A1144C0E989
S31500003EC00313D9E770470B8823F4DC439BB2536096
S31500003ED0EEE700BF00600040943C002010B582B0C1
S31500003EE0EFF30383103B1F4A5BB203F1C00152F8A4
S31500003EF0210020F4803042F8210052F821201A4A8D
S31500003F0052F82340A27802F00303022B236A0CBF67
S31500003F1019681978A3690CBFC1F30801C9B20191E8
S31500003F2043B9636AB3B10422204602B0BDE810402B
S31500003F30FFF722BD02F0030201A9606902F0C8FD85
S31500003F40D4E90521A37803F003031A44C91AC4E986
S31500003F50052109B102B010BD636A002BFAD0012217
S31500003F60E2E700BF00600040943C002010B5EFF38C
S31500003F7003830F4A103B5CB252F82400026A93682E
S31500003F8023F4401323F010039360436A1BB102220B
S31500003F900021FFF7F1FC074A04F1C00352F8231091
S31500003FA021F4803142F8231052F8233010BD00BFAF
S31500003FB0943C00200060004038B5EFF303831D4AAF
S31500003FC0103B5CB252F824008378056A03F00303C1
S31500003FD0022B0CBF29682978AA6C08BFC1F3080117
S31500003FE0C2F30073C2F3006C4FEA031343EA4C13A7
S31500003FF0C2F3C06243EAC20C18BFC9B2DB0662460E
S3150000400004D5AB6C1B0458BF4CF04002AB6E43F0BA
S31500004010C853AB66436A0BB1FFF7AEFC064A04F120
S31500004020C00352F8231021F4803142F8231052F8CD
S31500004030233038BD943C00200060004010B40B0AC9
S31500004040064C1B0153FA81F154F821300020C3F3CA
S3150000405040035DF8044B1370704700BF00F8014041
S315000040600120CBB2984080B202B900040B0A5B0172
S3150000407003F1804303F5F83398600020704700BFD2
S31500004080F0B5EFF31082012383F31088224E3368D4
S315000040901BB922490B7340230B733368013333601A
S315000040A082F31088038823B300211D4D08E01B010D
S315000040B0134445F82340028801318BB29A4218D93D
S315000040C0436853F8314003EBC1029288E7034FEA95
S315000040D01223D2B2EBD502EB031C55F82CE024F4E4
S315000040E080372EF4803E45F82CE01B0145F82C70F5
S315000040F0DEE7EFF31082012383F31088336813B1F0
S315000041003368013B336033681BB9802003490B7366
S31500004110087382F31088F0BD903C002000FD01403A
S3150000412000F8014008B5034B03600846FFF7A8FFF7
S31500004130002008BD54524F5030B4EFF310840123D1
S3150000414083F310881D4B186828B94FF0400C1C4D9E
S31500004150287385F80CC018680130186084F310883D
S31500004160D4034FEA1120C9B219D40001154C0844F2
S3150000417044F82020EFF31082012181F3108819689A
S3150000418011B11968013919601B681BB980200C49E7
S315000041900B73087382F31088002030BC7047094CFB
S315000041A001EB001C54F82C50000125F4803544F82E
S315000041B02C5022F4803544F82C50D7E7903C002050
S315000041C000FD014000F8014003465A681B690020C3
S315000041D053607047034610B4043900F10C0C53F8D1
S315000041E0044F51F8042F62651C68A265027D022AFD
S315000041F00BD08269526852681278062A05D0634548
S31500004200EDD100205DF8044B70471C68CA68E26572
S315000042101C682266F3E700BF2DE9F04106460D460D
S3150000422007460C4601F10C0854F8043FD3E9000197
S3150000423000F0CAF923681B689B6847F8043F2A7890
S31500004240022A03D11A6C42F420221A644445EBD1A7
S315000042506A69044B32612A78B56132753360002091
S31500004260BDE8F0813354504703460020D3E90223CA
S315000042709360704703460020D3E9022353607047DA
S3150000428003460020D3E90223D3607047034670B487
S315000042905A689E68D2690020D2E9011444F00045AC
S315000042A0D46875619D6844F00044AC619C6841F037
S315000042B000412161146999684C629B6852699A624F
S315000042C070BC704703464FF00041002210B49C6852
S315000042D0104621619C6861619C68A16199684A6287
S315000042E09B689A625DF8044B704700BF43681B7871
S315000042F0032B88BF0A46836898BF01F1FF329A668E
S3150000430043681B782BB98368490801395965836866
S3150000431099658368D96AC90707D44FF4AA015A6612
S3150000432083681964D0E90232DA600020704700BF62
S3150000433003469B681232013903EB82030020596061
S31500004340704700BF03469A680020D26AC2F3000293
S315000043500A719B689B6C0B60704700BF8446002007
S31500004360CCE90632CCF81410704700BF70B58369EB
S3150000437084B004468C46164601AD9BB193E807000F
S3150000438085E8070083F804C09E60E26918461A6053
S3150000439063699847A3691BB195E8070083E807009E
S315000043A004B070BD2B46EDE7D0E9012312785B6EB1
S315000043B0032A98BF01338B6080680B4A0B4BC06A97
S315000043C0126A1B68C2F3026C03FA0CF34FF0010C7D
S315000043D002F00702C0F3C350D340C3404B60002035
S315000043E081F800C0704700BF00E00140D43C0020C7
S315000043F010B490F800C0886EBCF1030F1ED80130CF
S31500004400AAB9019C496BE40754BF01F01F01C1F32F
S31500004410044101F00C01A1F10401B1FA81F149094D
S31500004420E2B921BB02225DF8044B5A607047904204
S31500004430E7D9013A5DF8044B1A6070470AB1904219
S31500004440F8D8019C496BE40754BF01F01F01C1F382
S315000044500441090981F00101002AE2D0824201D318
S315000044600029DFD103225DF8044B5A60704700280B
S31500004470D8D0F7E7FFFFFFFF9FED397B2DE9F0432B
S3150000448085B00092866802AB0746884614464068A7
S3150000449002F003090A4631468DED027BFFF7A8FFBD
S315000044A0039B356B93B914F0080F14BF0422022244
S315000044B0A107029820D502F1120106EB810148609E
S315000044C0B968133201EB82014860BE6862061BD5EB
S315000044D0326CB9F1010F42F48002326427D025F420
S315000044E04035BE6845EA0345B9F1000F16D10020F4
S315000044F0356305B0BDE8F0834A44123206EB82020A
S3150000450050606206BE68E3D4B9F1010F23D025F4EA
S315000045104035022C45EA0345E6D173B925F04075CE
S3150000452045EA03650020356305B0BDE8F08325F054
S315000045304075BE6845EA0365F4E70121786802AB79
S31500004540009142463146FFF753FF039B25F0407525
S3150000455045EA0365E6E7022CE0D1DEE7AFF300802B
S31500004560FFFFFFFF00000000002800DA704710B4CC
S3150000457000F160430901124CC9B203F5614383F8A7
S315000045800013104B44F8202000F1C00253F822100B
S3150000459021F4803143F8221053F82230BFF35F8FA5
S315000045A0012243099B0000F01F0003F1604303F55D
S315000045B061438240C3F880211A605DF8044B70475E
S315000045C0943C0020006000402DE9F04301270B7C5D
S315000045D0002607FA03F3C360C3F30903B3FA83F3B0
S315000045E05B09416003740B7CA94ADFF8B4C21A4424
S315000045F0120282604B690D4643618B690446C0E92D
S31500004600066385B0CE69CCF8007BEFF3108187F3A3
S315000046101088A04B1A6922F000421A611B6981F3C7
S315000046201088C3681B070CD0EFF3108187F310883E
S31500004630994AC06853889BB223EA0003538081F3EA
S3150000464010884FF425410023A2681160A268D36246
S31500004650A268D363A268936429782B7A6A680329CF
S315000046604FEAC35302F1FF3000F04A8184BF10467F
S3150000467043EA01434FF000420021A7689FED827B89
S31500004680FB62A3688DED027B1A61A3685A61A36879
S315000046909A61A3685962A3689962A368B269DA61EC
S315000046A0A368F2691A62A3689866A36858662B78AD
S315000046B0D6F83880002B40F00F8101234FF0030C11
S315000046C06A68A7685208013A02927A65A1688A6503
S315000046D02978032903D9A168CA65A1680A66B26B5D
S315000046E0BAB932788AB12F787278022F4FEA8210DF
S315000046F04FEA021100F00C8140F21381032248EACE
S31500004700020202430A4342F48078B278002A40F05B
S31500004710C9806268D26992F83010C80705D5916AD7
S31500004720A0680139C16492F83010890703D5D26AAE
S31500004730A168013A0A6501212A7C01FA02F2C2F354
S315000047400902002A42D00020A2685064776BD4F890
S3150000475008E0002F00F0B580287CBA7897F803901F
S3150000476001FA00F01206C0F3090042EA09720028B5
S3150000477036D0B868002800F0C680CEF888104FF012
S31500004780010EA168B868C1F88C00297C0EFA01F107
S31500004790C1F30901B9B1A168F868C1F89000787E43
S315000047A0397E000240EA8110B97E40EA0130A168F4
S315000047B04864A168386997F804E00867A1687869D1
S315000047C042EA0E42C867D4F808E009E0776BD4F8ED
S315000047D008E0002F75D0FA78B978120742EA01622C
S315000047E0CEF83820B26B7AB93A7FF97E520642EAA1
S315000047F0412248EA020896F8212096F8201052072E
S3150000480042EA413248EA020896F83020002A14BFEC
S315000048104FF4A0014FF4AA01A26811642A78012A74
S3150000482004D10021A268D164A2681165A268C2F809
S315000048303480A268C2F830C0A2681363D4E9023299
S31500004840DA60697C224695F91200FFF78DFE224652
S3150000485096F8221096F92400FFF786FE224696F86F
S31500004860231096F92500FFF77FFE2FB122463978EF
S3150000487097F90100FFF778FE0020084B236005B08A
S31500004880BDE8F083AFF30080FFFFFFFF00000000EC
S31500004890901640000040084000A0164054504700C3
S315000048A000901640F17828780A01022842EA81121F
S315000048B030D03BD903210A4348EA024242F08078CD
S315000048C027E70027CEF83870A268C2F88870B26B66
S315000048D0002A99D117468EE7012BA7681CD00091B4
S315000048E0EA68394602AB6068FFF782FDDDE902211E
S315000048F00B0643EA014343F0030C43F00103E4E6ED
S3150000490043F48033B6E6F968003918BF012134E76D
S315000049100922F4E60921CEE74FF0030C4FF0FF32EF
S31500004920D3E6002A0CBF06220922E8E600290CBFBE
S3150000493006210921BFE700BF30B44268034692F959
S315000049401210D269002910DB012401F01F05AC40CA
S3150000495048092B4D203045F82040BFF34F8FBFF359
S315000049606F8F0024274840F8214092F9241000292F
S3150000497010DB012401F01F05AC404809204D203012
S3150000498045F82040BFF34F8FBFF36F8F00241D48BB
S3150000499040F8214092F92510002910DB012401F08E
S315000049A01F05AC404809164D203045F82040BFF39E
S315000049B04F8FBFF36F8F0024124840F82140526B8F
S315000049C0A2B192F90120002A10DB01200C4C5109FA
S315000049D002F01F052031A84044F82100BFF34F8F95
S315000049E0BFF36F8F0020074941F822000020D3E96A
S315000049F00221186091609B68586330BC704700BF05
S31500004A0000E100E0943C002082680129536B02D04B
S31500004A1043F4807309B143F08073002053637047F9
S31500004A20F0B5EFF30382103A214C51B201F1C00CFC
S31500004A3054F82C3023F4803344F82C308B0003F1E7
S31500004A40804303F5C043D3F800031A4850F8210009
S31500004A50456895F800E0BEF1010F08D043692BB117
S31500004A60BDE8F04000221146FFF780BCF0BD0025EE
S31500004A70D0E90267B760866802F0FF02B56486680F
S31500004A80F5648668356554F82C6065F3104644F87D
S31500004A902C60D3F80033BFF35F8F074C4B0902F04D
S31500004AA01F020EFA02F2603344F82320D6E700BF55
S31500004AB000600040943C002000E100E0844630B4F1
S31500004AC082B0019100921D4990F904201C4D51F8C5
S31500004AD02200C03255F822101A4C21F0807145F898
S31500004AE022109CF9041041F40041E28992B29142ED
S31500004AF0FBD008222274019A0AB1019A4260009AF8
S31500004B000AB1009A8260C27802F0C001802913D0EF
S31500004B103F2A98BFC381182200200A4B08491A74FD
S31500004B209CF90430C03351F8232042F0807241F8DA
S31500004B30232002B030BC70478381ECE700000020E0
S31500004B400060004000540040062070470620704771
S31500004B50034693F904300549C03351F82320002059
S31500004B6042F0807241F82320704700BF0060004089
S31500004B70034693F904300549C03351F82320002039
S31500004B8022F0807241F82320704700BF0060004089
S31500004B90002290F90400124B53F82030C1E900229C
S31500004BA0DA783F2A0CD94FF480728A60DA89D2B259
S31500004BB0CA60DA7802F0C002802A09D00020704765
S31500004BC04FF480328A60DB8900209BB2CB6070474D
S31500004BD04FF480320A609B8900209BB24B6070477D
S31500004BE0000000200620704706207047034600227A
S31500004BF030B593F904C0074C0CF1C00E54F82E10D2
S31500004C00054D21F0807144F82E1045F82C201A60CD
S31500004C10104630BD006000400000002030B58646DA
S31500004C2090F904301C4DC03355F823201B4C22F05C
S31500004C30807245F8232090F9042042F40042E3896B
S31500004C409BB29A42FBD00B46DA789C463F2A05D99E
S31500004C50DA89D2B202EB022292B2DA819CF8022001
S31500004C6010333F2AF0D84FF0080C18220B4B0C4D8E
S31500004C7083F810C09EF904C0074C45F82C101A742E
S31500004C809EF904300020C03354F8232042F080728D
S31500004C9044F8232030BD00BF0060004000540040AF
S31500004CA000000020F8B5274A044613780D4643B3A2
S31500004CB06B6893F90030002B3FDB234850F8232024
S31500004CC0002A3CD123712D68BDB12B46DA781946EE
S31500004CD03F2A05D9DA89D2B202EB022292B2DA81F0
S31500004CE08A7810333F2AF1D808211822174B1974F5
S31500004CF094F9041040F821501A74154B00202360D3
S31500004D00F8BD01261670EFF3108086F31088114A5D
S31500004D10116821F480011160126880F310880A4F2F
S31500004D2019463422384601F087FE084B5F611E7330
S31500004D306B6893F90030002BBFDA0B20F8BD082012
S31500004D40F8BD00BF4C3C002000000020005400408D
S31500004D500043544400400840844610B40A4ADCF834
S31500004D600430D2F8084C0B402343C2F8083CDCF868
S31500004D700840D2F8103C21401943C2F8101C00200C
S31500004D805DF8044B704700BF00001740084BD3F88E
S31500004D90802C0378013B032B05D9131E18BF012372
S31500004DA000200B707047022300200B70704700BF75
S31500004DB00000174003461A78052A17D8DFE802F0E4
S31500004DC02A2E1D1803034FF0050C1A69194950695C
S31500004DD090F8902002F00702C1F8802290F8902007
S31500004DE0C2F30212C1F88C2283F800C0002070477B
S31500004DF002224FF440701A70704704210D4A197050
S31500004E00D2F88C124907D6D007234FF48060C2F837
S31500004E108C327047012203201A7070470321054A1D
S31500004E201970D2F880124807C5D007230420C2F8AB
S31500004E3080327047000017400023F0B50161CA6850
S31500004E40044642610A690370C0E906324969EFF314
S31500004E501080012383F310886C4BDA6822F48032C9
S31500004E60DA60DA6880F310880A7F02F00302012A0A
S31500004E700AD1EFF3108082F310881A6922F00042FB
S31500004E801A611B6980F3108800230A6A6048C260B1
S31500004E9003604368002BFCD10125CA6982605C4A25
S31500004EA0056050680128FCD10025486A584E1064F8
S31500004EB05564D1F89C50081FC2F8605291F8905082
S31500004EC005F00705C2F8805291F89050C5F3021517
S31500004ED0C2F88C52D1F89450C2F88852D1F8985042
S31500004EE0C2F894524D69C2F840538D69C2F84453D2
S31500004EF050F8042F03F1B005013342F48032042B3D
S31500004F0046F82520F4D10B7C424D1804002B18BF1F
S31500004F1040F00100C6F80003486E3F4BC6F8640235
S31500004F20886E01F19C02C6F8B00252F8040F0433F1
S31500004F3043F8040C106AAB42D861506C1864F4D183
S31500004F40002240F2FF174FF0010ED1F8E000304B7F
S31500004F50324EC3F8A003C3F80024C3F80424C3F8F0
S31500004F600824C3F80C240A8F2D4DC3F8C0244A8F99
S31500004F702C48C3F8C424CA6BC3F8C8240A6CC3F807
S31500004F80CC244A6CC3F8D0248A6CC3F8D424CA6CE7
S31500004F90C3F8D824C3F8F07C23695B69DB6E03F1A0
S31500004FA01C0103F1380C11F9013B002B21DB11F830
S31500004FB01D2CF7181201D2B287F8002303F1C002A4
S31500004FC045F8234050F8227027F4803740F82270C5
S31500004FD050F82220BFF35F8F5A09920003F01F0397
S31500004FE002F160420EFA03F302F56142C2F8803123
S31500004FF013606145D7D103224FF44035044B0A496B
S315000050009D621A625A6261620020F0BD004008404B
S3150000501000001740800317406003174000E100E0DE
S31500005020943C0020006000404843444100222DE9A2
S31500005030F04F82468B4601698D4B8E4C496985B08F
S31500005040027043F8102BA342FBD1CA6A8A4B8B48E5
S31500005050DA640A6B01F18C041A654A6B401A5A65C8
S315000050600A6DC3F8C0214A6DC3F8C4218A6DC3F81E
S31500005070C821CA6DC3F8CC210A6EC3F8D02101F14C
S315000050806C03C21853F8041FA3421160F9D100271C
S31500005090CAE901779BF80020002A00F0E580514616
S315000050A05B46BA46BB461A460846754E012153680A
S315000050B053F8275095F800C06B682C7923F07F438E
S315000050C001FA0CF104FA0CF489B223F0FF034BEA5F
S315000050D0040B4AEA010A002B40F0C080AB68002BA3
S315000050E040F0BC8083680B4383602B786979654CFC
S315000050F01B0119512B78A9791B0104341951297800
S31500005100AB68090104340B512B69297804F59C74AA
S3150000511044F82130EB78002B51D00024DFF86C9155
S31500005120DFF85481009009E0622902D10121C8F814
S315000051302013E8780134E1B288423FD9A96951F8D1
S31500005140243019785868090101F1804101F5B81138
S31500005150C1F800069868C1F80406D868C1F80806C0
S315000051601869C1F80C065968C1F306216129DBD11B
S315000051703178C909DDD10192EFF3108C012181F359
S315000051801088D9F80C0020F48000C9F80C00D9F872
S315000051900C008CF3108896F800C01E204CF0800C92
S315000051A086F800C000F098FA3178013441F0100119
S315000051B03170E878E1B28842019ABFD80098137836
S315000051C00137F9B28B423FF671AF044611465A4693
S315000051D08B46216950464F69A24697F82210B7F8C8
S315000051E020C0CC4381F00201C1F340018DF80D10BF
S315000051F004F00101CCF30A0C8DF80C1093B34FEABE
S31500005200830EDAF804300FFA8CFC4FEA4C0C4E375A
S3150000521043B300231E46DBF8048058F8031037F822
S31500005220025F49780CEB05041031694411F8041C3F
S3150000523001B92C1DA64203F1040338BF2646734567
S31500005240EBD101360C4BCAF80C60986400200E496D
S31500005250DA65CAF8201005B0BDE8F08F43680B4345
S31500005260436042E70126EDE701261046EAE700BF64
S31500005270000617405008174000001740D401174099
S3150000528000300F40C00017404843444100400840EA
S315000052902DE9F04190B09DF85870EFF303841F4D4F
S315000052A0103C64B255F824506E698EB30593FF2303
S315000052B0ADF81810D5F81880E9698DF80200ADF838
S315000052C00070049201918DF80830B8F1000F23D0D8
S315000052D0C4464746BCE80F00EE4608AE0FC69CE83B
S315000052E00F0086E80F00BEE80F000FC79EE80F000C
S315000052F08CE80F006B6940469847AB6943B19C4602
S3150000530008AD0FCDACE80F0095E80F008CE80F0054
S31500005310204610B0BDE8F081E846EBE7943C00205B
S31500005320002310B515490370C1F8083CC3681BB1CA
S31500005330D1F8802C013BFBD1104AD2F8803C3BB11E
S3150000534040F20113C2F8603CD2F8803C002BFBD13E
S3150000535003236FF0604140F2E712084CC4F88C3C1E
S31500005360C4F8B43CC4F8B81CC4F8C42CFFF722FD3A
S315000053700346C4F8003C002010BD00BF00001740E3
S3150000538030B491FAA1F030B3B0FA80F3144C154D55
S31500005390580804EB83041B0105EB800503F010009D
S315000053A02B6803F00F13C340C3F10803DBB213707D
S315000053B0A3B1043202EB8303206842F8040B934244
S315000053C0FAD10020084BD3F8F82C61F31842C3F841
S315000053D0F82C30BC7047054C054DE1E70D20F1E790
S315000053E000121740D00C17400000174080121740DB
S315000053F0100D17402DE9F043254B83B0D3F8881CD8
S31500005400D3F8A05C11F0010F14BF0727032715F08E
S3150000541001053BD0D3F8A45CD3F8B03C07279946E6
S31500005420EFF303831B4A103B5CB252F824804046DC
S31500005430FFF7C0FC032F064623D00623002688F874
S315000054400030FF212A4600914B4638460021FFF7DF
S315000054501FFF01200E4A1049C2F89C0C04F1C0033C
S3150000546051F8234024F4803441F8234051F8233086
S31500005470D2F8803C002BFBD1C2F8006C03B0BDE82B
S31500005480F08398F80030042BE3D9DAE7A946C7E79A
S3150000549000001740943C0020006000402DE9F043D6
S315000054A0274B83B0D3F8881CD3F8A02C11F0020F39
S315000054B014BF4FF007084FF00308C2F340059207E8
S315000054C03BD5D3F8A45CD3F8B03C4FF00708994617
S315000054D0EFF303831B4A103B5CB252F82470384644
S315000054E0FFF768FCB8F1030F064622D00623002614
S315000054F03B70FF212A4600914B4640460021FFF7AC
S31500005500C7FE02200E4A1049C2F89C0C04F1C003E3
