S00B00003030302E7372656389
S31500000000984E0020995F0000D15D0000955F0000CA
S31500000010955F0000955F0000955F0000955F00000A
S31500000020000000000000000000000000955F0000D6
S31500000030955F000000000000955F0000955F0000DE
S31500000040C1500000955A00003D5B0000ED5B0000CA
S31500000050C15000007D450000ED4400000D46000043
S3150000006059460000BD3C00004D3D0000293E000001
S31500000070F93E00000348044B834202D0034B03B110
S3150000008018477047D4020020D40200200000000068
S31500000090064B0749C91A891048BF0131491003D0D8
S315000000A0044B0BB101481847704700BFD40200202B
S315000000B0D40200200000000010B5064C237843B996
S315000000C0FFF7D8FF044B13B10448AFF300800123B8
S315000000D0237010BDF002002000000000A8A7000059
S315000000E008B5054B1BB105490548AFF30080BDE8CF
S315000000F00840FFF7CDBF00BF00000000F40200205B
S31500000100A8A70000082010B503F0F4F94FF0033259
S3150000011040F20110044B054C0549C3E90022DC609E
S315000001209A60A1F86F0010BD0C03002003030301C1
S315000001301C03002070B52DED028B6D4CA5686E1C5E
S315000001401CBF0135A560A57B002D6DD140F20110C5
S31500000150E0814FF0000C0020C2F800C0187094ED4A
S31500000160007A9FED646ADFED646A27EE067A60EE38
S31500000170A66A37EE267A614D37EE608AD5ED047AA7
S31500000180012684ED007A68EE277A9FED5D7A84ED8C
S31500000190017A77EE877A9FED5B7AF4EEC77A0023D1
S315000001A0F1EE10FA0B6028DC9FED577AF4EEC77A71
S315000001B0F1EE10FA65D581ED017A544BD3E90001D1
S315000001C005F0F4FF95ED057A07EE900A67EE877A5B
S315000001D067EE880AF5EEC00A0023F1EE10FA6373A3
S315000001E001DCDFED470AD4ED017A77EEA07AC4EDA3
S315000001F0017A2673BDEC028B70BD81ED017A434B0B
S31500000200D3E9000105F0D2FF95ED057A07EE900AD5
S3150000021067EE877A67EE880AF5EEC00A0023F1EEEC
S3150000022010FA6373DDDCDEE7E57B012D3CD00028A8
S315000002304CD0207C02284FD0012082ED000A187095
S3150000024094ED007AD2ED006ADFED2A5A9FED2A6A14
S3150000025027EE257A66EE866A37EE267A274D37EE42
S31500000260608AD5ED047A637B84ED007A68EE277A9E
S315000002700BB10023636094F90C605EBB94ED017AC8
S3150000028087E7C1ED017A98DB204BD3E9000105F041
S315000002908DFF95ED057A07EE900A002367EE877AC3
S315000002A0637367EE880A9EE700283FF452AFF0EECC
S315000002B0007AF4EEE71AF1EE10FAFFF64AAF40F2D2
S315000002C002300025A4F80F00A560B5E70120A4F8C8
S315000002D00F003EE7002658E740F2E630A568854263
S315000002E002D901202074A7E79FED090AA4E700BF01
S315000002F094030020A4707D3F0AD7233C8800002089
S31500000300000000000D98463E0D9846BE8000002075
S315000003109A99193E0122014B5A73704794030020A3
S3150000032070B41B4E3378072B24D890F9001051B3C4
S315000003300122184D184C03E00132B2F5807F20D01F
S315000003402B7804EB0323134403F8011C10F9011F57
S315000003500029F1D100212B7804EB03242B78A1543A
S31500000360013303F007032B7033780133DBB23370AC
S3150000037070BC7047094A138801339BB2138070BC66
S315000003807047FF22E6E70A46024D034CE2E700BF4C
S31500000390000600200206002004060020FE050020BC
S315000003A030B54FF0000C0725164C85B00223164ACF
S315000003B000951649164884F800C003F0F7FA154B65
S315000003C0C2B21A7090B9144B039303E0039B013B2E
S315000003D0039313B12378002BF8D0039B43B10A4B48
S315000003E00E4918785A780E4B08701A7005B030BD51
S315000003F001210C4B0C4A197013780B44DBB21370B5
S31500000400EDE700BF860500203005002040050020EE
S315000004107C3C00207B050020009F24007E050020F8
S315000004207D0500207C0500207A050020002208B505
S31500000430044B60F07F0018705A70FFF7B1FF024B53
S31500000440587808BD4005002030050020B5EEC00AEA
S31500000450F1EE10FAF8B504462DED028B1546B0EE16
S31500000460408A3FD400274E1EFCEEC88A224A18EE68
S31500000470903A06F0FDFD3844B0422DDA2E2300F105
S31500000480010C6645235404EB00011FDDF8EE688A73
S31500000490B2EE047A38EE680A6A1C024420EE070AB5
S315000004A0FDEEC07A17EE903A092BA8BF092307EE96
S315000004B0903AF8EEE77A0CF1010C3033944530EEC1
S315000004C0670A01F8013F08D06645E7DC624600236B
S315000004D0A354BDEC028BF8BD0B220023A354BDEC44
S315000004E0028BF8BD2D234E1EB1EE408A3146012700
S315000004F000F8013BB8E700BFAC9500002DE9F04FCE
S31500000500A84BE1B01B78042B04D1A74A138801330A
S315000005109BB21380A54B1A781AB11A78013AD2B257
S315000005201A70A34D2B889BB2002B5BD1A14C23786C
S31500000530002B40F09480A04CA04FA14DB5F900309F
S31500000540002B04DB9F4A1278072A40F26981B7F92B
S315000005500030002B07DB9C490A780132D2B2042A0C
S315000005600A7000F2FC80994B1B7843B1984A1388B5
S3150000057001339BB2B3F5FA6F138080F07C81237848
S315000005806BB3904B1B78072B29D89249924A0B885C
S31500000590128801339BB292B293420B801FD3002282
S315000005A08E4B8F481B7890ED000A03F0FF050A80FA
S315000005B0002B00F05583F6EE007A30EE270ABDEEEA
S315000005C0C00A10EE101A874EDFF84C823278531CA0
S315000005D0DBB2042B337028F8121000F20D8261B0E2
S315000005E0BDE8F08F804E734C338801339BB2338065
S315000005F033889BB2C72B9AD92378032B23D82B8811
S315000006009BB23E2B00F293812A8892B29146DFF884
S315000006100C82764F98F80000754907EB801006F0BB
S31500000620A7FD002398F8002007EB821707F809308A
S3150000063098F80030013303F0030388F8003023787C
S315000006400133DBB2237000236A4A2B803380138880
S3150000065001339BB213802378002B3FF46CAF664DB9
S31500000660624B2A780DF1400E03EB821CBCE80F00AA
S31500000670AEE80F00BCE80F00AEE80F00BCE80F00C4
S31500000680AEE80F009CE80F008EE80F002B7810A84C
S31500000690013303F003032B702378013BDBB2237095
S315000006A006F073FD00283FF446AF10AB0025534C0F
S315000006B01A1805E0CB070BD5013815703FF43BAF90
S315000006C012F8013D093BDBB2172B24FA03F1F1D9ED
S315000006D04B4C042223884B4901339BB210A823803C
S315000006E006F022FD0446002840F0D980464A2546F9
S315000006F01388464E01339BB211AF138003E00135D8
S31500000700382D00F0458356F82400394606F026FDBC
S3150000071003340028F3D105EB450506EB85052B7A56
S31500000720012B00F04383022B00F02E82002B40F0B9
S315000007303B836B680CAC93ED000A04221021204623
S3150000074020AEFFF783FE4FF480713B463046304AB9
S31500000750009406F08DFC3046FFF7E2FDEBE6194A01
S315000007601278072A3FF6FFAE0022372B0A7000F3F5
S315000007707082264A03EB430102EB81025168127A2A
S31500000780002A00F0FC800A7820AE00922021304634
S31500000790204A06F06DFC3046FFF7C2FD3B88013368
S315000007A03B80E0E6FA050020F405002096050020CF
S315000007B0080F0020050E002090050020AC00002048
S315000007C0AE00002000060020AA0400209E0500209E
S315000007D0A80400208E050020B4000020B0000020F0
S315000007E0103B002020050020FC050020080E0020FC
S315000007F00C0F002098050020060E00201300800034
S315000008009C050020249700009A050020109A0000FD
S31500000810C4950000C096000024050020070E0020A5
S31500000820372B38DC5F4E03EB430206EB8202107A6D
S315000008305A00002879D05C49DFF8B8C1012808BF02
S315000008406146134406EB8302507A0091574A584991
S3150000085056F82330002818BF0A464FF480710192DB
S3150000086020A8544A06F004FC20A8FFF759FD2B885F
S3150000087001332B806BE6504B1B78072B3FF67FAE80
S3150000088000234E481380FFF74BFD4D4A1388013372
S315000008909BB2138073E64FF6FF732B8057E6042254
S315000008A0484910A806F040FC0546002843D111AF80
S315000008B02021384606F018FC8046002800F0A38167
S315000008C02C46384E057003E00135382D00F0608265
S315000008D056F82400394606F041FC03340028F3D1CB
S315000008E005EB450506EB85056B7A002B00F07E824D
S315000008F02B7A08F10108012B00F0BA82022B00F0D6
S31500000900C782002B40F05082404605F09FFC51EC18
S31500000910100B05F04BFC00EE100A6B680CAC0422C1
S315000009201021204683ED000A0AE7274989E74FF0A0
S315000009303F094A466BE6254910A806F00FFC002839
S3150000094000F02E810922224910A806F0EDFB0028AE
S3150000095040F038829DF94930202B00F0AB826422AA
S31500000960002301201B491C4D0A801C4C1C491D4AB2
S315000009702B7020700B801C4F1C4D1370DEE510ADE4
S3150000098091ED000A284604220C21FFF75FFD20AEF8
S31500000990009520213046164AB7F9003006F068FB6C
S315000009A0F9E600BF109A0000B0950000C09500005F
S315000009B0BC950000A496000000060020D496000016
S315000009C0AA050020FC950000B495000030960000B2
S315000009D058960000B4000020200500209005002055
S315000009E08E0500208C050020AC000020AE00002003
S315000009F0B4960000B8950000DFF874A303229AEDC0
S31500000A00000A0C2120A8FFF721FD05234FF4807171
S31500000A10BC4ABD4806F02CFB0225BB4FDFF86093AD
S31500000A2008F10A0B38F9023BC5F5807178194A4678
S31500000A3006F01EFBC3450544F4D1B44BDAED003A8B
S31500000A40D3ED007AB24BF2EE042AD3ED006A93EDB1
S31500000A50015AD3ED025AAF4B9FEDAF2A93ED004AF0
S31500000A60D3ED014A93ED026AAC4B26EE226A1B785F
S31500000A70BDEEC66A0993AA4BF6EE001A1B7867EE1E
S31500000A80A27A0893A74B9FEDA83A93ED007A27EE3A
S31500000A90027ABDEEC77A8DED066A8DED077AA34B15
S31500000AA077EEA17A93ED006AA14B63EE823A93ED5D
S31500000AB0007A66EE836A25EE035A65EE835A24EEC3
S31500000AC0224A64EEA24AFDEEE77A27EE037A26EE84
S31500000AD0026AFDEEE44ABDEEC44AFDEEE55ABDEEFD
S31500000AE0C55AFDEEE66ACDED007AFDEEE37ABDEE7F
S31500000AF0C66ABDEEC77AC5F580718DED044ACDEDA7
S31500000B00054A8DED025ACDED035ACDED016A17EE79
S31500000B10903A884A78198DED0A6A8DED0B7A06F0BF
S31500000B20A7FA4119002940F3F9810023764A7D1876
S31500000B3012F9010B43409542DBB2F9D17E4A78188F
S31500000B40C1F5807106F094FA6F48FFF7E9FB0021C2
S31500000B507A4A3170138805339BB21380784B1A7822
S31500000B60002A3FF43CAD774A187813780133DBB29C
S31500000B7083421370FFF433AD7348217003881170FC
S31500000B8001339BB203802AE56B6820AE1C684FF4E4
S31500000B9080713B4630466D4A009406F069FADAE504
S31500000BA004256B4B6B4C20AEDFF8D8A1DFF8D8914B
S31500000BB0DFF8D88193E8030004F5287730608DF8D4
S31500000BC08410637A73B1D72D00F31681237A012B33
S31500000BD03AD0022B33D0EBB10C34A74205D0637A5E
S31500000BE0002BF3D10C34A742EBD1042D00F3048182
S31500000BF0304606F0CAFA024657493046C2F1FF02AD
S31500000C0006F07FFAA7E55548FFF78AFB544C554F87
S31500000C10554D93E463680DF1300B042293ED000A01
S31500000C2010215846FFF712FC4246CDF800B0C5F534
S31500000C3080717019236806F01BFA0544D2E76368D1
S31500000C404A461B680093F2E7636852461B78009396
S31500000C50EDE74FF6FF7345483B80FFF761FB82E403
S31500000C6001220C210CA8FFF7F1FB414B10AE93EDCE
S31500000C70000A0C2103223046FFF7E8FB234BB6EEB1
S31500000C80006AD3ED007A3B4B77EE867A93ED007AD5
S31500000C90394B37EE067AD3ED006A76EE866ABCEEFD
S31500000CA0C77AFCEEE66AFCEEE77A4FF48071334AC7
S31500000CB00CABCDED036A8DED027ACDED017A00968F
S31500000CC020A806F0D5F920A8FFF72AFB1B4A1C49E5
S31500000CD0138801339BB213800B78002B3FF47FAC53
S31500000CE0184A097813780133DBB28B421370FFF48C
S31500000CF076AC154925700B88157001339BB20B80B5
S31500000D006DE400BFDC960000A8030020A40F0020BD
S31500000D1060050020540500200000C8429A0F0020FC
S31500000D20183B0020D43A002000007A448C0F0020A3
S31500000D3048370020E0960000089700008A0500204A
S31500000D408D0500208C05002088050020DC9500001C
S31500000D5038960000109A0000D09600000496000015
S31500000D6090050020AC000020AE000020CC960000CC
S31500000D70D83A0020C8000020C400002010970000C8
S31500000D800497000048960000509600004096000028
S31500000D903B464FF48071AD4A20A806F069F920A8B9
S31500000DA0FFF7BEFAFFF7C7BB20AED4E46B6820AEF0
S31500000DB01C784FF480713B463046A54A009406F0F5
S31500000DC057F9C8E49DF84030522B1CD19DF84130AC
S31500000DD0CBB901229F49A04C0B70A048A049A14F56
S31500000DE0A14D03800B702270FFF7A8BB3B464FF462
S31500000DF080719E4A20A8D0E7013D73572C2B04BF73
S31500000E0000237355F4E69DF94030572B00F0888097
S31500000E10472B5FD19DF84130303B092B67D80DF148
S31500000E20410005F016FA83B2372B3FF684AB0C214E
S31500000E308F4B84B201FB04331A7A5B68002A40F0B8
S31500000E40118293ED000A04220CAD284620AEFFF76E
S31500000E50FDFA202123463046864A009506F008F919
S31500000E603046FFF75DFA7C4C7E4F7F4DFFF766BB41
S31500000E70404605F0EEF96B68C0B220AE18704FF42C
S31500000E80807100903B463046714A06F0F1F862E404
S31500000E9001460A22404606F0E1F804466D6820AE97
S31500000EA02C604FF480713B463046734A009406F03E
S31500000EB0DFF850E40DF14A0005F0CBF983B2642B5C
S31500000EC028BF6423012B4FF47A7238BF0123B2FB8B
S31500000ED0F3F245E5502B44D03F2B40F0F2809DF9CC
S31500000EE041304D2B00F0A780542B00F0DD809DF89B
S31500000EF04030412B04D19DF84130002B3FF450AED9
S31500000F009DF84030442B6FD19DF84130002B6BD1BA
S31500000F10544F514C544D3B80FFF710BB00230DE658
S31500000F209DF84130303B092BE1D80DF1410005F029
S31500000F3090F907EE900AF8EEE77A504B9FED507A5B
S31500000F40C3ED007AD3ED007AF4EEC77AF1EE10FA2B
S31500000F507FF7F1AA83ED007A3F4C424F424DFFF7EF
S31500000F60EDBA9DF941302F2BC1DD392BBFDC3D2178
S31500000F7010A806F0B9F8054600283FF4DCAA0DF1E2
S31500000F80410005F066F983B2372B3FF6D4AA0C234D
S31500000F90374E84B203FB0466737A002B3FF4CBAA68
S31500000FA0337A681C002B40F0938105F04FF951EC21
S31500000FB0100B05F0FBF8334A736800EE100A9342F3
S31500000FC000F07E81304A934200F066812F4A9342B8
S31500000FD000F052810832934200F04E8183ED000A00
S31500000FE004220C210CAD30E7294910A806F0B6F80A
S31500000FF0B0B1284910A806F0B1F888B1264910A862
S3150000100006F0ACF860B1254910A806F0A7F800284C
S315000010107FF491AA144D104C124F2880FFF78EBA18
S3150000102000230D4C0B490E4A23700B700D4F0E4DCD
S315000010301370FFF783BA1A4B1021D3ED007AFDEE39
S31500001040E77A184A17EE903A20A8A6E6E895000037
S31500001050D09500008C050020900500208E0500200C
S3150000106020050020AC000020AE0000201C960000E9
S31500001070109A000064960000DC950000D400002061
S3150000108000A08C45D8000020DC0000208C00002049
S315000010908C96000090960000989600009C960000A2
S315000010A0BC0000207C960000904B032293ED000AC2
S315000010B00C210CA8FFF7CAF910218D4A0CAB20A809
S315000010C06BE6462B31D04D2B4BD19DF941302D2B64
S315000010D004D0303BDBB2092B3FF609AF0DF14100DE
S315000010E005F0B7F807EE900AF8EEE77A814B9FED28
S315000010F0827AC3ED007AD3ED007AF4EEC77AF1EE88
S3150000110010FAC8BF83ED007ADFED7C7A93ED007AA2
S31500001110B4EEE77AF1EE10FA7FF50DAAC3ED007A88
S31500001120774C784F784DFFF709BA9DF84130303B40
S31500001130092B3FF6DCAE0DF1410005F08AF883B2CB
S31500001140642B28BF6423012B4FF47A7238BF012326
S31500001150B2FBF3F26D496A4C6A4F6B4D0A80FFF79A
S31500001160EDB9542B3AD19DF941302D2B04D0303BAB
S31500001170DBB2092B3FF6BBAE0DF1410005F069F875
S3150000118007EE900A9FED627AF8EEE77A67EE877AC5
S31500001190564B604AC3ED007A93ED007AD2ED007AA1
S315000011A0B4EEE77AF1EE10FAC4BF11681960D2ED19
S315000011B0007A93ED007AF1EE677AF4EEC77AF1EEF3
S315000011C010FA7FF7B8A9D2ED007AF1EE677A4C4CA7
S315000011D0C3ED007A4B4F4C4DFFF7B0B9452B30D1DC
S315000011E09DF94120A2F13003DBB2012B3FF67FAE21
S315000011F0312A19D000224848484B027093ED007AF4
S31500001200DFED477AB4EEE77A4649F1EE10FA0A7056
S315000012104FF00502C8BFC3ED007A434B384C394F37
S31500001220394D1A70FFF78AB93B4B1B78002B7FF4B8
S3150000123082A901223B4B324C324F334D1A70FFF7D5
S315000012407DB9432B7FF453AE9DF84130303BDBB282
S31500001250012B3FF64CAE354A294C2A4F2A4D1370C6
S31500001260FFF76CB91D7820AE234620213046304A60
S31500001270009505F0FDFEF3E5DFED2E7AB4EEE70A04
S31500001280F1EE10FA0FDCB5EEC00AF1EE10FA7FF5BA
S31500001290A5AE9FED290AA1E6F7EE007AB4EEE70ABD
S315000012A0F1EE10FA02DDB0EE670A97E6FFEE007A7D
S315000012B0B4EE670AF1EE10FA48BFB0EE670A8DE6A3
S315000012C0F7EE007AB4EEE70AF1EE10FAEBDCDAE7B5
S315000012D004F0BFFF7368C0B220AE187020210090E2
S315000012E023463046124A05F0C3FEB9E5DC0000206D
S315000012F084960000BC00002000007A4400007AC4F6
S3150000130090050020AC000020AE000020B4000020B4
S315000013106F12833AD800002008370020900F002073
S3150000132009AC5C3F183B00200937002094370020A9
S315000013307096000000004842000000002DE9F04FC2
S315000013402DED028BA54989B0A54802F06FFAFEF78C
S31500001350D9FEFEF7DFFFA349A34804F0BDF8034614
S31500001360A249A148059304F0B1F9034600219E481D
S31500001370069304F025FB9C4C0790204604A904F034
S3150000138055F89DF81030022BF7D0994999488DF8F9
S31500001390123003F091FA974803F066FA964B1B78E1
S315000013A0002B40F06482002240F60551934803F07A
S315000013B0A7F90120924904F0DFFC012240F605510D
S315000013C08E4803F09DF94FF47A710A2004F0D4FC9C
S315000013D04FF0082300258B4F012183483B6004F022
S315000013E00BF80421804804F007F84FF4FA742E46EF
S315000013F0DFF880824FF47A71012004F0BDFCB8F862
S315000014000020B8F80230013C16441D44F2D17E4B50
S315000014107E48A3FB0612A3FB051352095B090221B2
S315000014207B803A8003F040FE0221794803F03CFEBF
S315000014300221784803F038FE7749784803F014FC17
S31500001440764803F073FA754803F064FA152240F6FD
S3150000145006616A4803F0C0F9012240F60661674852
S3150000146003F04EF9012240F60261644803F048F9A0
S315000014704FF47A714FF4FA6004F07EFC052240F6D0
S3150000148006615E4803F0A8F9012240F606615B4852
S3150000149003F036F94FF47A714FF4FA6004F06CFCFD
S315000014A05F4D40F605610DF11302544803F016F93D
S315000014B05C4B9DF8132028465B491A7002F04EFEDD
S315000014C0002800F00E826323584A5949039200917E
S315000014D013705849584802F091FA584BC2B2044664
S315000014E01A70002800F0DA81554B564D0193DFED56
S315000014F0568A9FED568ADFF880B1DFF880A1DFF8C3
S315000015008081534EDFF87C913C4C40F603610DF12F
S315000015101302204603F0E2F89DF813300DF1130292
S31500001520A3F10103B3FA83F340F604615B09204695
S315000015308BF8003003F0D2F89DF81330454AA3F13A
S315000015400103B3FA83F35B091370DAF80030012B59
S3150000155000F0468198F80030002B40F0958099F80D
S315000015600030002BD1D0009F3B78002BCDD13A4ADA
S315000015701378002BC9D139483949007801EB00208E
S3150000158005F003FE0246D8B1012334483B700178CA
S31500001590334B234803EB0121029202F01DFD314B30
S315000015A0029AC0B21870304B304992B21A800B883A
S315000015B0294A01339BB20B802D4B1B78DBB213708B
S315000015C0264A1378013303F00703137099F80030A5
S315000015D0013BDBB289F8003097E700BFB09C000002
S315000015E0483B0020A09E0000043C0020F49F000021
S315000015F0E89C0000883B0020B50F0020403B0020FF
S3150000160040420F00E8000020D34D6210A43B0020AA
S31500001610C43B0020E43B002014A100002C3C002029
S315000016204C3C0020B800002070A10000FA05002004
S31500001630040E0020A4A100007C3C0020B200002083
S3150000164084050020400500200000003A3333834122
S3150000165030050020BD0F0020960500200106002061
S3150000166004060020B6000020940500209205002004
S31500001670B7000020083B0020BE0F0020A405002074
S315000016805005002000060020002388F80030019B4A
S315000016901B78002B3FF463AF9F232B80FEF780FE61
S315000016A0A02372782B800292FEF77AFEA123029A7B
S315000016B02B80737843EA0223B94A1BB2174613807C
S315000016C0FEF76EFEA22372782B800292FEF768FE6A
S315000016D0A323029A2B80737843EA02231BB27B80F2
S315000016E0FEF75EFEA42372782B800292FEF758FE68
S315000016F0A523029A2B80737843EA02231BB2BB8090
S31500001700FEF74EFEA62372782B800292FEF748FE65
S31500001710A723029A2B807378A24943EA02231BB2BD
S315000017200F460B80FEF73CFEA82372782B800292B0
S31500001730FEF736FEA923029A2B80737843EA02232A
S315000017401BB27B80FEF72CFEAA2372782B800292B6
S31500001750FEF726FE029A7378934843EA02231BB2E9
S315000017608F4ABB8013881BB207EE903AF8EEE77AF1
S3150000177067EEA87AC0ED007A53881BB207EE903A5E
S31500001780F8EEE77A67EEA87AC0ED017A9388874A81
S315000017901BB207EE903AF8EEE77A67EEA87AC0ED4C
S315000017A0027A3B881BB207EE903AF8EEE77A87EEAC
S315000017B0887A82ED007A7B881BB207EE903AF8EEC3
S315000017C0E77A87EE887A82ED017ABB881BB207EE4C
S315000017D0903AF8EEE77A87EE887A82ED027ABEE6EC
S315000017E0734802F03BFC102240F60561204602F0E9
S315000017F0F3FF00226F4F704BD7F8FCC04FF47A719D
S315000018004CF0807CC7F8FCC05A60D3F800C04FF497
S31500001810FA704CF0010CC3F800C004F0ADFA0223D4
S315000018200022CAF80030654B1A60654BB3F8C43025
S3150000183013F02003F9D1604A5360614BB3F8C4300A
S315000018409B06FAD503235C4A5C49526820460A6027
S315000018505C4A40F60561CAF8003002F0BDFF5A49FD
S31500001860534802F07BFC0423039A137072E60122AC
S3150000187040F60161554802F043FF4FF47A710A20A1
S3150000188004F07AFA002240F60161504802F038FF6F
S315000018904FF47A713C2004F06FFA84E54FF47A71C4
S315000018A00A2004F069FA012740F21113484E494D07
S315000018B037702B80FEF774FD4FF47A710A2004F01E
S315000018C05BFA022375203370FEF7B0FD0322424B0C
S315000018D0187032701B78422B2BD0404B01931C7032
S315000018E005E602233E4F3F4A40F6066137483B7005
S315000018F0039702F071FF4FF47A714FF4FA7004F017
S315000019003BFA394B2146402238481C7005F0E4FB6F
S315000019100423374E374A3480364E2D6A0092364AB3
S3150000192034702C6951783548354A046011703B7023
S31500001930CFE576232B80FEF733FD4FF405632B802E
S31500001940FEF72EFD4FF47A71384604F015FA40F68C
S315000019504F032B80FEF724FD4FF47A71384604F0CE
S315000019600BFA40F64E732B80FEF71AFD4FF47A7190
S31500001970C82004F001FA4E20FEF758FD0346214A1E
S3150000198050201370FEF752FD03461F4A2D20137098
S31500001990FEF74CFD11491D4A019110700F70A6E526
S315000019A0740500206C050020600500205405002009
S315000019B04C3C002000ED00E0001000E0A0050020F7
S315000019C000F101400000010570A10000403B00202D
S315000019D080050020400500208505002084050020A4
S315000019E0FA05002010000105B0050020B40500200E
S315000019F0F8050020040E0020EC000020AC050020B5
S31500001A00A80500208305002082050020810500200E
S31500001A10022800D070470249024802F0D3BE00BF38
S31500001A2008A20000403B00202DE9F04F2DED048B6D
S31500001A30048B8BB0012C04D00BB0BDEC048BBDE83D
S31500001A40F08F4A4D0DF10F022B684FF430610133D0
S31500001A5047482B6002F042FE9DF80F30454AB3FA24
S31500001A6083F35B0913701378002B35D1424B1B7837
S31500001A70002B36D1414B424D0193424C0121224667
S31500001A80414803F0CDFF2178002900F0E6860023C7
S31500001A904A1EDFF814813D4F3D4EDFF810A1DFF8F6
S31500001AA01091D2B204EB830C9CF80700032BBCF810
S31500001AB004E0C0F3C01BC0F3060C24D89A422AF8EF
S31500001AC013E009F803C028F813E007F803C006F886
S31500001AD003B024D00133E5E7274B1C701B78002B9D
S31500001AE0C8D000214FF07C532A4A00201160516073
S31500001AF00122234D214C2B606B60AB60264B019479
S31500001B0020701A70B9E79A4228F813E007F803C064
S31500001B1006F803B003F1010301D0082BC2D100235C
S31500001B201E481F4EDFF88CC01E4FDFF88C80DFF892
S31500001B308CE0017004EB8300C179808801F07F019D
S31500001B40102942D8DFE811F0400041004100410071
S31500001B507F03410041004100410041004100410036
S31500001B607C037A0381034100770300BF903700208E
S31500001B70403B0020D10F0020D00F0020183B002052
S31500001B80FC3A0020FC040020043C002068370020BA
S31500001B9060370020E83A002009370020803700200F
S31500001BA0083B00209C0F002070370020583700208B
S31500001BB0543700209E0F0020A00F0020AC0F0020FD
S31500001BC000F07F453333534030809A4203F10103DE
S31500001BD001D0082BAED1B8F800305FED076A9BB292
S31500001BE007EE903AB8EE677A1FED0A6AC7EE267AD4
S31500001BF0B2EE0A5A67EE867A67EE857AD74CF2EE2F
S31500001C00065AC4ED007ABEF80030D54A9BB207EEFC
S31500001C10903AB8EE677AC7EE267A67EE867A67EE6E
S31500001C20A57AC2ED007ABCF800309BB20A2B07D920
S31500001C3040F6F472BCF800309BB2934240F2A6859F
S31500001C403B889BB20A2B06D940F6F4723B889BB2BE
S31500001C50934240F26A85C34F97ED0D7AB5EEC07A8E
S31500001C60F1EE10FA40F30384BF4BD3ED007AC7EED2
S31500001C70876AF5EEC06AF1EE10FA00F1F883F7EE26
S31500001C80007AF4EE676AF1EE10FA77FEA66ADFF8DC
S31500001C908483D8ED007AF4EEE67AF1EE10FA40F19C
S31500001CA04E849FEDB26A77EE867AF4EEE67AF1EE2E
S31500001CB010FA40F35084C8ED006AF0EE667A27EE1B
S31500001CC0277ADFF85493DFF854A3A94B4A4683EDED
S31500001CD0007A5146A74BA84801F03EFCA74BDAED27
S31500001CE0004AD3ED007A9FEDA67A74EEE77AF4EE19
S31500001CF0C77AD9ED006AF1EE10FAA24AC2ED006A7F
S31500001D0040F32D849FEDA07A77EEC77A9F49DFF8DE
S31500001D1010C391ED007A77EE877AC3ED004A9C4AAC
S31500001D20BCF800309B4802EB830201339BB2C72B01
S31500001D3092ED006AC1ED007AC0ED007AC2ED007A3C
S31500001D40ACF8003040F2D98300230122ACF8003011
S31500001D50914B1A7077EEC67A9FED907A97ED006AEE
S31500001D60C7EE875AF6EE006A85EE867AB4EEE67A14
S31500001D70F1EE10FA01D59FED8A7AD7ED0D7A9FED37
S31500001D80806A77EEA77ADFED876A67EE867A87EE56
S31500001D90A66AB5EEC06AF1EE10FA834B83ED007ABF
S31500001DA040F3EA83814BF7EE007A93ED005AC7EED3
S31500001DB0065A27EE267AD3ED006A7D4B9FED724ACE
S31500001DC093ED006A77EEC57AC7EE043A67EE867A37
S31500001DD026EEA57A77EE877A98ED005AB4EEE55AA4
S31500001DE0F1EE10FAC3ED007A724BC8BF75EE657A54
S31500001DF0C3ED005A704BD8BF75EEC57AC3ED003AF5
S31500001E006E4B6F4A19786F4B19706F4BC3ED007AA2
S31500001E106E4B93ED007A137837EE247A002B40F060
S31500001E2029834FF0010C0020F0EE477A82F800C0BB
S31500001E30674A82ED007A674A82ED007A664A106048
S31500001E40664A1370664A674BC2ED007A664A9FED92
S31500001E50676A82ED007AC3ED057AD3ED052AC3EDF4
S31500001E60057A93ED042A7388614A07EE903A308822
S31500001E705688F8EE674A07EE106A07EE900A12884F
S31500001E80F8EE676AB8EE477A07EE902A74EEC74A0C
S31500001E90F8EE677A64EE864A76EEE76A66EE866A5A
S31500001EA034EEA46A9FED534A36EE266A26EE046A9D
S31500001EB026EEA23A26EE027A37EE437A26EE224A3A
S31500001EC0B5EEC07A66EE827AF1EE10FA77EE847A93
S31500001ED0DFF85091D8BFB1EE473AD9ED001AC8BF26
S31500001EE0B0EE473AF5EEC07AF1EE10FAF4EEC31A08
S31500001EF0D4BFB1EE674AB0EE674AF1EE10FA48BFBA
S31500001F0089ED003ADFF82081DFED3B1A98ED003AC3
S31500001F10B4EEC43AF1EE10FA27EE073A48BF88ED60
S31500001F20004A27EEA74A34EE034AB4EEE14AF1EE40
S31500001F3010FA09DD314AC2ED006A314AC2ED004AA3
S31500001F40304A1080304A1380019B304A1878304B53
S31500001F5092ED004AD3ED004A68E000BFA40F0020CE
S31500001F60B00F002038000020BC000020ACC5A73709
S31500001F70143B0020F03A0020483B0020A837002000
S31500001F80DB0F494098370020DB0FC940A4370020FB
S31500001F90B03700209C370020AC3700200AD7A33C7E
S31500001FA00000000000007042A0370020E000002082
S31500001FB0E03A0020E43A0020103B0020DC3A002002
S31500001FC0F80400201C37002018370020CC0F002012
S31500001FD0F4040020F0040020EC040020E8040020B3
S31500001FE03C37002000100240383700200000003A3D
S31500001FF0E80000203ACD133FCDCCCC3D2837002059
S3150000200024370020203700201E370020E40400205B
S31500002010E0040020D03A0020F43A0020F83A0020EC
S31500002020AE370020303700202C370020DFF864E27E
S315000020309FED873ACEED006ADFF85CE277EEC47A70
S315000020408EED006A37EE646A67EE837A26EE036ADF
S3150000205077EE847A36EE246A7E4EDFF840C2C2ED11
S31500002060007ACCED007A83ED006A86ED006A0028DE
S3150000207000F01681002900F01381774B1A78002AA8
S3150000208000F01683754E7648764AD6ED001A90ED26
S31500002090001A92ED003A97ED0D9A9FED730A83EEC2
S315000020A0897A724B27EE007A93ED018AD3ED004AC6
S315000020B06F4BDFED700AD3ED026A78EE463A37EEE3
S315000020C0617A74EEE74A93ED004A63EEA67A27EE4C
S315000020D0207A24EE844A37EE217A77EE837A34EE3C
S315000020E0014A77EE877A64EE046A86ED007A27EE77
S315000020F0A77ADFED618A36EE877AB4EEE87AF1EEFA
S3150000210010FA00F3838393ED017AB5EEC07AF1EE0F
S3150000211010FA19DDDFED591A27EE217A27EE247A17
S31500002120DFED576A37EE017AB4EEE67AF1EE10FA91
S3150000213008DCDFED546AB4EEE67AF1EE10FA58BF29
S31500002140F0EE476AC0ED006A93ED037AB5EEC07A09
S31500002150F1EE10FA13DDDFED494A27EE247A27EE79
S31500002160237ADFED476A33EE073AB4EEE63AF1EE4C
S3150000217010FA40F35683C2ED006AB0EE663A64EE9A
S31500002180026A67EEA23A67EE824A64EE227A76EE39
S31500002190E36A74EEA74A9FED3C4AB6EE007A64EE17
S315000021A0844A26EE877AF1EE477A34EEC77AF4EE61
S315000021B0C76AF1EE10FA354B77EEE47A83ED003A12
S315000021C040F11583B4EEE77AF1EE10FA00F13783A9
S315000021D0B0EE474AF0EE664AF4EE674AF1EE10FAC0
S315000021E077FEA44A74EE844ABEEE003A64EE834A51
S315000021F0B6EE004A76EEA46A37EE247A77EEA47A33
S31500002200DFED233A66EE846A27EE047A67EE847A77
S3150000221066EEA36A27EE237A67EEA37A76EE846AE1
S3150000222037EE047A77EE847AC5ED006A85ED017A99
S31500002230C5ED027A43E0AEF80000C6E43880C4E497
S31500002240ACF80000C1E47080BFE4A8F80000BCE46C
S31500002250CDCCCC3DD83A0020DC040020D0040020B0
S31500002260D8040020D4040020B81E053FE83A002018
S31500002270880000200AD7A33B3D0A673F17B7D1382D
S31500002280CDCC4C3DCDCC4CBDD0B35D3F48370020C6
S315000022903ACD933F503700204C370020D43A0020E7
S315000022A0B6EE007A0022F0EE477A85ED007A85EDEB
S315000022B0017A85ED027AF0EE476AB74B1A704FF055
S315000022C08040B64BB64A1B781060002B3ED0B54A0C
S315000022D0138801339BB2138013889BB2632B35D9C5
S315000022E00026B14B16801A88B04892B202EB8202E1
S315000022F000EB820282ED005A1A88AD4F92B202EBD1
S31500002300820200EB8202C2ED015A1A887F6892B2FD
S3150000231002EB820200EB820282ED026A1A8892B216
S3150000232002EB820200EB8202D7601A8892B202EBBD
S31500002330820200EB820001741A88013292B21A807E
S315000023401A8892B2B2F5FA7F28BF1E80994B1B7885
S31500002350002B4AD0D4ED005AB2EE046AF4EEC65A07
S31500002360F1EE10FA41DDD4ED003AB3EE023AB7EEE3
S31500002370084AC3EE235AF4EE445AB6EE006AF1EE6A
S3150000238010FA76EEC66A37EE467A77EEC67A74FEAD
S31500002390255A66EEA56A27EE257A67EEA57A76EEC9
S315000023A0866A37EE067A77EE867AC5ED006A85ED9F
S315000023B0017AC5ED027A804D9FED805ADFED804AA5
S315000023C02B4605F10C02F3EC017AF4EEC57AF1EE38
S315000023D010FA40F1D98003ED015A9342F3D1D5EDBD
S315000023E0006A95ED017AD5ED027AD4ED005AB2EE87
S315000023F0046AF4EEC65AF1EE10FA02DD2268714B59
S315000024001A609FED716A714B41F27076C3ED006AF6
S3150000241066EE866A83ED017A27EE067AC3ED027AC6
S3150000242067EE867AFCEEE66ABCEEC77AFCEEE77AE1
S3150000243016EE904A17EE102A17EE903AB44228BFCD
S315000024403446B24228BF3246B34228BF3346604DB7
S3150000245004A960482C60CDE905236A600494AB604A
S3150000246002F008FA0BB0BDEC048BBDE8F08FDFED8F
S315000024705A6A0CE45948DFED5A7AD0ED006A77EED5
S31500002480666AF4EEE76AF1EE10FA40F30581DFEDD5
S31500002490557A76EEE76A544BDFED514AD3ED007A72
S315000024A036EEE76AB4EEE46AF1EE10FA40F3E8803D
S315000024B0DFED4C4A36EE646AB5EEC06AF1EE10FA0C
S315000024C0DFED4A4AD8BFB1EE466AB4EEE46AF1EEF1
S315000024D010FADFF834C19CF8002000F39780002A38
S315000024E000F00581424BD3ED006A77EEA67AC3ED84
S315000024F0007A013A8CF8002095E03E4B1B78002BC1
S315000025007FF428ACF0EEE67A9FED3B7AF4EE477A5C
S31500002510F1EE10FA3FF62FACD7ED007AF5EEC07A61
S31500002520F1EE10FA7FF727AC86EEA77AF6EE007A80
S31500002530B4EEE77AF1EE10FA3FF51DAC1DE47FF735
S31500002540BEAB9FED2E6A77EEC67AF4EEE67AF1EE32
S3150000255010FA3FF5B0ABC8ED007AFFF7B0BB9FEDC0
S31500002560287AF4EEC77AF1EE10FA44BF9FED1D7A91
S3150000257077EE877AFFF7CABBDFED177A214BF0EECD
S31500002580673AF0EE675A27E4F4EEE47AF1EE10FAD1
S31500002590C8BF43ED014A20E7DC040020D00000203C
S315000025A0E4000020EC0F0020EE0F0020F00F0020CA
S315000025B0E83A002081370020FC3A00200AD7A33CE5
S315000025C048E17A3F700000200080BB45D40F002010
S315000025D0E00F0020883B002000000000F0040020EF
S315000025E0DB0F4940DB0FC940EC040020CDCC4C3E4C
S315000025F0F4040020AC370020FFFF7F7FACC5A7376F
S31500002600DB0F49C0E03A0020E8040020994BD3EDE7
S31500002610006A77EEA67AC3ED007A002A7FF469AFE6
S315000026201E228CF80020DFED946AF4EEE67AF1EED5
S3150000263010FA80ED007A6EDD77EEE67AC3ED007A69
S3150000264077EE676A9FED8D6AF4EEC66AF1EE10FAD0
S3150000265055DD9FED896A76EEC66AF5EEC06AF1EE43
S3150000266010FA874BD8BFF1EE666A93ED006AB4EEB6
S31500002670E66AF1EE10FA48BFC3ED006AFFF7E2BB67
S31500002680DFED804AB4EEE46AF1EE10FA44BFDFED06
S315000026907A4A36EE246A0FE7DFED7A7AF4EEE76AD5
S315000026A0F1EE10FA44BFDFED747A76EEA76AF2E631
S315000026B09FED757A754E764886ED007A754E764AA8
S315000026C086ED007A6E4E89ED007A88ED007A86ED09
S315000026D0007A0126B0EE473A1E7080ED007A82ED50
S315000026E0007AB0EE471AF0EE471A6C4ED3E4C3ED0B
S315000026F0006A604BF0EE477A83ED007A93E79FED30
S31500002700616AF4EEC66AF1EE10FA44BF9FED5A6AAA
S3150000271076EE866AA1E7F5EEC07AF1EE10FA44BFCE
S3150000272077EEA67AC3ED007A8AE73A889FED5C7A5F
S3150000273092B207EE902AF8EE676A3B8837EE667A21
S315000027409BB207EE903ADFED575AF8EE677A27EE1E
S31500002750257A9FED556A87EE270A80EE060A06F06F
S31500002760C5FDDFED527A9FED527A60EE277AB7EE1D
S31500002770006A77EE877ADFED4F6A86EE277A77EE84
S31500002780667A4D4BC3ED007AFFF765BABCF80020B8
S31500002790BCF8003092B207EE902AB8EE677A9BB288
S315000027A007EE903A76EEC76ADFED3E5AF8EE677AA4
S315000027B066EEA56A9FED3C6A86EEA70A80EE060ADB
S315000027C006F094FDDFED397A9FED397A60EE277ACF
S315000027D0B7EE006A77EE877ADFED366A86EE277AFD
S315000027E077EE667A354BC3ED007AFFF729BAF4EE39
S315000027F0E76AF1EE10FAF4EEC76A25D4F1EE10FAA4
S31500002800B0EE664A1DDDF0EE474AE5E4F1EEC76A32
S31500002810DFED2B1A81EEA67A24EE074A67EE877A59
S3150000282071E49FED287AB4EEC73AF1EE10FA52BF82
S3150000283082ED003A82ED007AB0EE473A9FE4B0EEC0
S31500002840674AF0EE664AC7E4F1EE10FAB0EE674A60
S31500002850D8BFF0EE664AD6DCC4E41B4B1B4EDFF84D
S3150000286074C01B4FDFF87080DFF870E01970FFF757
S31500002870B2B900BFF4040020DB0FC940DB0F4940AA
S3150000288034370020DB0F49C0000000004437002029
S31500002890D804002040370020D4040020D0040020B3
S315000028A000F07F4500401C4600E0AB46467967399C
S315000028B00FCF5B3B33938843C4000020C800002041
S315000028C03333733FCDCC4CBD80370020083B00200E
S315000028D09C0F00209E0F0020A00F0020AC0F0020B0
S315000028E0704700BF2DE9F04F7F4C804E2368804D26
S315000028F0013323603378287883B013B1002840F081
S315000029005883DFF854922368B3F57A7F00F0198470
S315000029102368B3F5FA6F00F0C883764B1B78002B5B
S3150000292000F0CF83744BD3ED007A744B93ED007AAD
S31500002930B4EEE77AF1EE10FA48BFD3ED007A93EDE4
S31500002940007AB1EE477AB4EEE77AF1EE10FAC8BF34
S31500002950D3ED007A6A4BC8BFF1EE677A93ED007A41
S31500002960B5EEC07AF1EE10FA2DDD664A92ED0D7ADB
S31500002970654AD2ED006A27EE267AB5EEC07AF1EE08
S3150000298010FAD3ED006AD8BFB1EE477A93ED006A2C
S31500002990B4EEC76AF1EE10FA00F105849FED5B6AAA
S315000029A066EE866AB4EEE67AF1EE10FA0BDDD3ED4A
S315000029B0005A93ED006A75EEC75A36EE667AC5EE92
S315000029C0876A67EEA67A524F002397ED007A67EE84
S315000029D0877ADFF888A14F4ACAED017A1360CAF8F0
S315000029E000304D4BDFF87881187040F60E610DF11E
S315000029F006024A4801F072FE9DF806C0484BACF14B
S31500002A000100B0FA80F047491A7840090870002A98
S31500002A103CD1BCF1010F00F00B8443490A604349E5
S31500002A200A60434A1278002A32D0424AF1EE047A0A
S31500002A3092ED007AB4EEE77AF1EE10FA40F14284B4
S31500002A403D490A88013292B20E2A0A8020D9012213
S31500002A5000201A7000234FF07C514FF0020C2870B2
S31500002A600320CAF80030CAF80430344B19605960A4
S31500002A709960334B40F6075183F800C0314B1A700A
S31500002A80314B1870254801F03BFE01E0284B1B78BE
S31500002A902E4BF2EE087A93ED007AB4EEE77AF1EE79
S31500002AA010FA5FD593ED007AF7EE007AB4EEE77A86
S31500002AB0F1EE10FA56DD26490A88013292B2B2F5D5
S31500002AC0FA7F0A80C0F0EB8393ED007AF2EE0C7A7F
S31500002AD0B4EEE77AF1EE10FA40F1FC839FED1D7A31
S31500002AE003221B684EE000BF8C370020C90F002070
S31500002AF0183B002094370020DC000020D80000207E
S31500002B00D400002038000020E03A00206666663FC8
S31500002B10C00000200C3B0020DC3A0020403B002097
S31500002B20BF0F0020BC0F0020C00F0020B80F0020F0
S31500002B30B50F0020B00F0020AA0F0020FC3A00209D
S31500002B40B40F0020B60F002009370020A40F002084
S31500002B50C004002000000000D43A0020E83A00201B
S31500002B60D83A002093ED007AF2EE0C7AB4EEE77ACA
S31500002B700021F1EE10FAB34A118000F1F681B7EEAA
S31500002B80007A0022D8ED003A99ED004A63EEA37A66
S31500002B9024EE046AAC4B77EE867AD3ED006AF4EE47
S31500002BA0E76AF1EE10FA48BFC3ED007AA7499FED38
S31500002BB0A85AD1ED004A77EEE47ADFF808E3DFF8A9
S31500002BC008C3D1ED005A9EED006ADCED006A67EE9F
S31500002BD0857A33EE866A74EE266A77EEA57A9D4884
S31500002BE08EED006A0378CCED006A0133DBB2092B67
S31500002BF0C1ED007A037015D9F2EE045AC6EE257AB5
S31500002C0086EEA56A67EEA77A26EE066A002377EEB9
S31500002C10867ACEF80030CCF800308F4B0021C3ED19
S31500002C20007A01703378002B53D000218B4B19604A
S31500002C30D3ED005A9FED8A6AC5EE866A894BF7EE98
S31500002C40007AC3ED006AD3ED006AF4EEE76AF1EEAE
S31500002C5010FAC0F25482F5EEC03AF1EE10FAB5EE73
S31500002C60C04AD8BFF1EE633AF1EE10FA4FF0010216
S31500002C70D8BFB1EE444A7C4B08211A709FED7B7A8F
S31500002C8003227B4BC3ED003A7A4B83ED004A7A4B25
S31500002C9019707A4BDFED7A7AD3ED006AF4EEE76AC3
S31500002CA0F1EE10FA35DAD3ED006ADFED767AF4EE5E
S31500002CB0E76AF1EE10FAC0F2E281DFED737AB4EE64
S31500002CC0677A022A38BF0222F1EE10FA37FE877AB7
S31500002CD022E0624B9FED6D5AD3ED004A5E49C4EE89
S31500002CE0855AD1ED007A9FED5A6A77EEE57AD3EDF3
S31500002CF0006A67EE867A77EEA67AC3ED007AD3EDA0
S31500002D00007AF5EEC07A0021F1EE10FA48BF19609C
S31500002D108EE79FED567A03225D4BDFED597AD3EDB0
S31500002D20006AF4EEE76AF1EE10FA15DAD3ED006AFE
S31500002D30DFED547AF4EEE76AF1EE10FAC0F2238181
S31500002D40DFED517AB4EE677A022A38BF0222F1EE3D
S31500002D5010FA37FE877A02E09FED447A03224D4E41
S31500002D60327087ED007A3378022B04D900230421D0
S31500002D70414A2B70117040F605210DF107024648B5
S31500002D8001F0ACFC9DF807204449A2F10100B0FA1D
S31500002D9080F00B784009834200F0DD81404F3B888C
S31500002DA001339BB21D2B3B8011D90023012A0870E9
S31500002DB03B800CD03B483C4A03780133A2FB03120C
S31500002DC002F4FF7101EB52029B1ADBB2037040F66C
S31500002DD00A510DF10702304801F080FC9DF80720EA
S31500002DE03249A2F10100B0FA80F00B784009834223
S31500002DF000F0AD812E4F3B8801339BB21D2B3B80EB
S31500002E000AD90023012A08703B8005D0294A137885
S31500002E10B3FA83F35B091370274B1B7803F0FF07A4
S31500002E20002B53D1254B1B78002B00F01681022472
S31500002E302B78002B00F0938144F00404204B1C7087
S31500002E404BE000BFC004002044370020403700207C
S31500002E506F12833AB4040020B0040020900F0020C3
S31500002E6009ACDC3F8C0F0020083700200000000072
S31500002E70043700200037002009370020C800002052
S31500002E800000B4420000A0429A99993E66662C4220
S31500002E90C40000209A0F0020403B0020BA0000200A
S31500002EA0960F0020990F0020ABAAAAAAB90000200D
S31500002EB0940F0020980F0020A90F0020D00F0020AB
S31500002EC0A80F0020BC040020B8040020B74B1C78D3
S31500002ED084F00407C7F38007E4B2E24340F60F51DB
S31500002EE002F00102B24801F00BFC84F0020240F647
S31500002EF00641C2F34002AE4801F002FC3A4640F6F3
S31500002F000741AB4801F0FCFB84F0080240F6015192
S31500002F10C2F3C002A64801F0F3FB84F0100240F6AB
S31500002F200251C2F30012A24801F0EAFB84F020022B
S31500002F30C2F3401240F603519D4801F0E1FB9D4A61
S31500002F40138801339BB2092B05D81380FDF7D6FAF7
S31500002F5003B0BDE8F08F00200121974B1080197057
S31500002F60FDF7CCFA03B0BDE8F08F93ED007AF7EEEB
S31500002F70007AB4EEE77AF1EE10FA7FF700AEB6EE1D
S31500002F80007A0122FEE5D3ED006ADFED8C7AF4EEDD
S31500002F90E76AF1EE10FAFFF6E2AEDFED897AB4EEFB
S31500002FA0677A012A38BF0122F1EE10FA37FE877AD6
S31500002FB0D5E6844ADFF86892138801339BB2B3F5ED
S31500002FC0FA7F13807FF69FACD9ED007AF5EEC07AD2
S31500002FD0F1EE10FA7C4FD8BFF1EE677A97ED007AE2
S31500002FE040F2DB5E37EE877ADFF838C27345DCF8ED
S31500002FF0001087ED007A01F10101CCF800107FF690
S3150000300082AC002900F0838107EE901AF8EE677A09
S31500003010C7EE276A6D4BD3ED007AF4EEE67AF1EE51
S3150000302010FA00F366816A4900234FF0000E3B60F8
S315000030300B78A2F800E00133DBB20B700B78CCF80A
S3150000304000E00C2B40F24C81624B1A68624B1A600E
S3150000305086F800E081F800E055E43378022B3FF66D
S31500003060E6AE3378002B00F0398123685B4AA2FB79
S31500003070032313F0100F14BF03240124D8E6D3ED65
S31500003080006ADFED4E7AF4EEE76AF1EE10FAFFF62B
S3150000309043AEDFED4B7AB4EE677A012A38BF0122E0
S315000030A0F1EE10FA37FE877A36E64D4B4D4A1B682D
S315000030B012689B1A4C4A13604C4B1B78002B7FF40A
S315000030C031AC4B4BDFF860A1D3ED001A494BDFF86A
S315000030D05C81D3ED000A484B484F93ED000A98ED0A
S315000030E0001A5146464B474AFDF724F8DAED017AB5
S315000030F097ED007A67EE877ACAED017A75E493ED6B
S31500003100006ADFED416AB4EEE66AF1EE10FA28DBFA
S3150000311093ED006A9FED3D5A76EE666A86EE856A05
S31500003120F6EE005A77EEC67A67EEA57AB4EE677ABF
S31500003130022A34BF02220322F1EE10FA37FE877A02
S31500003140A7E5274B1A68274B1A60FFF7E6BB002254
S315000031502F4B1A8060E600222E4B1A8037E6012795
S315000031606CE6D3ED006A9FED166AF4EEC66AF1EEE0
S3150000317010FAFFF68EADD3ED006AB6EE005A76EE83
S31500003180C66ADFED255A66EE856A86EEA56A77EE93
S31500003190C67AB4EE677A012A38BF0122F1EE10FA38
S315000031A037FE877A75E5DFED1D7A0CE4A80F00205F
S315000031B0403B0020AC0400205005002000008C425B
S315000031C03333333FCC040020C8040020CC00002059
S315000031D0C80F0020C40F0020CC0F0020D34D621072
S315000031E0903700208837002084370020943700204D
S315000031F0E4000020E03A0020D03A0020C000002081
S31500003200DC3A00200C3B00209A99593F9899193EC8
S31500003210940F0020960F00209C99193E0000000094
S31500003220D43A0020C4040020E83A0020D83A00200E
S3150000323040F6B73E3748DFF810B1016801317145F5
S315000032400160CBF800107FF6ECAB4FF07C504FF0EE
S31500003250000E4FF0020B2A702F4A304982F800C048
S3150000326083F800C06246DFF8E4C008604860886002
S3150000327040F607512A488CF800B0CAF800E0CAF8B0
S3150000328004E001F03DFA274A274B1278002A3FF462
S31500003290FFAB1A78002A3FF4C8ABFFF7F9BBD3EDB2
S315000032A0006AB2EE0C7AF4EEC76AF1EE10FA7FF518
S315000032B066AC93ED007AB4EEE77AF1EE10FA3FF7DA
S315000032C05EAE5CE400210122184B1980184B1A707F
S315000032D0FFF7DEBB9FED177A032253E40124A7E52F
S315000032E00A78154B03EB82031A68144B1A60FFF732
S315000032F00ABBC3ED006A12490F4B91F80080DFF854
S3150000330050E003EB88031B68CEF800308CE6DFED57
S315000033100D6A7FE6C00F0020B60F0020FC3A0020A1
S31500003320403B0020B50F0020BF0F0020AA0F002051
S31500003330B40F002000000000DC990000CC0F002034
S31500003340C80F00200000C642B80F00200937002031
S31500003350C40F0020064A074913780133DBB2137005
S315000033600379012B08BF044A0B7008BF137070471E
S315000033707F050020B1000020860500200379023B6E
S315000033801E2B11D8DFE803F03F1017101010111094
S315000033901010101010101110101010101010101026
S315000033A010101010101011007047304A13880133A6
S315000033B09BB2138070472DE9F0412D4C2D4923888F
S315000033C0027A01339BB223800B783F2B06D80B7809
S315000033D0294C581CC0B2DBB20870E2540D2A16D034
S315000033E00A2A14D025490B889BB27E2B09D80024C3
S315000033F00B889BB2581C80B2088021482149C254D0
S315000034000C80BDE8F08100221F4B1A7070471B4CE0
S3150000341023889BB20BB31D4D2B78032B1DD8238815
S315000034209BB23E2B1DD8228892B29046184E194F59
S315000034303078134907EB801003F09AFE00233278A8
S3150000344007EB821707F808303378013303F00303DC
S3150000345033702B780133DBB22B7000232380BDE859
S31500003460F0814FF03F084246E0E700BFF605002036
S31500003470F8050020B0050020B4050020080F002044
S315000034800C0F0020FC050020040E0020050E002075
S31500003490070E0020080E00209FED010B704700BFAD
S315000034A0000000000000F07F9FED010A704700BF9A
S315000034B00000807FFFFFFFFF9FED010B704700BFFD
S315000034C0000000000000F0FF9FED010A704700BFFA
S315000034D0000080FFFFFFFFFF9FED010B704700BF5D
S315000034E0000000000000F8FF9FED010A704700BFD2
S315000034F00000C0FF08B5FFF7EFFF0E4B83ED000B92
S31500003500FFF7F2FF0C4B83ED000AFFF7C5FF0B4BED
S3150000351083ED000BFFF7C8FF094B83ED000AFFF7A9
S31500003520CBFF084B83ED000BFFF7CEFF064B83ED79
S31500003530000A08BD283B00201C3B0020383B002029
S31500003540243B0020303B0020203B002008B5FDF73F
S31500003550F5FE002008BD00BF2DE9F043C36B0679D8
S315000035605C6846712388A94F1D0A2D0155FA83F31D
S3150000357057F82330C3F340039B00037165884FEA75
S31500003580152C4FEA0C1C5CFA85F557F8255005F00A
S3150000359002052B430371A5884FEA152C4FEA0C1C34
S315000035A05CFA85F557F82550C5F3400E4EEA030E32
S315000035B080F804E0002E00F0C480038EA58C9D42A6
S315000035C084BF01330386038901339BB20381B4F8B8
S315000035D02880984528BF98467645A0F8088000F0D0
S315000035E0B380A31D9C4690F8069004F10C0580F864
S315000035F007901CF8017F774505D11CF8017CB7427E
S3150000360004BF012787716545F3D113F801CBE64561
S3150000361004D11F78B74204BF002787719D42F4D1B9
S31500003620857D6B1CDBB2062B28BF002300EB45050E
S31500003630A5F80A8086798375B14500F0AD8000272C
S315000036403D46BC46E38C63F30F0763F31F47C0F8A0
S315000036500A70E78C984667F30F0567F31F45C0F8B5
S315000036600E50E58CB94665F30F0C65F31F4CC0F898
S3150000367012C0AC4643443B444B442B44634407EEE0
S31500003680903A9FED637AF8EEE77A87EE276A012E85
S315000036901ABFB1EE466A9FED5F7A9FED5F7A00230F
S315000036A080ED076A80ED067A0381D4ED046ADFEDCA
S315000036B05B7A66EEA76A66EE866AC0ED086AD4EDA6
S315000036C0057A6FF00407DFED564A9FED515ADFED9C
S315000036D0555A37EE277A631D04F10B063F1B9C46AD
S315000036E013F8015F75450DD107EB0C0507EE905AEF
S315000036F0F8EEE77A67EEA47A67EE857A87EEA56A32
S3150000370037EE067AB342EAD1DFED417AB4EEE77AD4
S31500003710F1EE10FA31DD37EE677AF0EEE67A94EDE7
S315000037200B6AB4EEE76AF1EE10FA03DD90F8383072
S31500003730012B3BD0002380F83830C2ED006A81EDC2
S31500003740007A0020BDE8F08390ED067AD0ED076A96
S31500003750DFED307A37EE267AB4EEE77AF1EE10FA3C
S3150000376080ED067A11DCDFED2C7AB4EEE77AF1EE25
S3150000377010FA0AD4D0ED086AA1E7B5EEC07AF1EEE8
S3150000378010FA48BF37EE277AC7E7C0ED067AD0EDC4
S31500003790086AB0EE677A92E74389B0F80C80C78969
S315000037A0B0F81090458AB0F814C063E7A58C038E74
S315000037B09D421AD890ED0D6AB5EEC06AF1EE10FA88
S315000037C0D0ED0A6AD0ED0B7A12DB76EEA76AC0ED71
S315000037D00A6AD4ED077AF4EEE76AF1EE10FAACDD88
S315000037E0C0ED0A7AF0EE676AA7E7DFED0F6AA4E795
S315000037F076EEE76AC0ED0A6AD4ED077AF1EE677AEB
S31500003800F4EEE76AF1EE10FA97D5E9E700F8014021
S31500003810DB0FC940920A063F920A06BF00007A44AF
S31500003820000070420000B4430000000070B5C163A0
S3150000383003464868F7EE006A90ED047AC6EE877A8A
S31500003840C3ED0B7A90ED077A67EE877AC3ED0B7AB4
S31500003850D0ED086A87EEA67A4FF0000E0024012507
S3150000386083ED0B7A0F4E486803F1080203F1140C3E
S315000038705E6083F83850C3F818E0C3F81CE0C3F85C
S3150000388020E0C3F828E0C3F834E01C819C751C8650
S31500003890C18C22F8021F6245FAD1034A00201A6041
S315000038A070BD00BF000001014853544D2DE9F041A1
S315000038B01D4683689DF818C01E6E002E5FD1BCF1B0
S315000038C00F0F04460F46C0E90312C0E90566C5613D
S315000038D080F820C04CD8BCF1070F94BF4FF0000809
S315000038E04FF0010863685969C9B14FF0020CA56130
S315000038F05B69A8B259680968C881C8788A6068F3A4
S315000039000510C87088786CF383008870002A3AD056
S315000039109A6818685368984700282CD163681A6912
S315000039209AB1022065611A69ADB253681968CB78FD
S31500003930CD8168F3051360F383034F60CB704FB3FB
S31500003940936810685B689847A8B90121A26894F843
S315000039502000536923F4F81343EA00435361A36834
S315000039603046D966A26893680B439360BDE8F08140
S315000039704FF00208B6E706463046BDE8F081082655
S315000039803046BDE8F081C0B262F38300054A887014
S315000039908A60BDE7DBB267F38303CB70024B4B60F3
S315000039A0CEE700BFC03C0020BC3C002010B49DF810
S315000039B0044001945DF8044BFFF778BF30B5836A85
S315000039C085B004468C4601ADABB193E8070085E8A7
S315000039D0070062681846127883F804C01A60E26A23
S315000039E09A60636A9847A36A1BB195E8070083E863
S315000039F0070005B030BD2B46EBE700BF2DE9F047C9
S31500003A000B78D1F8108003F5800303F58D530D462E
S31500003A1004461F02B8F1000F13D04FF00062D8F829
S31500003A2004301B681A60D8F804301B689F60D8F809
S31500003A300830D8E900011B6898470646002840F080
S31500003A401A816B6983B14FF400215A6812681160BC
S31500003A505A68126857609A68D3E90001126890475D
S31500003A600646002840F00A8100236560A9698C4A51
S31500003A706162E969C4E90A312B7803F5800303F52D
S31500003A808D531B02A3606E7A697B002E18BF4FF41C
S31500003A904412EF7A2B6AA87A090341EA47010143E7
S31500003AA0D87942EAC0721878002840F0F380B6FA56
S31500003AB086F0400941EAC011587808B942F400324C
S31500003AC09D7842EA0070DA781F7A954045EA072A1F
S31500003AD01F7912062FB1022F0CBF4FF440174FF477
S31500003AE0001793F805C0BCF1000F06D0BCF1010F1A
S31500003AF014BF40F4807040F4407093F809C00CF095
S31500003B00030C42EA8C020A4393F806C0002E40F0EA
S31500003B10C4801E7BD97A36049B7A46EA012642F493
S31500003B2060421E43EFF31088012181F31088636819
S31500003B30DFF884E11B78DEF80490C3F1130301FA81
S31500003B4003F329EA0303CEF80430DEF8043088F3E1
S31500003B501088544BA568AB66A368534DC3F810A0F4
S31500003B60A3685E60A368DF60A3685A61A36820F05B
S31500003B708042C3F840C0A3689A60A3689A689860B8
S31500003B8063684A489E7993F902303601484AEF182D
S31500003B90F6B287F8006340F8234003F1C00652F8F6
S31500003BA0267027F4803742F8267052F82660BFF355
S31500003BB05F8F5E09B60003F01F0306F1604601FA47
S31500003BC003F306F56146C6F88031336063685E79B3
S31500003BD093F901303601EF18F6B287F8006340F822
S31500003BE0234003F1C00652F8267027F4803742F8C6
S31500003BF0267052F82660BFF35F8F5E09B60003F0A9
S31500003C001F0306F1604601FA03F306F56146C6F89E
S31500003C10803133606668337A96F904601B01AF1908
S31500003C20DBB287F8003340F8264006F1C00352F8AD
S31500003C30237027F4803742F8237052F82330BFF3FD
S31500003C405F8F73099B0006F01F0603F16043B140C6
S31500003C5003F56143C3F8801119600026636893F980
S31500003C600320DB7915441B01DBB285F80033114BC9
S31500003C7040F8224023603046BDE8F087B8F1000FD7
S31500003C80F9D0D8F80830D8F800001B6A98473046B3
S31500003C90BDE8F08742F080720EE7002642E700BFDB
S31500003CA000103140000080FD00E100E00C3D0020E6
S31500003CB0006000404950535200400840EFF3038330
S31500003CC0103B1F4A5BB203F1C00152F8210020F4F9
S31500003CD0803042F8210052F821201A4A52F8233047
S31500003CE0D3E906218A421CD01869996828B393F84B
S31500003CF020C00968BCF10F0F0FD8BCF1070F8CBFAD
S31500003D0020F81210815499684FF000408866D969EE
S31500003D10013291429A6104D0704740F822109968A6
S31500003D20F2E75B6893F90330012203F01F000649AE
S31500003D305B09824041F8232070470868E4E700BF2A
S31500003D40006000400C3D002000E100E030B4EFF3DD
S31500003D500383103B31495BB203F1C00251F82200E4
S31500003D6020F4803041F8220051F822202C4A52F8E3
S31500003D7023305D68DC692A6A50785A6901281CD0AC
S31500003D80A2420FD0D3E90201A9B193F820400F2C2B
S31500003D900AD951F8221001604FF00050996801329B
S31500003DA088665A6130BC7047072C03D931F8121067
S31500003DB00160F1E7895C0160EEE704F1FF3C6245D2
S31500003DC00ED029690029DBD095F90320154902F0A8
S31500003DD01F04A040520941F822005A69DC69CFE766
S31500003DE095F9034004F1C00251F8225025F48035BC
S31500003DF041F8225051F82220BFF35F8F62099200EA
S31500003E0004F01F0402F1604200FA04F402F5614274
S31500003E10C2F8804114605A69DC69B1E7006000406D
S31500003E200C3D002000E100E030B4EFF30382103ACD
S31500003E302E4953B203F1C00051F8204002F0FF02B0
S31500003E4024F4803441F8204051F82010284951F8D4
S31500003E5023008168096D890105D54168497A0129E0
S31500003E6001D030BC70470121224C5B0902F01F02D1
S31500003E70203301FA02F244F82320BFF34F8FBFF339
S31500003E806F8F436893F902305A0903F01F0301FA52
S31500003E9003F3203244F82230BFF34F8FBFF36F8F06
S31500003EA08468124BA26822F00102A260426892F96D
S31500003EB0022002F1C00453F8245025F4803543F85B
S31500003EC0245053F82430BFF35F8F53099B0002F050
S31500003ED01F0203F1604301FA02F203F56143C3F8DE
S31500003EE080211A6030BCFFF769BD00BF006000404A
S31500003EF00C3D002000E100E070B5EFF30383324A89
S31500003F00103B5CB252F82460012273682F4893F983
S31500003F100230590903F01F03203102FA03F340F877
S31500003F202130BFF34F8FBFF36F8FB1688B6823F0DB
S31500003F3001038B607368264993F9023003F1C000D0
S31500003F4051F8205025F4803541F8205051F82010C2
S31500003F50BFF35F8F03F01F015B099B0003F1604312
S31500003F608A4003F56143C3F880211A60B368194A91
S31500003F701D6D9A662A0112D4EB0116D405F0A055E0
S31500003F80B5F1A05F1AD0124A04F1C00352F823100B
S31500003F9021F4803142F8231052F8233070BD0521F8
S31500003FA03046FFF70BFDEB01E8D50421304605F05E
S31500003FB0A055FFF703FDB5F1A05FE4D10821304617
S31500003FC0FFF7FCFCDFE700BF0C3D002000E100E04E
S31500003FD000600040000080FD844610B4006A8368DB
S31500003FE023F440138360DCF82040A36C5800FCD512
S31500003FF0A36823F01003A360DCF82040237FC3F3FB
S315000040000010DB06FAD4CCE90312A36843F01013C0
S31500004010A3605DF8044B7047F0B5846A85B0054629
S315000040200F4694466E46B4B194E80F0086E80F003A
S31500004030EB6920461B78A760236084F804C0EB6A0E
S31500004040E3606B6A9847AC6A1CB196E80F0084E897
S315000040500F0005B0F0BD3446EAE700BF3C4B4168AF
S31500004060994272D170B4016A02468B6823F44013F8
S315000040708B60016A8B6823F010038B60006A037FF4
S31500004080C3F30011DB06FAD40120D369314C93F94E
S3150000409007304FEA531C03F01F030CF1200C00FA03
S315000040A003F344F82C30BFF34F8FBFF36F8FD36900
S315000040B093F909304FEA531C03F01F0300FA03F388
S315000040C00CF1200C44F82C30BFF34F8FBFF36F8FE9
S315000040D0156AAB6823F48033AB60D36993F9053076
S315000040E04FEA531C03F01F0300FA03F30CF1200CF4
S315000040F044F82C30BFF34F8FBFF36F8FD36993F91A
S315000041000B304FEA531C03F01F0300FA03F30CF1C4
S31500004110200C44F82C30BFF34F8FBFF36F8FEFF3B3
S31500004120108480F310884FF00043D6690A4896F849
S3150000413000C0456823FA0CF32B434360436884F3BD
S3150000414010885160084670BC70470720704700BF52
S315000041504249435300E100E0004008402DE9F043A6
S3150000416000264FF0010C0A78067002F5800202F56F
S315000041708C521202C0E907124A69034642628A69F2
S31500004180D04DC0E90A628278CC696CF30102827074
S315000041904A78B24214BF604602209A7860F3010260
S315000041A09A7091F90B0091F80AE0420900F01F0796
S315000041B020320CFA07F745F82270BFF34F8FBFF392
S315000041C06F8FC14A00F1C00752F8278066F3104886
S315000041D042F8278052F82770BC4F4FEA0E1E05EBB7
S315000041E000085FFA8EFE88F800E347F8203091F960
S315000041F0050091F804E04FEA501800F01F0908F195
S3150000420020080CFA09F945F82890BFF34F8FBFF341
S315000042106F8F00F1C00852F8289066F3104942F8F3
S31500004220289052F828804FEA0E1E05EB00085FFA28
S315000042308EFE88F800E347F8203091F9070091F8E0
S3150000424006E04FEA501800F01F0908F120080CFAA2
S3150000425009F945F82890BFF34F8FBFF36F8F00F130
S31500004260C00852F8289066F3104942F8289052F890
S3150000427028804FEA0E1E05EB00085FFA8EFE88F8CE
S3150000428000E347F8203091F9090091F808E04FEA79
S31500004290501800F01F0908F120080CFA09F945F832
S315000042A02890BFF34F8FBFF36F8F00F1C00852F80D
S315000042B0289066F3104942F8289052F828204FEAD1
S315000042C00E12D2B2054485F8002347F82030EFF3EA
S315000042D010868CF310884FF0004508787C4AC5405C
S315000042E0506820EA05005060526886F310884FF443
S315000042F080601A6A90604A78CD78C8691202AD0368
S3150000430005F4804502F440722A43057846682D0676
S3150000431005F040752A434578ED03ADB22A43457B47
S315000043206D0505F400152A431D6A42F480526A6140
S315000043300578AA1E624540F2BE8032681D6A2A616F
S31500004340057B8A7805F0030545F0300532B1022A6F
S3150000435014BF4FF440724FF4807215434FF0000CB7
S31500004360012640F21F278278120702F080522A4364
S315000043701D6AEA601A6AC2F818C00A7806FA02F2DA
S315000043803A4202D01A6A53495162827BC57B017C4C
S3150000439002F0010205F01F0042EA002200201D6A19
S315000043A001F01F0142EA01422A63C3E90300C3E99F
S315000043B00500196A6489484D1C818D66D969424A8F
S315000043C091F9051001F1C00452F8245060F310452C
S315000043D042F8245052F82440BFF35F8F012501F0C4
S315000043E01F044909890001F1604101F5614105FA9F
S315000043F004F4C1F880410C60D96991F90B4004F1CD
S31500004400C00152F8216060F3104642F8216052F86C
S315000044102110BFF35F8F6109890004F01F0401F1C9
S31500004420604105FA04F401F56141C1F880410C6070
S31500004430D96991F9074004F1C00152F8216060F38F
S31500004440104642F8216052F82110BFF35F8F6109D0
S31500004450890004F01F0401F1604105FA04F401F536
S315000044606141C1F880410C60D96991F9091001F1E7
S31500004470C00452F8246060F3104642F8246052F8F3
S315000044802420BFF35F8F4A09920001F01F0102F159
S3150000449060428D4002F56142C2F8805115600F49B5
S315000044A01A6A9160196A0A7FD207FCD50C4A002065
S315000044B05A60BDE8F0830B4A0B4E022D18BF3246F8
S315000044C03CE700BF00E100E0006000400C3D00203A
S315000044D00040084000001F1F1000079D1104010046
S315000044E04249435324FF00FF04FF00FFEFF3038319
S315000044F0103B204A5BB203F1C00152F8210020F4C0
S31500004500803042F8210052F821201B4A52F823003D
S31500004510C3691B6983B1036903B17047026A00214D
S31500004520936823F4801343F400139360436AC160D5
S31500004530C3B18022FFF770BD0369026A002BEED07B
S315000045408378C16803F00303022B0CD00B78137138
S315000045508278D0E9031302F003029B1A1144C0E9E2
S315000045600313D9E770470B8823F4DC439BB25360EF
S31500004570EEE700BF006000400C3D002010B582B0A1
S31500004580EFF30383103B1F4A5BB203F1C00152F8FD
S31500004590210020F4803042F8210052F821201A4AE6
S315000045A052F82340A27802F00303022B236A0CBFC1
S315000045B019681978A3690CBFC1F30801C9B2019142
S315000045C043B9636AB3B10422204602B0BDE8104085
S315000045D0FFF722BD02F0030201A9606902F0C8FDDF
S315000045E0D4E90521A37803F003031A44C91AC4E9E0
S315000045F0052109B102B010BD636A002BFAD0012271
S31500004600E2E700BF006000400C3D002010B5EFF36C
S3150000461003830F4A103B5CB252F82400026A936887
S3150000462023F4401323F010039360436A1BB1022264
S315000046300021FFF7F1FC074A04F1C00352F82310EA
S3150000464021F4803142F8231052F8233010BD00BF08
S315000046500C3D00200060004038B5EFF303831D4A8F
S31500004660103B5CB252F824008378056A03F003031A
S31500004670022B0CBF29682978AA6C08BFC1F3080170
S31500004680C2F30073C2F3006C4FEA031343EA4C1300
S31500004690C2F3C06243EAC20C18BFC9B2DB06624667
S315000046A004D5AB6C1B0458BF4CF04002AB6E43F014
S315000046B0C853AB66436A0BB1FFF7AEFC064A04F17A
S315000046C0C00352F8231021F4803142F8231052F827
S315000046D0233038BD0C3D00200060004010B40B0AAA
S315000046E0064C1B0153FA81F154F821300020C3F324
S315000046F040035DF8044B1370704700BF00F801409B
S315000047000120CBB2984080B202B900040B0A5B01CB
S3150000471003F1804303F5F83398600020704700BF2B
S31500004720F0B5EFF31082012383F31088224E33682D
S315000047301BB922490B7340230B7333680133336073
S3150000474082F31088038823B300211D4D08E01B0166
S31500004750134445F82340028801318BB29A4218D996
S31500004760436853F8314003EBC1029288E7034FEAEE
S315000047701223D2B2EBD502EB031C55F82CE024F43D
S3150000478080372EF4803E45F82CE01B0145F82C704E
S31500004790DEE7EFF31082012383F31088336813B149
S315000047A03368013B336033681BB9802003490B73C0
S315000047B0087382F31088F0BD083D002000FD01401B
S315000047C000F8014008B5034B03600846FFF7A8FF51
S315000047D0002008BD54524F5030B4EFF3108401232B
S315000047E083F310881D4B186828B94FF0400C1C4DF8
S315000047F0287385F80CC018680130186084F3108897
S31500004800D4034FEA1120C9B219D40001154C08444B
S3150000481044F82020EFF31082012181F310881968F3
S3150000482011B11968013919601B681BB980200C4940
S315000048300B73087382F31088002030BC7047094C54
S3150000484001EB001C54F82C50000125F4803544F887
S315000048502C5022F4803544F82C50D7E7083D002030
S3150000486000FD014000F8014003465A681B6900201C
S3150000487053607047034610B4043900F10C0C53F82A
S31500004880044F51F8042F62651C68A265027D022A56
S315000048900BD08269526852681278062A05D06345A1
S315000048A0EDD100205DF8044B70471C68CA68E265CC
S315000048B01C682266F3E700BF2DE9F04106460D4667
S315000048C007460C4601F10C0854F8043FD3E90001F1
S315000048D000F0CAF923681B689B6847F8043F2A78EA
S315000048E0022A03D11A6C42F420221A644445EBD101
S315000048F06A69044B32612A78B561327533600020EB
S31500004900BDE8F0813354504703460020D3E9022323
S315000049109360704703460020D3E902235360704733
S3150000492003460020D3E90223D3607047034670B4E0
S315000049305A689E68D2690020D2E9011444F0004505
S31500004940D46875619D6844F00044AC619C6841F090
S3150000495000412161146999684C629B6852699A62A8
S3150000496070BC704703464FF00041002210B49C68AB
S31500004970104621619C6861619C68A16199684A62E0
S315000049809B689A625DF8044B704700BF43681B78CA
S31500004990032B88BF0A46836898BF01F1FF329A66E7
S315000049A043681B782BB983684908013959658368C0
S315000049B099658368D96AC90707D44FF4AA015A666C
S315000049C083681964D0E90232DA600020704700BFBC
S315000049D003469B681232013903EB820300205960BB
S315000049E0704700BF03469A680020D26AC2F30002ED
S315000049F00A719B689B6C0B60704700BF8446002061
S31500004A00CCE90632CCF81410704700BF70B5836944
S31500004A1084B004468C46164601AD9BB193E8070068
S31500004A2085E8070083F804C09E60E26918461A60AC
S31500004A3063699847A3691BB195E8070083E80700F7
S31500004A4004B070BD2B46EDE7D0E9012312785B6E0A
S31500004A50032A98BF01338B6080680B4A0B4BC06AF0
S31500004A60126A1B68C2F3026C03FA0CF34FF0010CD6
S31500004A7002F00702C0F3C350D340C3404B6000208E
S31500004A8081F800C0704700BF00E001404C3D0020A7
S31500004A9010B490F800C0886EBCF1030F1ED8013028
S31500004AA0AAB9019C496BE40754BF01F01F01C1F389
S31500004AB0044101F00C01A1F10401B1FA81F14909A7
S31500004AC0E2B921BB02225DF8044B5A60704790425E
S31500004AD0E7D9013A5DF8044B1A6070470AB1904273
S31500004AE0F8D8019C496BE40754BF01F01F01C1F3DC
S31500004AF00441090981F00101002AE2D0824201D372
S31500004B000029DFD103225DF8044B5A607047002864
S31500004B10D8D0F7E7FFFFFFFF9FED397B2DE9F04384
S31500004B2085B00092866802AB074688461446406800
S31500004B3002F003090A4631468DED027BFFF7A8FF16
S31500004B40039B356B93B914F0080F14BF042202229D
S31500004B50A107029820D502F1120106EB81014860F7
S31500004B60B968133201EB82014860BE6862061BD544
S31500004B70326CB9F1010F42F48002326427D025F479
S31500004B804035BE6845EA0345B9F1000F16D100204D
S31500004B90356305B0BDE8F0834A44123206EB820263
S31500004BA050606206BE68E3D4B9F1010F23D025F444
S31500004BB04035022C45EA0345E6D173B925F0407528
S31500004BC045EA03650020356305B0BDE8F08325F0AE
S31500004BD04075BE6845EA0365F4E70121786802ABD3
S31500004BE0009142463146FFF753FF039B25F040757F
S31500004BF045EA0365E6E7022CE0D1DEE7AFF3008085
S31500004C00FFFFFFFF00000000002800DA704710B425
S31500004C1000F160430901124CC9B203F5614383F800
S31500004C200013104B44F8202000F1C00253F8221064
S31500004C3021F4803143F8221053F82230BFF35F8FFE
S31500004C40012243099B0000F01F0003F1604303F5B6
S31500004C5061438240C3F880211A605DF8044B7047B7
S31500004C600C3D0020006000402DE9F04301270B7C3D
S31500004C70002607FA03F3C360C3F30903B3FA83F309
S31500004C805B09416003740B7CA94ADFF8B4C21A447D
S31500004C90120282604B690D4643618B690446C0E986
S31500004CA0066385B0CE69CCF8007BEFF3108187F3FD
S31500004CB01088A04B1A6922F000421A611B6981F321
S31500004CC01088C3681B070CD0EFF3108187F3108898
S31500004CD0994AC06853889BB223EA0003538081F344
S31500004CE010884FF425410023A2681160A268D362A0
S31500004CF0A268D363A268936429782B7A6A68032929
S31500004D004FEAC35302F1FF3000F04A8184BF1046D8
S31500004D1043EA01434FF000420021A7689FED827BE2
S31500004D20FB62A3688DED027B1A61A3685A61A368D2
S31500004D309A61A3685962A3689962A368B269DA6145
S31500004D40A368F2691A62A3689866A36858662B7806
S31500004D50D6F83880002B40F00F8101234FF0030C6A
S31500004D606A68A7685208013A02927A65A1688A655C
S31500004D702978032903D9A168CA65A1680A66B26BB6
S31500004D80BAB932788AB12F787278022F4FEA821038
S31500004D904FEA021100F00C8140F21381032248EA27
S31500004DA0020202430A4342F48078B278002A40F0B5
S31500004DB0C9806268D26992F83010C80705D5916A31
S31500004DC0A0680139C16492F83010890703D5D26A08
S31500004DD0A168013A0A6501212A7C01FA02F2C2F3AE
S31500004DE00902002A42D00020A2685064776BD4F8EA
S31500004DF008E0002F00F0B580287CBA7897F8039079
S31500004E0001FA00F01206C0F3090042EA097200280E
S31500004E1036D0B868002800F0C680CEF888104FF06B
S31500004E20010EA168B868C1F88C00297C0EFA01F160
S31500004E30C1F30901B9B1A168F868C1F89000787E9C
S31500004E40397E000240EA8110B97E40EA0130A1684D
S31500004E504864A168386997F804E00867A16878692A
S31500004E6042EA0E42C867D4F808E009E0776BD4F846
S31500004E7008E0002F75D0FA78B978120742EA016285
S31500004E80CEF83820B26B7AB93A7FF97E520642EAFA
S31500004E90412248EA020896F8212096F82010520787
S31500004EA042EA413248EA020896F83020002A14BF46
S31500004EB04FF4A0014FF4AA01A26811642A78012ACE
S31500004EC004D10021A268D164A2681165A268C2F863
S31500004ED03480A268C2F830C0A2681363D4E90232F3
S31500004EE0DA60697C224695F91200FFF78DFE2246AC
S31500004EF096F8221096F92400FFF786FE224696F8C9
S31500004F00231096F92500FFF77FFE2FB12246397848
S31500004F1097F90100FFF778FE0020084B236005B0E3
S31500004F20BDE8F083AFF30080FFFFFFFF0000000045
S31500004F30901640000040084000A01640545047001C
S31500004F4000901640F17828780A01022842EA811278
S31500004F5030D03BD903210A4348EA024242F0807826
S31500004F6027E70027CEF83870A268C2F88870B26BBF
S31500004F70002A99D117468EE7012BA7681CD000910D
S31500004F80EA68394602AB6068FFF782FDDDE9022177
S31500004F900B0643EA014343F0030C43F00103E4E646
S31500004FA043F48033B6E6F968003918BF012134E7C7
S31500004FB00922F4E60921CEE74FF0030C4FF0FF3249
S31500004FC0D3E6002A0CBF06220922E8E600290CBF18
S31500004FD006210921BFE700BF30B44268034692F9B3
S31500004FE01210D269002910DB012401F01F05AC4024
S31500004FF048092B4D203045F82040BFF34F8FBFF3B3
S315000050006F8F0024274840F8214092F92410002988
S3150000501010DB012401F01F05AC404809204D20306B
S3150000502045F82040BFF34F8FBFF36F8F00241D4814
S3150000503040F8214092F92510002910DB012401F0E7
S315000050401F05AC404809164D203045F82040BFF3F7
S315000050504F8FBFF36F8F0024124840F82140526BE8
S31500005060A2B192F90120002A10DB01200C4C510953
S3150000507002F01F052031A84044F82100BFF34F8FEE
S31500005080BFF36F8F0020074941F822000020D3E9C3
S315000050900221186091609B68586330BC704700BF5E
S315000050A000E100E00C3D002082680129536B02D02C
S315000050B043F4807309B143F0807300205363704753
S315000050C0F0B5EFF30382103A214C51B201F1C00C56
S315000050D054F82C3023F4803344F82C308B0003F141
S315000050E0804303F5C043D3F800031A4850F8210063
S315000050F0456895F800E0BEF1010F08D043692BB171
S31500005100BDE8F04000221146FFF780BCF0BD002547
S31500005110D0E90267B760866802F0FF02B564866868
S31500005120F5648668356554F82C6065F3104644F8D6
S315000051302C60D3F80033BFF35F8F074C4B0902F0A6
S315000051401F020EFA02F2603344F82320D6E700BFAE
S31500005150006000400C3D002000E100E0844630B4D1
S3150000516082B0019100921D4990F904201C4D51F81E
S315000051702200C03255F822101A4C21F0807145F8F1
S3150000518022109CF9041041F40041E28992B2914246
S31500005190FBD008222274019A0AB1019A4260009A51
S315000051A00AB1009A8260C27802F0C001802913D049
S315000051B03F2A98BFC381182200200A4B08491A7457
S315000051C09CF90430C03351F8232042F0807241F834
S315000051D0232002B030BC70478381ECE7000000203A
S315000051E000600040005400400620704706207047CB
S315000051F0034693F904300549C03351F823200020B3
S3150000520042F0807241F82320704700BF00600040E2
S31500005210034693F904300549C03351F82320002092
S3150000522022F0807241F82320704700BF00600040E2
S31500005230002290F90400124B53F82030C1E90022F5
S31500005240DA783F2A0CD94FF480728A60DA89D2B2B2
S31500005250CA60DA7802F0C002802A09D000207047BE
S315000052604FF480328A60DB8900209BB2CB607047A6
S315000052704FF480320A609B8900209BB24B607047D6
S3150000528000000020062070470620704703460022D3
S3150000529030B593F904C0074C0CF1C00E54F82E102B
S315000052A0054D21F0807144F82E1045F82C201A6027
S315000052B0104630BD006000400000002030B5864634
S315000052C090F904301C4DC03355F823201B4C22F0B6
S315000052D0807245F8232090F9042042F40042E389C5
S315000052E09BB29A42FBD00B46DA789C463F2A05D9F8
S315000052F0DA89D2B202EB022292B2DA819CF802205B
S3150000530010333F2AF0D84FF0080C18220B4B0C4DE7
S3150000531083F810C09EF904C0074C45F82C101A7487
S315000053209EF904300020C03354F8232042F08072E6
S3150000533044F8232030BD00BF006000400054004008
S3150000534000000020F8B5274A044613780D4643B3FB
S315000053506B6893F90030002B3FDB234850F823207D
S31500005360002A3CD123712D68BDB12B46DA78194647
S315000053703F2A05D9DA89D2B202EB022292B2DA8149
S315000053808A7810333F2AF1D808211822174B19744E
S3150000539094F9041040F821501A74154B002023602C
S315000053A0F8BD01261670EFF3108086F31088114AB7
S315000053B0116821F480011160126880F310880A4F89
S315000053C019463422384601F087FE084B5F611E738A
S315000053D06B6893F90030002BBFDA0B20F8BD08206C
S315000053E0F8BD00BFC43C002000000020005400406F
S315000053F00043544400400840844610B40A4ADCF88E
S315000054000430D2F8084C0B402343C2F8083CDCF8C1
S315000054100840D2F8103C21401943C2F8101C002065
S315000054205DF8044B704700BF00001740084BD3F8E7
S31500005430802C0378013B032B05D9131E18BF0123CB
S3150000544000200B707047022300200B70704700BFCE
S315000054500000174003461A78052A17D8DFE802F03D
S315000054602A2E1D1803034FF0050C1A6919495069B5
S3150000547090F8902002F00702C1F8802290F8902060
S31500005480C2F30212C1F88C2283F800C000207047D4
S3150000549002224FF440701A70704704210D4A1970A9
S315000054A0D2F88C124907D6D007234FF48060C2F891
S315000054B08C327047012203201A7070470321054A77
S315000054C01970D2F880124807C5D007230420C2F805
S315000054D080327047000017400023F0B50161CA68AA
S315000054E0044642610A690370C0E906324969EFF36E
S315000054F01080012383F310886C4BDA6822F4803223
S31500005500DA60DA6880F310880A7F02F00302012A63
